{"contracts/orbyc/Chain.sol":{"OrbycChain":{"abi":[{"inputs":[{"internalType":"string","name":"name_","type":"string"},{"internalType":"string","name":"symbol_","type":"string"},{"internalType":"contract IAccountControl","name":"accounts_","type":"address"}],"stateMutability":"nonpayable","type":"constructor"},{"anonymous":false,"inputs":[{"indexed":true,"internalType":"address","name":"owner","type":"address"},{"indexed":true,"internalType":"address","name":"approved","type":"address"},{"indexed":true,"internalType":"uint256","name":"tokenId","type":"uint256"}],"name":"Approval","type":"event"},{"anonymous":false,"inputs":[{"indexed":true,"internalType":"address","name":"owner","type":"address"},{"indexed":true,"internalType":"address","name":"operator","type":"address"},{"indexed":false,"internalType":"bool","name":"approved","type":"bool"}],"name":"ApprovalForAll","type":"event"},{"anonymous":false,"inputs":[{"indexed":true,"internalType":"uint64","name":"role","type":"uint64"},{"indexed":true,"internalType":"uint64","name":"previousAdminRole","type":"uint64"},{"indexed":true,"internalType":"uint64","name":"newAdminRole","type":"uint64"}],"name":"RoleAdminChanged","type":"event"},{"anonymous":false,"inputs":[{"indexed":true,"internalType":"uint64","name":"role","type":"uint64"},{"indexed":true,"internalType":"address","name":"account","type":"address"},{"indexed":true,"internalType":"address","name":"sender","type":"address"}],"name":"RoleGranted","type":"event"},{"anonymous":false,"inputs":[{"indexed":true,"internalType":"uint64","name":"role","type":"uint64"},{"indexed":true,"internalType":"address","name":"account","type":"address"},{"indexed":true,"internalType":"address","name":"sender","type":"address"}],"name":"RoleRevoked","type":"event"},{"anonymous":false,"inputs":[{"indexed":true,"internalType":"address","name":"from","type":"address"},{"indexed":true,"internalType":"address","name":"to","type":"address"},{"indexed":true,"internalType":"uint256","name":"tokenId","type":"uint256"}],"name":"Transfer","type":"event"},{"inputs":[],"name":"ASSET_ISSUER_ROLE","outputs":[{"internalType":"uint64","name":"","type":"uint64"}],"stateMutability":"view","type":"function"},{"inputs":[],"name":"COMPOSITION_ISSUER_ROLE","outputs":[{"internalType":"uint64","name":"","type":"uint64"}],"stateMutability":"view","type":"function"},{"inputs":[],"name":"DEFAULT_ADMIN_ROLE","outputs":[{"internalType":"uint64","name":"","type":"uint64"}],"stateMutability":"view","type":"function"},{"inputs":[],"name":"TRACEABILITY_ISSUER_ROLE","outputs":[{"internalType":"uint64","name":"","type":"uint64"}],"stateMutability":"view","type":"function"},{"inputs":[{"internalType":"uint256","name":"tokenId","type":"uint256"},{"components":[{"internalType":"uint256","name":"tokenId","type":"uint256"},{"internalType":"string","name":"metadata","type":"string"}],"internalType":"struct ERC721Compound.Component[]","name":"components","type":"tuple[]"}],"name":"appendComponents","outputs":[],"stateMutability":"nonpayable","type":"function"},{"inputs":[{"internalType":"uint256","name":"tokenId","type":"uint256"},{"components":[{"internalType":"string","name":"metadata","type":"string"}],"internalType":"struct ERC721Traceable.Trace[]","name":"traces","type":"tuple[]"}],"name":"appendTraces","outputs":[],"stateMutability":"nonpayable","type":"function"},{"inputs":[{"internalType":"address","name":"to","type":"address"},{"internalType":"uint256","name":"tokenId","type":"uint256"}],"name":"approve","outputs":[],"stateMutability":"nonpayable","type":"function"},{"inputs":[{"internalType":"address","name":"owner","type":"address"}],"name":"balanceOf","outputs":[{"internalType":"uint256","name":"","type":"uint256"}],"stateMutability":"view","type":"function"},{"inputs":[{"internalType":"bytes","name":"execution","type":"bytes"},{"internalType":"uint256","name":"deadline","type":"uint256"},{"internalType":"bytes[]","name":"signatures","type":"bytes[]"}],"name":"execute","outputs":[{"internalType":"bytes","name":"","type":"bytes"}],"stateMutability":"nonpayable","type":"function"},{"inputs":[{"internalType":"uint256","name":"tokenId","type":"uint256"}],"name":"getApproved","outputs":[{"internalType":"address","name":"","type":"address"}],"stateMutability":"view","type":"function"},{"inputs":[{"internalType":"uint256","name":"tokenId","type":"uint256"}],"name":"getComposition","outputs":[{"components":[{"internalType":"uint256","name":"tokenId","type":"uint256"},{"internalType":"string","name":"metadata","type":"string"}],"internalType":"struct ERC721Compound.Component[]","name":"","type":"tuple[]"}],"stateMutability":"view","type":"function"},{"inputs":[{"internalType":"uint256","name":"tokenId","type":"uint256"}],"name":"getMetadata","outputs":[{"internalType":"string","name":"","type":"string"}],"stateMutability":"view","type":"function"},{"inputs":[{"internalType":"uint64","name":"role","type":"uint64"}],"name":"getRoleAdmin","outputs":[{"internalType":"uint64","name":"","type":"uint64"}],"stateMutability":"view","type":"function"},{"inputs":[{"internalType":"uint256","name":"tokenId","type":"uint256"}],"name":"getTraceability","outputs":[{"components":[{"internalType":"string","name":"metadata","type":"string"}],"internalType":"struct ERC721Traceable.Trace[]","name":"","type":"tuple[]"}],"stateMutability":"view","type":"function"},{"inputs":[{"internalType":"uint64","name":"role","type":"uint64"},{"internalType":"address","name":"account","type":"address"}],"name":"grantRole","outputs":[],"stateMutability":"nonpayable","type":"function"},{"inputs":[{"internalType":"uint64","name":"role","type":"uint64"},{"internalType":"address","name":"account","type":"address"}],"name":"hasRole","outputs":[{"internalType":"bool","name":"","type":"bool"}],"stateMutability":"view","type":"function"},{"inputs":[{"internalType":"address","name":"owner","type":"address"},{"internalType":"address","name":"operator","type":"address"}],"name":"isApprovedForAll","outputs":[{"internalType":"bool","name":"","type":"bool"}],"stateMutability":"view","type":"function"},{"inputs":[{"internalType":"uint256","name":"tokenId","type":"uint256"},{"internalType":"string","name":"data","type":"string"}],"name":"mint","outputs":[],"stateMutability":"nonpayable","type":"function"},{"inputs":[],"name":"name","outputs":[{"internalType":"string","name":"","type":"string"}],"stateMutability":"view","type":"function"},{"inputs":[{"internalType":"address","name":"sender","type":"address"}],"name":"nonces","outputs":[{"internalType":"uint256","name":"","type":"uint256"}],"stateMutability":"view","type":"function"},{"inputs":[{"internalType":"uint256","name":"tokenId","type":"uint256"}],"name":"ownerOf","outputs":[{"internalType":"address","name":"","type":"address"}],"stateMutability":"view","type":"function"},{"inputs":[{"internalType":"uint64","name":"role","type":"uint64"},{"internalType":"address","name":"account","type":"address"}],"name":"renounceRole","outputs":[],"stateMutability":"nonpayable","type":"function"},{"inputs":[{"internalType":"uint256","name":"tokenId","type":"uint256"}],"name":"resetComposition","outputs":[],"stateMutability":"nonpayable","type":"function"},{"inputs":[{"internalType":"uint256","name":"tokenId","type":"uint256"}],"name":"resetTraceability","outputs":[],"stateMutability":"nonpayable","type":"function"},{"inputs":[{"internalType":"uint64","name":"role","type":"uint64"},{"internalType":"address","name":"account","type":"address"}],"name":"revokeRole","outputs":[],"stateMutability":"nonpayable","type":"function"},{"inputs":[{"internalType":"uint256","name":"_tokenId","type":"uint256"},{"internalType":"uint256","name":"_salePrice","type":"uint256"}],"name":"royaltyInfo","outputs":[{"internalType":"address","name":"","type":"address"},{"internalType":"uint256","name":"","type":"uint256"}],"stateMutability":"view","type":"function"},{"inputs":[{"internalType":"address","name":"from","type":"address"},{"internalType":"address","name":"to","type":"address"},{"internalType":"uint256","name":"tokenId","type":"uint256"}],"name":"safeTransferFrom","outputs":[],"stateMutability":"nonpayable","type":"function"},{"inputs":[{"internalType":"address","name":"from","type":"address"},{"internalType":"address","name":"to","type":"address"},{"internalType":"uint256","name":"tokenId","type":"uint256"},{"internalType":"bytes","name":"data","type":"bytes"}],"name":"safeTransferFrom","outputs":[],"stateMutability":"nonpayable","type":"function"},{"inputs":[{"internalType":"address","name":"operator","type":"address"},{"internalType":"bool","name":"approved","type":"bool"}],"name":"setApprovalForAll","outputs":[],"stateMutability":"nonpayable","type":"function"},{"inputs":[{"internalType":"bytes4","name":"interfaceId","type":"bytes4"}],"name":"supportsInterface","outputs":[{"internalType":"bool","name":"","type":"bool"}],"stateMutability":"view","type":"function"},{"inputs":[],"name":"symbol","outputs":[{"internalType":"string","name":"","type":"string"}],"stateMutability":"view","type":"function"},{"inputs":[{"internalType":"uint256","name":"index","type":"uint256"}],"name":"tokenByIndex","outputs":[{"internalType":"uint256","name":"","type":"uint256"}],"stateMutability":"view","type":"function"},{"inputs":[{"internalType":"address","name":"owner","type":"address"},{"internalType":"uint256","name":"index","type":"uint256"}],"name":"tokenOfOwnerByIndex","outputs":[{"internalType":"uint256","name":"","type":"uint256"}],"stateMutability":"view","type":"function"},{"inputs":[{"internalType":"uint256","name":"tokenId","type":"uint256"}],"name":"tokenURI","outputs":[{"internalType":"string","name":"","type":"string"}],"stateMutability":"view","type":"function"},{"inputs":[],"name":"totalSupply","outputs":[{"internalType":"uint256","name":"","type":"uint256"}],"stateMutability":"view","type":"function"},{"inputs":[{"internalType":"address","name":"from","type":"address"},{"internalType":"address","name":"to","type":"address"},{"internalType":"uint256","name":"tokenId","type":"uint256"}],"name":"transferFrom","outputs":[],"stateMutability":"nonpayable","type":"function"}],"evm":{"bytecode":{"linkReferences":{},"object":"6101606040527fd4335c17694100386699225e8046bb34815f8092a80796ad9c2bc1f9cb2c99c4610140908152503480156200003a57600080fd5b506040516200779c3803806200779c833981810160405281019062000060919062000716565b828383826040518060400160405280600181526020017f310000000000000000000000000000000000000000000000000000000000000081525060008280519060200120905060008280519060200120905060007f8b73c3c69bb8fe3d512ecc4cf759cc79239f7b179b0ffacaa9a75d522b39400f90508260e081815250508161010081815250504660a08181525050620001038184846200021b60201b60201c565b608081815250503073ffffffffffffffffffffffffffffffffffffffff1660c08173ffffffffffffffffffffffffffffffffffffffff1681525050806101208181525050505050505081600290816200015d9190620009fb565b5080600390816200016f9190620009fb565b5050505080601460006101000a81548173ffffffffffffffffffffffffffffffffffffffff021916908373ffffffffffffffffffffffffffffffffffffffff160217905550620001c8600260016200025760201b60201c565b620001dc600460016200025760201b60201c565b620001f0600860016200025760201b60201c565b620002126001620002066200030b60201b60201c565b620003c760201b60201c565b50505062000bfc565b600083838346306040516020016200023895949392919062000b1f565b6040516020818303038152906040528051906020012090509392505050565b60006200026a83620004be60201b60201c565b9050816000808567ffffffffffffffff1667ffffffffffffffff16815260200190815260200160002060006101000a81548167ffffffffffffffff021916908367ffffffffffffffff1602179055508167ffffffffffffffff168167ffffffffffffffff168467ffffffffffffffff167fb3f64d01c9ffe8c7da50937e6617936aae17a6c8d8502cb470bdf50484ce491760405160405180910390a4505050565b6000601460009054906101000a900473ffffffffffffffffffffffffffffffffffffffff1673ffffffffffffffffffffffffffffffffffffffff16638086b8ba620003606200050260201b62001fe41760201c565b6040518263ffffffff1660e01b81526004016200037e919062000b7c565b602060405180830381865afa1580156200039c573d6000803e3d6000fd5b505050506040513d601f19601f82011682018060405250810190620003c2919062000bca565b905090565b81600160008373ffffffffffffffffffffffffffffffffffffffff1673ffffffffffffffffffffffffffffffffffffffff16815260200190815260200160002060008282829054906101000a900467ffffffffffffffff161792506101000a81548167ffffffffffffffff021916908367ffffffffffffffff160217905550620004566200030b60201b60201c565b73ffffffffffffffffffffffffffffffffffffffff168173ffffffffffffffffffffffffffffffffffffffff168367ffffffffffffffff167f2e633503bdbb177665559a9efb7b963d30f2042d94c73311e9c54f799584abd560405160405180910390a45050565b60008060008367ffffffffffffffff1667ffffffffffffffff16815260200190815260200160002060009054906101000a900467ffffffffffffffff169050919050565b600033905090565b6000604051905090565b600080fd5b600080fd5b600080fd5b600080fd5b6000601f19601f8301169050919050565b7f4e487b7100000000000000000000000000000000000000000000000000000000600052604160045260246000fd5b620005738262000528565b810181811067ffffffffffffffff8211171562000595576200059462000539565b5b80604052505050565b6000620005aa6200050a565b9050620005b8828262000568565b919050565b600067ffffffffffffffff821115620005db57620005da62000539565b5b620005e68262000528565b9050602081019050919050565b60005b8381101562000613578082015181840152602081019050620005f6565b60008484015250505050565b6000620006366200063084620005bd565b6200059e565b90508281526020810184848401111562000655576200065462000523565b5b62000662848285620005f3565b509392505050565b600082601f8301126200068257620006816200051e565b5b8151620006948482602086016200061f565b91505092915050565b600073ffffffffffffffffffffffffffffffffffffffff82169050919050565b6000620006ca826200069d565b9050919050565b6000620006de82620006bd565b9050919050565b620006f081620006d1565b8114620006fc57600080fd5b50565b6000815190506200071081620006e5565b92915050565b60008060006060848603121562000732576200073162000514565b5b600084015167ffffffffffffffff81111562000753576200075262000519565b5b62000761868287016200066a565b935050602084015167ffffffffffffffff81111562000785576200078462000519565b5b62000793868287016200066a565b9250506040620007a686828701620006ff565b9150509250925092565b600081519050919050565b7f4e487b7100000000000000000000000000000000000000000000000000000000600052602260045260246000fd5b600060028204905060018216806200080357607f821691505b602082108103620008195762000818620007bb565b5b50919050565b60008190508160005260206000209050919050565b60006020601f8301049050919050565b600082821b905092915050565b600060088302620008837fffffffffffffffffffffffffffffffffffffffffffffffffffffffffffffffff8262000844565b6200088f868362000844565b95508019841693508086168417925050509392505050565b6000819050919050565b6000819050919050565b6000620008dc620008d6620008d084620008a7565b620008b1565b620008a7565b9050919050565b6000819050919050565b620008f883620008bb565b620009106200090782620008e3565b84845462000851565b825550505050565b600090565b6200092762000918565b62000934818484620008ed565b505050565b5b818110156200095c57620009506000826200091d565b6001810190506200093a565b5050565b601f821115620009ab5762000975816200081f565b620009808462000834565b8101602085101562000990578190505b620009a86200099f8562000834565b83018262000939565b50505b505050565b600082821c905092915050565b6000620009d060001984600802620009b0565b1980831691505092915050565b6000620009eb8383620009bd565b9150826002028217905092915050565b62000a0682620007b0565b67ffffffffffffffff81111562000a225762000a2162000539565b5b62000a2e8254620007ea565b62000a3b82828562000960565b600060209050601f83116001811462000a73576000841562000a5e578287015190505b62000a6a8582620009dd565b86555062000ada565b601f19841662000a83866200081f565b60005b8281101562000aad5784890151825560018201915060208501945060208101905062000a86565b8683101562000acd578489015162000ac9601f891682620009bd565b8355505b6001600288020188555050505b505050505050565b6000819050919050565b62000af78162000ae2565b82525050565b62000b0881620008a7565b82525050565b62000b1981620006bd565b82525050565b600060a08201905062000b36600083018862000aec565b62000b45602083018762000aec565b62000b54604083018662000aec565b62000b63606083018562000afd565b62000b72608083018462000b0e565b9695505050505050565b600060208201905062000b93600083018462000b0e565b92915050565b62000ba481620006bd565b811462000bb057600080fd5b50565b60008151905062000bc48162000b99565b92915050565b60006020828403121562000be35762000be262000514565b5b600062000bf38482850162000bb3565b91505092915050565b60805160a05160c05160e051610100516101205161014051616b4562000c5760003960006110780152600061370601526000613748015260006137270152600061365c015260006136b2015260006136db0152616b456000f3fe608060405234801561001057600080fd5b506004361061021c5760003560e01c806377097fc811610125578063b7d2b162116100ad578063d1f856ee1161007c578063d1f856ee146106a8578063d86d6952146106d8578063d8f9ce24146106f6578063e985e9c514610714578063fe0776f5146107445761021c565b8063b7d2b16214610610578063b88d4fde1461062c578063bca841b114610648578063c87b56dd146106785761021c565b8063a217fddf116100f4578063a217fddf1461056c578063a22cb4651461058a578063a41144cb146105a6578063a574cea4146105c4578063b428b0b0146105f45761021c565b806377097fc8146104e65780637ecebe001461050257806395d89b41146105325780639c23cbff146105505761021c565b80632f745c59116101a8578063530dd45611610177578063530dd4561461040a578063547cb6771461043a5780636352211e1461046a57806370a082311461049a57806372dc0db9146104ca5761021c565b80632f745c591461035e57806336ed68281461038e57806342842e0e146103be5780634f6ccce7146103da5761021c565b80630b6c1368116101ef5780630b6c1368146102bb5780630c328f34146102d757806318160ddd146102f357806323b872dd146103115780632a55205a1461032d5761021c565b806301ffc9a71461022157806306fdde0314610251578063081812fc1461026f578063095ea7b31461029f575b600080fd5b61023b600480360381019061023691906144f0565b610760565b6040516102489190614538565b60405180910390f35b6102596107a2565b60405161026691906145e3565b60405180910390f35b6102896004803603810190610284919061463b565b610834565b60405161029691906146a9565b60405180910390f35b6102b960048036038101906102b491906146f0565b61087a565b005b6102d560048036038101906102d091906149ad565b610991565b005b6102f160048036038101906102ec919061463b565b610b5f565b005b6102fb610d2b565b6040516103089190614a18565b60405180910390f35b61032b60048036038101906103269190614a33565b610d38565b005b61034760048036038101906103429190614a86565b610d98565b604051610355929190614ac6565b60405180910390f35b610378600480360381019061037391906146f0565b610f82565b6040516103859190614a18565b60405180910390f35b6103a860048036038101906103a39190614ccc565b611027565b6040516103b59190614db1565b60405180910390f35b6103d860048036038101906103d39190614a33565b6113a6565b005b6103f460048036038101906103ef919061463b565b6113c6565b6040516104019190614a18565b60405180910390f35b610424600480360381019061041f9190614e13565b611437565b6040516104319190614e4f565b60405180910390f35b610454600480360381019061044f919061463b565b61147b565b6040516104619190614fa0565b60405180910390f35b610484600480360381019061047f919061463b565b61157b565b60405161049191906146a9565b60405180910390f35b6104b460048036038101906104af9190614fc2565b611601565b6040516104c19190614a18565b60405180910390f35b6104e460048036038101906104df919061513c565b6116b8565b005b61050060048036038101906104fb9190615198565b611886565b005b61051c60048036038101906105179190614fc2565b6118ca565b6040516105299190614a18565b60405180910390f35b61053a61191a565b60405161054791906145e3565b60405180910390f35b61056a6004803603810190610565919061463b565b6119ac565b005b610574611b78565b6040516105819190614e4f565b60405180910390f35b6105a4600480360381019061059f9190615220565b611b7d565b005b6105ae611b93565b6040516105bb9190614e4f565b60405180910390f35b6105de60048036038101906105d9919061463b565b611b98565b6040516105eb91906145e3565b60405180910390f35b61060e60048036038101906106099190615260565b611c3d565b005b61062a60048036038101906106259190615260565b611c5e565b005b610646600480360381019061064191906152a0565b611c7f565b005b610662600480360381019061065d919061463b565b611ce1565b60405161066f9190615431565b60405180910390f35b610692600480360381019061068d919061463b565b611def565b60405161069f91906145e3565b60405180910390f35b6106c260048036038101906106bd9190615260565b611e57565b6040516106cf9190614538565b60405180910390f35b6106e0611ec3565b6040516106ed9190614e4f565b60405180910390f35b6106fe611ec8565b60405161070b9190614e4f565b60405180910390f35b61072e60048036038101906107299190615453565b611ecd565b60405161073b9190614538565b60405180910390f35b61075e60048036038101906107599190615260565b611f61565b005b600061076b82611fec565b8061077b575061077a82612066565b5b8061078b575061078a826120e0565b5b8061079b575061079a8261215a565b5b9050919050565b6060600280546107b1906154c2565b80601f01602080910402602001604051908101604052809291908181526020018280546107dd906154c2565b801561082a5780601f106107ff5761010080835404028352916020019161082a565b820191906000526020600020905b81548152906001019060200180831161080d57829003601f168201915b5050505050905090565b600061083f826121d4565b6006600083815260200190815260200160002060009054906101000a900473ffffffffffffffffffffffffffffffffffffffff169050919050565b60006108858261157b565b90508073ffffffffffffffffffffffffffffffffffffffff168373ffffffffffffffffffffffffffffffffffffffff16036108f5576040517f08c379a00000000000000000000000000000000000000000000000000000000081526004016108ec90615565565b60405180910390fd5b8073ffffffffffffffffffffffffffffffffffffffff1661091461221f565b73ffffffffffffffffffffffffffffffffffffffff16148061094357506109428161093d61221f565b611ecd565b5b610982576040517f08c379a0000000000000000000000000000000000000000000000000000000008152600401610979906155f7565b60405180910390fd5b61098c83836122c9565b505050565b600180601254146109d7576040517f08c379a00000000000000000000000000000000000000000000000000000000081526004016109ce90615663565b60405180910390fd5b806013805490501015610a1f576040517f08c379a0000000000000000000000000000000000000000000000000000000008152600401610a16906156cf565b60405180910390fd5b826000610a2d826000610d98565b5090508073ffffffffffffffffffffffffffffffffffffffff16601460009054906101000a900473ffffffffffffffffffffffffffffffffffffffff1673ffffffffffffffffffffffffffffffffffffffff16638086b8ba610a8f6000612382565b6040518263ffffffff1660e01b8152600401610aab91906146a9565b602060405180830381865afa158015610ac8573d6000803e3d6000fd5b505050506040513d601f19601f82011682018060405250810190610aec9190615704565b73ffffffffffffffffffffffffffffffffffffffff1614610b42576040517f08c379a0000000000000000000000000000000000000000000000000000000008152600401610b399061577d565b60405180910390fd5b6008610b4d816123ca565b610b5786866123de565b505050505050565b60018060125414610ba5576040517f08c379a0000000000000000000000000000000000000000000000000000000008152600401610b9c90615663565b60405180910390fd5b806013805490501015610bed576040517f08c379a0000000000000000000000000000000000000000000000000000000008152600401610be4906156cf565b60405180910390fd5b816000610bfb826000610d98565b5090508073ffffffffffffffffffffffffffffffffffffffff16601460009054906101000a900473ffffffffffffffffffffffffffffffffffffffff1673ffffffffffffffffffffffffffffffffffffffff16638086b8ba610c5d6000612382565b6040518263ffffffff1660e01b8152600401610c7991906146a9565b602060405180830381865afa158015610c96573d6000803e3d6000fd5b505050506040513d601f19601f82011682018060405250810190610cba9190615704565b73ffffffffffffffffffffffffffffffffffffffff1614610d10576040517f08c379a0000000000000000000000000000000000000000000000000000000008152600401610d079061577d565b60405180910390fd5b6001610d1b816123ca565b610d248561246d565b5050505050565b6000600a80549050905090565b610d49610d4361221f565b8261248f565b610d88576040517f08c379a0000000000000000000000000000000000000000000000000000000008152600401610d7f9061580f565b60405180910390fd5b610d93838383612524565b505050565b6000806000601060008681526020019081526020016000206040518060400160405290816000820160009054906101000a900473ffffffffffffffffffffffffffffffffffffffff1673ffffffffffffffffffffffffffffffffffffffff1673ffffffffffffffffffffffffffffffffffffffff1681526020016000820160149054906101000a90046bffffffffffffffffffffffff166bffffffffffffffffffffffff166bffffffffffffffffffffffff16815250509050600073ffffffffffffffffffffffffffffffffffffffff16816000015173ffffffffffffffffffffffffffffffffffffffff1603610f2d57600f6040518060400160405290816000820160009054906101000a900473ffffffffffffffffffffffffffffffffffffffff1673ffffffffffffffffffffffffffffffffffffffff1673ffffffffffffffffffffffffffffffffffffffff1681526020016000820160149054906101000a90046bffffffffffffffffffffffff166bffffffffffffffffffffffff166bffffffffffffffffffffffff168152505090505b6000610f3761281d565b6bffffffffffffffffffffffff1682602001516bffffffffffffffffffffffff1686610f63919061585e565b610f6d91906158cf565b90508160000151819350935050509250929050565b6000610f8d83611601565b8210610fce576040517f08c379a0000000000000000000000000000000000000000000000000000000008152600401610fc590615972565b60405180910390fd5b600860008473ffffffffffffffffffffffffffffffffffffffff1673ffffffffffffffffffffffffffffffffffffffff168152602001908152602001600020600083815260200190815260200160002054905092915050565b6060611031612827565b82421115611074576040517f08c379a000000000000000000000000000000000000000000000000000000000815260040161106b906159de565b60405180910390fd5b60007f000000000000000000000000000000000000000000000000000000000000000086866040516110a7929190615a2e565b60405180910390206110b761221f565b611105601160006110c661221f565b73ffffffffffffffffffffffffffffffffffffffff1673ffffffffffffffffffffffffffffffffffffffff168152602001908152602001600020612876565b8760405160200161111a959493929190615a60565b604051602081830303815290604052805190602001209050600061113d82612884565b9050835167ffffffffffffffff81111561115a57611159614735565b5b6040519080825280602002602001820160405280156111885781602001602082028036833780820191505090505b506013908051906020019061119e929190614302565b5060005b601380549050811015611343576111d3828683815181106111c6576111c5615ab3565b5b602002602001015161289e565b601382815481106111e7576111e6615ab3565b5b9060005260206000200160006101000a81548173ffffffffffffffffffffffffffffffffffffffff021916908373ffffffffffffffffffffffffffffffffffffffff16021790555060008114806112f1575060136001826112489190615ae2565b8154811061125957611258615ab3565b5b9060005260206000200160009054906101000a900473ffffffffffffffffffffffffffffffffffffffff1673ffffffffffffffffffffffffffffffffffffffff16601382815481106112ae576112ad615ab3565b5b9060005260206000200160009054906101000a900473ffffffffffffffffffffffffffffffffffffffff1673ffffffffffffffffffffffffffffffffffffffff16115b611330576040517f08c379a000000000000000000000000000000000000000000000000000000000815260040161132790615b62565b60405180910390fd5b808061133b90615b82565b9150506111a2565b506113923088888080601f016020809104026020016040519081016040528093929190818152602001838380828437600081840152601f19601f820116905080830192505050505050506128c5565b9250505061139e6128f2565b949350505050565b6113c183838360405180602001604052806000815250611c7f565b505050565b60006113d0610d2b565b8210611411576040517f08c379a000000000000000000000000000000000000000000000000000000000815260040161140890615c3c565b60405180910390fd5b600a828154811061142557611424615ab3565b5b90600052602060002001549050919050565b60008060008367ffffffffffffffff1667ffffffffffffffff16815260200190815260200160002060009054906101000a900467ffffffffffffffff169050919050565b6060600e6000838152602001908152602001600020805480602002602001604051908101604052809291908181526020016000905b82821015611570578382906000526020600020016040518060200160405290816000820180546114df906154c2565b80601f016020809104026020016040519081016040528092919081815260200182805461150b906154c2565b80156115585780601f1061152d57610100808354040283529160200191611558565b820191906000526020600020905b81548152906001019060200180831161153b57829003601f168201915b505050505081525050815260200190600101906114b0565b505050509050919050565b600080611587836129aa565b9050600073ffffffffffffffffffffffffffffffffffffffff168173ffffffffffffffffffffffffffffffffffffffff16036115f8576040517f08c379a00000000000000000000000000000000000000000000000000000000081526004016115ef90615ca8565b60405180910390fd5b80915050919050565b60008073ffffffffffffffffffffffffffffffffffffffff168273ffffffffffffffffffffffffffffffffffffffff1603611671576040517f08c379a000000000000000000000000000000000000000000000000000000000815260040161166890615d3a565b60405180910390fd5b600560008373ffffffffffffffffffffffffffffffffffffffff1673ffffffffffffffffffffffffffffffffffffffff168152602001908152602001600020549050919050565b600180601254146116fe576040517f08c379a00000000000000000000000000000000000000000000000000000000081526004016116f590615663565b60405180910390fd5b806013805490501015611746576040517f08c379a000000000000000000000000000000000000000000000000000000000815260040161173d906156cf565b60405180910390fd5b826000611754826000610d98565b5090508073ffffffffffffffffffffffffffffffffffffffff16601460009054906101000a900473ffffffffffffffffffffffffffffffffffffffff1673ffffffffffffffffffffffffffffffffffffffff16638086b8ba6117b66000612382565b6040518263ffffffff1660e01b81526004016117d291906146a9565b602060405180830381865afa1580156117ef573d6000803e3d6000fd5b505050506040513d601f19601f820116820180604052508101906118139190615704565b73ffffffffffffffffffffffffffffffffffffffff1614611869576040517f08c379a00000000000000000000000000000000000000000000000000000000081526004016118609061577d565b60405180910390fd5b6004611874816123ca565b61187e86866129e7565b505050505050565b6002611891816123ca565b6118a261189c61221f565b84612a84565b6118ac8383612ca1565b6118c5836118b861221f565b6118c061281d565b612cc6565b505050565b6000611913601160008473ffffffffffffffffffffffffffffffffffffffff1673ffffffffffffffffffffffffffffffffffffffff168152602001908152602001600020612876565b9050919050565b606060038054611929906154c2565b80601f0160208091040260200160405190810160405280929190818152602001828054611955906154c2565b80156119a25780601f10611977576101008083540402835291602001916119a2565b820191906000526020600020905b81548152906001019060200180831161198557829003601f168201915b5050505050905090565b600180601254146119f2576040517f08c379a00000000000000000000000000000000000000000000000000000000081526004016119e990615663565b60405180910390fd5b806013805490501015611a3a576040517f08c379a0000000000000000000000000000000000000000000000000000000008152600401611a31906156cf565b60405180910390fd5b816000611a48826000610d98565b5090508073ffffffffffffffffffffffffffffffffffffffff16601460009054906101000a900473ffffffffffffffffffffffffffffffffffffffff1673ffffffffffffffffffffffffffffffffffffffff16638086b8ba611aaa6000612382565b6040518263ffffffff1660e01b8152600401611ac691906146a9565b602060405180830381865afa158015611ae3573d6000803e3d6000fd5b505050506040513d601f19601f82011682018060405250810190611b079190615704565b73ffffffffffffffffffffffffffffffffffffffff1614611b5d576040517f08c379a0000000000000000000000000000000000000000000000000000000008152600401611b549061577d565b60405180910390fd5b6001611b68816123ca565b611b7185612e6d565b5050505050565b600181565b611b8f611b8861221f565b8383612e8f565b5050565b600481565b6060600d60008381526020019081526020016000208054611bb8906154c2565b80601f0160208091040260200160405190810160405280929190818152602001828054611be4906154c2565b8015611c315780601f10611c0657610100808354040283529160200191611c31565b820191906000526020600020905b815481529060010190602001808311611c1457829003601f168201915b50505050509050919050565b611c4682611437565b611c4f816123ca565b611c598383612ffb565b505050565b611c6782611437565b611c70816123ca565b611c7a83836130ea565b505050565b611c90611c8a61221f565b8361248f565b611ccf576040517f08c379a0000000000000000000000000000000000000000000000000000000008152600401611cc69061580f565b60405180910390fd5b611cdb848484846131d9565b50505050565b6060600c6000838152602001908152602001600020805480602002602001604051908101604052809291908181526020016000905b82821015611de4578382906000526020600020906002020160405180604001604052908160008201548152602001600182018054611d53906154c2565b80601f0160208091040260200160405190810160405280929190818152602001828054611d7f906154c2565b8015611dcc5780601f10611da157610100808354040283529160200191611dcc565b820191906000526020600020905b815481529060010190602001808311611daf57829003601f168201915b50505050508152505081526020019060010190611d16565b505050509050919050565b6060611dfa826121d4565b6000611e04613235565b90506000815111611e245760405180602001604052806000815250611e4f565b80611e2e8461324c565b604051602001611e3f929190615d96565b6040516020818303038152906040525b915050919050565b60008083600160008573ffffffffffffffffffffffffffffffffffffffff1673ffffffffffffffffffffffffffffffffffffffff16815260200190815260200160002060009054906101000a900467ffffffffffffffff161667ffffffffffffffff1611905092915050565b600881565b600281565b6000600760008473ffffffffffffffffffffffffffffffffffffffff1673ffffffffffffffffffffffffffffffffffffffff16815260200190815260200160002060008373ffffffffffffffffffffffffffffffffffffffff1673ffffffffffffffffffffffffffffffffffffffff16815260200190815260200160002060009054906101000a900460ff16905092915050565b611f6961221f565b73ffffffffffffffffffffffffffffffffffffffff168173ffffffffffffffffffffffffffffffffffffffff1614611fd6576040517f08c379a0000000000000000000000000000000000000000000000000000000008152600401611fcd90615e2c565b60405180910390fd5b611fe082826130ea565b5050565b600033905090565b60007f7f08f59f000000000000000000000000000000000000000000000000000000007bffffffffffffffffffffffffffffffffffffffffffffffffffffffff1916827bffffffffffffffffffffffffffffffffffffffffffffffffffffffff1916148061205f575061205e8261331a565b5b9050919050565b60007f780e9d63000000000000000000000000000000000000000000000000000000007bffffffffffffffffffffffffffffffffffffffffffffffffffffffff1916827bffffffffffffffffffffffffffffffffffffffffffffffffffffffff191614806120d957506120d882613384565b5b9050919050565b60007f2a55205a000000000000000000000000000000000000000000000000000000007bffffffffffffffffffffffffffffffffffffffffffffffffffffffff1916827bffffffffffffffffffffffffffffffffffffffffffffffffffffffff19161480612153575061215282612066565b5b9050919050565b60007f49dc1f8f000000000000000000000000000000000000000000000000000000007bffffffffffffffffffffffffffffffffffffffffffffffffffffffff1916827bffffffffffffffffffffffffffffffffffffffffffffffffffffffff191614806121cd57506121cc826120e0565b5b9050919050565b6121dd81613466565b61221c576040517f08c379a000000000000000000000000000000000000000000000000000000000815260040161221390615ca8565b60405180910390fd5b50565b6000601460009054906101000a900473ffffffffffffffffffffffffffffffffffffffff1673ffffffffffffffffffffffffffffffffffffffff16638086b8ba612267611fe4565b6040518263ffffffff1660e01b815260040161228391906146a9565b602060405180830381865afa1580156122a0573d6000803e3d6000fd5b505050506040513d601f19601f820116820180604052508101906122c49190615704565b905090565b816006600083815260200190815260200160002060006101000a81548173ffffffffffffffffffffffffffffffffffffffff021916908373ffffffffffffffffffffffffffffffffffffffff160217905550808273ffffffffffffffffffffffffffffffffffffffff1661233c8361157b565b73ffffffffffffffffffffffffffffffffffffffff167f8c5be1e5ebec7d5bd14f71427d1e84f3dd0314c0f7b2291e5b200ac8c7c3b92560405160405180910390a45050565b60006013828154811061239857612397615ab3565b5b9060005260206000200160009054906101000a900473ffffffffffffffffffffffffffffffffffffffff169050919050565b6123db816123d661221f565b6134a7565b50565b60005b815181101561246857600e60008481526020019081526020016000208282815181106124105761240f615ab3565b5b60200260200101519080600181540180825580915050600190039060005260206000200160009091909190915060008201518160000190816124529190615ff8565b505050808061246090615b82565b9150506123e1565b505050565b600c6000828152602001908152602001600020600061248c919061438c565b50565b60008061249b8361157b565b90508073ffffffffffffffffffffffffffffffffffffffff168473ffffffffffffffffffffffffffffffffffffffff1614806124dd57506124dc8185611ecd565b5b8061251b57508373ffffffffffffffffffffffffffffffffffffffff1661250384610834565b73ffffffffffffffffffffffffffffffffffffffff16145b91505092915050565b8273ffffffffffffffffffffffffffffffffffffffff166125448261157b565b73ffffffffffffffffffffffffffffffffffffffff161461259a576040517f08c379a00000000000000000000000000000000000000000000000000000000081526004016125919061613c565b60405180910390fd5b600073ffffffffffffffffffffffffffffffffffffffff168273ffffffffffffffffffffffffffffffffffffffff1603612609576040517f08c379a0000000000000000000000000000000000000000000000000000000008152600401612600906161ce565b60405180910390fd5b61261683838360016134f4565b8273ffffffffffffffffffffffffffffffffffffffff166126368261157b565b73ffffffffffffffffffffffffffffffffffffffff161461268c576040517f08c379a00000000000000000000000000000000000000000000000000000000081526004016126839061613c565b60405180910390fd5b6006600082815260200190815260200160002060006101000a81549073ffffffffffffffffffffffffffffffffffffffff02191690556001600560008573ffffffffffffffffffffffffffffffffffffffff1673ffffffffffffffffffffffffffffffffffffffff168152602001908152602001600020600082825403925050819055506001600560008473ffffffffffffffffffffffffffffffffffffffff1673ffffffffffffffffffffffffffffffffffffffff16815260200190815260200160002060008282540192505081905550816004600083815260200190815260200160002060006101000a81548173ffffffffffffffffffffffffffffffffffffffff021916908373ffffffffffffffffffffffffffffffffffffffff160217905550808273ffffffffffffffffffffffffffffffffffffffff168473ffffffffffffffffffffffffffffffffffffffff167fddf252ad1be2c89b69c2b068fc378daa952ba7f163c4a11628f55a4df523b3ef60405160405180910390a46128188383836001613652565b505050565b6000612710905090565b60016012540361286c576040517f08c379a00000000000000000000000000000000000000000000000000000000081526004016128639061623a565b60405180910390fd5b6001601281905550565b600081600001549050919050565b6000612897612891613658565b83613772565b9050919050565b60008060006128ad85856137a5565b915091506128ba816137f6565b819250505092915050565b60606128ea8383604051806060016040528060278152602001616ae96027913961395c565b905092915050565b6000601281905550600067ffffffffffffffff81111561291557612914614735565b5b6040519080825280602002602001820160405280156129435781602001602082028036833780820191505090505b5060139080519060200190612959929190614302565b506129a86011600061296961221f565b73ffffffffffffffffffffffffffffffffffffffff1673ffffffffffffffffffffffffffffffffffffffff1681526020019081526020016000206139e2565b565b60006004600083815260200190815260200160002060009054906101000a900473ffffffffffffffffffffffffffffffffffffffff169050919050565b60005b8151811015612a7f57600c6000848152602001908152602001600020828281518110612a1957612a18615ab3565b5b60200260200101519080600181540180825580915050600190039060005260206000209060020201600090919091909150600082015181600001556020820151816001019081612a699190615ff8565b5050508080612a7790615b82565b9150506129ea565b505050565b600073ffffffffffffffffffffffffffffffffffffffff168273ffffffffffffffffffffffffffffffffffffffff1603612af3576040517f08c379a0000000000000000000000000000000000000000000000000000000008152600401612aea906162a6565b60405180910390fd5b612afc81613466565b15612b3c576040517f08c379a0000000000000000000000000000000000000000000000000000000008152600401612b3390616312565b60405180910390fd5b612b4a6000838360016134f4565b612b5381613466565b15612b93576040517f08c379a0000000000000000000000000000000000000000000000000000000008152600401612b8a90616312565b60405180910390fd5b6001600560008473ffffffffffffffffffffffffffffffffffffffff1673ffffffffffffffffffffffffffffffffffffffff16815260200190815260200160002060008282540192505081905550816004600083815260200190815260200160002060006101000a81548173ffffffffffffffffffffffffffffffffffffffff021916908373ffffffffffffffffffffffffffffffffffffffff160217905550808273ffffffffffffffffffffffffffffffffffffffff16600073ffffffffffffffffffffffffffffffffffffffff167fddf252ad1be2c89b69c2b068fc378daa952ba7f163c4a11628f55a4df523b3ef60405160405180910390a4612c9d600083836001613652565b5050565b80600d60008481526020019081526020016000209081612cc19190615ff8565b505050565b612cce61281d565b6bffffffffffffffffffffffff16816bffffffffffffffffffffffff161115612d2c576040517f08c379a0000000000000000000000000000000000000000000000000000000008152600401612d23906163a4565b60405180910390fd5b600073ffffffffffffffffffffffffffffffffffffffff168273ffffffffffffffffffffffffffffffffffffffff1603612d9b576040517f08c379a0000000000000000000000000000000000000000000000000000000008152600401612d9290616410565b60405180910390fd5b60405180604001604052808373ffffffffffffffffffffffffffffffffffffffff168152602001826bffffffffffffffffffffffff168152506010600085815260200190815260200160002060008201518160000160006101000a81548173ffffffffffffffffffffffffffffffffffffffff021916908373ffffffffffffffffffffffffffffffffffffffff16021790555060208201518160000160146101000a8154816bffffffffffffffffffffffff02191690836bffffffffffffffffffffffff160217905550905050505050565b600e60008281526020019081526020016000206000612e8c91906143b0565b50565b8173ffffffffffffffffffffffffffffffffffffffff168373ffffffffffffffffffffffffffffffffffffffff1603612efd576040517f08c379a0000000000000000000000000000000000000000000000000000000008152600401612ef49061647c565b60405180910390fd5b80600760008573ffffffffffffffffffffffffffffffffffffffff1673ffffffffffffffffffffffffffffffffffffffff16815260200190815260200160002060008473ffffffffffffffffffffffffffffffffffffffff1673ffffffffffffffffffffffffffffffffffffffff16815260200190815260200160002060006101000a81548160ff0219169083151502179055508173ffffffffffffffffffffffffffffffffffffffff168373ffffffffffffffffffffffffffffffffffffffff167f17307eab39ab6107e8899845ad3d59bd9653f200f220920489ca2b5937696c3183604051612fee9190614538565b60405180910390a3505050565b81600160008373ffffffffffffffffffffffffffffffffffffffff1673ffffffffffffffffffffffffffffffffffffffff16815260200190815260200160002060008282829054906101000a900467ffffffffffffffff161792506101000a81548167ffffffffffffffff021916908367ffffffffffffffff16021790555061308261221f565b73ffffffffffffffffffffffffffffffffffffffff168173ffffffffffffffffffffffffffffffffffffffff168367ffffffffffffffff167f2e633503bdbb177665559a9efb7b963d30f2042d94c73311e9c54f799584abd560405160405180910390a45050565b81600160008373ffffffffffffffffffffffffffffffffffffffff1673ffffffffffffffffffffffffffffffffffffffff16815260200190815260200160002060008282829054906101000a900467ffffffffffffffff161892506101000a81548167ffffffffffffffff021916908367ffffffffffffffff16021790555061317161221f565b73ffffffffffffffffffffffffffffffffffffffff168173ffffffffffffffffffffffffffffffffffffffff168367ffffffffffffffff167f4ee4aaa38790a48e6b8f5ce86c7caaefda507fe314fbfc735fc80b9199cf78dd60405160405180910390a45050565b6131e4848484612524565b6131f0848484846139f8565b61322f576040517f08c379a00000000000000000000000000000000000000000000000000000000081526004016132269061650e565b60405180910390fd5b50505050565b606060405180602001604052806000815250905090565b60606000600161325b84613b7f565b01905060008167ffffffffffffffff81111561327a57613279614735565b5b6040519080825280601f01601f1916602001820160405280156132ac5781602001600182028036833780820191505090505b509050600082602001820190505b60011561330f578080600190039150507f3031323334353637383961626364656600000000000000000000000000000000600a86061a8153600a8581613303576133026158a0565b5b049450600085036132ba575b819350505050919050565b60007f01ffc9a7000000000000000000000000000000000000000000000000000000007bffffffffffffffffffffffffffffffffffffffffffffffffffffffff1916827bffffffffffffffffffffffffffffffffffffffffffffffffffffffff1916149050919050565b60007f80ac58cd000000000000000000000000000000000000000000000000000000007bffffffffffffffffffffffffffffffffffffffffffffffffffffffff1916827bffffffffffffffffffffffffffffffffffffffffffffffffffffffff1916148061344f57507f5b5e139f000000000000000000000000000000000000000000000000000000007bffffffffffffffffffffffffffffffffffffffffffffffffffffffff1916827bffffffffffffffffffffffffffffffffffffffffffffffffffffffff1916145b8061345f575061345e82611fec565b5b9050919050565b60008073ffffffffffffffffffffffffffffffffffffffff16613488836129aa565b73ffffffffffffffffffffffffffffffffffffffff1614159050919050565b6134b18282611e57565b6134f0576040517f08c379a00000000000000000000000000000000000000000000000000000000081526004016134e7906165a0565b60405180910390fd5b5050565b61350084848484613cd2565b6001811115613544576040517f08c379a000000000000000000000000000000000000000000000000000000000815260040161353b90616632565b60405180910390fd5b6000829050600073ffffffffffffffffffffffffffffffffffffffff168573ffffffffffffffffffffffffffffffffffffffff160361358b5761358681613df8565b6135ca565b8373ffffffffffffffffffffffffffffffffffffffff168573ffffffffffffffffffffffffffffffffffffffff16146135c9576135c88582613e41565b5b5b600073ffffffffffffffffffffffffffffffffffffffff168473ffffffffffffffffffffffffffffffffffffffff160361360c5761360781613fae565b61364b565b8473ffffffffffffffffffffffffffffffffffffffff168473ffffffffffffffffffffffffffffffffffffffff161461364a57613649848261407f565b5b5b5050505050565b50505050565b60007f000000000000000000000000000000000000000000000000000000000000000073ffffffffffffffffffffffffffffffffffffffff163073ffffffffffffffffffffffffffffffffffffffff161480156136d457507f000000000000000000000000000000000000000000000000000000000000000046145b15613701577f0000000000000000000000000000000000000000000000000000000000000000905061376f565b61376c7f00000000000000000000000000000000000000000000000000000000000000007f00000000000000000000000000000000000000000000000000000000000000007f00000000000000000000000000000000000000000000000000000000000000006140fe565b90505b90565b600082826040516020016137879291906166bf565b60405160208183030381529060405280519060200120905092915050565b60008060418351036137e65760008060006020860151925060408601519150606086015160001a90506137da87828585614138565b945094505050506137ef565b60006002915091505b9250929050565b6000600481111561380a576138096166f6565b5b81600481111561381d5761381c6166f6565b5b03156139595760016004811115613837576138366166f6565b5b81600481111561384a576138496166f6565b5b0361388a576040517f08c379a000000000000000000000000000000000000000000000000000000000815260040161388190616771565b60405180910390fd5b6002600481111561389e5761389d6166f6565b5b8160048111156138b1576138b06166f6565b5b036138f1576040517f08c379a00000000000000000000000000000000000000000000000000000000081526004016138e8906167dd565b60405180910390fd5b60036004811115613905576139046166f6565b5b816004811115613918576139176166f6565b5b03613958576040517f08c379a000000000000000000000000000000000000000000000000000000000815260040161394f9061686f565b60405180910390fd5b5b50565b60606000808573ffffffffffffffffffffffffffffffffffffffff168560405161398691906168c0565b600060405180830381855af49150503d80600081146139c1576040519150601f19603f3d011682016040523d82523d6000602084013e6139c6565b606091505b50915091506139d78683838761421a565b925050509392505050565b6001816000016000828254019250508190555050565b6000613a198473ffffffffffffffffffffffffffffffffffffffff1661428f565b15613b72578373ffffffffffffffffffffffffffffffffffffffff1663150b7a02613a4261221f565b8786866040518563ffffffff1660e01b8152600401613a6494939291906168d7565b6020604051808303816000875af1925050508015613aa057506040513d601f19601f82011682018060405250810190613a9d9190616938565b60015b613b22573d8060008114613ad0576040519150601f19603f3d011682016040523d82523d6000602084013e613ad5565b606091505b506000815103613b1a576040517f08c379a0000000000000000000000000000000000000000000000000000000008152600401613b119061650e565b60405180910390fd5b805181602001fd5b63150b7a0260e01b7bffffffffffffffffffffffffffffffffffffffffffffffffffffffff1916817bffffffffffffffffffffffffffffffffffffffffffffffffffffffff191614915050613b77565b600190505b949350505050565b600080600090507a184f03e93ff9f4daa797ed6e38ed64bf6a1f0100000000000000008310613bdd577a184f03e93ff9f4daa797ed6e38ed64bf6a1f0100000000000000008381613bd357613bd26158a0565b5b0492506040810190505b6d04ee2d6d415b85acef81000000008310613c1a576d04ee2d6d415b85acef81000000008381613c1057613c0f6158a0565b5b0492506020810190505b662386f26fc100008310613c4957662386f26fc100008381613c3f57613c3e6158a0565b5b0492506010810190505b6305f5e1008310613c72576305f5e1008381613c6857613c676158a0565b5b0492506008810190505b6127108310613c97576127108381613c8d57613c8c6158a0565b5b0492506004810190505b60648310613cba5760648381613cb057613caf6158a0565b5b0492506002810190505b600a8310613cc9576001810190505b80915050919050565b6001811115613df257600073ffffffffffffffffffffffffffffffffffffffff168473ffffffffffffffffffffffffffffffffffffffff1614613d665780600560008673ffffffffffffffffffffffffffffffffffffffff1673ffffffffffffffffffffffffffffffffffffffff1681526020019081526020016000206000828254613d5e9190615ae2565b925050819055505b600073ffffffffffffffffffffffffffffffffffffffff168373ffffffffffffffffffffffffffffffffffffffff1614613df15780600560008573ffffffffffffffffffffffffffffffffffffffff1673ffffffffffffffffffffffffffffffffffffffff1681526020019081526020016000206000828254613de99190616965565b925050819055505b5b50505050565b600a80549050600b600083815260200190815260200160002081905550600a81908060018154018082558091505060019003906000526020600020016000909190919091505550565b60006001613e4e84611601565b613e589190615ae2565b9050600060096000848152602001908152602001600020549050818114613f3d576000600860008673ffffffffffffffffffffffffffffffffffffffff1673ffffffffffffffffffffffffffffffffffffffff168152602001908152602001600020600084815260200190815260200160002054905080600860008773ffffffffffffffffffffffffffffffffffffffff1673ffffffffffffffffffffffffffffffffffffffff168152602001908152602001600020600084815260200190815260200160002081905550816009600083815260200190815260200160002081905550505b6009600084815260200190815260200160002060009055600860008573ffffffffffffffffffffffffffffffffffffffff1673ffffffffffffffffffffffffffffffffffffffff16815260200190815260200160002060008381526020019081526020016000206000905550505050565b60006001600a80549050613fc29190615ae2565b90506000600b60008481526020019081526020016000205490506000600a8381548110613ff257613ff1615ab3565b5b9060005260206000200154905080600a838154811061401457614013615ab3565b5b906000526020600020018190555081600b600083815260200190815260200160002081905550600b600085815260200190815260200160002060009055600a80548061406357614062616999565b5b6001900381819060005260206000200160009055905550505050565b600061408a83611601565b905081600860008573ffffffffffffffffffffffffffffffffffffffff1673ffffffffffffffffffffffffffffffffffffffff168152602001908152602001600020600083815260200190815260200160002081905550806009600084815260200190815260200160002081905550505050565b600083838346306040516020016141199594939291906169c8565b6040516020818303038152906040528051906020012090509392505050565b6000807f7fffffffffffffffffffffffffffffff5d576e7357a4501ddfe92f46681b20a08360001c1115614173576000600391509150614211565b6000600187878787604051600081526020016040526040516141989493929190616a37565b6020604051602081039080840390855afa1580156141ba573d6000803e3d6000fd5b505050602060405103519050600073ffffffffffffffffffffffffffffffffffffffff168173ffffffffffffffffffffffffffffffffffffffff160361420857600060019250925050614211565b80600092509250505b94509492505050565b6060831561427c576000835103614274576142348561428f565b614273576040517f08c379a000000000000000000000000000000000000000000000000000000000815260040161426a90616ac8565b60405180910390fd5b5b829050614287565b61428683836142b2565b5b949350505050565b6000808273ffffffffffffffffffffffffffffffffffffffff163b119050919050565b6000825111156142c55781518083602001fd5b806040517f08c379a00000000000000000000000000000000000000000000000000000000081526004016142f991906145e3565b60405180910390fd5b82805482825590600052602060002090810192821561437b579160200282015b8281111561437a5782518260006101000a81548173ffffffffffffffffffffffffffffffffffffffff021916908373ffffffffffffffffffffffffffffffffffffffff16021790555091602001919060010190614322565b5b50905061438891906143d1565b5090565b50805460008255600202906000526020600020908101906143ad91906143ee565b50565b50805460008255906000526020600020908101906143ce919061441d565b50565b5b808211156143ea5760008160009055506001016143d2565b5090565b5b80821115614419576000808201600090556001820160006144109190614444565b506002016143ef565b5090565b5b8082111561444057600080820160006144379190614444565b5060010161441e565b5090565b508054614450906154c2565b6000825580601f106144625750614481565b601f01602090049060005260206000209081019061448091906143d1565b5b50565b6000604051905090565b600080fd5b600080fd5b60007fffffffff0000000000000000000000000000000000000000000000000000000082169050919050565b6144cd81614498565b81146144d857600080fd5b50565b6000813590506144ea816144c4565b92915050565b6000602082840312156145065761450561448e565b5b6000614514848285016144db565b91505092915050565b60008115159050919050565b6145328161451d565b82525050565b600060208201905061454d6000830184614529565b92915050565b600081519050919050565b600082825260208201905092915050565b60005b8381101561458d578082015181840152602081019050614572565b60008484015250505050565b6000601f19601f8301169050919050565b60006145b582614553565b6145bf818561455e565b93506145cf81856020860161456f565b6145d881614599565b840191505092915050565b600060208201905081810360008301526145fd81846145aa565b905092915050565b6000819050919050565b61461881614605565b811461462357600080fd5b50565b6000813590506146358161460f565b92915050565b6000602082840312156146515761465061448e565b5b600061465f84828501614626565b91505092915050565b600073ffffffffffffffffffffffffffffffffffffffff82169050919050565b600061469382614668565b9050919050565b6146a381614688565b82525050565b60006020820190506146be600083018461469a565b92915050565b6146cd81614688565b81146146d857600080fd5b50565b6000813590506146ea816146c4565b92915050565b600080604083850312156147075761470661448e565b5b6000614715858286016146db565b925050602061472685828601614626565b9150509250929050565b600080fd5b7f4e487b7100000000000000000000000000000000000000000000000000000000600052604160045260246000fd5b61476d82614599565b810181811067ffffffffffffffff8211171561478c5761478b614735565b5b80604052505050565b600061479f614484565b90506147ab8282614764565b919050565b600067ffffffffffffffff8211156147cb576147ca614735565b5b602082029050602081019050919050565b600080fd5b600080fd5b600080fd5b600080fd5b600067ffffffffffffffff82111561480b5761480a614735565b5b61481482614599565b9050602081019050919050565b82818337600083830152505050565b600061484361483e846147f0565b614795565b90508281526020810184848401111561485f5761485e6147eb565b5b61486a848285614821565b509392505050565b600082601f83011261488757614886614730565b5b8135614897848260208601614830565b91505092915050565b6000602082840312156148b6576148b56147e1565b5b6148c06020614795565b9050600082013567ffffffffffffffff8111156148e0576148df6147e6565b5b6148ec84828501614872565b60008301525092915050565b600061490b614906846147b0565b614795565b9050808382526020820190506020840283018581111561492e5761492d6147dc565b5b835b8181101561497557803567ffffffffffffffff81111561495357614952614730565b5b80860161496089826148a0565b85526020850194505050602081019050614930565b5050509392505050565b600082601f83011261499457614993614730565b5b81356149a48482602086016148f8565b91505092915050565b600080604083850312156149c4576149c361448e565b5b60006149d285828601614626565b925050602083013567ffffffffffffffff8111156149f3576149f2614493565b5b6149ff8582860161497f565b9150509250929050565b614a1281614605565b82525050565b6000602082019050614a2d6000830184614a09565b92915050565b600080600060608486031215614a4c57614a4b61448e565b5b6000614a5a868287016146db565b9350506020614a6b868287016146db565b9250506040614a7c86828701614626565b9150509250925092565b60008060408385031215614a9d57614a9c61448e565b5b6000614aab85828601614626565b9250506020614abc85828601614626565b9150509250929050565b6000604082019050614adb600083018561469a565b614ae86020830184614a09565b9392505050565b600080fd5b60008083601f840112614b0a57614b09614730565b5b8235905067ffffffffffffffff811115614b2757614b26614aef565b5b602083019150836001820283011115614b4357614b426147dc565b5b9250929050565b600067ffffffffffffffff821115614b6557614b64614735565b5b602082029050602081019050919050565b600067ffffffffffffffff821115614b9157614b90614735565b5b614b9a82614599565b9050602081019050919050565b6000614bba614bb584614b76565b614795565b905082815260208101848484011115614bd657614bd56147eb565b5b614be1848285614821565b509392505050565b600082601f830112614bfe57614bfd614730565b5b8135614c0e848260208601614ba7565b91505092915050565b6000614c2a614c2584614b4a565b614795565b90508083825260208201905060208402830185811115614c4d57614c4c6147dc565b5b835b81811015614c9457803567ffffffffffffffff811115614c7257614c71614730565b5b808601614c7f8982614be9565b85526020850194505050602081019050614c4f565b5050509392505050565b600082601f830112614cb357614cb2614730565b5b8135614cc3848260208601614c17565b91505092915050565b60008060008060608587031215614ce657614ce561448e565b5b600085013567ffffffffffffffff811115614d0457614d03614493565b5b614d1087828801614af4565b94509450506020614d2387828801614626565b925050604085013567ffffffffffffffff811115614d4457614d43614493565b5b614d5087828801614c9e565b91505092959194509250565b600081519050919050565b600082825260208201905092915050565b6000614d8382614d5c565b614d8d8185614d67565b9350614d9d81856020860161456f565b614da681614599565b840191505092915050565b60006020820190508181036000830152614dcb8184614d78565b905092915050565b600067ffffffffffffffff82169050919050565b614df081614dd3565b8114614dfb57600080fd5b50565b600081359050614e0d81614de7565b92915050565b600060208284031215614e2957614e2861448e565b5b6000614e3784828501614dfe565b91505092915050565b614e4981614dd3565b82525050565b6000602082019050614e646000830184614e40565b92915050565b600081519050919050565b600082825260208201905092915050565b6000819050602082019050919050565b600082825260208201905092915050565b6000614eb282614553565b614ebc8185614e96565b9350614ecc81856020860161456f565b614ed581614599565b840191505092915050565b60006020830160008301518482036000860152614efd8282614ea7565b9150508091505092915050565b6000614f168383614ee0565b905092915050565b6000602082019050919050565b6000614f3682614e6a565b614f408185614e75565b935083602082028501614f5285614e86565b8060005b85811015614f8e5784840389528151614f6f8582614f0a565b9450614f7a83614f1e565b925060208a01995050600181019050614f56565b50829750879550505050505092915050565b60006020820190508181036000830152614fba8184614f2b565b905092915050565b600060208284031215614fd857614fd761448e565b5b6000614fe6848285016146db565b91505092915050565b600067ffffffffffffffff82111561500a57615009614735565b5b602082029050602081019050919050565b600060408284031215615031576150306147e1565b5b61503b6040614795565b9050600061504b84828501614626565b600083015250602082013567ffffffffffffffff81111561506f5761506e6147e6565b5b61507b84828501614872565b60208301525092915050565b600061509a61509584614fef565b614795565b905080838252602082019050602084028301858111156150bd576150bc6147dc565b5b835b8181101561510457803567ffffffffffffffff8111156150e2576150e1614730565b5b8086016150ef898261501b565b855260208501945050506020810190506150bf565b5050509392505050565b600082601f83011261512357615122614730565b5b8135615133848260208601615087565b91505092915050565b600080604083850312156151535761515261448e565b5b600061516185828601614626565b925050602083013567ffffffffffffffff81111561518257615181614493565b5b61518e8582860161510e565b9150509250929050565b600080604083850312156151af576151ae61448e565b5b60006151bd85828601614626565b925050602083013567ffffffffffffffff8111156151de576151dd614493565b5b6151ea85828601614872565b9150509250929050565b6151fd8161451d565b811461520857600080fd5b50565b60008135905061521a816151f4565b92915050565b600080604083850312156152375761523661448e565b5b6000615245858286016146db565b92505060206152568582860161520b565b9150509250929050565b600080604083850312156152775761527661448e565b5b600061528585828601614dfe565b9250506020615296858286016146db565b9150509250929050565b600080600080608085870312156152ba576152b961448e565b5b60006152c8878288016146db565b94505060206152d9878288016146db565b93505060406152ea87828801614626565b925050606085013567ffffffffffffffff81111561530b5761530a614493565b5b61531787828801614be9565b91505092959194509250565b600081519050919050565b600082825260208201905092915050565b6000819050602082019050919050565b61535881614605565b82525050565b6000604083016000830151615376600086018261534f565b506020830151848203602086015261538e8282614ea7565b9150508091505092915050565b60006153a7838361535e565b905092915050565b6000602082019050919050565b60006153c782615323565b6153d1818561532e565b9350836020820285016153e38561533f565b8060005b8581101561541f5784840389528151615400858261539b565b945061540b836153af565b925060208a019950506001810190506153e7565b50829750879550505050505092915050565b6000602082019050818103600083015261544b81846153bc565b905092915050565b6000806040838503121561546a5761546961448e565b5b6000615478858286016146db565b9250506020615489858286016146db565b9150509250929050565b7f4e487b7100000000000000000000000000000000000000000000000000000000600052602260045260246000fd5b600060028204905060018216806154da57607f821691505b6020821081036154ed576154ec615493565b5b50919050565b7f4552433732313a20617070726f76616c20746f2063757272656e74206f776e6560008201527f7200000000000000000000000000000000000000000000000000000000000000602082015250565b600061554f60218361455e565b915061555a826154f3565b604082019050919050565b6000602082019050818103600083015261557e81615542565b9050919050565b7f4552433732313a20617070726f76652063616c6c6572206973206e6f7420746f60008201527f6b656e206f776e6572206f7220617070726f76656420666f7220616c6c000000602082015250565b60006155e1603d8361455e565b91506155ec82615585565b604082019050919050565b60006020820190508181036000830152615610816155d4565b9050919050565b7f4d756c74697369673a2072657175697265640000000000000000000000000000600082015250565b600061564d60128361455e565b915061565882615617565b602082019050919050565b6000602082019050818103600083015261567c81615640565b9050919050565b7f4d756c74697369673a206e6f7420656e6f756768207369676e65727300000000600082015250565b60006156b9601c8361455e565b91506156c482615683565b602082019050919050565b600060208201905081810360008301526156e8816156ac565b9050919050565b6000815190506156fe816146c4565b92915050565b60006020828403121561571a5761571961448e565b5b6000615728848285016156ef565b91505092915050565b7f4f726279633a207369676e6572206e6f74206f776e6572000000000000000000600082015250565b600061576760178361455e565b915061577282615731565b602082019050919050565b600060208201905081810360008301526157968161575a565b9050919050565b7f4552433732313a2063616c6c6572206973206e6f7420746f6b656e206f776e6560008201527f72206f7220617070726f76656400000000000000000000000000000000000000602082015250565b60006157f9602d8361455e565b91506158048261579d565b604082019050919050565b60006020820190508181036000830152615828816157ec565b9050919050565b7f4e487b7100000000000000000000000000000000000000000000000000000000600052601160045260246000fd5b600061586982614605565b915061587483614605565b925082820261588281614605565b915082820484148315176158995761589861582f565b5b5092915050565b7f4e487b7100000000000000000000000000000000000000000000000000000000600052601260045260246000fd5b60006158da82614605565b91506158e583614605565b9250826158f5576158f46158a0565b5b828204905092915050565b7f455243373231456e756d657261626c653a206f776e657220696e646578206f7560008201527f74206f6620626f756e6473000000000000000000000000000000000000000000602082015250565b600061595c602b8361455e565b915061596782615900565b604082019050919050565b6000602082019050818103600083015261598b8161594f565b9050919050565b7f4d756c74697369673a20657865637574696f6e20657870697265640000000000600082015250565b60006159c8601b8361455e565b91506159d382615992565b602082019050919050565b600060208201905081810360008301526159f7816159bb565b9050919050565b600081905092915050565b6000615a1583856159fe565b9350615a22838584614821565b82840190509392505050565b6000615a3b828486615a09565b91508190509392505050565b6000819050919050565b615a5a81615a47565b82525050565b600060a082019050615a756000830188615a51565b615a826020830187615a51565b615a8f604083018661469a565b615a9c6060830185614a09565b615aa96080830184614a09565b9695505050505050565b7f4e487b7100000000000000000000000000000000000000000000000000000000600052603260045260246000fd5b6000615aed82614605565b9150615af883614605565b9250828203905081811115615b1057615b0f61582f565b5b92915050565b7f4d756c74697369673a20756e736f72746564207369676e657273000000000000600082015250565b6000615b4c601a8361455e565b9150615b5782615b16565b602082019050919050565b60006020820190508181036000830152615b7b81615b3f565b9050919050565b6000615b8d82614605565b91507fffffffffffffffffffffffffffffffffffffffffffffffffffffffffffffffff8203615bbf57615bbe61582f565b5b600182019050919050565b7f455243373231456e756d657261626c653a20676c6f62616c20696e646578206f60008201527f7574206f6620626f756e64730000000000000000000000000000000000000000602082015250565b6000615c26602c8361455e565b9150615c3182615bca565b604082019050919050565b60006020820190508181036000830152615c5581615c19565b9050919050565b7f4552433732313a20696e76616c696420746f6b656e2049440000000000000000600082015250565b6000615c9260188361455e565b9150615c9d82615c5c565b602082019050919050565b60006020820190508181036000830152615cc181615c85565b9050919050565b7f4552433732313a2061646472657373207a65726f206973206e6f74206120766160008201527f6c6964206f776e65720000000000000000000000000000000000000000000000602082015250565b6000615d2460298361455e565b9150615d2f82615cc8565b604082019050919050565b60006020820190508181036000830152615d5381615d17565b9050919050565b600081905092915050565b6000615d7082614553565b615d7a8185615d5a565b9350615d8a81856020860161456f565b80840191505092915050565b6000615da28285615d65565b9150615dae8284615d65565b91508190509392505050565b7f416363657373436f6e74726f6c3a2063616e206f6e6c792072656e6f756e636560008201527f20726f6c657320666f722073656c660000000000000000000000000000000000602082015250565b6000615e16602f8361455e565b9150615e2182615dba565b604082019050919050565b60006020820190508181036000830152615e4581615e09565b9050919050565b60008190508160005260206000209050919050565b60006020601f8301049050919050565b600082821b905092915050565b600060088302615eae7fffffffffffffffffffffffffffffffffffffffffffffffffffffffffffffffff82615e71565b615eb88683615e71565b95508019841693508086168417925050509392505050565b6000819050919050565b6000615ef5615ef0615eeb84614605565b615ed0565b614605565b9050919050565b6000819050919050565b615f0f83615eda565b615f23615f1b82615efc565b848454615e7e565b825550505050565b600090565b615f38615f2b565b615f43818484615f06565b505050565b5b81811015615f6757615f5c600082615f30565b600181019050615f49565b5050565b601f821115615fac57615f7d81615e4c565b615f8684615e61565b81016020851015615f95578190505b615fa9615fa185615e61565b830182615f48565b50505b505050565b600082821c905092915050565b6000615fcf60001984600802615fb1565b1980831691505092915050565b6000615fe88383615fbe565b9150826002028217905092915050565b61600182614553565b67ffffffffffffffff81111561601a57616019614735565b5b61602482546154c2565b61602f828285615f6b565b600060209050601f8311600181146160625760008415616050578287015190505b61605a8582615fdc565b8655506160c2565b601f19841661607086615e4c565b60005b8281101561609857848901518255600182019150602085019450602081019050616073565b868310156160b557848901516160b1601f891682615fbe565b8355505b6001600288020188555050505b505050505050565b7f4552433732313a207472616e736665722066726f6d20696e636f72726563742060008201527f6f776e6572000000000000000000000000000000000000000000000000000000602082015250565b600061612660258361455e565b9150616131826160ca565b604082019050919050565b6000602082019050818103600083015261615581616119565b9050919050565b7f4552433732313a207472616e7366657220746f20746865207a65726f2061646460008201527f7265737300000000000000000000000000000000000000000000000000000000602082015250565b60006161b860248361455e565b91506161c38261615c565b604082019050919050565b600060208201905081810360008301526161e7816161ab565b9050919050565b7f4d756c74697369673a207265656e7472616e742063616c6c0000000000000000600082015250565b600061622460188361455e565b915061622f826161ee565b602082019050919050565b6000602082019050818103600083015261625381616217565b9050919050565b7f4552433732313a206d696e7420746f20746865207a65726f2061646472657373600082015250565b600061629060208361455e565b915061629b8261625a565b602082019050919050565b600060208201905081810360008301526162bf81616283565b9050919050565b7f4552433732313a20746f6b656e20616c7265616479206d696e74656400000000600082015250565b60006162fc601c8361455e565b9150616307826162c6565b602082019050919050565b6000602082019050818103600083015261632b816162ef565b9050919050565b7f455243323938313a20726f79616c7479206665652077696c6c2065786365656460008201527f2073616c65507269636500000000000000000000000000000000000000000000602082015250565b600061638e602a8361455e565b915061639982616332565b604082019050919050565b600060208201905081810360008301526163bd81616381565b9050919050565b7f455243323938313a20496e76616c696420706172616d65746572730000000000600082015250565b60006163fa601b8361455e565b9150616405826163c4565b602082019050919050565b60006020820190508181036000830152616429816163ed565b9050919050565b7f4552433732313a20617070726f766520746f2063616c6c657200000000000000600082015250565b600061646660198361455e565b915061647182616430565b602082019050919050565b6000602082019050818103600083015261649581616459565b9050919050565b7f4552433732313a207472616e7366657220746f206e6f6e20455243373231526560008201527f63656976657220696d706c656d656e7465720000000000000000000000000000602082015250565b60006164f860328361455e565b91506165038261649c565b604082019050919050565b60006020820190508181036000830152616527816164eb565b9050919050565b7f416363657373436f6e74726f6c3a206163636f756e74206973206d697373696e60008201527f6720726f6c650000000000000000000000000000000000000000000000000000602082015250565b600061658a60268361455e565b91506165958261652e565b604082019050919050565b600060208201905081810360008301526165b98161657d565b9050919050565b7f455243373231456e756d657261626c653a20636f6e736563757469766520747260008201527f616e7366657273206e6f7420737570706f727465640000000000000000000000602082015250565b600061661c60358361455e565b9150616627826165c0565b604082019050919050565b6000602082019050818103600083015261664b8161660f565b9050919050565b7f1901000000000000000000000000000000000000000000000000000000000000600082015250565b6000616688600283615d5a565b915061669382616652565b600282019050919050565b6000819050919050565b6166b96166b482615a47565b61669e565b82525050565b60006166ca8261667b565b91506166d682856166a8565b6020820191506166e682846166a8565b6020820191508190509392505050565b7f4e487b7100000000000000000000000000000000000000000000000000000000600052602160045260246000fd5b7f45434453413a20696e76616c6964207369676e61747572650000000000000000600082015250565b600061675b60188361455e565b915061676682616725565b602082019050919050565b6000602082019050818103600083015261678a8161674e565b9050919050565b7f45434453413a20696e76616c6964207369676e6174757265206c656e67746800600082015250565b60006167c7601f8361455e565b91506167d282616791565b602082019050919050565b600060208201905081810360008301526167f6816167ba565b9050919050565b7f45434453413a20696e76616c6964207369676e6174757265202773272076616c60008201527f7565000000000000000000000000000000000000000000000000000000000000602082015250565b600061685960228361455e565b9150616864826167fd565b604082019050919050565b600060208201905081810360008301526168888161684c565b9050919050565b600061689a82614d5c565b6168a481856159fe565b93506168b481856020860161456f565b80840191505092915050565b60006168cc828461688f565b915081905092915050565b60006080820190506168ec600083018761469a565b6168f9602083018661469a565b6169066040830185614a09565b81810360608301526169188184614d78565b905095945050505050565b600081519050616932816144c4565b92915050565b60006020828403121561694e5761694d61448e565b5b600061695c84828501616923565b91505092915050565b600061697082614605565b915061697b83614605565b92508282019050808211156169935761699261582f565b5b92915050565b7f4e487b7100000000000000000000000000000000000000000000000000000000600052603160045260246000fd5b600060a0820190506169dd6000830188615a51565b6169ea6020830187615a51565b6169f76040830186615a51565b616a046060830185614a09565b616a11608083018461469a565b9695505050505050565b600060ff82169050919050565b616a3181616a1b565b82525050565b6000608082019050616a4c6000830187615a51565b616a596020830186616a28565b616a666040830185615a51565b616a736060830184615a51565b95945050505050565b7f416464726573733a2063616c6c20746f206e6f6e2d636f6e7472616374000000600082015250565b6000616ab2601d8361455e565b9150616abd82616a7c565b602082019050919050565b60006020820190508181036000830152616ae181616aa5565b905091905056fe416464726573733a206c6f772d6c6576656c2064656c65676174652063616c6c206661696c6564a26469706673582212206c05b088a10e901f777e3a9707b8f8629ce0be8cd67fe9b201aa360342a0b57364736f6c63430008110033","opcodes":"PUSH2 0x160 PUSH1 0x40 MSTORE PUSH32 0xD4335C17694100386699225E8046BB34815F8092A80796AD9C2BC1F9CB2C99C4 PUSH2 0x140 SWAP1 DUP2 MSTORE POP CALLVALUE DUP1 ISZERO PUSH3 0x3A JUMPI PUSH1 0x0 DUP1 REVERT JUMPDEST POP PUSH1 0x40 MLOAD PUSH3 0x779C CODESIZE SUB DUP1 PUSH3 0x779C DUP4 CODECOPY DUP2 DUP2 ADD PUSH1 0x40 MSTORE DUP2 ADD SWAP1 PUSH3 0x60 SWAP2 SWAP1 PUSH3 0x716 JUMP JUMPDEST DUP3 DUP4 DUP4 DUP3 PUSH1 0x40 MLOAD DUP1 PUSH1 0x40 ADD PUSH1 0x40 MSTORE DUP1 PUSH1 0x1 DUP2 MSTORE PUSH1 0x20 ADD PUSH32 0x3100000000000000000000000000000000000000000000000000000000000000 DUP2 MSTORE POP PUSH1 0x0 DUP3 DUP1 MLOAD SWAP1 PUSH1 0x20 ADD KECCAK256 SWAP1 POP PUSH1 0x0 DUP3 DUP1 MLOAD SWAP1 PUSH1 0x20 ADD KECCAK256 SWAP1 POP PUSH1 0x0 PUSH32 0x8B73C3C69BB8FE3D512ECC4CF759CC79239F7B179B0FFACAA9A75D522B39400F SWAP1 POP DUP3 PUSH1 0xE0 DUP2 DUP2 MSTORE POP POP DUP2 PUSH2 0x100 DUP2 DUP2 MSTORE POP POP CHAINID PUSH1 0xA0 DUP2 DUP2 MSTORE POP POP PUSH3 0x103 DUP2 DUP5 DUP5 PUSH3 0x21B PUSH1 0x20 SHL PUSH1 0x20 SHR JUMP JUMPDEST PUSH1 0x80 DUP2 DUP2 MSTORE POP POP ADDRESS PUSH20 0xFFFFFFFFFFFFFFFFFFFFFFFFFFFFFFFFFFFFFFFF AND PUSH1 0xC0 DUP2 PUSH20 0xFFFFFFFFFFFFFFFFFFFFFFFFFFFFFFFFFFFFFFFF AND DUP2 MSTORE POP POP DUP1 PUSH2 0x120 DUP2 DUP2 MSTORE POP POP POP POP POP POP POP DUP2 PUSH1 0x2 SWAP1 DUP2 PUSH3 0x15D SWAP2 SWAP1 PUSH3 0x9FB JUMP JUMPDEST POP DUP1 PUSH1 0x3 SWAP1 DUP2 PUSH3 0x16F SWAP2 SWAP1 PUSH3 0x9FB JUMP JUMPDEST POP POP POP POP DUP1 PUSH1 0x14 PUSH1 0x0 PUSH2 0x100 EXP DUP2 SLOAD DUP2 PUSH20 0xFFFFFFFFFFFFFFFFFFFFFFFFFFFFFFFFFFFFFFFF MUL NOT AND SWAP1 DUP4 PUSH20 0xFFFFFFFFFFFFFFFFFFFFFFFFFFFFFFFFFFFFFFFF AND MUL OR SWAP1 SSTORE POP PUSH3 0x1C8 PUSH1 0x2 PUSH1 0x1 PUSH3 0x257 PUSH1 0x20 SHL PUSH1 0x20 SHR JUMP JUMPDEST PUSH3 0x1DC PUSH1 0x4 PUSH1 0x1 PUSH3 0x257 PUSH1 0x20 SHL PUSH1 0x20 SHR JUMP JUMPDEST PUSH3 0x1F0 PUSH1 0x8 PUSH1 0x1 PUSH3 0x257 PUSH1 0x20 SHL PUSH1 0x20 SHR JUMP JUMPDEST PUSH3 0x212 PUSH1 0x1 PUSH3 0x206 PUSH3 0x30B PUSH1 0x20 SHL PUSH1 0x20 SHR JUMP JUMPDEST PUSH3 0x3C7 PUSH1 0x20 SHL PUSH1 0x20 SHR JUMP JUMPDEST POP POP POP PUSH3 0xBFC JUMP JUMPDEST PUSH1 0x0 DUP4 DUP4 DUP4 CHAINID ADDRESS PUSH1 0x40 MLOAD PUSH1 0x20 ADD PUSH3 0x238 SWAP6 SWAP5 SWAP4 SWAP3 SWAP2 SWAP1 PUSH3 0xB1F JUMP JUMPDEST PUSH1 0x40 MLOAD PUSH1 0x20 DUP2 DUP4 SUB SUB DUP2 MSTORE SWAP1 PUSH1 0x40 MSTORE DUP1 MLOAD SWAP1 PUSH1 0x20 ADD KECCAK256 SWAP1 POP SWAP4 SWAP3 POP POP POP JUMP JUMPDEST PUSH1 0x0 PUSH3 0x26A DUP4 PUSH3 0x4BE PUSH1 0x20 SHL PUSH1 0x20 SHR JUMP JUMPDEST SWAP1 POP DUP2 PUSH1 0x0 DUP1 DUP6 PUSH8 0xFFFFFFFFFFFFFFFF AND PUSH8 0xFFFFFFFFFFFFFFFF AND DUP2 MSTORE PUSH1 0x20 ADD SWAP1 DUP2 MSTORE PUSH1 0x20 ADD PUSH1 0x0 KECCAK256 PUSH1 0x0 PUSH2 0x100 EXP DUP2 SLOAD DUP2 PUSH8 0xFFFFFFFFFFFFFFFF MUL NOT AND SWAP1 DUP4 PUSH8 0xFFFFFFFFFFFFFFFF AND MUL OR SWAP1 SSTORE POP DUP2 PUSH8 0xFFFFFFFFFFFFFFFF AND DUP2 PUSH8 0xFFFFFFFFFFFFFFFF AND DUP5 PUSH8 0xFFFFFFFFFFFFFFFF AND PUSH32 0xB3F64D01C9FFE8C7DA50937E6617936AAE17A6C8D8502CB470BDF50484CE4917 PUSH1 0x40 MLOAD PUSH1 0x40 MLOAD DUP1 SWAP2 SUB SWAP1 LOG4 POP POP POP JUMP JUMPDEST PUSH1 0x0 PUSH1 0x14 PUSH1 0x0 SWAP1 SLOAD SWAP1 PUSH2 0x100 EXP SWAP1 DIV PUSH20 0xFFFFFFFFFFFFFFFFFFFFFFFFFFFFFFFFFFFFFFFF AND PUSH20 0xFFFFFFFFFFFFFFFFFFFFFFFFFFFFFFFFFFFFFFFF AND PUSH4 0x8086B8BA PUSH3 0x360 PUSH3 0x502 PUSH1 0x20 SHL PUSH3 0x1FE4 OR PUSH1 0x20 SHR JUMP JUMPDEST PUSH1 0x40 MLOAD DUP3 PUSH4 0xFFFFFFFF AND PUSH1 0xE0 SHL DUP2 MSTORE PUSH1 0x4 ADD PUSH3 0x37E SWAP2 SWAP1 PUSH3 0xB7C JUMP JUMPDEST PUSH1 0x20 PUSH1 0x40 MLOAD DUP1 DUP4 SUB DUP2 DUP7 GAS STATICCALL ISZERO DUP1 ISZERO PUSH3 0x39C JUMPI RETURNDATASIZE PUSH1 0x0 DUP1 RETURNDATACOPY RETURNDATASIZE PUSH1 0x0 REVERT JUMPDEST POP POP POP POP PUSH1 0x40 MLOAD RETURNDATASIZE PUSH1 0x1F NOT PUSH1 0x1F DUP3 ADD AND DUP3 ADD DUP1 PUSH1 0x40 MSTORE POP DUP2 ADD SWAP1 PUSH3 0x3C2 SWAP2 SWAP1 PUSH3 0xBCA JUMP JUMPDEST SWAP1 POP SWAP1 JUMP JUMPDEST DUP2 PUSH1 0x1 PUSH1 0x0 DUP4 PUSH20 0xFFFFFFFFFFFFFFFFFFFFFFFFFFFFFFFFFFFFFFFF AND PUSH20 0xFFFFFFFFFFFFFFFFFFFFFFFFFFFFFFFFFFFFFFFF AND DUP2 MSTORE PUSH1 0x20 ADD SWAP1 DUP2 MSTORE PUSH1 0x20 ADD PUSH1 0x0 KECCAK256 PUSH1 0x0 DUP3 DUP3 DUP3 SWAP1 SLOAD SWAP1 PUSH2 0x100 EXP SWAP1 DIV PUSH8 0xFFFFFFFFFFFFFFFF AND OR SWAP3 POP PUSH2 0x100 EXP DUP2 SLOAD DUP2 PUSH8 0xFFFFFFFFFFFFFFFF MUL NOT AND SWAP1 DUP4 PUSH8 0xFFFFFFFFFFFFFFFF AND MUL OR SWAP1 SSTORE POP PUSH3 0x456 PUSH3 0x30B PUSH1 0x20 SHL PUSH1 0x20 SHR JUMP JUMPDEST PUSH20 0xFFFFFFFFFFFFFFFFFFFFFFFFFFFFFFFFFFFFFFFF AND DUP2 PUSH20 0xFFFFFFFFFFFFFFFFFFFFFFFFFFFFFFFFFFFFFFFF AND DUP4 PUSH8 0xFFFFFFFFFFFFFFFF AND PUSH32 0x2E633503BDBB177665559A9EFB7B963D30F2042D94C73311E9C54F799584ABD5 PUSH1 0x40 MLOAD PUSH1 0x40 MLOAD DUP1 SWAP2 SUB SWAP1 LOG4 POP POP JUMP JUMPDEST PUSH1 0x0 DUP1 PUSH1 0x0 DUP4 PUSH8 0xFFFFFFFFFFFFFFFF AND PUSH8 0xFFFFFFFFFFFFFFFF AND DUP2 MSTORE PUSH1 0x20 ADD SWAP1 DUP2 MSTORE PUSH1 0x20 ADD PUSH1 0x0 KECCAK256 PUSH1 0x0 SWAP1 SLOAD SWAP1 PUSH2 0x100 EXP SWAP1 DIV PUSH8 0xFFFFFFFFFFFFFFFF AND SWAP1 POP SWAP2 SWAP1 POP JUMP JUMPDEST PUSH1 0x0 CALLER SWAP1 POP SWAP1 JUMP JUMPDEST PUSH1 0x0 PUSH1 0x40 MLOAD SWAP1 POP SWAP1 JUMP JUMPDEST PUSH1 0x0 DUP1 REVERT JUMPDEST PUSH1 0x0 DUP1 REVERT JUMPDEST PUSH1 0x0 DUP1 REVERT JUMPDEST PUSH1 0x0 DUP1 REVERT JUMPDEST PUSH1 0x0 PUSH1 0x1F NOT PUSH1 0x1F DUP4 ADD AND SWAP1 POP SWAP2 SWAP1 POP JUMP JUMPDEST PUSH32 0x4E487B7100000000000000000000000000000000000000000000000000000000 PUSH1 0x0 MSTORE PUSH1 0x41 PUSH1 0x4 MSTORE PUSH1 0x24 PUSH1 0x0 REVERT JUMPDEST PUSH3 0x573 DUP3 PUSH3 0x528 JUMP JUMPDEST DUP2 ADD DUP2 DUP2 LT PUSH8 0xFFFFFFFFFFFFFFFF DUP3 GT OR ISZERO PUSH3 0x595 JUMPI PUSH3 0x594 PUSH3 0x539 JUMP JUMPDEST JUMPDEST DUP1 PUSH1 0x40 MSTORE POP POP POP JUMP JUMPDEST PUSH1 0x0 PUSH3 0x5AA PUSH3 0x50A JUMP JUMPDEST SWAP1 POP PUSH3 0x5B8 DUP3 DUP3 PUSH3 0x568 JUMP JUMPDEST SWAP2 SWAP1 POP JUMP JUMPDEST PUSH1 0x0 PUSH8 0xFFFFFFFFFFFFFFFF DUP3 GT ISZERO PUSH3 0x5DB JUMPI PUSH3 0x5DA PUSH3 0x539 JUMP JUMPDEST JUMPDEST PUSH3 0x5E6 DUP3 PUSH3 0x528 JUMP JUMPDEST SWAP1 POP PUSH1 0x20 DUP2 ADD SWAP1 POP SWAP2 SWAP1 POP JUMP JUMPDEST PUSH1 0x0 JUMPDEST DUP4 DUP2 LT ISZERO PUSH3 0x613 JUMPI DUP1 DUP3 ADD MLOAD DUP2 DUP5 ADD MSTORE PUSH1 0x20 DUP2 ADD SWAP1 POP PUSH3 0x5F6 JUMP JUMPDEST PUSH1 0x0 DUP5 DUP5 ADD MSTORE POP POP POP POP JUMP JUMPDEST PUSH1 0x0 PUSH3 0x636 PUSH3 0x630 DUP5 PUSH3 0x5BD JUMP JUMPDEST PUSH3 0x59E JUMP JUMPDEST SWAP1 POP DUP3 DUP2 MSTORE PUSH1 0x20 DUP2 ADD DUP5 DUP5 DUP5 ADD GT ISZERO PUSH3 0x655 JUMPI PUSH3 0x654 PUSH3 0x523 JUMP JUMPDEST JUMPDEST PUSH3 0x662 DUP5 DUP3 DUP6 PUSH3 0x5F3 JUMP JUMPDEST POP SWAP4 SWAP3 POP POP POP JUMP JUMPDEST PUSH1 0x0 DUP3 PUSH1 0x1F DUP4 ADD SLT PUSH3 0x682 JUMPI PUSH3 0x681 PUSH3 0x51E JUMP JUMPDEST JUMPDEST DUP2 MLOAD PUSH3 0x694 DUP5 DUP3 PUSH1 0x20 DUP7 ADD PUSH3 0x61F JUMP JUMPDEST SWAP2 POP POP SWAP3 SWAP2 POP POP JUMP JUMPDEST PUSH1 0x0 PUSH20 0xFFFFFFFFFFFFFFFFFFFFFFFFFFFFFFFFFFFFFFFF DUP3 AND SWAP1 POP SWAP2 SWAP1 POP JUMP JUMPDEST PUSH1 0x0 PUSH3 0x6CA DUP3 PUSH3 0x69D JUMP JUMPDEST SWAP1 POP SWAP2 SWAP1 POP JUMP JUMPDEST PUSH1 0x0 PUSH3 0x6DE DUP3 PUSH3 0x6BD JUMP JUMPDEST SWAP1 POP SWAP2 SWAP1 POP JUMP JUMPDEST PUSH3 0x6F0 DUP2 PUSH3 0x6D1 JUMP JUMPDEST DUP2 EQ PUSH3 0x6FC JUMPI PUSH1 0x0 DUP1 REVERT JUMPDEST POP JUMP JUMPDEST PUSH1 0x0 DUP2 MLOAD SWAP1 POP PUSH3 0x710 DUP2 PUSH3 0x6E5 JUMP JUMPDEST SWAP3 SWAP2 POP POP JUMP JUMPDEST PUSH1 0x0 DUP1 PUSH1 0x0 PUSH1 0x60 DUP5 DUP7 SUB SLT ISZERO PUSH3 0x732 JUMPI PUSH3 0x731 PUSH3 0x514 JUMP JUMPDEST JUMPDEST PUSH1 0x0 DUP5 ADD MLOAD PUSH8 0xFFFFFFFFFFFFFFFF DUP2 GT ISZERO PUSH3 0x753 JUMPI PUSH3 0x752 PUSH3 0x519 JUMP JUMPDEST JUMPDEST PUSH3 0x761 DUP7 DUP3 DUP8 ADD PUSH3 0x66A JUMP JUMPDEST SWAP4 POP POP PUSH1 0x20 DUP5 ADD MLOAD PUSH8 0xFFFFFFFFFFFFFFFF DUP2 GT ISZERO PUSH3 0x785 JUMPI PUSH3 0x784 PUSH3 0x519 JUMP JUMPDEST JUMPDEST PUSH3 0x793 DUP7 DUP3 DUP8 ADD PUSH3 0x66A JUMP JUMPDEST SWAP3 POP POP PUSH1 0x40 PUSH3 0x7A6 DUP7 DUP3 DUP8 ADD PUSH3 0x6FF JUMP JUMPDEST SWAP2 POP POP SWAP3 POP SWAP3 POP SWAP3 JUMP JUMPDEST PUSH1 0x0 DUP2 MLOAD SWAP1 POP SWAP2 SWAP1 POP JUMP JUMPDEST PUSH32 0x4E487B7100000000000000000000000000000000000000000000000000000000 PUSH1 0x0 MSTORE PUSH1 0x22 PUSH1 0x4 MSTORE PUSH1 0x24 PUSH1 0x0 REVERT JUMPDEST PUSH1 0x0 PUSH1 0x2 DUP3 DIV SWAP1 POP PUSH1 0x1 DUP3 AND DUP1 PUSH3 0x803 JUMPI PUSH1 0x7F DUP3 AND SWAP2 POP JUMPDEST PUSH1 0x20 DUP3 LT DUP2 SUB PUSH3 0x819 JUMPI PUSH3 0x818 PUSH3 0x7BB JUMP JUMPDEST JUMPDEST POP SWAP2 SWAP1 POP JUMP JUMPDEST PUSH1 0x0 DUP2 SWAP1 POP DUP2 PUSH1 0x0 MSTORE PUSH1 0x20 PUSH1 0x0 KECCAK256 SWAP1 POP SWAP2 SWAP1 POP JUMP JUMPDEST PUSH1 0x0 PUSH1 0x20 PUSH1 0x1F DUP4 ADD DIV SWAP1 POP SWAP2 SWAP1 POP JUMP JUMPDEST PUSH1 0x0 DUP3 DUP3 SHL SWAP1 POP SWAP3 SWAP2 POP POP JUMP JUMPDEST PUSH1 0x0 PUSH1 0x8 DUP4 MUL PUSH3 0x883 PUSH32 0xFFFFFFFFFFFFFFFFFFFFFFFFFFFFFFFFFFFFFFFFFFFFFFFFFFFFFFFFFFFFFFFF DUP3 PUSH3 0x844 JUMP JUMPDEST PUSH3 0x88F DUP7 DUP4 PUSH3 0x844 JUMP JUMPDEST SWAP6 POP DUP1 NOT DUP5 AND SWAP4 POP DUP1 DUP7 AND DUP5 OR SWAP3 POP POP POP SWAP4 SWAP3 POP POP POP JUMP JUMPDEST PUSH1 0x0 DUP2 SWAP1 POP SWAP2 SWAP1 POP JUMP JUMPDEST PUSH1 0x0 DUP2 SWAP1 POP SWAP2 SWAP1 POP JUMP JUMPDEST PUSH1 0x0 PUSH3 0x8DC PUSH3 0x8D6 PUSH3 0x8D0 DUP5 PUSH3 0x8A7 JUMP JUMPDEST PUSH3 0x8B1 JUMP JUMPDEST PUSH3 0x8A7 JUMP JUMPDEST SWAP1 POP SWAP2 SWAP1 POP JUMP JUMPDEST PUSH1 0x0 DUP2 SWAP1 POP SWAP2 SWAP1 POP JUMP JUMPDEST PUSH3 0x8F8 DUP4 PUSH3 0x8BB JUMP JUMPDEST PUSH3 0x910 PUSH3 0x907 DUP3 PUSH3 0x8E3 JUMP JUMPDEST DUP5 DUP5 SLOAD PUSH3 0x851 JUMP JUMPDEST DUP3 SSTORE POP POP POP POP JUMP JUMPDEST PUSH1 0x0 SWAP1 JUMP JUMPDEST PUSH3 0x927 PUSH3 0x918 JUMP JUMPDEST PUSH3 0x934 DUP2 DUP5 DUP5 PUSH3 0x8ED JUMP JUMPDEST POP POP POP JUMP JUMPDEST JUMPDEST DUP2 DUP2 LT ISZERO PUSH3 0x95C JUMPI PUSH3 0x950 PUSH1 0x0 DUP3 PUSH3 0x91D JUMP JUMPDEST PUSH1 0x1 DUP2 ADD SWAP1 POP PUSH3 0x93A JUMP JUMPDEST POP POP JUMP JUMPDEST PUSH1 0x1F DUP3 GT ISZERO PUSH3 0x9AB JUMPI PUSH3 0x975 DUP2 PUSH3 0x81F JUMP JUMPDEST PUSH3 0x980 DUP5 PUSH3 0x834 JUMP JUMPDEST DUP2 ADD PUSH1 0x20 DUP6 LT ISZERO PUSH3 0x990 JUMPI DUP2 SWAP1 POP JUMPDEST PUSH3 0x9A8 PUSH3 0x99F DUP6 PUSH3 0x834 JUMP JUMPDEST DUP4 ADD DUP3 PUSH3 0x939 JUMP JUMPDEST POP POP JUMPDEST POP POP POP JUMP JUMPDEST PUSH1 0x0 DUP3 DUP3 SHR SWAP1 POP SWAP3 SWAP2 POP POP JUMP JUMPDEST PUSH1 0x0 PUSH3 0x9D0 PUSH1 0x0 NOT DUP5 PUSH1 0x8 MUL PUSH3 0x9B0 JUMP JUMPDEST NOT DUP1 DUP4 AND SWAP2 POP POP SWAP3 SWAP2 POP POP JUMP JUMPDEST PUSH1 0x0 PUSH3 0x9EB DUP4 DUP4 PUSH3 0x9BD JUMP JUMPDEST SWAP2 POP DUP3 PUSH1 0x2 MUL DUP3 OR SWAP1 POP SWAP3 SWAP2 POP POP JUMP JUMPDEST PUSH3 0xA06 DUP3 PUSH3 0x7B0 JUMP JUMPDEST PUSH8 0xFFFFFFFFFFFFFFFF DUP2 GT ISZERO PUSH3 0xA22 JUMPI PUSH3 0xA21 PUSH3 0x539 JUMP JUMPDEST JUMPDEST PUSH3 0xA2E DUP3 SLOAD PUSH3 0x7EA JUMP JUMPDEST PUSH3 0xA3B DUP3 DUP3 DUP6 PUSH3 0x960 JUMP JUMPDEST PUSH1 0x0 PUSH1 0x20 SWAP1 POP PUSH1 0x1F DUP4 GT PUSH1 0x1 DUP2 EQ PUSH3 0xA73 JUMPI PUSH1 0x0 DUP5 ISZERO PUSH3 0xA5E JUMPI DUP3 DUP8 ADD MLOAD SWAP1 POP JUMPDEST PUSH3 0xA6A DUP6 DUP3 PUSH3 0x9DD JUMP JUMPDEST DUP7 SSTORE POP PUSH3 0xADA JUMP JUMPDEST PUSH1 0x1F NOT DUP5 AND PUSH3 0xA83 DUP7 PUSH3 0x81F JUMP JUMPDEST PUSH1 0x0 JUMPDEST DUP3 DUP2 LT ISZERO PUSH3 0xAAD JUMPI DUP5 DUP10 ADD MLOAD DUP3 SSTORE PUSH1 0x1 DUP3 ADD SWAP2 POP PUSH1 0x20 DUP6 ADD SWAP5 POP PUSH1 0x20 DUP2 ADD SWAP1 POP PUSH3 0xA86 JUMP JUMPDEST DUP7 DUP4 LT ISZERO PUSH3 0xACD JUMPI DUP5 DUP10 ADD MLOAD PUSH3 0xAC9 PUSH1 0x1F DUP10 AND DUP3 PUSH3 0x9BD JUMP JUMPDEST DUP4 SSTORE POP JUMPDEST PUSH1 0x1 PUSH1 0x2 DUP9 MUL ADD DUP9 SSTORE POP POP POP JUMPDEST POP POP POP POP POP POP JUMP JUMPDEST PUSH1 0x0 DUP2 SWAP1 POP SWAP2 SWAP1 POP JUMP JUMPDEST PUSH3 0xAF7 DUP2 PUSH3 0xAE2 JUMP JUMPDEST DUP3 MSTORE POP POP JUMP JUMPDEST PUSH3 0xB08 DUP2 PUSH3 0x8A7 JUMP JUMPDEST DUP3 MSTORE POP POP JUMP JUMPDEST PUSH3 0xB19 DUP2 PUSH3 0x6BD JUMP JUMPDEST DUP3 MSTORE POP POP JUMP JUMPDEST PUSH1 0x0 PUSH1 0xA0 DUP3 ADD SWAP1 POP PUSH3 0xB36 PUSH1 0x0 DUP4 ADD DUP9 PUSH3 0xAEC JUMP JUMPDEST PUSH3 0xB45 PUSH1 0x20 DUP4 ADD DUP8 PUSH3 0xAEC JUMP JUMPDEST PUSH3 0xB54 PUSH1 0x40 DUP4 ADD DUP7 PUSH3 0xAEC JUMP JUMPDEST PUSH3 0xB63 PUSH1 0x60 DUP4 ADD DUP6 PUSH3 0xAFD JUMP JUMPDEST PUSH3 0xB72 PUSH1 0x80 DUP4 ADD DUP5 PUSH3 0xB0E JUMP JUMPDEST SWAP7 SWAP6 POP POP POP POP POP POP JUMP JUMPDEST PUSH1 0x0 PUSH1 0x20 DUP3 ADD SWAP1 POP PUSH3 0xB93 PUSH1 0x0 DUP4 ADD DUP5 PUSH3 0xB0E JUMP JUMPDEST SWAP3 SWAP2 POP POP JUMP JUMPDEST PUSH3 0xBA4 DUP2 PUSH3 0x6BD JUMP JUMPDEST DUP2 EQ PUSH3 0xBB0 JUMPI PUSH1 0x0 DUP1 REVERT JUMPDEST POP JUMP JUMPDEST PUSH1 0x0 DUP2 MLOAD SWAP1 POP PUSH3 0xBC4 DUP2 PUSH3 0xB99 JUMP JUMPDEST SWAP3 SWAP2 POP POP JUMP JUMPDEST PUSH1 0x0 PUSH1 0x20 DUP3 DUP5 SUB SLT ISZERO PUSH3 0xBE3 JUMPI PUSH3 0xBE2 PUSH3 0x514 JUMP JUMPDEST JUMPDEST PUSH1 0x0 PUSH3 0xBF3 DUP5 DUP3 DUP6 ADD PUSH3 0xBB3 JUMP JUMPDEST SWAP2 POP POP SWAP3 SWAP2 POP POP JUMP JUMPDEST PUSH1 0x80 MLOAD PUSH1 0xA0 MLOAD PUSH1 0xC0 MLOAD PUSH1 0xE0 MLOAD PUSH2 0x100 MLOAD PUSH2 0x120 MLOAD PUSH2 0x140 MLOAD PUSH2 0x6B45 PUSH3 0xC57 PUSH1 0x0 CODECOPY PUSH1 0x0 PUSH2 0x1078 ADD MSTORE PUSH1 0x0 PUSH2 0x3706 ADD MSTORE PUSH1 0x0 PUSH2 0x3748 ADD MSTORE PUSH1 0x0 PUSH2 0x3727 ADD MSTORE PUSH1 0x0 PUSH2 0x365C ADD MSTORE PUSH1 0x0 PUSH2 0x36B2 ADD MSTORE PUSH1 0x0 PUSH2 0x36DB ADD MSTORE PUSH2 0x6B45 PUSH1 0x0 RETURN INVALID PUSH1 0x80 PUSH1 0x40 MSTORE CALLVALUE DUP1 ISZERO PUSH2 0x10 JUMPI PUSH1 0x0 DUP1 REVERT JUMPDEST POP PUSH1 0x4 CALLDATASIZE LT PUSH2 0x21C JUMPI PUSH1 0x0 CALLDATALOAD PUSH1 0xE0 SHR DUP1 PUSH4 0x77097FC8 GT PUSH2 0x125 JUMPI DUP1 PUSH4 0xB7D2B162 GT PUSH2 0xAD JUMPI DUP1 PUSH4 0xD1F856EE GT PUSH2 0x7C JUMPI DUP1 PUSH4 0xD1F856EE EQ PUSH2 0x6A8 JUMPI DUP1 PUSH4 0xD86D6952 EQ PUSH2 0x6D8 JUMPI DUP1 PUSH4 0xD8F9CE24 EQ PUSH2 0x6F6 JUMPI DUP1 PUSH4 0xE985E9C5 EQ PUSH2 0x714 JUMPI DUP1 PUSH4 0xFE0776F5 EQ PUSH2 0x744 JUMPI PUSH2 0x21C JUMP JUMPDEST DUP1 PUSH4 0xB7D2B162 EQ PUSH2 0x610 JUMPI DUP1 PUSH4 0xB88D4FDE EQ PUSH2 0x62C JUMPI DUP1 PUSH4 0xBCA841B1 EQ PUSH2 0x648 JUMPI DUP1 PUSH4 0xC87B56DD EQ PUSH2 0x678 JUMPI PUSH2 0x21C JUMP JUMPDEST DUP1 PUSH4 0xA217FDDF GT PUSH2 0xF4 JUMPI DUP1 PUSH4 0xA217FDDF EQ PUSH2 0x56C JUMPI DUP1 PUSH4 0xA22CB465 EQ PUSH2 0x58A JUMPI DUP1 PUSH4 0xA41144CB EQ PUSH2 0x5A6 JUMPI DUP1 PUSH4 0xA574CEA4 EQ PUSH2 0x5C4 JUMPI DUP1 PUSH4 0xB428B0B0 EQ PUSH2 0x5F4 JUMPI PUSH2 0x21C JUMP JUMPDEST DUP1 PUSH4 0x77097FC8 EQ PUSH2 0x4E6 JUMPI DUP1 PUSH4 0x7ECEBE00 EQ PUSH2 0x502 JUMPI DUP1 PUSH4 0x95D89B41 EQ PUSH2 0x532 JUMPI DUP1 PUSH4 0x9C23CBFF EQ PUSH2 0x550 JUMPI PUSH2 0x21C JUMP JUMPDEST DUP1 PUSH4 0x2F745C59 GT PUSH2 0x1A8 JUMPI DUP1 PUSH4 0x530DD456 GT PUSH2 0x177 JUMPI DUP1 PUSH4 0x530DD456 EQ PUSH2 0x40A JUMPI DUP1 PUSH4 0x547CB677 EQ PUSH2 0x43A JUMPI DUP1 PUSH4 0x6352211E EQ PUSH2 0x46A JUMPI DUP1 PUSH4 0x70A08231 EQ PUSH2 0x49A JUMPI DUP1 PUSH4 0x72DC0DB9 EQ PUSH2 0x4CA JUMPI PUSH2 0x21C JUMP JUMPDEST DUP1 PUSH4 0x2F745C59 EQ PUSH2 0x35E JUMPI DUP1 PUSH4 0x36ED6828 EQ PUSH2 0x38E JUMPI DUP1 PUSH4 0x42842E0E EQ PUSH2 0x3BE JUMPI DUP1 PUSH4 0x4F6CCCE7 EQ PUSH2 0x3DA JUMPI PUSH2 0x21C JUMP JUMPDEST DUP1 PUSH4 0xB6C1368 GT PUSH2 0x1EF JUMPI DUP1 PUSH4 0xB6C1368 EQ PUSH2 0x2BB JUMPI DUP1 PUSH4 0xC328F34 EQ PUSH2 0x2D7 JUMPI DUP1 PUSH4 0x18160DDD EQ PUSH2 0x2F3 JUMPI DUP1 PUSH4 0x23B872DD EQ PUSH2 0x311 JUMPI DUP1 PUSH4 0x2A55205A EQ PUSH2 0x32D JUMPI PUSH2 0x21C JUMP JUMPDEST DUP1 PUSH4 0x1FFC9A7 EQ PUSH2 0x221 JUMPI DUP1 PUSH4 0x6FDDE03 EQ PUSH2 0x251 JUMPI DUP1 PUSH4 0x81812FC EQ PUSH2 0x26F JUMPI DUP1 PUSH4 0x95EA7B3 EQ PUSH2 0x29F JUMPI JUMPDEST PUSH1 0x0 DUP1 REVERT JUMPDEST PUSH2 0x23B PUSH1 0x4 DUP1 CALLDATASIZE SUB DUP2 ADD SWAP1 PUSH2 0x236 SWAP2 SWAP1 PUSH2 0x44F0 JUMP JUMPDEST PUSH2 0x760 JUMP JUMPDEST PUSH1 0x40 MLOAD PUSH2 0x248 SWAP2 SWAP1 PUSH2 0x4538 JUMP JUMPDEST PUSH1 0x40 MLOAD DUP1 SWAP2 SUB SWAP1 RETURN JUMPDEST PUSH2 0x259 PUSH2 0x7A2 JUMP JUMPDEST PUSH1 0x40 MLOAD PUSH2 0x266 SWAP2 SWAP1 PUSH2 0x45E3 JUMP JUMPDEST PUSH1 0x40 MLOAD DUP1 SWAP2 SUB SWAP1 RETURN JUMPDEST PUSH2 0x289 PUSH1 0x4 DUP1 CALLDATASIZE SUB DUP2 ADD SWAP1 PUSH2 0x284 SWAP2 SWAP1 PUSH2 0x463B JUMP JUMPDEST PUSH2 0x834 JUMP JUMPDEST PUSH1 0x40 MLOAD PUSH2 0x296 SWAP2 SWAP1 PUSH2 0x46A9 JUMP JUMPDEST PUSH1 0x40 MLOAD DUP1 SWAP2 SUB SWAP1 RETURN JUMPDEST PUSH2 0x2B9 PUSH1 0x4 DUP1 CALLDATASIZE SUB DUP2 ADD SWAP1 PUSH2 0x2B4 SWAP2 SWAP1 PUSH2 0x46F0 JUMP JUMPDEST PUSH2 0x87A JUMP JUMPDEST STOP JUMPDEST PUSH2 0x2D5 PUSH1 0x4 DUP1 CALLDATASIZE SUB DUP2 ADD SWAP1 PUSH2 0x2D0 SWAP2 SWAP1 PUSH2 0x49AD JUMP JUMPDEST PUSH2 0x991 JUMP JUMPDEST STOP JUMPDEST PUSH2 0x2F1 PUSH1 0x4 DUP1 CALLDATASIZE SUB DUP2 ADD SWAP1 PUSH2 0x2EC SWAP2 SWAP1 PUSH2 0x463B JUMP JUMPDEST PUSH2 0xB5F JUMP JUMPDEST STOP JUMPDEST PUSH2 0x2FB PUSH2 0xD2B JUMP JUMPDEST PUSH1 0x40 MLOAD PUSH2 0x308 SWAP2 SWAP1 PUSH2 0x4A18 JUMP JUMPDEST PUSH1 0x40 MLOAD DUP1 SWAP2 SUB SWAP1 RETURN JUMPDEST PUSH2 0x32B PUSH1 0x4 DUP1 CALLDATASIZE SUB DUP2 ADD SWAP1 PUSH2 0x326 SWAP2 SWAP1 PUSH2 0x4A33 JUMP JUMPDEST PUSH2 0xD38 JUMP JUMPDEST STOP JUMPDEST PUSH2 0x347 PUSH1 0x4 DUP1 CALLDATASIZE SUB DUP2 ADD SWAP1 PUSH2 0x342 SWAP2 SWAP1 PUSH2 0x4A86 JUMP JUMPDEST PUSH2 0xD98 JUMP JUMPDEST PUSH1 0x40 MLOAD PUSH2 0x355 SWAP3 SWAP2 SWAP1 PUSH2 0x4AC6 JUMP JUMPDEST PUSH1 0x40 MLOAD DUP1 SWAP2 SUB SWAP1 RETURN JUMPDEST PUSH2 0x378 PUSH1 0x4 DUP1 CALLDATASIZE SUB DUP2 ADD SWAP1 PUSH2 0x373 SWAP2 SWAP1 PUSH2 0x46F0 JUMP JUMPDEST PUSH2 0xF82 JUMP JUMPDEST PUSH1 0x40 MLOAD PUSH2 0x385 SWAP2 SWAP1 PUSH2 0x4A18 JUMP JUMPDEST PUSH1 0x40 MLOAD DUP1 SWAP2 SUB SWAP1 RETURN JUMPDEST PUSH2 0x3A8 PUSH1 0x4 DUP1 CALLDATASIZE SUB DUP2 ADD SWAP1 PUSH2 0x3A3 SWAP2 SWAP1 PUSH2 0x4CCC JUMP JUMPDEST PUSH2 0x1027 JUMP JUMPDEST PUSH1 0x40 MLOAD PUSH2 0x3B5 SWAP2 SWAP1 PUSH2 0x4DB1 JUMP JUMPDEST PUSH1 0x40 MLOAD DUP1 SWAP2 SUB SWAP1 RETURN JUMPDEST PUSH2 0x3D8 PUSH1 0x4 DUP1 CALLDATASIZE SUB DUP2 ADD SWAP1 PUSH2 0x3D3 SWAP2 SWAP1 PUSH2 0x4A33 JUMP JUMPDEST PUSH2 0x13A6 JUMP JUMPDEST STOP JUMPDEST PUSH2 0x3F4 PUSH1 0x4 DUP1 CALLDATASIZE SUB DUP2 ADD SWAP1 PUSH2 0x3EF SWAP2 SWAP1 PUSH2 0x463B JUMP JUMPDEST PUSH2 0x13C6 JUMP JUMPDEST PUSH1 0x40 MLOAD PUSH2 0x401 SWAP2 SWAP1 PUSH2 0x4A18 JUMP JUMPDEST PUSH1 0x40 MLOAD DUP1 SWAP2 SUB SWAP1 RETURN JUMPDEST PUSH2 0x424 PUSH1 0x4 DUP1 CALLDATASIZE SUB DUP2 ADD SWAP1 PUSH2 0x41F SWAP2 SWAP1 PUSH2 0x4E13 JUMP JUMPDEST PUSH2 0x1437 JUMP JUMPDEST PUSH1 0x40 MLOAD PUSH2 0x431 SWAP2 SWAP1 PUSH2 0x4E4F JUMP JUMPDEST PUSH1 0x40 MLOAD DUP1 SWAP2 SUB SWAP1 RETURN JUMPDEST PUSH2 0x454 PUSH1 0x4 DUP1 CALLDATASIZE SUB DUP2 ADD SWAP1 PUSH2 0x44F SWAP2 SWAP1 PUSH2 0x463B JUMP JUMPDEST PUSH2 0x147B JUMP JUMPDEST PUSH1 0x40 MLOAD PUSH2 0x461 SWAP2 SWAP1 PUSH2 0x4FA0 JUMP JUMPDEST PUSH1 0x40 MLOAD DUP1 SWAP2 SUB SWAP1 RETURN JUMPDEST PUSH2 0x484 PUSH1 0x4 DUP1 CALLDATASIZE SUB DUP2 ADD SWAP1 PUSH2 0x47F SWAP2 SWAP1 PUSH2 0x463B JUMP JUMPDEST PUSH2 0x157B JUMP JUMPDEST PUSH1 0x40 MLOAD PUSH2 0x491 SWAP2 SWAP1 PUSH2 0x46A9 JUMP JUMPDEST PUSH1 0x40 MLOAD DUP1 SWAP2 SUB SWAP1 RETURN JUMPDEST PUSH2 0x4B4 PUSH1 0x4 DUP1 CALLDATASIZE SUB DUP2 ADD SWAP1 PUSH2 0x4AF SWAP2 SWAP1 PUSH2 0x4FC2 JUMP JUMPDEST PUSH2 0x1601 JUMP JUMPDEST PUSH1 0x40 MLOAD PUSH2 0x4C1 SWAP2 SWAP1 PUSH2 0x4A18 JUMP JUMPDEST PUSH1 0x40 MLOAD DUP1 SWAP2 SUB SWAP1 RETURN JUMPDEST PUSH2 0x4E4 PUSH1 0x4 DUP1 CALLDATASIZE SUB DUP2 ADD SWAP1 PUSH2 0x4DF SWAP2 SWAP1 PUSH2 0x513C JUMP JUMPDEST PUSH2 0x16B8 JUMP JUMPDEST STOP JUMPDEST PUSH2 0x500 PUSH1 0x4 DUP1 CALLDATASIZE SUB DUP2 ADD SWAP1 PUSH2 0x4FB SWAP2 SWAP1 PUSH2 0x5198 JUMP JUMPDEST PUSH2 0x1886 JUMP JUMPDEST STOP JUMPDEST PUSH2 0x51C PUSH1 0x4 DUP1 CALLDATASIZE SUB DUP2 ADD SWAP1 PUSH2 0x517 SWAP2 SWAP1 PUSH2 0x4FC2 JUMP JUMPDEST PUSH2 0x18CA JUMP JUMPDEST PUSH1 0x40 MLOAD PUSH2 0x529 SWAP2 SWAP1 PUSH2 0x4A18 JUMP JUMPDEST PUSH1 0x40 MLOAD DUP1 SWAP2 SUB SWAP1 RETURN JUMPDEST PUSH2 0x53A PUSH2 0x191A JUMP JUMPDEST PUSH1 0x40 MLOAD PUSH2 0x547 SWAP2 SWAP1 PUSH2 0x45E3 JUMP JUMPDEST PUSH1 0x40 MLOAD DUP1 SWAP2 SUB SWAP1 RETURN JUMPDEST PUSH2 0x56A PUSH1 0x4 DUP1 CALLDATASIZE SUB DUP2 ADD SWAP1 PUSH2 0x565 SWAP2 SWAP1 PUSH2 0x463B JUMP JUMPDEST PUSH2 0x19AC JUMP JUMPDEST STOP JUMPDEST PUSH2 0x574 PUSH2 0x1B78 JUMP JUMPDEST PUSH1 0x40 MLOAD PUSH2 0x581 SWAP2 SWAP1 PUSH2 0x4E4F JUMP JUMPDEST PUSH1 0x40 MLOAD DUP1 SWAP2 SUB SWAP1 RETURN JUMPDEST PUSH2 0x5A4 PUSH1 0x4 DUP1 CALLDATASIZE SUB DUP2 ADD SWAP1 PUSH2 0x59F SWAP2 SWAP1 PUSH2 0x5220 JUMP JUMPDEST PUSH2 0x1B7D JUMP JUMPDEST STOP JUMPDEST PUSH2 0x5AE PUSH2 0x1B93 JUMP JUMPDEST PUSH1 0x40 MLOAD PUSH2 0x5BB SWAP2 SWAP1 PUSH2 0x4E4F JUMP JUMPDEST PUSH1 0x40 MLOAD DUP1 SWAP2 SUB SWAP1 RETURN JUMPDEST PUSH2 0x5DE PUSH1 0x4 DUP1 CALLDATASIZE SUB DUP2 ADD SWAP1 PUSH2 0x5D9 SWAP2 SWAP1 PUSH2 0x463B JUMP JUMPDEST PUSH2 0x1B98 JUMP JUMPDEST PUSH1 0x40 MLOAD PUSH2 0x5EB SWAP2 SWAP1 PUSH2 0x45E3 JUMP JUMPDEST PUSH1 0x40 MLOAD DUP1 SWAP2 SUB SWAP1 RETURN JUMPDEST PUSH2 0x60E PUSH1 0x4 DUP1 CALLDATASIZE SUB DUP2 ADD SWAP1 PUSH2 0x609 SWAP2 SWAP1 PUSH2 0x5260 JUMP JUMPDEST PUSH2 0x1C3D JUMP JUMPDEST STOP JUMPDEST PUSH2 0x62A PUSH1 0x4 DUP1 CALLDATASIZE SUB DUP2 ADD SWAP1 PUSH2 0x625 SWAP2 SWAP1 PUSH2 0x5260 JUMP JUMPDEST PUSH2 0x1C5E JUMP JUMPDEST STOP JUMPDEST PUSH2 0x646 PUSH1 0x4 DUP1 CALLDATASIZE SUB DUP2 ADD SWAP1 PUSH2 0x641 SWAP2 SWAP1 PUSH2 0x52A0 JUMP JUMPDEST PUSH2 0x1C7F JUMP JUMPDEST STOP JUMPDEST PUSH2 0x662 PUSH1 0x4 DUP1 CALLDATASIZE SUB DUP2 ADD SWAP1 PUSH2 0x65D SWAP2 SWAP1 PUSH2 0x463B JUMP JUMPDEST PUSH2 0x1CE1 JUMP JUMPDEST PUSH1 0x40 MLOAD PUSH2 0x66F SWAP2 SWAP1 PUSH2 0x5431 JUMP JUMPDEST PUSH1 0x40 MLOAD DUP1 SWAP2 SUB SWAP1 RETURN JUMPDEST PUSH2 0x692 PUSH1 0x4 DUP1 CALLDATASIZE SUB DUP2 ADD SWAP1 PUSH2 0x68D SWAP2 SWAP1 PUSH2 0x463B JUMP JUMPDEST PUSH2 0x1DEF JUMP JUMPDEST PUSH1 0x40 MLOAD PUSH2 0x69F SWAP2 SWAP1 PUSH2 0x45E3 JUMP JUMPDEST PUSH1 0x40 MLOAD DUP1 SWAP2 SUB SWAP1 RETURN JUMPDEST PUSH2 0x6C2 PUSH1 0x4 DUP1 CALLDATASIZE SUB DUP2 ADD SWAP1 PUSH2 0x6BD SWAP2 SWAP1 PUSH2 0x5260 JUMP JUMPDEST PUSH2 0x1E57 JUMP JUMPDEST PUSH1 0x40 MLOAD PUSH2 0x6CF SWAP2 SWAP1 PUSH2 0x4538 JUMP JUMPDEST PUSH1 0x40 MLOAD DUP1 SWAP2 SUB SWAP1 RETURN JUMPDEST PUSH2 0x6E0 PUSH2 0x1EC3 JUMP JUMPDEST PUSH1 0x40 MLOAD PUSH2 0x6ED SWAP2 SWAP1 PUSH2 0x4E4F JUMP JUMPDEST PUSH1 0x40 MLOAD DUP1 SWAP2 SUB SWAP1 RETURN JUMPDEST PUSH2 0x6FE PUSH2 0x1EC8 JUMP JUMPDEST PUSH1 0x40 MLOAD PUSH2 0x70B SWAP2 SWAP1 PUSH2 0x4E4F JUMP JUMPDEST PUSH1 0x40 MLOAD DUP1 SWAP2 SUB SWAP1 RETURN JUMPDEST PUSH2 0x72E PUSH1 0x4 DUP1 CALLDATASIZE SUB DUP2 ADD SWAP1 PUSH2 0x729 SWAP2 SWAP1 PUSH2 0x5453 JUMP JUMPDEST PUSH2 0x1ECD JUMP JUMPDEST PUSH1 0x40 MLOAD PUSH2 0x73B SWAP2 SWAP1 PUSH2 0x4538 JUMP JUMPDEST PUSH1 0x40 MLOAD DUP1 SWAP2 SUB SWAP1 RETURN JUMPDEST PUSH2 0x75E PUSH1 0x4 DUP1 CALLDATASIZE SUB DUP2 ADD SWAP1 PUSH2 0x759 SWAP2 SWAP1 PUSH2 0x5260 JUMP JUMPDEST PUSH2 0x1F61 JUMP JUMPDEST STOP JUMPDEST PUSH1 0x0 PUSH2 0x76B DUP3 PUSH2 0x1FEC JUMP JUMPDEST DUP1 PUSH2 0x77B JUMPI POP PUSH2 0x77A DUP3 PUSH2 0x2066 JUMP JUMPDEST JUMPDEST DUP1 PUSH2 0x78B JUMPI POP PUSH2 0x78A DUP3 PUSH2 0x20E0 JUMP JUMPDEST JUMPDEST DUP1 PUSH2 0x79B JUMPI POP PUSH2 0x79A DUP3 PUSH2 0x215A JUMP JUMPDEST JUMPDEST SWAP1 POP SWAP2 SWAP1 POP JUMP JUMPDEST PUSH1 0x60 PUSH1 0x2 DUP1 SLOAD PUSH2 0x7B1 SWAP1 PUSH2 0x54C2 JUMP JUMPDEST DUP1 PUSH1 0x1F ADD PUSH1 0x20 DUP1 SWAP2 DIV MUL PUSH1 0x20 ADD PUSH1 0x40 MLOAD SWAP1 DUP2 ADD PUSH1 0x40 MSTORE DUP1 SWAP3 SWAP2 SWAP1 DUP2 DUP2 MSTORE PUSH1 0x20 ADD DUP3 DUP1 SLOAD PUSH2 0x7DD SWAP1 PUSH2 0x54C2 JUMP JUMPDEST DUP1 ISZERO PUSH2 0x82A JUMPI DUP1 PUSH1 0x1F LT PUSH2 0x7FF JUMPI PUSH2 0x100 DUP1 DUP4 SLOAD DIV MUL DUP4 MSTORE SWAP2 PUSH1 0x20 ADD SWAP2 PUSH2 0x82A JUMP JUMPDEST DUP3 ADD SWAP2 SWAP1 PUSH1 0x0 MSTORE PUSH1 0x20 PUSH1 0x0 KECCAK256 SWAP1 JUMPDEST DUP2 SLOAD DUP2 MSTORE SWAP1 PUSH1 0x1 ADD SWAP1 PUSH1 0x20 ADD DUP1 DUP4 GT PUSH2 0x80D JUMPI DUP3 SWAP1 SUB PUSH1 0x1F AND DUP3 ADD SWAP2 JUMPDEST POP POP POP POP POP SWAP1 POP SWAP1 JUMP JUMPDEST PUSH1 0x0 PUSH2 0x83F DUP3 PUSH2 0x21D4 JUMP JUMPDEST PUSH1 0x6 PUSH1 0x0 DUP4 DUP2 MSTORE PUSH1 0x20 ADD SWAP1 DUP2 MSTORE PUSH1 0x20 ADD PUSH1 0x0 KECCAK256 PUSH1 0x0 SWAP1 SLOAD SWAP1 PUSH2 0x100 EXP SWAP1 DIV PUSH20 0xFFFFFFFFFFFFFFFFFFFFFFFFFFFFFFFFFFFFFFFF AND SWAP1 POP SWAP2 SWAP1 POP JUMP JUMPDEST PUSH1 0x0 PUSH2 0x885 DUP3 PUSH2 0x157B JUMP JUMPDEST SWAP1 POP DUP1 PUSH20 0xFFFFFFFFFFFFFFFFFFFFFFFFFFFFFFFFFFFFFFFF AND DUP4 PUSH20 0xFFFFFFFFFFFFFFFFFFFFFFFFFFFFFFFFFFFFFFFF AND SUB PUSH2 0x8F5 JUMPI PUSH1 0x40 MLOAD PUSH32 0x8C379A000000000000000000000000000000000000000000000000000000000 DUP2 MSTORE PUSH1 0x4 ADD PUSH2 0x8EC SWAP1 PUSH2 0x5565 JUMP JUMPDEST PUSH1 0x40 MLOAD DUP1 SWAP2 SUB SWAP1 REVERT JUMPDEST DUP1 PUSH20 0xFFFFFFFFFFFFFFFFFFFFFFFFFFFFFFFFFFFFFFFF AND PUSH2 0x914 PUSH2 0x221F JUMP JUMPDEST PUSH20 0xFFFFFFFFFFFFFFFFFFFFFFFFFFFFFFFFFFFFFFFF AND EQ DUP1 PUSH2 0x943 JUMPI POP PUSH2 0x942 DUP2 PUSH2 0x93D PUSH2 0x221F JUMP JUMPDEST PUSH2 0x1ECD JUMP JUMPDEST JUMPDEST PUSH2 0x982 JUMPI PUSH1 0x40 MLOAD PUSH32 0x8C379A000000000000000000000000000000000000000000000000000000000 DUP2 MSTORE PUSH1 0x4 ADD PUSH2 0x979 SWAP1 PUSH2 0x55F7 JUMP JUMPDEST PUSH1 0x40 MLOAD DUP1 SWAP2 SUB SWAP1 REVERT JUMPDEST PUSH2 0x98C DUP4 DUP4 PUSH2 0x22C9 JUMP JUMPDEST POP POP POP JUMP JUMPDEST PUSH1 0x1 DUP1 PUSH1 0x12 SLOAD EQ PUSH2 0x9D7 JUMPI PUSH1 0x40 MLOAD PUSH32 0x8C379A000000000000000000000000000000000000000000000000000000000 DUP2 MSTORE PUSH1 0x4 ADD PUSH2 0x9CE SWAP1 PUSH2 0x5663 JUMP JUMPDEST PUSH1 0x40 MLOAD DUP1 SWAP2 SUB SWAP1 REVERT JUMPDEST DUP1 PUSH1 0x13 DUP1 SLOAD SWAP1 POP LT ISZERO PUSH2 0xA1F JUMPI PUSH1 0x40 MLOAD PUSH32 0x8C379A000000000000000000000000000000000000000000000000000000000 DUP2 MSTORE PUSH1 0x4 ADD PUSH2 0xA16 SWAP1 PUSH2 0x56CF JUMP JUMPDEST PUSH1 0x40 MLOAD DUP1 SWAP2 SUB SWAP1 REVERT JUMPDEST DUP3 PUSH1 0x0 PUSH2 0xA2D DUP3 PUSH1 0x0 PUSH2 0xD98 JUMP JUMPDEST POP SWAP1 POP DUP1 PUSH20 0xFFFFFFFFFFFFFFFFFFFFFFFFFFFFFFFFFFFFFFFF AND PUSH1 0x14 PUSH1 0x0 SWAP1 SLOAD SWAP1 PUSH2 0x100 EXP SWAP1 DIV PUSH20 0xFFFFFFFFFFFFFFFFFFFFFFFFFFFFFFFFFFFFFFFF AND PUSH20 0xFFFFFFFFFFFFFFFFFFFFFFFFFFFFFFFFFFFFFFFF AND PUSH4 0x8086B8BA PUSH2 0xA8F PUSH1 0x0 PUSH2 0x2382 JUMP JUMPDEST PUSH1 0x40 MLOAD DUP3 PUSH4 0xFFFFFFFF AND PUSH1 0xE0 SHL DUP2 MSTORE PUSH1 0x4 ADD PUSH2 0xAAB SWAP2 SWAP1 PUSH2 0x46A9 JUMP JUMPDEST PUSH1 0x20 PUSH1 0x40 MLOAD DUP1 DUP4 SUB DUP2 DUP7 GAS STATICCALL ISZERO DUP1 ISZERO PUSH2 0xAC8 JUMPI RETURNDATASIZE PUSH1 0x0 DUP1 RETURNDATACOPY RETURNDATASIZE PUSH1 0x0 REVERT JUMPDEST POP POP POP POP PUSH1 0x40 MLOAD RETURNDATASIZE PUSH1 0x1F NOT PUSH1 0x1F DUP3 ADD AND DUP3 ADD DUP1 PUSH1 0x40 MSTORE POP DUP2 ADD SWAP1 PUSH2 0xAEC SWAP2 SWAP1 PUSH2 0x5704 JUMP JUMPDEST PUSH20 0xFFFFFFFFFFFFFFFFFFFFFFFFFFFFFFFFFFFFFFFF AND EQ PUSH2 0xB42 JUMPI PUSH1 0x40 MLOAD PUSH32 0x8C379A000000000000000000000000000000000000000000000000000000000 DUP2 MSTORE PUSH1 0x4 ADD PUSH2 0xB39 SWAP1 PUSH2 0x577D JUMP JUMPDEST PUSH1 0x40 MLOAD DUP1 SWAP2 SUB SWAP1 REVERT JUMPDEST PUSH1 0x8 PUSH2 0xB4D DUP2 PUSH2 0x23CA JUMP JUMPDEST PUSH2 0xB57 DUP7 DUP7 PUSH2 0x23DE JUMP JUMPDEST POP POP POP POP POP POP JUMP JUMPDEST PUSH1 0x1 DUP1 PUSH1 0x12 SLOAD EQ PUSH2 0xBA5 JUMPI PUSH1 0x40 MLOAD PUSH32 0x8C379A000000000000000000000000000000000000000000000000000000000 DUP2 MSTORE PUSH1 0x4 ADD PUSH2 0xB9C SWAP1 PUSH2 0x5663 JUMP JUMPDEST PUSH1 0x40 MLOAD DUP1 SWAP2 SUB SWAP1 REVERT JUMPDEST DUP1 PUSH1 0x13 DUP1 SLOAD SWAP1 POP LT ISZERO PUSH2 0xBED JUMPI PUSH1 0x40 MLOAD PUSH32 0x8C379A000000000000000000000000000000000000000000000000000000000 DUP2 MSTORE PUSH1 0x4 ADD PUSH2 0xBE4 SWAP1 PUSH2 0x56CF JUMP JUMPDEST PUSH1 0x40 MLOAD DUP1 SWAP2 SUB SWAP1 REVERT JUMPDEST DUP2 PUSH1 0x0 PUSH2 0xBFB DUP3 PUSH1 0x0 PUSH2 0xD98 JUMP JUMPDEST POP SWAP1 POP DUP1 PUSH20 0xFFFFFFFFFFFFFFFFFFFFFFFFFFFFFFFFFFFFFFFF AND PUSH1 0x14 PUSH1 0x0 SWAP1 SLOAD SWAP1 PUSH2 0x100 EXP SWAP1 DIV PUSH20 0xFFFFFFFFFFFFFFFFFFFFFFFFFFFFFFFFFFFFFFFF AND PUSH20 0xFFFFFFFFFFFFFFFFFFFFFFFFFFFFFFFFFFFFFFFF AND PUSH4 0x8086B8BA PUSH2 0xC5D PUSH1 0x0 PUSH2 0x2382 JUMP JUMPDEST PUSH1 0x40 MLOAD DUP3 PUSH4 0xFFFFFFFF AND PUSH1 0xE0 SHL DUP2 MSTORE PUSH1 0x4 ADD PUSH2 0xC79 SWAP2 SWAP1 PUSH2 0x46A9 JUMP JUMPDEST PUSH1 0x20 PUSH1 0x40 MLOAD DUP1 DUP4 SUB DUP2 DUP7 GAS STATICCALL ISZERO DUP1 ISZERO PUSH2 0xC96 JUMPI RETURNDATASIZE PUSH1 0x0 DUP1 RETURNDATACOPY RETURNDATASIZE PUSH1 0x0 REVERT JUMPDEST POP POP POP POP PUSH1 0x40 MLOAD RETURNDATASIZE PUSH1 0x1F NOT PUSH1 0x1F DUP3 ADD AND DUP3 ADD DUP1 PUSH1 0x40 MSTORE POP DUP2 ADD SWAP1 PUSH2 0xCBA SWAP2 SWAP1 PUSH2 0x5704 JUMP JUMPDEST PUSH20 0xFFFFFFFFFFFFFFFFFFFFFFFFFFFFFFFFFFFFFFFF AND EQ PUSH2 0xD10 JUMPI PUSH1 0x40 MLOAD PUSH32 0x8C379A000000000000000000000000000000000000000000000000000000000 DUP2 MSTORE PUSH1 0x4 ADD PUSH2 0xD07 SWAP1 PUSH2 0x577D JUMP JUMPDEST PUSH1 0x40 MLOAD DUP1 SWAP2 SUB SWAP1 REVERT JUMPDEST PUSH1 0x1 PUSH2 0xD1B DUP2 PUSH2 0x23CA JUMP JUMPDEST PUSH2 0xD24 DUP6 PUSH2 0x246D JUMP JUMPDEST POP POP POP POP POP JUMP JUMPDEST PUSH1 0x0 PUSH1 0xA DUP1 SLOAD SWAP1 POP SWAP1 POP SWAP1 JUMP JUMPDEST PUSH2 0xD49 PUSH2 0xD43 PUSH2 0x221F JUMP JUMPDEST DUP3 PUSH2 0x248F JUMP JUMPDEST PUSH2 0xD88 JUMPI PUSH1 0x40 MLOAD PUSH32 0x8C379A000000000000000000000000000000000000000000000000000000000 DUP2 MSTORE PUSH1 0x4 ADD PUSH2 0xD7F SWAP1 PUSH2 0x580F JUMP JUMPDEST PUSH1 0x40 MLOAD DUP1 SWAP2 SUB SWAP1 REVERT JUMPDEST PUSH2 0xD93 DUP4 DUP4 DUP4 PUSH2 0x2524 JUMP JUMPDEST POP POP POP JUMP JUMPDEST PUSH1 0x0 DUP1 PUSH1 0x0 PUSH1 0x10 PUSH1 0x0 DUP7 DUP2 MSTORE PUSH1 0x20 ADD SWAP1 DUP2 MSTORE PUSH1 0x20 ADD PUSH1 0x0 KECCAK256 PUSH1 0x40 MLOAD DUP1 PUSH1 0x40 ADD PUSH1 0x40 MSTORE SWAP1 DUP2 PUSH1 0x0 DUP3 ADD PUSH1 0x0 SWAP1 SLOAD SWAP1 PUSH2 0x100 EXP SWAP1 DIV PUSH20 0xFFFFFFFFFFFFFFFFFFFFFFFFFFFFFFFFFFFFFFFF AND PUSH20 0xFFFFFFFFFFFFFFFFFFFFFFFFFFFFFFFFFFFFFFFF AND PUSH20 0xFFFFFFFFFFFFFFFFFFFFFFFFFFFFFFFFFFFFFFFF AND DUP2 MSTORE PUSH1 0x20 ADD PUSH1 0x0 DUP3 ADD PUSH1 0x14 SWAP1 SLOAD SWAP1 PUSH2 0x100 EXP SWAP1 DIV PUSH12 0xFFFFFFFFFFFFFFFFFFFFFFFF AND PUSH12 0xFFFFFFFFFFFFFFFFFFFFFFFF AND PUSH12 0xFFFFFFFFFFFFFFFFFFFFFFFF AND DUP2 MSTORE POP POP SWAP1 POP PUSH1 0x0 PUSH20 0xFFFFFFFFFFFFFFFFFFFFFFFFFFFFFFFFFFFFFFFF AND DUP2 PUSH1 0x0 ADD MLOAD PUSH20 0xFFFFFFFFFFFFFFFFFFFFFFFFFFFFFFFFFFFFFFFF AND SUB PUSH2 0xF2D JUMPI PUSH1 0xF PUSH1 0x40 MLOAD DUP1 PUSH1 0x40 ADD PUSH1 0x40 MSTORE SWAP1 DUP2 PUSH1 0x0 DUP3 ADD PUSH1 0x0 SWAP1 SLOAD SWAP1 PUSH2 0x100 EXP SWAP1 DIV PUSH20 0xFFFFFFFFFFFFFFFFFFFFFFFFFFFFFFFFFFFFFFFF AND PUSH20 0xFFFFFFFFFFFFFFFFFFFFFFFFFFFFFFFFFFFFFFFF AND PUSH20 0xFFFFFFFFFFFFFFFFFFFFFFFFFFFFFFFFFFFFFFFF AND DUP2 MSTORE PUSH1 0x20 ADD PUSH1 0x0 DUP3 ADD PUSH1 0x14 SWAP1 SLOAD SWAP1 PUSH2 0x100 EXP SWAP1 DIV PUSH12 0xFFFFFFFFFFFFFFFFFFFFFFFF AND PUSH12 0xFFFFFFFFFFFFFFFFFFFFFFFF AND PUSH12 0xFFFFFFFFFFFFFFFFFFFFFFFF AND DUP2 MSTORE POP POP SWAP1 POP JUMPDEST PUSH1 0x0 PUSH2 0xF37 PUSH2 0x281D JUMP JUMPDEST PUSH12 0xFFFFFFFFFFFFFFFFFFFFFFFF AND DUP3 PUSH1 0x20 ADD MLOAD PUSH12 0xFFFFFFFFFFFFFFFFFFFFFFFF AND DUP7 PUSH2 0xF63 SWAP2 SWAP1 PUSH2 0x585E JUMP JUMPDEST PUSH2 0xF6D SWAP2 SWAP1 PUSH2 0x58CF JUMP JUMPDEST SWAP1 POP DUP2 PUSH1 0x0 ADD MLOAD DUP2 SWAP4 POP SWAP4 POP POP POP SWAP3 POP SWAP3 SWAP1 POP JUMP JUMPDEST PUSH1 0x0 PUSH2 0xF8D DUP4 PUSH2 0x1601 JUMP JUMPDEST DUP3 LT PUSH2 0xFCE JUMPI PUSH1 0x40 MLOAD PUSH32 0x8C379A000000000000000000000000000000000000000000000000000000000 DUP2 MSTORE PUSH1 0x4 ADD PUSH2 0xFC5 SWAP1 PUSH2 0x5972 JUMP JUMPDEST PUSH1 0x40 MLOAD DUP1 SWAP2 SUB SWAP1 REVERT JUMPDEST PUSH1 0x8 PUSH1 0x0 DUP5 PUSH20 0xFFFFFFFFFFFFFFFFFFFFFFFFFFFFFFFFFFFFFFFF AND PUSH20 0xFFFFFFFFFFFFFFFFFFFFFFFFFFFFFFFFFFFFFFFF AND DUP2 MSTORE PUSH1 0x20 ADD SWAP1 DUP2 MSTORE PUSH1 0x20 ADD PUSH1 0x0 KECCAK256 PUSH1 0x0 DUP4 DUP2 MSTORE PUSH1 0x20 ADD SWAP1 DUP2 MSTORE PUSH1 0x20 ADD PUSH1 0x0 KECCAK256 SLOAD SWAP1 POP SWAP3 SWAP2 POP POP JUMP JUMPDEST PUSH1 0x60 PUSH2 0x1031 PUSH2 0x2827 JUMP JUMPDEST DUP3 TIMESTAMP GT ISZERO PUSH2 0x1074 JUMPI PUSH1 0x40 MLOAD PUSH32 0x8C379A000000000000000000000000000000000000000000000000000000000 DUP2 MSTORE PUSH1 0x4 ADD PUSH2 0x106B SWAP1 PUSH2 0x59DE JUMP JUMPDEST PUSH1 0x40 MLOAD DUP1 SWAP2 SUB SWAP1 REVERT JUMPDEST PUSH1 0x0 PUSH32 0x0 DUP7 DUP7 PUSH1 0x40 MLOAD PUSH2 0x10A7 SWAP3 SWAP2 SWAP1 PUSH2 0x5A2E JUMP JUMPDEST PUSH1 0x40 MLOAD DUP1 SWAP2 SUB SWAP1 KECCAK256 PUSH2 0x10B7 PUSH2 0x221F JUMP JUMPDEST PUSH2 0x1105 PUSH1 0x11 PUSH1 0x0 PUSH2 0x10C6 PUSH2 0x221F JUMP JUMPDEST PUSH20 0xFFFFFFFFFFFFFFFFFFFFFFFFFFFFFFFFFFFFFFFF AND PUSH20 0xFFFFFFFFFFFFFFFFFFFFFFFFFFFFFFFFFFFFFFFF AND DUP2 MSTORE PUSH1 0x20 ADD SWAP1 DUP2 MSTORE PUSH1 0x20 ADD PUSH1 0x0 KECCAK256 PUSH2 0x2876 JUMP JUMPDEST DUP8 PUSH1 0x40 MLOAD PUSH1 0x20 ADD PUSH2 0x111A SWAP6 SWAP5 SWAP4 SWAP3 SWAP2 SWAP1 PUSH2 0x5A60 JUMP JUMPDEST PUSH1 0x40 MLOAD PUSH1 0x20 DUP2 DUP4 SUB SUB DUP2 MSTORE SWAP1 PUSH1 0x40 MSTORE DUP1 MLOAD SWAP1 PUSH1 0x20 ADD KECCAK256 SWAP1 POP PUSH1 0x0 PUSH2 0x113D DUP3 PUSH2 0x2884 JUMP JUMPDEST SWAP1 POP DUP4 MLOAD PUSH8 0xFFFFFFFFFFFFFFFF DUP2 GT ISZERO PUSH2 0x115A JUMPI PUSH2 0x1159 PUSH2 0x4735 JUMP JUMPDEST JUMPDEST PUSH1 0x40 MLOAD SWAP1 DUP1 DUP3 MSTORE DUP1 PUSH1 0x20 MUL PUSH1 0x20 ADD DUP3 ADD PUSH1 0x40 MSTORE DUP1 ISZERO PUSH2 0x1188 JUMPI DUP2 PUSH1 0x20 ADD PUSH1 0x20 DUP3 MUL DUP1 CALLDATASIZE DUP4 CALLDATACOPY DUP1 DUP3 ADD SWAP2 POP POP SWAP1 POP JUMPDEST POP PUSH1 0x13 SWAP1 DUP1 MLOAD SWAP1 PUSH1 0x20 ADD SWAP1 PUSH2 0x119E SWAP3 SWAP2 SWAP1 PUSH2 0x4302 JUMP JUMPDEST POP PUSH1 0x0 JUMPDEST PUSH1 0x13 DUP1 SLOAD SWAP1 POP DUP2 LT ISZERO PUSH2 0x1343 JUMPI PUSH2 0x11D3 DUP3 DUP7 DUP4 DUP2 MLOAD DUP2 LT PUSH2 0x11C6 JUMPI PUSH2 0x11C5 PUSH2 0x5AB3 JUMP JUMPDEST JUMPDEST PUSH1 0x20 MUL PUSH1 0x20 ADD ADD MLOAD PUSH2 0x289E JUMP JUMPDEST PUSH1 0x13 DUP3 DUP2 SLOAD DUP2 LT PUSH2 0x11E7 JUMPI PUSH2 0x11E6 PUSH2 0x5AB3 JUMP JUMPDEST JUMPDEST SWAP1 PUSH1 0x0 MSTORE PUSH1 0x20 PUSH1 0x0 KECCAK256 ADD PUSH1 0x0 PUSH2 0x100 EXP DUP2 SLOAD DUP2 PUSH20 0xFFFFFFFFFFFFFFFFFFFFFFFFFFFFFFFFFFFFFFFF MUL NOT AND SWAP1 DUP4 PUSH20 0xFFFFFFFFFFFFFFFFFFFFFFFFFFFFFFFFFFFFFFFF AND MUL OR SWAP1 SSTORE POP PUSH1 0x0 DUP2 EQ DUP1 PUSH2 0x12F1 JUMPI POP PUSH1 0x13 PUSH1 0x1 DUP3 PUSH2 0x1248 SWAP2 SWAP1 PUSH2 0x5AE2 JUMP JUMPDEST DUP2 SLOAD DUP2 LT PUSH2 0x1259 JUMPI PUSH2 0x1258 PUSH2 0x5AB3 JUMP JUMPDEST JUMPDEST SWAP1 PUSH1 0x0 MSTORE PUSH1 0x20 PUSH1 0x0 KECCAK256 ADD PUSH1 0x0 SWAP1 SLOAD SWAP1 PUSH2 0x100 EXP SWAP1 DIV PUSH20 0xFFFFFFFFFFFFFFFFFFFFFFFFFFFFFFFFFFFFFFFF AND PUSH20 0xFFFFFFFFFFFFFFFFFFFFFFFFFFFFFFFFFFFFFFFF AND PUSH1 0x13 DUP3 DUP2 SLOAD DUP2 LT PUSH2 0x12AE JUMPI PUSH2 0x12AD PUSH2 0x5AB3 JUMP JUMPDEST JUMPDEST SWAP1 PUSH1 0x0 MSTORE PUSH1 0x20 PUSH1 0x0 KECCAK256 ADD PUSH1 0x0 SWAP1 SLOAD SWAP1 PUSH2 0x100 EXP SWAP1 DIV PUSH20 0xFFFFFFFFFFFFFFFFFFFFFFFFFFFFFFFFFFFFFFFF AND PUSH20 0xFFFFFFFFFFFFFFFFFFFFFFFFFFFFFFFFFFFFFFFF AND GT JUMPDEST PUSH2 0x1330 JUMPI PUSH1 0x40 MLOAD PUSH32 0x8C379A000000000000000000000000000000000000000000000000000000000 DUP2 MSTORE PUSH1 0x4 ADD PUSH2 0x1327 SWAP1 PUSH2 0x5B62 JUMP JUMPDEST PUSH1 0x40 MLOAD DUP1 SWAP2 SUB SWAP1 REVERT JUMPDEST DUP1 DUP1 PUSH2 0x133B SWAP1 PUSH2 0x5B82 JUMP JUMPDEST SWAP2 POP POP PUSH2 0x11A2 JUMP JUMPDEST POP PUSH2 0x1392 ADDRESS DUP9 DUP9 DUP1 DUP1 PUSH1 0x1F ADD PUSH1 0x20 DUP1 SWAP2 DIV MUL PUSH1 0x20 ADD PUSH1 0x40 MLOAD SWAP1 DUP2 ADD PUSH1 0x40 MSTORE DUP1 SWAP4 SWAP3 SWAP2 SWAP1 DUP2 DUP2 MSTORE PUSH1 0x20 ADD DUP4 DUP4 DUP1 DUP3 DUP5 CALLDATACOPY PUSH1 0x0 DUP2 DUP5 ADD MSTORE PUSH1 0x1F NOT PUSH1 0x1F DUP3 ADD AND SWAP1 POP DUP1 DUP4 ADD SWAP3 POP POP POP POP POP POP POP PUSH2 0x28C5 JUMP JUMPDEST SWAP3 POP POP POP PUSH2 0x139E PUSH2 0x28F2 JUMP JUMPDEST SWAP5 SWAP4 POP POP POP POP JUMP JUMPDEST PUSH2 0x13C1 DUP4 DUP4 DUP4 PUSH1 0x40 MLOAD DUP1 PUSH1 0x20 ADD PUSH1 0x40 MSTORE DUP1 PUSH1 0x0 DUP2 MSTORE POP PUSH2 0x1C7F JUMP JUMPDEST POP POP POP JUMP JUMPDEST PUSH1 0x0 PUSH2 0x13D0 PUSH2 0xD2B JUMP JUMPDEST DUP3 LT PUSH2 0x1411 JUMPI PUSH1 0x40 MLOAD PUSH32 0x8C379A000000000000000000000000000000000000000000000000000000000 DUP2 MSTORE PUSH1 0x4 ADD PUSH2 0x1408 SWAP1 PUSH2 0x5C3C JUMP JUMPDEST PUSH1 0x40 MLOAD DUP1 SWAP2 SUB SWAP1 REVERT JUMPDEST PUSH1 0xA DUP3 DUP2 SLOAD DUP2 LT PUSH2 0x1425 JUMPI PUSH2 0x1424 PUSH2 0x5AB3 JUMP JUMPDEST JUMPDEST SWAP1 PUSH1 0x0 MSTORE PUSH1 0x20 PUSH1 0x0 KECCAK256 ADD SLOAD SWAP1 POP SWAP2 SWAP1 POP JUMP JUMPDEST PUSH1 0x0 DUP1 PUSH1 0x0 DUP4 PUSH8 0xFFFFFFFFFFFFFFFF AND PUSH8 0xFFFFFFFFFFFFFFFF AND DUP2 MSTORE PUSH1 0x20 ADD SWAP1 DUP2 MSTORE PUSH1 0x20 ADD PUSH1 0x0 KECCAK256 PUSH1 0x0 SWAP1 SLOAD SWAP1 PUSH2 0x100 EXP SWAP1 DIV PUSH8 0xFFFFFFFFFFFFFFFF AND SWAP1 POP SWAP2 SWAP1 POP JUMP JUMPDEST PUSH1 0x60 PUSH1 0xE PUSH1 0x0 DUP4 DUP2 MSTORE PUSH1 0x20 ADD SWAP1 DUP2 MSTORE PUSH1 0x20 ADD PUSH1 0x0 KECCAK256 DUP1 SLOAD DUP1 PUSH1 0x20 MUL PUSH1 0x20 ADD PUSH1 0x40 MLOAD SWAP1 DUP2 ADD PUSH1 0x40 MSTORE DUP1 SWAP3 SWAP2 SWAP1 DUP2 DUP2 MSTORE PUSH1 0x20 ADD PUSH1 0x0 SWAP1 JUMPDEST DUP3 DUP3 LT ISZERO PUSH2 0x1570 JUMPI DUP4 DUP3 SWAP1 PUSH1 0x0 MSTORE PUSH1 0x20 PUSH1 0x0 KECCAK256 ADD PUSH1 0x40 MLOAD DUP1 PUSH1 0x20 ADD PUSH1 0x40 MSTORE SWAP1 DUP2 PUSH1 0x0 DUP3 ADD DUP1 SLOAD PUSH2 0x14DF SWAP1 PUSH2 0x54C2 JUMP JUMPDEST DUP1 PUSH1 0x1F ADD PUSH1 0x20 DUP1 SWAP2 DIV MUL PUSH1 0x20 ADD PUSH1 0x40 MLOAD SWAP1 DUP2 ADD PUSH1 0x40 MSTORE DUP1 SWAP3 SWAP2 SWAP1 DUP2 DUP2 MSTORE PUSH1 0x20 ADD DUP3 DUP1 SLOAD PUSH2 0x150B SWAP1 PUSH2 0x54C2 JUMP JUMPDEST DUP1 ISZERO PUSH2 0x1558 JUMPI DUP1 PUSH1 0x1F LT PUSH2 0x152D JUMPI PUSH2 0x100 DUP1 DUP4 SLOAD DIV MUL DUP4 MSTORE SWAP2 PUSH1 0x20 ADD SWAP2 PUSH2 0x1558 JUMP JUMPDEST DUP3 ADD SWAP2 SWAP1 PUSH1 0x0 MSTORE PUSH1 0x20 PUSH1 0x0 KECCAK256 SWAP1 JUMPDEST DUP2 SLOAD DUP2 MSTORE SWAP1 PUSH1 0x1 ADD SWAP1 PUSH1 0x20 ADD DUP1 DUP4 GT PUSH2 0x153B JUMPI DUP3 SWAP1 SUB PUSH1 0x1F AND DUP3 ADD SWAP2 JUMPDEST POP POP POP POP POP DUP2 MSTORE POP POP DUP2 MSTORE PUSH1 0x20 ADD SWAP1 PUSH1 0x1 ADD SWAP1 PUSH2 0x14B0 JUMP JUMPDEST POP POP POP POP SWAP1 POP SWAP2 SWAP1 POP JUMP JUMPDEST PUSH1 0x0 DUP1 PUSH2 0x1587 DUP4 PUSH2 0x29AA JUMP JUMPDEST SWAP1 POP PUSH1 0x0 PUSH20 0xFFFFFFFFFFFFFFFFFFFFFFFFFFFFFFFFFFFFFFFF AND DUP2 PUSH20 0xFFFFFFFFFFFFFFFFFFFFFFFFFFFFFFFFFFFFFFFF AND SUB PUSH2 0x15F8 JUMPI PUSH1 0x40 MLOAD PUSH32 0x8C379A000000000000000000000000000000000000000000000000000000000 DUP2 MSTORE PUSH1 0x4 ADD PUSH2 0x15EF SWAP1 PUSH2 0x5CA8 JUMP JUMPDEST PUSH1 0x40 MLOAD DUP1 SWAP2 SUB SWAP1 REVERT JUMPDEST DUP1 SWAP2 POP POP SWAP2 SWAP1 POP JUMP JUMPDEST PUSH1 0x0 DUP1 PUSH20 0xFFFFFFFFFFFFFFFFFFFFFFFFFFFFFFFFFFFFFFFF AND DUP3 PUSH20 0xFFFFFFFFFFFFFFFFFFFFFFFFFFFFFFFFFFFFFFFF AND SUB PUSH2 0x1671 JUMPI PUSH1 0x40 MLOAD PUSH32 0x8C379A000000000000000000000000000000000000000000000000000000000 DUP2 MSTORE PUSH1 0x4 ADD PUSH2 0x1668 SWAP1 PUSH2 0x5D3A JUMP JUMPDEST PUSH1 0x40 MLOAD DUP1 SWAP2 SUB SWAP1 REVERT JUMPDEST PUSH1 0x5 PUSH1 0x0 DUP4 PUSH20 0xFFFFFFFFFFFFFFFFFFFFFFFFFFFFFFFFFFFFFFFF AND PUSH20 0xFFFFFFFFFFFFFFFFFFFFFFFFFFFFFFFFFFFFFFFF AND DUP2 MSTORE PUSH1 0x20 ADD SWAP1 DUP2 MSTORE PUSH1 0x20 ADD PUSH1 0x0 KECCAK256 SLOAD SWAP1 POP SWAP2 SWAP1 POP JUMP JUMPDEST PUSH1 0x1 DUP1 PUSH1 0x12 SLOAD EQ PUSH2 0x16FE JUMPI PUSH1 0x40 MLOAD PUSH32 0x8C379A000000000000000000000000000000000000000000000000000000000 DUP2 MSTORE PUSH1 0x4 ADD PUSH2 0x16F5 SWAP1 PUSH2 0x5663 JUMP JUMPDEST PUSH1 0x40 MLOAD DUP1 SWAP2 SUB SWAP1 REVERT JUMPDEST DUP1 PUSH1 0x13 DUP1 SLOAD SWAP1 POP LT ISZERO PUSH2 0x1746 JUMPI PUSH1 0x40 MLOAD PUSH32 0x8C379A000000000000000000000000000000000000000000000000000000000 DUP2 MSTORE PUSH1 0x4 ADD PUSH2 0x173D SWAP1 PUSH2 0x56CF JUMP JUMPDEST PUSH1 0x40 MLOAD DUP1 SWAP2 SUB SWAP1 REVERT JUMPDEST DUP3 PUSH1 0x0 PUSH2 0x1754 DUP3 PUSH1 0x0 PUSH2 0xD98 JUMP JUMPDEST POP SWAP1 POP DUP1 PUSH20 0xFFFFFFFFFFFFFFFFFFFFFFFFFFFFFFFFFFFFFFFF AND PUSH1 0x14 PUSH1 0x0 SWAP1 SLOAD SWAP1 PUSH2 0x100 EXP SWAP1 DIV PUSH20 0xFFFFFFFFFFFFFFFFFFFFFFFFFFFFFFFFFFFFFFFF AND PUSH20 0xFFFFFFFFFFFFFFFFFFFFFFFFFFFFFFFFFFFFFFFF AND PUSH4 0x8086B8BA PUSH2 0x17B6 PUSH1 0x0 PUSH2 0x2382 JUMP JUMPDEST PUSH1 0x40 MLOAD DUP3 PUSH4 0xFFFFFFFF AND PUSH1 0xE0 SHL DUP2 MSTORE PUSH1 0x4 ADD PUSH2 0x17D2 SWAP2 SWAP1 PUSH2 0x46A9 JUMP JUMPDEST PUSH1 0x20 PUSH1 0x40 MLOAD DUP1 DUP4 SUB DUP2 DUP7 GAS STATICCALL ISZERO DUP1 ISZERO PUSH2 0x17EF JUMPI RETURNDATASIZE PUSH1 0x0 DUP1 RETURNDATACOPY RETURNDATASIZE PUSH1 0x0 REVERT JUMPDEST POP POP POP POP PUSH1 0x40 MLOAD RETURNDATASIZE PUSH1 0x1F NOT PUSH1 0x1F DUP3 ADD AND DUP3 ADD DUP1 PUSH1 0x40 MSTORE POP DUP2 ADD SWAP1 PUSH2 0x1813 SWAP2 SWAP1 PUSH2 0x5704 JUMP JUMPDEST PUSH20 0xFFFFFFFFFFFFFFFFFFFFFFFFFFFFFFFFFFFFFFFF AND EQ PUSH2 0x1869 JUMPI PUSH1 0x40 MLOAD PUSH32 0x8C379A000000000000000000000000000000000000000000000000000000000 DUP2 MSTORE PUSH1 0x4 ADD PUSH2 0x1860 SWAP1 PUSH2 0x577D JUMP JUMPDEST PUSH1 0x40 MLOAD DUP1 SWAP2 SUB SWAP1 REVERT JUMPDEST PUSH1 0x4 PUSH2 0x1874 DUP2 PUSH2 0x23CA JUMP JUMPDEST PUSH2 0x187E DUP7 DUP7 PUSH2 0x29E7 JUMP JUMPDEST POP POP POP POP POP POP JUMP JUMPDEST PUSH1 0x2 PUSH2 0x1891 DUP2 PUSH2 0x23CA JUMP JUMPDEST PUSH2 0x18A2 PUSH2 0x189C PUSH2 0x221F JUMP JUMPDEST DUP5 PUSH2 0x2A84 JUMP JUMPDEST PUSH2 0x18AC DUP4 DUP4 PUSH2 0x2CA1 JUMP JUMPDEST PUSH2 0x18C5 DUP4 PUSH2 0x18B8 PUSH2 0x221F JUMP JUMPDEST PUSH2 0x18C0 PUSH2 0x281D JUMP JUMPDEST PUSH2 0x2CC6 JUMP JUMPDEST POP POP POP JUMP JUMPDEST PUSH1 0x0 PUSH2 0x1913 PUSH1 0x11 PUSH1 0x0 DUP5 PUSH20 0xFFFFFFFFFFFFFFFFFFFFFFFFFFFFFFFFFFFFFFFF AND PUSH20 0xFFFFFFFFFFFFFFFFFFFFFFFFFFFFFFFFFFFFFFFF AND DUP2 MSTORE PUSH1 0x20 ADD SWAP1 DUP2 MSTORE PUSH1 0x20 ADD PUSH1 0x0 KECCAK256 PUSH2 0x2876 JUMP JUMPDEST SWAP1 POP SWAP2 SWAP1 POP JUMP JUMPDEST PUSH1 0x60 PUSH1 0x3 DUP1 SLOAD PUSH2 0x1929 SWAP1 PUSH2 0x54C2 JUMP JUMPDEST DUP1 PUSH1 0x1F ADD PUSH1 0x20 DUP1 SWAP2 DIV MUL PUSH1 0x20 ADD PUSH1 0x40 MLOAD SWAP1 DUP2 ADD PUSH1 0x40 MSTORE DUP1 SWAP3 SWAP2 SWAP1 DUP2 DUP2 MSTORE PUSH1 0x20 ADD DUP3 DUP1 SLOAD PUSH2 0x1955 SWAP1 PUSH2 0x54C2 JUMP JUMPDEST DUP1 ISZERO PUSH2 0x19A2 JUMPI DUP1 PUSH1 0x1F LT PUSH2 0x1977 JUMPI PUSH2 0x100 DUP1 DUP4 SLOAD DIV MUL DUP4 MSTORE SWAP2 PUSH1 0x20 ADD SWAP2 PUSH2 0x19A2 JUMP JUMPDEST DUP3 ADD SWAP2 SWAP1 PUSH1 0x0 MSTORE PUSH1 0x20 PUSH1 0x0 KECCAK256 SWAP1 JUMPDEST DUP2 SLOAD DUP2 MSTORE SWAP1 PUSH1 0x1 ADD SWAP1 PUSH1 0x20 ADD DUP1 DUP4 GT PUSH2 0x1985 JUMPI DUP3 SWAP1 SUB PUSH1 0x1F AND DUP3 ADD SWAP2 JUMPDEST POP POP POP POP POP SWAP1 POP SWAP1 JUMP JUMPDEST PUSH1 0x1 DUP1 PUSH1 0x12 SLOAD EQ PUSH2 0x19F2 JUMPI PUSH1 0x40 MLOAD PUSH32 0x8C379A000000000000000000000000000000000000000000000000000000000 DUP2 MSTORE PUSH1 0x4 ADD PUSH2 0x19E9 SWAP1 PUSH2 0x5663 JUMP JUMPDEST PUSH1 0x40 MLOAD DUP1 SWAP2 SUB SWAP1 REVERT JUMPDEST DUP1 PUSH1 0x13 DUP1 SLOAD SWAP1 POP LT ISZERO PUSH2 0x1A3A JUMPI PUSH1 0x40 MLOAD PUSH32 0x8C379A000000000000000000000000000000000000000000000000000000000 DUP2 MSTORE PUSH1 0x4 ADD PUSH2 0x1A31 SWAP1 PUSH2 0x56CF JUMP JUMPDEST PUSH1 0x40 MLOAD DUP1 SWAP2 SUB SWAP1 REVERT JUMPDEST DUP2 PUSH1 0x0 PUSH2 0x1A48 DUP3 PUSH1 0x0 PUSH2 0xD98 JUMP JUMPDEST POP SWAP1 POP DUP1 PUSH20 0xFFFFFFFFFFFFFFFFFFFFFFFFFFFFFFFFFFFFFFFF AND PUSH1 0x14 PUSH1 0x0 SWAP1 SLOAD SWAP1 PUSH2 0x100 EXP SWAP1 DIV PUSH20 0xFFFFFFFFFFFFFFFFFFFFFFFFFFFFFFFFFFFFFFFF AND PUSH20 0xFFFFFFFFFFFFFFFFFFFFFFFFFFFFFFFFFFFFFFFF AND PUSH4 0x8086B8BA PUSH2 0x1AAA PUSH1 0x0 PUSH2 0x2382 JUMP JUMPDEST PUSH1 0x40 MLOAD DUP3 PUSH4 0xFFFFFFFF AND PUSH1 0xE0 SHL DUP2 MSTORE PUSH1 0x4 ADD PUSH2 0x1AC6 SWAP2 SWAP1 PUSH2 0x46A9 JUMP JUMPDEST PUSH1 0x20 PUSH1 0x40 MLOAD DUP1 DUP4 SUB DUP2 DUP7 GAS STATICCALL ISZERO DUP1 ISZERO PUSH2 0x1AE3 JUMPI RETURNDATASIZE PUSH1 0x0 DUP1 RETURNDATACOPY RETURNDATASIZE PUSH1 0x0 REVERT JUMPDEST POP POP POP POP PUSH1 0x40 MLOAD RETURNDATASIZE PUSH1 0x1F NOT PUSH1 0x1F DUP3 ADD AND DUP3 ADD DUP1 PUSH1 0x40 MSTORE POP DUP2 ADD SWAP1 PUSH2 0x1B07 SWAP2 SWAP1 PUSH2 0x5704 JUMP JUMPDEST PUSH20 0xFFFFFFFFFFFFFFFFFFFFFFFFFFFFFFFFFFFFFFFF AND EQ PUSH2 0x1B5D JUMPI PUSH1 0x40 MLOAD PUSH32 0x8C379A000000000000000000000000000000000000000000000000000000000 DUP2 MSTORE PUSH1 0x4 ADD PUSH2 0x1B54 SWAP1 PUSH2 0x577D JUMP JUMPDEST PUSH1 0x40 MLOAD DUP1 SWAP2 SUB SWAP1 REVERT JUMPDEST PUSH1 0x1 PUSH2 0x1B68 DUP2 PUSH2 0x23CA JUMP JUMPDEST PUSH2 0x1B71 DUP6 PUSH2 0x2E6D JUMP JUMPDEST POP POP POP POP POP JUMP JUMPDEST PUSH1 0x1 DUP2 JUMP JUMPDEST PUSH2 0x1B8F PUSH2 0x1B88 PUSH2 0x221F JUMP JUMPDEST DUP4 DUP4 PUSH2 0x2E8F JUMP JUMPDEST POP POP JUMP JUMPDEST PUSH1 0x4 DUP2 JUMP JUMPDEST PUSH1 0x60 PUSH1 0xD PUSH1 0x0 DUP4 DUP2 MSTORE PUSH1 0x20 ADD SWAP1 DUP2 MSTORE PUSH1 0x20 ADD PUSH1 0x0 KECCAK256 DUP1 SLOAD PUSH2 0x1BB8 SWAP1 PUSH2 0x54C2 JUMP JUMPDEST DUP1 PUSH1 0x1F ADD PUSH1 0x20 DUP1 SWAP2 DIV MUL PUSH1 0x20 ADD PUSH1 0x40 MLOAD SWAP1 DUP2 ADD PUSH1 0x40 MSTORE DUP1 SWAP3 SWAP2 SWAP1 DUP2 DUP2 MSTORE PUSH1 0x20 ADD DUP3 DUP1 SLOAD PUSH2 0x1BE4 SWAP1 PUSH2 0x54C2 JUMP JUMPDEST DUP1 ISZERO PUSH2 0x1C31 JUMPI DUP1 PUSH1 0x1F LT PUSH2 0x1C06 JUMPI PUSH2 0x100 DUP1 DUP4 SLOAD DIV MUL DUP4 MSTORE SWAP2 PUSH1 0x20 ADD SWAP2 PUSH2 0x1C31 JUMP JUMPDEST DUP3 ADD SWAP2 SWAP1 PUSH1 0x0 MSTORE PUSH1 0x20 PUSH1 0x0 KECCAK256 SWAP1 JUMPDEST DUP2 SLOAD DUP2 MSTORE SWAP1 PUSH1 0x1 ADD SWAP1 PUSH1 0x20 ADD DUP1 DUP4 GT PUSH2 0x1C14 JUMPI DUP3 SWAP1 SUB PUSH1 0x1F AND DUP3 ADD SWAP2 JUMPDEST POP POP POP POP POP SWAP1 POP SWAP2 SWAP1 POP JUMP JUMPDEST PUSH2 0x1C46 DUP3 PUSH2 0x1437 JUMP JUMPDEST PUSH2 0x1C4F DUP2 PUSH2 0x23CA JUMP JUMPDEST PUSH2 0x1C59 DUP4 DUP4 PUSH2 0x2FFB JUMP JUMPDEST POP POP POP JUMP JUMPDEST PUSH2 0x1C67 DUP3 PUSH2 0x1437 JUMP JUMPDEST PUSH2 0x1C70 DUP2 PUSH2 0x23CA JUMP JUMPDEST PUSH2 0x1C7A DUP4 DUP4 PUSH2 0x30EA JUMP JUMPDEST POP POP POP JUMP JUMPDEST PUSH2 0x1C90 PUSH2 0x1C8A PUSH2 0x221F JUMP JUMPDEST DUP4 PUSH2 0x248F JUMP JUMPDEST PUSH2 0x1CCF JUMPI PUSH1 0x40 MLOAD PUSH32 0x8C379A000000000000000000000000000000000000000000000000000000000 DUP2 MSTORE PUSH1 0x4 ADD PUSH2 0x1CC6 SWAP1 PUSH2 0x580F JUMP JUMPDEST PUSH1 0x40 MLOAD DUP1 SWAP2 SUB SWAP1 REVERT JUMPDEST PUSH2 0x1CDB DUP5 DUP5 DUP5 DUP5 PUSH2 0x31D9 JUMP JUMPDEST POP POP POP POP JUMP JUMPDEST PUSH1 0x60 PUSH1 0xC PUSH1 0x0 DUP4 DUP2 MSTORE PUSH1 0x20 ADD SWAP1 DUP2 MSTORE PUSH1 0x20 ADD PUSH1 0x0 KECCAK256 DUP1 SLOAD DUP1 PUSH1 0x20 MUL PUSH1 0x20 ADD PUSH1 0x40 MLOAD SWAP1 DUP2 ADD PUSH1 0x40 MSTORE DUP1 SWAP3 SWAP2 SWAP1 DUP2 DUP2 MSTORE PUSH1 0x20 ADD PUSH1 0x0 SWAP1 JUMPDEST DUP3 DUP3 LT ISZERO PUSH2 0x1DE4 JUMPI DUP4 DUP3 SWAP1 PUSH1 0x0 MSTORE PUSH1 0x20 PUSH1 0x0 KECCAK256 SWAP1 PUSH1 0x2 MUL ADD PUSH1 0x40 MLOAD DUP1 PUSH1 0x40 ADD PUSH1 0x40 MSTORE SWAP1 DUP2 PUSH1 0x0 DUP3 ADD SLOAD DUP2 MSTORE PUSH1 0x20 ADD PUSH1 0x1 DUP3 ADD DUP1 SLOAD PUSH2 0x1D53 SWAP1 PUSH2 0x54C2 JUMP JUMPDEST DUP1 PUSH1 0x1F ADD PUSH1 0x20 DUP1 SWAP2 DIV MUL PUSH1 0x20 ADD PUSH1 0x40 MLOAD SWAP1 DUP2 ADD PUSH1 0x40 MSTORE DUP1 SWAP3 SWAP2 SWAP1 DUP2 DUP2 MSTORE PUSH1 0x20 ADD DUP3 DUP1 SLOAD PUSH2 0x1D7F SWAP1 PUSH2 0x54C2 JUMP JUMPDEST DUP1 ISZERO PUSH2 0x1DCC JUMPI DUP1 PUSH1 0x1F LT PUSH2 0x1DA1 JUMPI PUSH2 0x100 DUP1 DUP4 SLOAD DIV MUL DUP4 MSTORE SWAP2 PUSH1 0x20 ADD SWAP2 PUSH2 0x1DCC JUMP JUMPDEST DUP3 ADD SWAP2 SWAP1 PUSH1 0x0 MSTORE PUSH1 0x20 PUSH1 0x0 KECCAK256 SWAP1 JUMPDEST DUP2 SLOAD DUP2 MSTORE SWAP1 PUSH1 0x1 ADD SWAP1 PUSH1 0x20 ADD DUP1 DUP4 GT PUSH2 0x1DAF JUMPI DUP3 SWAP1 SUB PUSH1 0x1F AND DUP3 ADD SWAP2 JUMPDEST POP POP POP POP POP DUP2 MSTORE POP POP DUP2 MSTORE PUSH1 0x20 ADD SWAP1 PUSH1 0x1 ADD SWAP1 PUSH2 0x1D16 JUMP JUMPDEST POP POP POP POP SWAP1 POP SWAP2 SWAP1 POP JUMP JUMPDEST PUSH1 0x60 PUSH2 0x1DFA DUP3 PUSH2 0x21D4 JUMP JUMPDEST PUSH1 0x0 PUSH2 0x1E04 PUSH2 0x3235 JUMP JUMPDEST SWAP1 POP PUSH1 0x0 DUP2 MLOAD GT PUSH2 0x1E24 JUMPI PUSH1 0x40 MLOAD DUP1 PUSH1 0x20 ADD PUSH1 0x40 MSTORE DUP1 PUSH1 0x0 DUP2 MSTORE POP PUSH2 0x1E4F JUMP JUMPDEST DUP1 PUSH2 0x1E2E DUP5 PUSH2 0x324C JUMP JUMPDEST PUSH1 0x40 MLOAD PUSH1 0x20 ADD PUSH2 0x1E3F SWAP3 SWAP2 SWAP1 PUSH2 0x5D96 JUMP JUMPDEST PUSH1 0x40 MLOAD PUSH1 0x20 DUP2 DUP4 SUB SUB DUP2 MSTORE SWAP1 PUSH1 0x40 MSTORE JUMPDEST SWAP2 POP POP SWAP2 SWAP1 POP JUMP JUMPDEST PUSH1 0x0 DUP1 DUP4 PUSH1 0x1 PUSH1 0x0 DUP6 PUSH20 0xFFFFFFFFFFFFFFFFFFFFFFFFFFFFFFFFFFFFFFFF AND PUSH20 0xFFFFFFFFFFFFFFFFFFFFFFFFFFFFFFFFFFFFFFFF AND DUP2 MSTORE PUSH1 0x20 ADD SWAP1 DUP2 MSTORE PUSH1 0x20 ADD PUSH1 0x0 KECCAK256 PUSH1 0x0 SWAP1 SLOAD SWAP1 PUSH2 0x100 EXP SWAP1 DIV PUSH8 0xFFFFFFFFFFFFFFFF AND AND PUSH8 0xFFFFFFFFFFFFFFFF AND GT SWAP1 POP SWAP3 SWAP2 POP POP JUMP JUMPDEST PUSH1 0x8 DUP2 JUMP JUMPDEST PUSH1 0x2 DUP2 JUMP JUMPDEST PUSH1 0x0 PUSH1 0x7 PUSH1 0x0 DUP5 PUSH20 0xFFFFFFFFFFFFFFFFFFFFFFFFFFFFFFFFFFFFFFFF AND PUSH20 0xFFFFFFFFFFFFFFFFFFFFFFFFFFFFFFFFFFFFFFFF AND DUP2 MSTORE PUSH1 0x20 ADD SWAP1 DUP2 MSTORE PUSH1 0x20 ADD PUSH1 0x0 KECCAK256 PUSH1 0x0 DUP4 PUSH20 0xFFFFFFFFFFFFFFFFFFFFFFFFFFFFFFFFFFFFFFFF AND PUSH20 0xFFFFFFFFFFFFFFFFFFFFFFFFFFFFFFFFFFFFFFFF AND DUP2 MSTORE PUSH1 0x20 ADD SWAP1 DUP2 MSTORE PUSH1 0x20 ADD PUSH1 0x0 KECCAK256 PUSH1 0x0 SWAP1 SLOAD SWAP1 PUSH2 0x100 EXP SWAP1 DIV PUSH1 0xFF AND SWAP1 POP SWAP3 SWAP2 POP POP JUMP JUMPDEST PUSH2 0x1F69 PUSH2 0x221F JUMP JUMPDEST PUSH20 0xFFFFFFFFFFFFFFFFFFFFFFFFFFFFFFFFFFFFFFFF AND DUP2 PUSH20 0xFFFFFFFFFFFFFFFFFFFFFFFFFFFFFFFFFFFFFFFF AND EQ PUSH2 0x1FD6 JUMPI PUSH1 0x40 MLOAD PUSH32 0x8C379A000000000000000000000000000000000000000000000000000000000 DUP2 MSTORE PUSH1 0x4 ADD PUSH2 0x1FCD SWAP1 PUSH2 0x5E2C JUMP JUMPDEST PUSH1 0x40 MLOAD DUP1 SWAP2 SUB SWAP1 REVERT JUMPDEST PUSH2 0x1FE0 DUP3 DUP3 PUSH2 0x30EA JUMP JUMPDEST POP POP JUMP JUMPDEST PUSH1 0x0 CALLER SWAP1 POP SWAP1 JUMP JUMPDEST PUSH1 0x0 PUSH32 0x7F08F59F00000000000000000000000000000000000000000000000000000000 PUSH28 0xFFFFFFFFFFFFFFFFFFFFFFFFFFFFFFFFFFFFFFFFFFFFFFFFFFFFFFFF NOT AND DUP3 PUSH28 0xFFFFFFFFFFFFFFFFFFFFFFFFFFFFFFFFFFFFFFFFFFFFFFFFFFFFFFFF NOT AND EQ DUP1 PUSH2 0x205F JUMPI POP PUSH2 0x205E DUP3 PUSH2 0x331A JUMP JUMPDEST JUMPDEST SWAP1 POP SWAP2 SWAP1 POP JUMP JUMPDEST PUSH1 0x0 PUSH32 0x780E9D6300000000000000000000000000000000000000000000000000000000 PUSH28 0xFFFFFFFFFFFFFFFFFFFFFFFFFFFFFFFFFFFFFFFFFFFFFFFFFFFFFFFF NOT AND DUP3 PUSH28 0xFFFFFFFFFFFFFFFFFFFFFFFFFFFFFFFFFFFFFFFFFFFFFFFFFFFFFFFF NOT AND EQ DUP1 PUSH2 0x20D9 JUMPI POP PUSH2 0x20D8 DUP3 PUSH2 0x3384 JUMP JUMPDEST JUMPDEST SWAP1 POP SWAP2 SWAP1 POP JUMP JUMPDEST PUSH1 0x0 PUSH32 0x2A55205A00000000000000000000000000000000000000000000000000000000 PUSH28 0xFFFFFFFFFFFFFFFFFFFFFFFFFFFFFFFFFFFFFFFFFFFFFFFFFFFFFFFF NOT AND DUP3 PUSH28 0xFFFFFFFFFFFFFFFFFFFFFFFFFFFFFFFFFFFFFFFFFFFFFFFFFFFFFFFF NOT AND EQ DUP1 PUSH2 0x2153 JUMPI POP PUSH2 0x2152 DUP3 PUSH2 0x2066 JUMP JUMPDEST JUMPDEST SWAP1 POP SWAP2 SWAP1 POP JUMP JUMPDEST PUSH1 0x0 PUSH32 0x49DC1F8F00000000000000000000000000000000000000000000000000000000 PUSH28 0xFFFFFFFFFFFFFFFFFFFFFFFFFFFFFFFFFFFFFFFFFFFFFFFFFFFFFFFF NOT AND DUP3 PUSH28 0xFFFFFFFFFFFFFFFFFFFFFFFFFFFFFFFFFFFFFFFFFFFFFFFFFFFFFFFF NOT AND EQ DUP1 PUSH2 0x21CD JUMPI POP PUSH2 0x21CC DUP3 PUSH2 0x20E0 JUMP JUMPDEST JUMPDEST SWAP1 POP SWAP2 SWAP1 POP JUMP JUMPDEST PUSH2 0x21DD DUP2 PUSH2 0x3466 JUMP JUMPDEST PUSH2 0x221C JUMPI PUSH1 0x40 MLOAD PUSH32 0x8C379A000000000000000000000000000000000000000000000000000000000 DUP2 MSTORE PUSH1 0x4 ADD PUSH2 0x2213 SWAP1 PUSH2 0x5CA8 JUMP JUMPDEST PUSH1 0x40 MLOAD DUP1 SWAP2 SUB SWAP1 REVERT JUMPDEST POP JUMP JUMPDEST PUSH1 0x0 PUSH1 0x14 PUSH1 0x0 SWAP1 SLOAD SWAP1 PUSH2 0x100 EXP SWAP1 DIV PUSH20 0xFFFFFFFFFFFFFFFFFFFFFFFFFFFFFFFFFFFFFFFF AND PUSH20 0xFFFFFFFFFFFFFFFFFFFFFFFFFFFFFFFFFFFFFFFF AND PUSH4 0x8086B8BA PUSH2 0x2267 PUSH2 0x1FE4 JUMP JUMPDEST PUSH1 0x40 MLOAD DUP3 PUSH4 0xFFFFFFFF AND PUSH1 0xE0 SHL DUP2 MSTORE PUSH1 0x4 ADD PUSH2 0x2283 SWAP2 SWAP1 PUSH2 0x46A9 JUMP JUMPDEST PUSH1 0x20 PUSH1 0x40 MLOAD DUP1 DUP4 SUB DUP2 DUP7 GAS STATICCALL ISZERO DUP1 ISZERO PUSH2 0x22A0 JUMPI RETURNDATASIZE PUSH1 0x0 DUP1 RETURNDATACOPY RETURNDATASIZE PUSH1 0x0 REVERT JUMPDEST POP POP POP POP PUSH1 0x40 MLOAD RETURNDATASIZE PUSH1 0x1F NOT PUSH1 0x1F DUP3 ADD AND DUP3 ADD DUP1 PUSH1 0x40 MSTORE POP DUP2 ADD SWAP1 PUSH2 0x22C4 SWAP2 SWAP1 PUSH2 0x5704 JUMP JUMPDEST SWAP1 POP SWAP1 JUMP JUMPDEST DUP2 PUSH1 0x6 PUSH1 0x0 DUP4 DUP2 MSTORE PUSH1 0x20 ADD SWAP1 DUP2 MSTORE PUSH1 0x20 ADD PUSH1 0x0 KECCAK256 PUSH1 0x0 PUSH2 0x100 EXP DUP2 SLOAD DUP2 PUSH20 0xFFFFFFFFFFFFFFFFFFFFFFFFFFFFFFFFFFFFFFFF MUL NOT AND SWAP1 DUP4 PUSH20 0xFFFFFFFFFFFFFFFFFFFFFFFFFFFFFFFFFFFFFFFF AND MUL OR SWAP1 SSTORE POP DUP1 DUP3 PUSH20 0xFFFFFFFFFFFFFFFFFFFFFFFFFFFFFFFFFFFFFFFF AND PUSH2 0x233C DUP4 PUSH2 0x157B JUMP JUMPDEST PUSH20 0xFFFFFFFFFFFFFFFFFFFFFFFFFFFFFFFFFFFFFFFF AND PUSH32 0x8C5BE1E5EBEC7D5BD14F71427D1E84F3DD0314C0F7B2291E5B200AC8C7C3B925 PUSH1 0x40 MLOAD PUSH1 0x40 MLOAD DUP1 SWAP2 SUB SWAP1 LOG4 POP POP JUMP JUMPDEST PUSH1 0x0 PUSH1 0x13 DUP3 DUP2 SLOAD DUP2 LT PUSH2 0x2398 JUMPI PUSH2 0x2397 PUSH2 0x5AB3 JUMP JUMPDEST JUMPDEST SWAP1 PUSH1 0x0 MSTORE PUSH1 0x20 PUSH1 0x0 KECCAK256 ADD PUSH1 0x0 SWAP1 SLOAD SWAP1 PUSH2 0x100 EXP SWAP1 DIV PUSH20 0xFFFFFFFFFFFFFFFFFFFFFFFFFFFFFFFFFFFFFFFF AND SWAP1 POP SWAP2 SWAP1 POP JUMP JUMPDEST PUSH2 0x23DB DUP2 PUSH2 0x23D6 PUSH2 0x221F JUMP JUMPDEST PUSH2 0x34A7 JUMP JUMPDEST POP JUMP JUMPDEST PUSH1 0x0 JUMPDEST DUP2 MLOAD DUP2 LT ISZERO PUSH2 0x2468 JUMPI PUSH1 0xE PUSH1 0x0 DUP5 DUP2 MSTORE PUSH1 0x20 ADD SWAP1 DUP2 MSTORE PUSH1 0x20 ADD PUSH1 0x0 KECCAK256 DUP3 DUP3 DUP2 MLOAD DUP2 LT PUSH2 0x2410 JUMPI PUSH2 0x240F PUSH2 0x5AB3 JUMP JUMPDEST JUMPDEST PUSH1 0x20 MUL PUSH1 0x20 ADD ADD MLOAD SWAP1 DUP1 PUSH1 0x1 DUP2 SLOAD ADD DUP1 DUP3 SSTORE DUP1 SWAP2 POP POP PUSH1 0x1 SWAP1 SUB SWAP1 PUSH1 0x0 MSTORE PUSH1 0x20 PUSH1 0x0 KECCAK256 ADD PUSH1 0x0 SWAP1 SWAP2 SWAP1 SWAP2 SWAP1 SWAP2 POP PUSH1 0x0 DUP3 ADD MLOAD DUP2 PUSH1 0x0 ADD SWAP1 DUP2 PUSH2 0x2452 SWAP2 SWAP1 PUSH2 0x5FF8 JUMP JUMPDEST POP POP POP DUP1 DUP1 PUSH2 0x2460 SWAP1 PUSH2 0x5B82 JUMP JUMPDEST SWAP2 POP POP PUSH2 0x23E1 JUMP JUMPDEST POP POP POP JUMP JUMPDEST PUSH1 0xC PUSH1 0x0 DUP3 DUP2 MSTORE PUSH1 0x20 ADD SWAP1 DUP2 MSTORE PUSH1 0x20 ADD PUSH1 0x0 KECCAK256 PUSH1 0x0 PUSH2 0x248C SWAP2 SWAP1 PUSH2 0x438C JUMP JUMPDEST POP JUMP JUMPDEST PUSH1 0x0 DUP1 PUSH2 0x249B DUP4 PUSH2 0x157B JUMP JUMPDEST SWAP1 POP DUP1 PUSH20 0xFFFFFFFFFFFFFFFFFFFFFFFFFFFFFFFFFFFFFFFF AND DUP5 PUSH20 0xFFFFFFFFFFFFFFFFFFFFFFFFFFFFFFFFFFFFFFFF AND EQ DUP1 PUSH2 0x24DD JUMPI POP PUSH2 0x24DC DUP2 DUP6 PUSH2 0x1ECD JUMP JUMPDEST JUMPDEST DUP1 PUSH2 0x251B JUMPI POP DUP4 PUSH20 0xFFFFFFFFFFFFFFFFFFFFFFFFFFFFFFFFFFFFFFFF AND PUSH2 0x2503 DUP5 PUSH2 0x834 JUMP JUMPDEST PUSH20 0xFFFFFFFFFFFFFFFFFFFFFFFFFFFFFFFFFFFFFFFF AND EQ JUMPDEST SWAP2 POP POP SWAP3 SWAP2 POP POP JUMP JUMPDEST DUP3 PUSH20 0xFFFFFFFFFFFFFFFFFFFFFFFFFFFFFFFFFFFFFFFF AND PUSH2 0x2544 DUP3 PUSH2 0x157B JUMP JUMPDEST PUSH20 0xFFFFFFFFFFFFFFFFFFFFFFFFFFFFFFFFFFFFFFFF AND EQ PUSH2 0x259A JUMPI PUSH1 0x40 MLOAD PUSH32 0x8C379A000000000000000000000000000000000000000000000000000000000 DUP2 MSTORE PUSH1 0x4 ADD PUSH2 0x2591 SWAP1 PUSH2 0x613C JUMP JUMPDEST PUSH1 0x40 MLOAD DUP1 SWAP2 SUB SWAP1 REVERT JUMPDEST PUSH1 0x0 PUSH20 0xFFFFFFFFFFFFFFFFFFFFFFFFFFFFFFFFFFFFFFFF AND DUP3 PUSH20 0xFFFFFFFFFFFFFFFFFFFFFFFFFFFFFFFFFFFFFFFF AND SUB PUSH2 0x2609 JUMPI PUSH1 0x40 MLOAD PUSH32 0x8C379A000000000000000000000000000000000000000000000000000000000 DUP2 MSTORE PUSH1 0x4 ADD PUSH2 0x2600 SWAP1 PUSH2 0x61CE JUMP JUMPDEST PUSH1 0x40 MLOAD DUP1 SWAP2 SUB SWAP1 REVERT JUMPDEST PUSH2 0x2616 DUP4 DUP4 DUP4 PUSH1 0x1 PUSH2 0x34F4 JUMP JUMPDEST DUP3 PUSH20 0xFFFFFFFFFFFFFFFFFFFFFFFFFFFFFFFFFFFFFFFF AND PUSH2 0x2636 DUP3 PUSH2 0x157B JUMP JUMPDEST PUSH20 0xFFFFFFFFFFFFFFFFFFFFFFFFFFFFFFFFFFFFFFFF AND EQ PUSH2 0x268C JUMPI PUSH1 0x40 MLOAD PUSH32 0x8C379A000000000000000000000000000000000000000000000000000000000 DUP2 MSTORE PUSH1 0x4 ADD PUSH2 0x2683 SWAP1 PUSH2 0x613C JUMP JUMPDEST PUSH1 0x40 MLOAD DUP1 SWAP2 SUB SWAP1 REVERT JUMPDEST PUSH1 0x6 PUSH1 0x0 DUP3 DUP2 MSTORE PUSH1 0x20 ADD SWAP1 DUP2 MSTORE PUSH1 0x20 ADD PUSH1 0x0 KECCAK256 PUSH1 0x0 PUSH2 0x100 EXP DUP2 SLOAD SWAP1 PUSH20 0xFFFFFFFFFFFFFFFFFFFFFFFFFFFFFFFFFFFFFFFF MUL NOT AND SWAP1 SSTORE PUSH1 0x1 PUSH1 0x5 PUSH1 0x0 DUP6 PUSH20 0xFFFFFFFFFFFFFFFFFFFFFFFFFFFFFFFFFFFFFFFF AND PUSH20 0xFFFFFFFFFFFFFFFFFFFFFFFFFFFFFFFFFFFFFFFF AND DUP2 MSTORE PUSH1 0x20 ADD SWAP1 DUP2 MSTORE PUSH1 0x20 ADD PUSH1 0x0 KECCAK256 PUSH1 0x0 DUP3 DUP3 SLOAD SUB SWAP3 POP POP DUP2 SWAP1 SSTORE POP PUSH1 0x1 PUSH1 0x5 PUSH1 0x0 DUP5 PUSH20 0xFFFFFFFFFFFFFFFFFFFFFFFFFFFFFFFFFFFFFFFF AND PUSH20 0xFFFFFFFFFFFFFFFFFFFFFFFFFFFFFFFFFFFFFFFF AND DUP2 MSTORE PUSH1 0x20 ADD SWAP1 DUP2 MSTORE PUSH1 0x20 ADD PUSH1 0x0 KECCAK256 PUSH1 0x0 DUP3 DUP3 SLOAD ADD SWAP3 POP POP DUP2 SWAP1 SSTORE POP DUP2 PUSH1 0x4 PUSH1 0x0 DUP4 DUP2 MSTORE PUSH1 0x20 ADD SWAP1 DUP2 MSTORE PUSH1 0x20 ADD PUSH1 0x0 KECCAK256 PUSH1 0x0 PUSH2 0x100 EXP DUP2 SLOAD DUP2 PUSH20 0xFFFFFFFFFFFFFFFFFFFFFFFFFFFFFFFFFFFFFFFF MUL NOT AND SWAP1 DUP4 PUSH20 0xFFFFFFFFFFFFFFFFFFFFFFFFFFFFFFFFFFFFFFFF AND MUL OR SWAP1 SSTORE POP DUP1 DUP3 PUSH20 0xFFFFFFFFFFFFFFFFFFFFFFFFFFFFFFFFFFFFFFFF AND DUP5 PUSH20 0xFFFFFFFFFFFFFFFFFFFFFFFFFFFFFFFFFFFFFFFF AND PUSH32 0xDDF252AD1BE2C89B69C2B068FC378DAA952BA7F163C4A11628F55A4DF523B3EF PUSH1 0x40 MLOAD PUSH1 0x40 MLOAD DUP1 SWAP2 SUB SWAP1 LOG4 PUSH2 0x2818 DUP4 DUP4 DUP4 PUSH1 0x1 PUSH2 0x3652 JUMP JUMPDEST POP POP POP JUMP JUMPDEST PUSH1 0x0 PUSH2 0x2710 SWAP1 POP SWAP1 JUMP JUMPDEST PUSH1 0x1 PUSH1 0x12 SLOAD SUB PUSH2 0x286C JUMPI PUSH1 0x40 MLOAD PUSH32 0x8C379A000000000000000000000000000000000000000000000000000000000 DUP2 MSTORE PUSH1 0x4 ADD PUSH2 0x2863 SWAP1 PUSH2 0x623A JUMP JUMPDEST PUSH1 0x40 MLOAD DUP1 SWAP2 SUB SWAP1 REVERT JUMPDEST PUSH1 0x1 PUSH1 0x12 DUP2 SWAP1 SSTORE POP JUMP JUMPDEST PUSH1 0x0 DUP2 PUSH1 0x0 ADD SLOAD SWAP1 POP SWAP2 SWAP1 POP JUMP JUMPDEST PUSH1 0x0 PUSH2 0x2897 PUSH2 0x2891 PUSH2 0x3658 JUMP JUMPDEST DUP4 PUSH2 0x3772 JUMP JUMPDEST SWAP1 POP SWAP2 SWAP1 POP JUMP JUMPDEST PUSH1 0x0 DUP1 PUSH1 0x0 PUSH2 0x28AD DUP6 DUP6 PUSH2 0x37A5 JUMP JUMPDEST SWAP2 POP SWAP2 POP PUSH2 0x28BA DUP2 PUSH2 0x37F6 JUMP JUMPDEST DUP2 SWAP3 POP POP POP SWAP3 SWAP2 POP POP JUMP JUMPDEST PUSH1 0x60 PUSH2 0x28EA DUP4 DUP4 PUSH1 0x40 MLOAD DUP1 PUSH1 0x60 ADD PUSH1 0x40 MSTORE DUP1 PUSH1 0x27 DUP2 MSTORE PUSH1 0x20 ADD PUSH2 0x6AE9 PUSH1 0x27 SWAP2 CODECOPY PUSH2 0x395C JUMP JUMPDEST SWAP1 POP SWAP3 SWAP2 POP POP JUMP JUMPDEST PUSH1 0x0 PUSH1 0x12 DUP2 SWAP1 SSTORE POP PUSH1 0x0 PUSH8 0xFFFFFFFFFFFFFFFF DUP2 GT ISZERO PUSH2 0x2915 JUMPI PUSH2 0x2914 PUSH2 0x4735 JUMP JUMPDEST JUMPDEST PUSH1 0x40 MLOAD SWAP1 DUP1 DUP3 MSTORE DUP1 PUSH1 0x20 MUL PUSH1 0x20 ADD DUP3 ADD PUSH1 0x40 MSTORE DUP1 ISZERO PUSH2 0x2943 JUMPI DUP2 PUSH1 0x20 ADD PUSH1 0x20 DUP3 MUL DUP1 CALLDATASIZE DUP4 CALLDATACOPY DUP1 DUP3 ADD SWAP2 POP POP SWAP1 POP JUMPDEST POP PUSH1 0x13 SWAP1 DUP1 MLOAD SWAP1 PUSH1 0x20 ADD SWAP1 PUSH2 0x2959 SWAP3 SWAP2 SWAP1 PUSH2 0x4302 JUMP JUMPDEST POP PUSH2 0x29A8 PUSH1 0x11 PUSH1 0x0 PUSH2 0x2969 PUSH2 0x221F JUMP JUMPDEST PUSH20 0xFFFFFFFFFFFFFFFFFFFFFFFFFFFFFFFFFFFFFFFF AND PUSH20 0xFFFFFFFFFFFFFFFFFFFFFFFFFFFFFFFFFFFFFFFF AND DUP2 MSTORE PUSH1 0x20 ADD SWAP1 DUP2 MSTORE PUSH1 0x20 ADD PUSH1 0x0 KECCAK256 PUSH2 0x39E2 JUMP JUMPDEST JUMP JUMPDEST PUSH1 0x0 PUSH1 0x4 PUSH1 0x0 DUP4 DUP2 MSTORE PUSH1 0x20 ADD SWAP1 DUP2 MSTORE PUSH1 0x20 ADD PUSH1 0x0 KECCAK256 PUSH1 0x0 SWAP1 SLOAD SWAP1 PUSH2 0x100 EXP SWAP1 DIV PUSH20 0xFFFFFFFFFFFFFFFFFFFFFFFFFFFFFFFFFFFFFFFF AND SWAP1 POP SWAP2 SWAP1 POP JUMP JUMPDEST PUSH1 0x0 JUMPDEST DUP2 MLOAD DUP2 LT ISZERO PUSH2 0x2A7F JUMPI PUSH1 0xC PUSH1 0x0 DUP5 DUP2 MSTORE PUSH1 0x20 ADD SWAP1 DUP2 MSTORE PUSH1 0x20 ADD PUSH1 0x0 KECCAK256 DUP3 DUP3 DUP2 MLOAD DUP2 LT PUSH2 0x2A19 JUMPI PUSH2 0x2A18 PUSH2 0x5AB3 JUMP JUMPDEST JUMPDEST PUSH1 0x20 MUL PUSH1 0x20 ADD ADD MLOAD SWAP1 DUP1 PUSH1 0x1 DUP2 SLOAD ADD DUP1 DUP3 SSTORE DUP1 SWAP2 POP POP PUSH1 0x1 SWAP1 SUB SWAP1 PUSH1 0x0 MSTORE PUSH1 0x20 PUSH1 0x0 KECCAK256 SWAP1 PUSH1 0x2 MUL ADD PUSH1 0x0 SWAP1 SWAP2 SWAP1 SWAP2 SWAP1 SWAP2 POP PUSH1 0x0 DUP3 ADD MLOAD DUP2 PUSH1 0x0 ADD SSTORE PUSH1 0x20 DUP3 ADD MLOAD DUP2 PUSH1 0x1 ADD SWAP1 DUP2 PUSH2 0x2A69 SWAP2 SWAP1 PUSH2 0x5FF8 JUMP JUMPDEST POP POP POP DUP1 DUP1 PUSH2 0x2A77 SWAP1 PUSH2 0x5B82 JUMP JUMPDEST SWAP2 POP POP PUSH2 0x29EA JUMP JUMPDEST POP POP POP JUMP JUMPDEST PUSH1 0x0 PUSH20 0xFFFFFFFFFFFFFFFFFFFFFFFFFFFFFFFFFFFFFFFF AND DUP3 PUSH20 0xFFFFFFFFFFFFFFFFFFFFFFFFFFFFFFFFFFFFFFFF AND SUB PUSH2 0x2AF3 JUMPI PUSH1 0x40 MLOAD PUSH32 0x8C379A000000000000000000000000000000000000000000000000000000000 DUP2 MSTORE PUSH1 0x4 ADD PUSH2 0x2AEA SWAP1 PUSH2 0x62A6 JUMP JUMPDEST PUSH1 0x40 MLOAD DUP1 SWAP2 SUB SWAP1 REVERT JUMPDEST PUSH2 0x2AFC DUP2 PUSH2 0x3466 JUMP JUMPDEST ISZERO PUSH2 0x2B3C JUMPI PUSH1 0x40 MLOAD PUSH32 0x8C379A000000000000000000000000000000000000000000000000000000000 DUP2 MSTORE PUSH1 0x4 ADD PUSH2 0x2B33 SWAP1 PUSH2 0x6312 JUMP JUMPDEST PUSH1 0x40 MLOAD DUP1 SWAP2 SUB SWAP1 REVERT JUMPDEST PUSH2 0x2B4A PUSH1 0x0 DUP4 DUP4 PUSH1 0x1 PUSH2 0x34F4 JUMP JUMPDEST PUSH2 0x2B53 DUP2 PUSH2 0x3466 JUMP JUMPDEST ISZERO PUSH2 0x2B93 JUMPI PUSH1 0x40 MLOAD PUSH32 0x8C379A000000000000000000000000000000000000000000000000000000000 DUP2 MSTORE PUSH1 0x4 ADD PUSH2 0x2B8A SWAP1 PUSH2 0x6312 JUMP JUMPDEST PUSH1 0x40 MLOAD DUP1 SWAP2 SUB SWAP1 REVERT JUMPDEST PUSH1 0x1 PUSH1 0x5 PUSH1 0x0 DUP5 PUSH20 0xFFFFFFFFFFFFFFFFFFFFFFFFFFFFFFFFFFFFFFFF AND PUSH20 0xFFFFFFFFFFFFFFFFFFFFFFFFFFFFFFFFFFFFFFFF AND DUP2 MSTORE PUSH1 0x20 ADD SWAP1 DUP2 MSTORE PUSH1 0x20 ADD PUSH1 0x0 KECCAK256 PUSH1 0x0 DUP3 DUP3 SLOAD ADD SWAP3 POP POP DUP2 SWAP1 SSTORE POP DUP2 PUSH1 0x4 PUSH1 0x0 DUP4 DUP2 MSTORE PUSH1 0x20 ADD SWAP1 DUP2 MSTORE PUSH1 0x20 ADD PUSH1 0x0 KECCAK256 PUSH1 0x0 PUSH2 0x100 EXP DUP2 SLOAD DUP2 PUSH20 0xFFFFFFFFFFFFFFFFFFFFFFFFFFFFFFFFFFFFFFFF MUL NOT AND SWAP1 DUP4 PUSH20 0xFFFFFFFFFFFFFFFFFFFFFFFFFFFFFFFFFFFFFFFF AND MUL OR SWAP1 SSTORE POP DUP1 DUP3 PUSH20 0xFFFFFFFFFFFFFFFFFFFFFFFFFFFFFFFFFFFFFFFF AND PUSH1 0x0 PUSH20 0xFFFFFFFFFFFFFFFFFFFFFFFFFFFFFFFFFFFFFFFF AND PUSH32 0xDDF252AD1BE2C89B69C2B068FC378DAA952BA7F163C4A11628F55A4DF523B3EF PUSH1 0x40 MLOAD PUSH1 0x40 MLOAD DUP1 SWAP2 SUB SWAP1 LOG4 PUSH2 0x2C9D PUSH1 0x0 DUP4 DUP4 PUSH1 0x1 PUSH2 0x3652 JUMP JUMPDEST POP POP JUMP JUMPDEST DUP1 PUSH1 0xD PUSH1 0x0 DUP5 DUP2 MSTORE PUSH1 0x20 ADD SWAP1 DUP2 MSTORE PUSH1 0x20 ADD PUSH1 0x0 KECCAK256 SWAP1 DUP2 PUSH2 0x2CC1 SWAP2 SWAP1 PUSH2 0x5FF8 JUMP JUMPDEST POP POP POP JUMP JUMPDEST PUSH2 0x2CCE PUSH2 0x281D JUMP JUMPDEST PUSH12 0xFFFFFFFFFFFFFFFFFFFFFFFF AND DUP2 PUSH12 0xFFFFFFFFFFFFFFFFFFFFFFFF AND GT ISZERO PUSH2 0x2D2C JUMPI PUSH1 0x40 MLOAD PUSH32 0x8C379A000000000000000000000000000000000000000000000000000000000 DUP2 MSTORE PUSH1 0x4 ADD PUSH2 0x2D23 SWAP1 PUSH2 0x63A4 JUMP JUMPDEST PUSH1 0x40 MLOAD DUP1 SWAP2 SUB SWAP1 REVERT JUMPDEST PUSH1 0x0 PUSH20 0xFFFFFFFFFFFFFFFFFFFFFFFFFFFFFFFFFFFFFFFF AND DUP3 PUSH20 0xFFFFFFFFFFFFFFFFFFFFFFFFFFFFFFFFFFFFFFFF AND SUB PUSH2 0x2D9B JUMPI PUSH1 0x40 MLOAD PUSH32 0x8C379A000000000000000000000000000000000000000000000000000000000 DUP2 MSTORE PUSH1 0x4 ADD PUSH2 0x2D92 SWAP1 PUSH2 0x6410 JUMP JUMPDEST PUSH1 0x40 MLOAD DUP1 SWAP2 SUB SWAP1 REVERT JUMPDEST PUSH1 0x40 MLOAD DUP1 PUSH1 0x40 ADD PUSH1 0x40 MSTORE DUP1 DUP4 PUSH20 0xFFFFFFFFFFFFFFFFFFFFFFFFFFFFFFFFFFFFFFFF AND DUP2 MSTORE PUSH1 0x20 ADD DUP3 PUSH12 0xFFFFFFFFFFFFFFFFFFFFFFFF AND DUP2 MSTORE POP PUSH1 0x10 PUSH1 0x0 DUP6 DUP2 MSTORE PUSH1 0x20 ADD SWAP1 DUP2 MSTORE PUSH1 0x20 ADD PUSH1 0x0 KECCAK256 PUSH1 0x0 DUP3 ADD MLOAD DUP2 PUSH1 0x0 ADD PUSH1 0x0 PUSH2 0x100 EXP DUP2 SLOAD DUP2 PUSH20 0xFFFFFFFFFFFFFFFFFFFFFFFFFFFFFFFFFFFFFFFF MUL NOT AND SWAP1 DUP4 PUSH20 0xFFFFFFFFFFFFFFFFFFFFFFFFFFFFFFFFFFFFFFFF AND MUL OR SWAP1 SSTORE POP PUSH1 0x20 DUP3 ADD MLOAD DUP2 PUSH1 0x0 ADD PUSH1 0x14 PUSH2 0x100 EXP DUP2 SLOAD DUP2 PUSH12 0xFFFFFFFFFFFFFFFFFFFFFFFF MUL NOT AND SWAP1 DUP4 PUSH12 0xFFFFFFFFFFFFFFFFFFFFFFFF AND MUL OR SWAP1 SSTORE POP SWAP1 POP POP POP POP POP JUMP JUMPDEST PUSH1 0xE PUSH1 0x0 DUP3 DUP2 MSTORE PUSH1 0x20 ADD SWAP1 DUP2 MSTORE PUSH1 0x20 ADD PUSH1 0x0 KECCAK256 PUSH1 0x0 PUSH2 0x2E8C SWAP2 SWAP1 PUSH2 0x43B0 JUMP JUMPDEST POP JUMP JUMPDEST DUP2 PUSH20 0xFFFFFFFFFFFFFFFFFFFFFFFFFFFFFFFFFFFFFFFF AND DUP4 PUSH20 0xFFFFFFFFFFFFFFFFFFFFFFFFFFFFFFFFFFFFFFFF AND SUB PUSH2 0x2EFD JUMPI PUSH1 0x40 MLOAD PUSH32 0x8C379A000000000000000000000000000000000000000000000000000000000 DUP2 MSTORE PUSH1 0x4 ADD PUSH2 0x2EF4 SWAP1 PUSH2 0x647C JUMP JUMPDEST PUSH1 0x40 MLOAD DUP1 SWAP2 SUB SWAP1 REVERT JUMPDEST DUP1 PUSH1 0x7 PUSH1 0x0 DUP6 PUSH20 0xFFFFFFFFFFFFFFFFFFFFFFFFFFFFFFFFFFFFFFFF AND PUSH20 0xFFFFFFFFFFFFFFFFFFFFFFFFFFFFFFFFFFFFFFFF AND DUP2 MSTORE PUSH1 0x20 ADD SWAP1 DUP2 MSTORE PUSH1 0x20 ADD PUSH1 0x0 KECCAK256 PUSH1 0x0 DUP5 PUSH20 0xFFFFFFFFFFFFFFFFFFFFFFFFFFFFFFFFFFFFFFFF AND PUSH20 0xFFFFFFFFFFFFFFFFFFFFFFFFFFFFFFFFFFFFFFFF AND DUP2 MSTORE PUSH1 0x20 ADD SWAP1 DUP2 MSTORE PUSH1 0x20 ADD PUSH1 0x0 KECCAK256 PUSH1 0x0 PUSH2 0x100 EXP DUP2 SLOAD DUP2 PUSH1 0xFF MUL NOT AND SWAP1 DUP4 ISZERO ISZERO MUL OR SWAP1 SSTORE POP DUP2 PUSH20 0xFFFFFFFFFFFFFFFFFFFFFFFFFFFFFFFFFFFFFFFF AND DUP4 PUSH20 0xFFFFFFFFFFFFFFFFFFFFFFFFFFFFFFFFFFFFFFFF AND PUSH32 0x17307EAB39AB6107E8899845AD3D59BD9653F200F220920489CA2B5937696C31 DUP4 PUSH1 0x40 MLOAD PUSH2 0x2FEE SWAP2 SWAP1 PUSH2 0x4538 JUMP JUMPDEST PUSH1 0x40 MLOAD DUP1 SWAP2 SUB SWAP1 LOG3 POP POP POP JUMP JUMPDEST DUP2 PUSH1 0x1 PUSH1 0x0 DUP4 PUSH20 0xFFFFFFFFFFFFFFFFFFFFFFFFFFFFFFFFFFFFFFFF AND PUSH20 0xFFFFFFFFFFFFFFFFFFFFFFFFFFFFFFFFFFFFFFFF AND DUP2 MSTORE PUSH1 0x20 ADD SWAP1 DUP2 MSTORE PUSH1 0x20 ADD PUSH1 0x0 KECCAK256 PUSH1 0x0 DUP3 DUP3 DUP3 SWAP1 SLOAD SWAP1 PUSH2 0x100 EXP SWAP1 DIV PUSH8 0xFFFFFFFFFFFFFFFF AND OR SWAP3 POP PUSH2 0x100 EXP DUP2 SLOAD DUP2 PUSH8 0xFFFFFFFFFFFFFFFF MUL NOT AND SWAP1 DUP4 PUSH8 0xFFFFFFFFFFFFFFFF AND MUL OR SWAP1 SSTORE POP PUSH2 0x3082 PUSH2 0x221F JUMP JUMPDEST PUSH20 0xFFFFFFFFFFFFFFFFFFFFFFFFFFFFFFFFFFFFFFFF AND DUP2 PUSH20 0xFFFFFFFFFFFFFFFFFFFFFFFFFFFFFFFFFFFFFFFF AND DUP4 PUSH8 0xFFFFFFFFFFFFFFFF AND PUSH32 0x2E633503BDBB177665559A9EFB7B963D30F2042D94C73311E9C54F799584ABD5 PUSH1 0x40 MLOAD PUSH1 0x40 MLOAD DUP1 SWAP2 SUB SWAP1 LOG4 POP POP JUMP JUMPDEST DUP2 PUSH1 0x1 PUSH1 0x0 DUP4 PUSH20 0xFFFFFFFFFFFFFFFFFFFFFFFFFFFFFFFFFFFFFFFF AND PUSH20 0xFFFFFFFFFFFFFFFFFFFFFFFFFFFFFFFFFFFFFFFF AND DUP2 MSTORE PUSH1 0x20 ADD SWAP1 DUP2 MSTORE PUSH1 0x20 ADD PUSH1 0x0 KECCAK256 PUSH1 0x0 DUP3 DUP3 DUP3 SWAP1 SLOAD SWAP1 PUSH2 0x100 EXP SWAP1 DIV PUSH8 0xFFFFFFFFFFFFFFFF AND XOR SWAP3 POP PUSH2 0x100 EXP DUP2 SLOAD DUP2 PUSH8 0xFFFFFFFFFFFFFFFF MUL NOT AND SWAP1 DUP4 PUSH8 0xFFFFFFFFFFFFFFFF AND MUL OR SWAP1 SSTORE POP PUSH2 0x3171 PUSH2 0x221F JUMP JUMPDEST PUSH20 0xFFFFFFFFFFFFFFFFFFFFFFFFFFFFFFFFFFFFFFFF AND DUP2 PUSH20 0xFFFFFFFFFFFFFFFFFFFFFFFFFFFFFFFFFFFFFFFF AND DUP4 PUSH8 0xFFFFFFFFFFFFFFFF AND PUSH32 0x4EE4AAA38790A48E6B8F5CE86C7CAAEFDA507FE314FBFC735FC80B9199CF78DD PUSH1 0x40 MLOAD PUSH1 0x40 MLOAD DUP1 SWAP2 SUB SWAP1 LOG4 POP POP JUMP JUMPDEST PUSH2 0x31E4 DUP5 DUP5 DUP5 PUSH2 0x2524 JUMP JUMPDEST PUSH2 0x31F0 DUP5 DUP5 DUP5 DUP5 PUSH2 0x39F8 JUMP JUMPDEST PUSH2 0x322F JUMPI PUSH1 0x40 MLOAD PUSH32 0x8C379A000000000000000000000000000000000000000000000000000000000 DUP2 MSTORE PUSH1 0x4 ADD PUSH2 0x3226 SWAP1 PUSH2 0x650E JUMP JUMPDEST PUSH1 0x40 MLOAD DUP1 SWAP2 SUB SWAP1 REVERT JUMPDEST POP POP POP POP JUMP JUMPDEST PUSH1 0x60 PUSH1 0x40 MLOAD DUP1 PUSH1 0x20 ADD PUSH1 0x40 MSTORE DUP1 PUSH1 0x0 DUP2 MSTORE POP SWAP1 POP SWAP1 JUMP JUMPDEST PUSH1 0x60 PUSH1 0x0 PUSH1 0x1 PUSH2 0x325B DUP5 PUSH2 0x3B7F JUMP JUMPDEST ADD SWAP1 POP PUSH1 0x0 DUP2 PUSH8 0xFFFFFFFFFFFFFFFF DUP2 GT ISZERO PUSH2 0x327A JUMPI PUSH2 0x3279 PUSH2 0x4735 JUMP JUMPDEST JUMPDEST PUSH1 0x40 MLOAD SWAP1 DUP1 DUP3 MSTORE DUP1 PUSH1 0x1F ADD PUSH1 0x1F NOT AND PUSH1 0x20 ADD DUP3 ADD PUSH1 0x40 MSTORE DUP1 ISZERO PUSH2 0x32AC JUMPI DUP2 PUSH1 0x20 ADD PUSH1 0x1 DUP3 MUL DUP1 CALLDATASIZE DUP4 CALLDATACOPY DUP1 DUP3 ADD SWAP2 POP POP SWAP1 POP JUMPDEST POP SWAP1 POP PUSH1 0x0 DUP3 PUSH1 0x20 ADD DUP3 ADD SWAP1 POP JUMPDEST PUSH1 0x1 ISZERO PUSH2 0x330F JUMPI DUP1 DUP1 PUSH1 0x1 SWAP1 SUB SWAP2 POP POP PUSH32 0x3031323334353637383961626364656600000000000000000000000000000000 PUSH1 0xA DUP7 MOD BYTE DUP2 MSTORE8 PUSH1 0xA DUP6 DUP2 PUSH2 0x3303 JUMPI PUSH2 0x3302 PUSH2 0x58A0 JUMP JUMPDEST JUMPDEST DIV SWAP5 POP PUSH1 0x0 DUP6 SUB PUSH2 0x32BA JUMPI JUMPDEST DUP2 SWAP4 POP POP POP POP SWAP2 SWAP1 POP JUMP JUMPDEST PUSH1 0x0 PUSH32 0x1FFC9A700000000000000000000000000000000000000000000000000000000 PUSH28 0xFFFFFFFFFFFFFFFFFFFFFFFFFFFFFFFFFFFFFFFFFFFFFFFFFFFFFFFF NOT AND DUP3 PUSH28 0xFFFFFFFFFFFFFFFFFFFFFFFFFFFFFFFFFFFFFFFFFFFFFFFFFFFFFFFF NOT AND EQ SWAP1 POP SWAP2 SWAP1 POP JUMP JUMPDEST PUSH1 0x0 PUSH32 0x80AC58CD00000000000000000000000000000000000000000000000000000000 PUSH28 0xFFFFFFFFFFFFFFFFFFFFFFFFFFFFFFFFFFFFFFFFFFFFFFFFFFFFFFFF NOT AND DUP3 PUSH28 0xFFFFFFFFFFFFFFFFFFFFFFFFFFFFFFFFFFFFFFFFFFFFFFFFFFFFFFFF NOT AND EQ DUP1 PUSH2 0x344F JUMPI POP PUSH32 0x5B5E139F00000000000000000000000000000000000000000000000000000000 PUSH28 0xFFFFFFFFFFFFFFFFFFFFFFFFFFFFFFFFFFFFFFFFFFFFFFFFFFFFFFFF NOT AND DUP3 PUSH28 0xFFFFFFFFFFFFFFFFFFFFFFFFFFFFFFFFFFFFFFFFFFFFFFFFFFFFFFFF NOT AND EQ JUMPDEST DUP1 PUSH2 0x345F JUMPI POP PUSH2 0x345E DUP3 PUSH2 0x1FEC JUMP JUMPDEST JUMPDEST SWAP1 POP SWAP2 SWAP1 POP JUMP JUMPDEST PUSH1 0x0 DUP1 PUSH20 0xFFFFFFFFFFFFFFFFFFFFFFFFFFFFFFFFFFFFFFFF AND PUSH2 0x3488 DUP4 PUSH2 0x29AA JUMP JUMPDEST PUSH20 0xFFFFFFFFFFFFFFFFFFFFFFFFFFFFFFFFFFFFFFFF AND EQ ISZERO SWAP1 POP SWAP2 SWAP1 POP JUMP JUMPDEST PUSH2 0x34B1 DUP3 DUP3 PUSH2 0x1E57 JUMP JUMPDEST PUSH2 0x34F0 JUMPI PUSH1 0x40 MLOAD PUSH32 0x8C379A000000000000000000000000000000000000000000000000000000000 DUP2 MSTORE PUSH1 0x4 ADD PUSH2 0x34E7 SWAP1 PUSH2 0x65A0 JUMP JUMPDEST PUSH1 0x40 MLOAD DUP1 SWAP2 SUB SWAP1 REVERT JUMPDEST POP POP JUMP JUMPDEST PUSH2 0x3500 DUP5 DUP5 DUP5 DUP5 PUSH2 0x3CD2 JUMP JUMPDEST PUSH1 0x1 DUP2 GT ISZERO PUSH2 0x3544 JUMPI PUSH1 0x40 MLOAD PUSH32 0x8C379A000000000000000000000000000000000000000000000000000000000 DUP2 MSTORE PUSH1 0x4 ADD PUSH2 0x353B SWAP1 PUSH2 0x6632 JUMP JUMPDEST PUSH1 0x40 MLOAD DUP1 SWAP2 SUB SWAP1 REVERT JUMPDEST PUSH1 0x0 DUP3 SWAP1 POP PUSH1 0x0 PUSH20 0xFFFFFFFFFFFFFFFFFFFFFFFFFFFFFFFFFFFFFFFF AND DUP6 PUSH20 0xFFFFFFFFFFFFFFFFFFFFFFFFFFFFFFFFFFFFFFFF AND SUB PUSH2 0x358B JUMPI PUSH2 0x3586 DUP2 PUSH2 0x3DF8 JUMP JUMPDEST PUSH2 0x35CA JUMP JUMPDEST DUP4 PUSH20 0xFFFFFFFFFFFFFFFFFFFFFFFFFFFFFFFFFFFFFFFF AND DUP6 PUSH20 0xFFFFFFFFFFFFFFFFFFFFFFFFFFFFFFFFFFFFFFFF AND EQ PUSH2 0x35C9 JUMPI PUSH2 0x35C8 DUP6 DUP3 PUSH2 0x3E41 JUMP JUMPDEST JUMPDEST JUMPDEST PUSH1 0x0 PUSH20 0xFFFFFFFFFFFFFFFFFFFFFFFFFFFFFFFFFFFFFFFF AND DUP5 PUSH20 0xFFFFFFFFFFFFFFFFFFFFFFFFFFFFFFFFFFFFFFFF AND SUB PUSH2 0x360C JUMPI PUSH2 0x3607 DUP2 PUSH2 0x3FAE JUMP JUMPDEST PUSH2 0x364B JUMP JUMPDEST DUP5 PUSH20 0xFFFFFFFFFFFFFFFFFFFFFFFFFFFFFFFFFFFFFFFF AND DUP5 PUSH20 0xFFFFFFFFFFFFFFFFFFFFFFFFFFFFFFFFFFFFFFFF AND EQ PUSH2 0x364A JUMPI PUSH2 0x3649 DUP5 DUP3 PUSH2 0x407F JUMP JUMPDEST JUMPDEST JUMPDEST POP POP POP POP POP JUMP JUMPDEST POP POP POP POP JUMP JUMPDEST PUSH1 0x0 PUSH32 0x0 PUSH20 0xFFFFFFFFFFFFFFFFFFFFFFFFFFFFFFFFFFFFFFFF AND ADDRESS PUSH20 0xFFFFFFFFFFFFFFFFFFFFFFFFFFFFFFFFFFFFFFFF AND EQ DUP1 ISZERO PUSH2 0x36D4 JUMPI POP PUSH32 0x0 CHAINID EQ JUMPDEST ISZERO PUSH2 0x3701 JUMPI PUSH32 0x0 SWAP1 POP PUSH2 0x376F JUMP JUMPDEST PUSH2 0x376C PUSH32 0x0 PUSH32 0x0 PUSH32 0x0 PUSH2 0x40FE JUMP JUMPDEST SWAP1 POP JUMPDEST SWAP1 JUMP JUMPDEST PUSH1 0x0 DUP3 DUP3 PUSH1 0x40 MLOAD PUSH1 0x20 ADD PUSH2 0x3787 SWAP3 SWAP2 SWAP1 PUSH2 0x66BF JUMP JUMPDEST PUSH1 0x40 MLOAD PUSH1 0x20 DUP2 DUP4 SUB SUB DUP2 MSTORE SWAP1 PUSH1 0x40 MSTORE DUP1 MLOAD SWAP1 PUSH1 0x20 ADD KECCAK256 SWAP1 POP SWAP3 SWAP2 POP POP JUMP JUMPDEST PUSH1 0x0 DUP1 PUSH1 0x41 DUP4 MLOAD SUB PUSH2 0x37E6 JUMPI PUSH1 0x0 DUP1 PUSH1 0x0 PUSH1 0x20 DUP7 ADD MLOAD SWAP3 POP PUSH1 0x40 DUP7 ADD MLOAD SWAP2 POP PUSH1 0x60 DUP7 ADD MLOAD PUSH1 0x0 BYTE SWAP1 POP PUSH2 0x37DA DUP8 DUP3 DUP6 DUP6 PUSH2 0x4138 JUMP JUMPDEST SWAP5 POP SWAP5 POP POP POP POP PUSH2 0x37EF JUMP JUMPDEST PUSH1 0x0 PUSH1 0x2 SWAP2 POP SWAP2 POP JUMPDEST SWAP3 POP SWAP3 SWAP1 POP JUMP JUMPDEST PUSH1 0x0 PUSH1 0x4 DUP2 GT ISZERO PUSH2 0x380A JUMPI PUSH2 0x3809 PUSH2 0x66F6 JUMP JUMPDEST JUMPDEST DUP2 PUSH1 0x4 DUP2 GT ISZERO PUSH2 0x381D JUMPI PUSH2 0x381C PUSH2 0x66F6 JUMP JUMPDEST JUMPDEST SUB ISZERO PUSH2 0x3959 JUMPI PUSH1 0x1 PUSH1 0x4 DUP2 GT ISZERO PUSH2 0x3837 JUMPI PUSH2 0x3836 PUSH2 0x66F6 JUMP JUMPDEST JUMPDEST DUP2 PUSH1 0x4 DUP2 GT ISZERO PUSH2 0x384A JUMPI PUSH2 0x3849 PUSH2 0x66F6 JUMP JUMPDEST JUMPDEST SUB PUSH2 0x388A JUMPI PUSH1 0x40 MLOAD PUSH32 0x8C379A000000000000000000000000000000000000000000000000000000000 DUP2 MSTORE PUSH1 0x4 ADD PUSH2 0x3881 SWAP1 PUSH2 0x6771 JUMP JUMPDEST PUSH1 0x40 MLOAD DUP1 SWAP2 SUB SWAP1 REVERT JUMPDEST PUSH1 0x2 PUSH1 0x4 DUP2 GT ISZERO PUSH2 0x389E JUMPI PUSH2 0x389D PUSH2 0x66F6 JUMP JUMPDEST JUMPDEST DUP2 PUSH1 0x4 DUP2 GT ISZERO PUSH2 0x38B1 JUMPI PUSH2 0x38B0 PUSH2 0x66F6 JUMP JUMPDEST JUMPDEST SUB PUSH2 0x38F1 JUMPI PUSH1 0x40 MLOAD PUSH32 0x8C379A000000000000000000000000000000000000000000000000000000000 DUP2 MSTORE PUSH1 0x4 ADD PUSH2 0x38E8 SWAP1 PUSH2 0x67DD JUMP JUMPDEST PUSH1 0x40 MLOAD DUP1 SWAP2 SUB SWAP1 REVERT JUMPDEST PUSH1 0x3 PUSH1 0x4 DUP2 GT ISZERO PUSH2 0x3905 JUMPI PUSH2 0x3904 PUSH2 0x66F6 JUMP JUMPDEST JUMPDEST DUP2 PUSH1 0x4 DUP2 GT ISZERO PUSH2 0x3918 JUMPI PUSH2 0x3917 PUSH2 0x66F6 JUMP JUMPDEST JUMPDEST SUB PUSH2 0x3958 JUMPI PUSH1 0x40 MLOAD PUSH32 0x8C379A000000000000000000000000000000000000000000000000000000000 DUP2 MSTORE PUSH1 0x4 ADD PUSH2 0x394F SWAP1 PUSH2 0x686F JUMP JUMPDEST PUSH1 0x40 MLOAD DUP1 SWAP2 SUB SWAP1 REVERT JUMPDEST JUMPDEST POP JUMP JUMPDEST PUSH1 0x60 PUSH1 0x0 DUP1 DUP6 PUSH20 0xFFFFFFFFFFFFFFFFFFFFFFFFFFFFFFFFFFFFFFFF AND DUP6 PUSH1 0x40 MLOAD PUSH2 0x3986 SWAP2 SWAP1 PUSH2 0x68C0 JUMP JUMPDEST PUSH1 0x0 PUSH1 0x40 MLOAD DUP1 DUP4 SUB DUP2 DUP6 GAS DELEGATECALL SWAP2 POP POP RETURNDATASIZE DUP1 PUSH1 0x0 DUP2 EQ PUSH2 0x39C1 JUMPI PUSH1 0x40 MLOAD SWAP2 POP PUSH1 0x1F NOT PUSH1 0x3F RETURNDATASIZE ADD AND DUP3 ADD PUSH1 0x40 MSTORE RETURNDATASIZE DUP3 MSTORE RETURNDATASIZE PUSH1 0x0 PUSH1 0x20 DUP5 ADD RETURNDATACOPY PUSH2 0x39C6 JUMP JUMPDEST PUSH1 0x60 SWAP2 POP JUMPDEST POP SWAP2 POP SWAP2 POP PUSH2 0x39D7 DUP7 DUP4 DUP4 DUP8 PUSH2 0x421A JUMP JUMPDEST SWAP3 POP POP POP SWAP4 SWAP3 POP POP POP JUMP JUMPDEST PUSH1 0x1 DUP2 PUSH1 0x0 ADD PUSH1 0x0 DUP3 DUP3 SLOAD ADD SWAP3 POP POP DUP2 SWAP1 SSTORE POP POP JUMP JUMPDEST PUSH1 0x0 PUSH2 0x3A19 DUP5 PUSH20 0xFFFFFFFFFFFFFFFFFFFFFFFFFFFFFFFFFFFFFFFF AND PUSH2 0x428F JUMP JUMPDEST ISZERO PUSH2 0x3B72 JUMPI DUP4 PUSH20 0xFFFFFFFFFFFFFFFFFFFFFFFFFFFFFFFFFFFFFFFF AND PUSH4 0x150B7A02 PUSH2 0x3A42 PUSH2 0x221F JUMP JUMPDEST DUP8 DUP7 DUP7 PUSH1 0x40 MLOAD DUP6 PUSH4 0xFFFFFFFF AND PUSH1 0xE0 SHL DUP2 MSTORE PUSH1 0x4 ADD PUSH2 0x3A64 SWAP5 SWAP4 SWAP3 SWAP2 SWAP1 PUSH2 0x68D7 JUMP JUMPDEST PUSH1 0x20 PUSH1 0x40 MLOAD DUP1 DUP4 SUB DUP2 PUSH1 0x0 DUP8 GAS CALL SWAP3 POP POP POP DUP1 ISZERO PUSH2 0x3AA0 JUMPI POP PUSH1 0x40 MLOAD RETURNDATASIZE PUSH1 0x1F NOT PUSH1 0x1F DUP3 ADD AND DUP3 ADD DUP1 PUSH1 0x40 MSTORE POP DUP2 ADD SWAP1 PUSH2 0x3A9D SWAP2 SWAP1 PUSH2 0x6938 JUMP JUMPDEST PUSH1 0x1 JUMPDEST PUSH2 0x3B22 JUMPI RETURNDATASIZE DUP1 PUSH1 0x0 DUP2 EQ PUSH2 0x3AD0 JUMPI PUSH1 0x40 MLOAD SWAP2 POP PUSH1 0x1F NOT PUSH1 0x3F RETURNDATASIZE ADD AND DUP3 ADD PUSH1 0x40 MSTORE RETURNDATASIZE DUP3 MSTORE RETURNDATASIZE PUSH1 0x0 PUSH1 0x20 DUP5 ADD RETURNDATACOPY PUSH2 0x3AD5 JUMP JUMPDEST PUSH1 0x60 SWAP2 POP JUMPDEST POP PUSH1 0x0 DUP2 MLOAD SUB PUSH2 0x3B1A JUMPI PUSH1 0x40 MLOAD PUSH32 0x8C379A000000000000000000000000000000000000000000000000000000000 DUP2 MSTORE PUSH1 0x4 ADD PUSH2 0x3B11 SWAP1 PUSH2 0x650E JUMP JUMPDEST PUSH1 0x40 MLOAD DUP1 SWAP2 SUB SWAP1 REVERT JUMPDEST DUP1 MLOAD DUP2 PUSH1 0x20 ADD REVERT JUMPDEST PUSH4 0x150B7A02 PUSH1 0xE0 SHL PUSH28 0xFFFFFFFFFFFFFFFFFFFFFFFFFFFFFFFFFFFFFFFFFFFFFFFFFFFFFFFF NOT AND DUP2 PUSH28 0xFFFFFFFFFFFFFFFFFFFFFFFFFFFFFFFFFFFFFFFFFFFFFFFFFFFFFFFF NOT AND EQ SWAP2 POP POP PUSH2 0x3B77 JUMP JUMPDEST PUSH1 0x1 SWAP1 POP JUMPDEST SWAP5 SWAP4 POP POP POP POP JUMP JUMPDEST PUSH1 0x0 DUP1 PUSH1 0x0 SWAP1 POP PUSH27 0x184F03E93FF9F4DAA797ED6E38ED64BF6A1F010000000000000000 DUP4 LT PUSH2 0x3BDD JUMPI PUSH27 0x184F03E93FF9F4DAA797ED6E38ED64BF6A1F010000000000000000 DUP4 DUP2 PUSH2 0x3BD3 JUMPI PUSH2 0x3BD2 PUSH2 0x58A0 JUMP JUMPDEST JUMPDEST DIV SWAP3 POP PUSH1 0x40 DUP2 ADD SWAP1 POP JUMPDEST PUSH14 0x4EE2D6D415B85ACEF8100000000 DUP4 LT PUSH2 0x3C1A JUMPI PUSH14 0x4EE2D6D415B85ACEF8100000000 DUP4 DUP2 PUSH2 0x3C10 JUMPI PUSH2 0x3C0F PUSH2 0x58A0 JUMP JUMPDEST JUMPDEST DIV SWAP3 POP PUSH1 0x20 DUP2 ADD SWAP1 POP JUMPDEST PUSH7 0x2386F26FC10000 DUP4 LT PUSH2 0x3C49 JUMPI PUSH7 0x2386F26FC10000 DUP4 DUP2 PUSH2 0x3C3F JUMPI PUSH2 0x3C3E PUSH2 0x58A0 JUMP JUMPDEST JUMPDEST DIV SWAP3 POP PUSH1 0x10 DUP2 ADD SWAP1 POP JUMPDEST PUSH4 0x5F5E100 DUP4 LT PUSH2 0x3C72 JUMPI PUSH4 0x5F5E100 DUP4 DUP2 PUSH2 0x3C68 JUMPI PUSH2 0x3C67 PUSH2 0x58A0 JUMP JUMPDEST JUMPDEST DIV SWAP3 POP PUSH1 0x8 DUP2 ADD SWAP1 POP JUMPDEST PUSH2 0x2710 DUP4 LT PUSH2 0x3C97 JUMPI PUSH2 0x2710 DUP4 DUP2 PUSH2 0x3C8D JUMPI PUSH2 0x3C8C PUSH2 0x58A0 JUMP JUMPDEST JUMPDEST DIV SWAP3 POP PUSH1 0x4 DUP2 ADD SWAP1 POP JUMPDEST PUSH1 0x64 DUP4 LT PUSH2 0x3CBA JUMPI PUSH1 0x64 DUP4 DUP2 PUSH2 0x3CB0 JUMPI PUSH2 0x3CAF PUSH2 0x58A0 JUMP JUMPDEST JUMPDEST DIV SWAP3 POP PUSH1 0x2 DUP2 ADD SWAP1 POP JUMPDEST PUSH1 0xA DUP4 LT PUSH2 0x3CC9 JUMPI PUSH1 0x1 DUP2 ADD SWAP1 POP JUMPDEST DUP1 SWAP2 POP POP SWAP2 SWAP1 POP JUMP JUMPDEST PUSH1 0x1 DUP2 GT ISZERO PUSH2 0x3DF2 JUMPI PUSH1 0x0 PUSH20 0xFFFFFFFFFFFFFFFFFFFFFFFFFFFFFFFFFFFFFFFF AND DUP5 PUSH20 0xFFFFFFFFFFFFFFFFFFFFFFFFFFFFFFFFFFFFFFFF AND EQ PUSH2 0x3D66 JUMPI DUP1 PUSH1 0x5 PUSH1 0x0 DUP7 PUSH20 0xFFFFFFFFFFFFFFFFFFFFFFFFFFFFFFFFFFFFFFFF AND PUSH20 0xFFFFFFFFFFFFFFFFFFFFFFFFFFFFFFFFFFFFFFFF AND DUP2 MSTORE PUSH1 0x20 ADD SWAP1 DUP2 MSTORE PUSH1 0x20 ADD PUSH1 0x0 KECCAK256 PUSH1 0x0 DUP3 DUP3 SLOAD PUSH2 0x3D5E SWAP2 SWAP1 PUSH2 0x5AE2 JUMP JUMPDEST SWAP3 POP POP DUP2 SWAP1 SSTORE POP JUMPDEST PUSH1 0x0 PUSH20 0xFFFFFFFFFFFFFFFFFFFFFFFFFFFFFFFFFFFFFFFF AND DUP4 PUSH20 0xFFFFFFFFFFFFFFFFFFFFFFFFFFFFFFFFFFFFFFFF AND EQ PUSH2 0x3DF1 JUMPI DUP1 PUSH1 0x5 PUSH1 0x0 DUP6 PUSH20 0xFFFFFFFFFFFFFFFFFFFFFFFFFFFFFFFFFFFFFFFF AND PUSH20 0xFFFFFFFFFFFFFFFFFFFFFFFFFFFFFFFFFFFFFFFF AND DUP2 MSTORE PUSH1 0x20 ADD SWAP1 DUP2 MSTORE PUSH1 0x20 ADD PUSH1 0x0 KECCAK256 PUSH1 0x0 DUP3 DUP3 SLOAD PUSH2 0x3DE9 SWAP2 SWAP1 PUSH2 0x6965 JUMP JUMPDEST SWAP3 POP POP DUP2 SWAP1 SSTORE POP JUMPDEST JUMPDEST POP POP POP POP JUMP JUMPDEST PUSH1 0xA DUP1 SLOAD SWAP1 POP PUSH1 0xB PUSH1 0x0 DUP4 DUP2 MSTORE PUSH1 0x20 ADD SWAP1 DUP2 MSTORE PUSH1 0x20 ADD PUSH1 0x0 KECCAK256 DUP2 SWAP1 SSTORE POP PUSH1 0xA DUP2 SWAP1 DUP1 PUSH1 0x1 DUP2 SLOAD ADD DUP1 DUP3 SSTORE DUP1 SWAP2 POP POP PUSH1 0x1 SWAP1 SUB SWAP1 PUSH1 0x0 MSTORE PUSH1 0x20 PUSH1 0x0 KECCAK256 ADD PUSH1 0x0 SWAP1 SWAP2 SWAP1 SWAP2 SWAP1 SWAP2 POP SSTORE POP JUMP JUMPDEST PUSH1 0x0 PUSH1 0x1 PUSH2 0x3E4E DUP5 PUSH2 0x1601 JUMP JUMPDEST PUSH2 0x3E58 SWAP2 SWAP1 PUSH2 0x5AE2 JUMP JUMPDEST SWAP1 POP PUSH1 0x0 PUSH1 0x9 PUSH1 0x0 DUP5 DUP2 MSTORE PUSH1 0x20 ADD SWAP1 DUP2 MSTORE PUSH1 0x20 ADD PUSH1 0x0 KECCAK256 SLOAD SWAP1 POP DUP2 DUP2 EQ PUSH2 0x3F3D JUMPI PUSH1 0x0 PUSH1 0x8 PUSH1 0x0 DUP7 PUSH20 0xFFFFFFFFFFFFFFFFFFFFFFFFFFFFFFFFFFFFFFFF AND PUSH20 0xFFFFFFFFFFFFFFFFFFFFFFFFFFFFFFFFFFFFFFFF AND DUP2 MSTORE PUSH1 0x20 ADD SWAP1 DUP2 MSTORE PUSH1 0x20 ADD PUSH1 0x0 KECCAK256 PUSH1 0x0 DUP5 DUP2 MSTORE PUSH1 0x20 ADD SWAP1 DUP2 MSTORE PUSH1 0x20 ADD PUSH1 0x0 KECCAK256 SLOAD SWAP1 POP DUP1 PUSH1 0x8 PUSH1 0x0 DUP8 PUSH20 0xFFFFFFFFFFFFFFFFFFFFFFFFFFFFFFFFFFFFFFFF AND PUSH20 0xFFFFFFFFFFFFFFFFFFFFFFFFFFFFFFFFFFFFFFFF AND DUP2 MSTORE PUSH1 0x20 ADD SWAP1 DUP2 MSTORE PUSH1 0x20 ADD PUSH1 0x0 KECCAK256 PUSH1 0x0 DUP5 DUP2 MSTORE PUSH1 0x20 ADD SWAP1 DUP2 MSTORE PUSH1 0x20 ADD PUSH1 0x0 KECCAK256 DUP2 SWAP1 SSTORE POP DUP2 PUSH1 0x9 PUSH1 0x0 DUP4 DUP2 MSTORE PUSH1 0x20 ADD SWAP1 DUP2 MSTORE PUSH1 0x20 ADD PUSH1 0x0 KECCAK256 DUP2 SWAP1 SSTORE POP POP JUMPDEST PUSH1 0x9 PUSH1 0x0 DUP5 DUP2 MSTORE PUSH1 0x20 ADD SWAP1 DUP2 MSTORE PUSH1 0x20 ADD PUSH1 0x0 KECCAK256 PUSH1 0x0 SWAP1 SSTORE PUSH1 0x8 PUSH1 0x0 DUP6 PUSH20 0xFFFFFFFFFFFFFFFFFFFFFFFFFFFFFFFFFFFFFFFF AND PUSH20 0xFFFFFFFFFFFFFFFFFFFFFFFFFFFFFFFFFFFFFFFF AND DUP2 MSTORE PUSH1 0x20 ADD SWAP1 DUP2 MSTORE PUSH1 0x20 ADD PUSH1 0x0 KECCAK256 PUSH1 0x0 DUP4 DUP2 MSTORE PUSH1 0x20 ADD SWAP1 DUP2 MSTORE PUSH1 0x20 ADD PUSH1 0x0 KECCAK256 PUSH1 0x0 SWAP1 SSTORE POP POP POP POP JUMP JUMPDEST PUSH1 0x0 PUSH1 0x1 PUSH1 0xA DUP1 SLOAD SWAP1 POP PUSH2 0x3FC2 SWAP2 SWAP1 PUSH2 0x5AE2 JUMP JUMPDEST SWAP1 POP PUSH1 0x0 PUSH1 0xB PUSH1 0x0 DUP5 DUP2 MSTORE PUSH1 0x20 ADD SWAP1 DUP2 MSTORE PUSH1 0x20 ADD PUSH1 0x0 KECCAK256 SLOAD SWAP1 POP PUSH1 0x0 PUSH1 0xA DUP4 DUP2 SLOAD DUP2 LT PUSH2 0x3FF2 JUMPI PUSH2 0x3FF1 PUSH2 0x5AB3 JUMP JUMPDEST JUMPDEST SWAP1 PUSH1 0x0 MSTORE PUSH1 0x20 PUSH1 0x0 KECCAK256 ADD SLOAD SWAP1 POP DUP1 PUSH1 0xA DUP4 DUP2 SLOAD DUP2 LT PUSH2 0x4014 JUMPI PUSH2 0x4013 PUSH2 0x5AB3 JUMP JUMPDEST JUMPDEST SWAP1 PUSH1 0x0 MSTORE PUSH1 0x20 PUSH1 0x0 KECCAK256 ADD DUP2 SWAP1 SSTORE POP DUP2 PUSH1 0xB PUSH1 0x0 DUP4 DUP2 MSTORE PUSH1 0x20 ADD SWAP1 DUP2 MSTORE PUSH1 0x20 ADD PUSH1 0x0 KECCAK256 DUP2 SWAP1 SSTORE POP PUSH1 0xB PUSH1 0x0 DUP6 DUP2 MSTORE PUSH1 0x20 ADD SWAP1 DUP2 MSTORE PUSH1 0x20 ADD PUSH1 0x0 KECCAK256 PUSH1 0x0 SWAP1 SSTORE PUSH1 0xA DUP1 SLOAD DUP1 PUSH2 0x4063 JUMPI PUSH2 0x4062 PUSH2 0x6999 JUMP JUMPDEST JUMPDEST PUSH1 0x1 SWAP1 SUB DUP2 DUP2 SWAP1 PUSH1 0x0 MSTORE PUSH1 0x20 PUSH1 0x0 KECCAK256 ADD PUSH1 0x0 SWAP1 SSTORE SWAP1 SSTORE POP POP POP POP JUMP JUMPDEST PUSH1 0x0 PUSH2 0x408A DUP4 PUSH2 0x1601 JUMP JUMPDEST SWAP1 POP DUP2 PUSH1 0x8 PUSH1 0x0 DUP6 PUSH20 0xFFFFFFFFFFFFFFFFFFFFFFFFFFFFFFFFFFFFFFFF AND PUSH20 0xFFFFFFFFFFFFFFFFFFFFFFFFFFFFFFFFFFFFFFFF AND DUP2 MSTORE PUSH1 0x20 ADD SWAP1 DUP2 MSTORE PUSH1 0x20 ADD PUSH1 0x0 KECCAK256 PUSH1 0x0 DUP4 DUP2 MSTORE PUSH1 0x20 ADD SWAP1 DUP2 MSTORE PUSH1 0x20 ADD PUSH1 0x0 KECCAK256 DUP2 SWAP1 SSTORE POP DUP1 PUSH1 0x9 PUSH1 0x0 DUP5 DUP2 MSTORE PUSH1 0x20 ADD SWAP1 DUP2 MSTORE PUSH1 0x20 ADD PUSH1 0x0 KECCAK256 DUP2 SWAP1 SSTORE POP POP POP POP JUMP JUMPDEST PUSH1 0x0 DUP4 DUP4 DUP4 CHAINID ADDRESS PUSH1 0x40 MLOAD PUSH1 0x20 ADD PUSH2 0x4119 SWAP6 SWAP5 SWAP4 SWAP3 SWAP2 SWAP1 PUSH2 0x69C8 JUMP JUMPDEST PUSH1 0x40 MLOAD PUSH1 0x20 DUP2 DUP4 SUB SUB DUP2 MSTORE SWAP1 PUSH1 0x40 MSTORE DUP1 MLOAD SWAP1 PUSH1 0x20 ADD KECCAK256 SWAP1 POP SWAP4 SWAP3 POP POP POP JUMP JUMPDEST PUSH1 0x0 DUP1 PUSH32 0x7FFFFFFFFFFFFFFFFFFFFFFFFFFFFFFF5D576E7357A4501DDFE92F46681B20A0 DUP4 PUSH1 0x0 SHR GT ISZERO PUSH2 0x4173 JUMPI PUSH1 0x0 PUSH1 0x3 SWAP2 POP SWAP2 POP PUSH2 0x4211 JUMP JUMPDEST PUSH1 0x0 PUSH1 0x1 DUP8 DUP8 DUP8 DUP8 PUSH1 0x40 MLOAD PUSH1 0x0 DUP2 MSTORE PUSH1 0x20 ADD PUSH1 0x40 MSTORE PUSH1 0x40 MLOAD PUSH2 0x4198 SWAP5 SWAP4 SWAP3 SWAP2 SWAP1 PUSH2 0x6A37 JUMP JUMPDEST PUSH1 0x20 PUSH1 0x40 MLOAD PUSH1 0x20 DUP2 SUB SWAP1 DUP1 DUP5 SUB SWAP1 DUP6 GAS STATICCALL ISZERO DUP1 ISZERO PUSH2 0x41BA JUMPI RETURNDATASIZE PUSH1 0x0 DUP1 RETURNDATACOPY RETURNDATASIZE PUSH1 0x0 REVERT JUMPDEST POP POP POP PUSH1 0x20 PUSH1 0x40 MLOAD SUB MLOAD SWAP1 POP PUSH1 0x0 PUSH20 0xFFFFFFFFFFFFFFFFFFFFFFFFFFFFFFFFFFFFFFFF AND DUP2 PUSH20 0xFFFFFFFFFFFFFFFFFFFFFFFFFFFFFFFFFFFFFFFF AND SUB PUSH2 0x4208 JUMPI PUSH1 0x0 PUSH1 0x1 SWAP3 POP SWAP3 POP POP PUSH2 0x4211 JUMP JUMPDEST DUP1 PUSH1 0x0 SWAP3 POP SWAP3 POP POP JUMPDEST SWAP5 POP SWAP5 SWAP3 POP POP POP JUMP JUMPDEST PUSH1 0x60 DUP4 ISZERO PUSH2 0x427C JUMPI PUSH1 0x0 DUP4 MLOAD SUB PUSH2 0x4274 JUMPI PUSH2 0x4234 DUP6 PUSH2 0x428F JUMP JUMPDEST PUSH2 0x4273 JUMPI PUSH1 0x40 MLOAD PUSH32 0x8C379A000000000000000000000000000000000000000000000000000000000 DUP2 MSTORE PUSH1 0x4 ADD PUSH2 0x426A SWAP1 PUSH2 0x6AC8 JUMP JUMPDEST PUSH1 0x40 MLOAD DUP1 SWAP2 SUB SWAP1 REVERT JUMPDEST JUMPDEST DUP3 SWAP1 POP PUSH2 0x4287 JUMP JUMPDEST PUSH2 0x4286 DUP4 DUP4 PUSH2 0x42B2 JUMP JUMPDEST JUMPDEST SWAP5 SWAP4 POP POP POP POP JUMP JUMPDEST PUSH1 0x0 DUP1 DUP3 PUSH20 0xFFFFFFFFFFFFFFFFFFFFFFFFFFFFFFFFFFFFFFFF AND EXTCODESIZE GT SWAP1 POP SWAP2 SWAP1 POP JUMP JUMPDEST PUSH1 0x0 DUP3 MLOAD GT ISZERO PUSH2 0x42C5 JUMPI DUP2 MLOAD DUP1 DUP4 PUSH1 0x20 ADD REVERT JUMPDEST DUP1 PUSH1 0x40 MLOAD PUSH32 0x8C379A000000000000000000000000000000000000000000000000000000000 DUP2 MSTORE PUSH1 0x4 ADD PUSH2 0x42F9 SWAP2 SWAP1 PUSH2 0x45E3 JUMP JUMPDEST PUSH1 0x40 MLOAD DUP1 SWAP2 SUB SWAP1 REVERT JUMPDEST DUP3 DUP1 SLOAD DUP3 DUP3 SSTORE SWAP1 PUSH1 0x0 MSTORE PUSH1 0x20 PUSH1 0x0 KECCAK256 SWAP1 DUP2 ADD SWAP3 DUP3 ISZERO PUSH2 0x437B JUMPI SWAP2 PUSH1 0x20 MUL DUP3 ADD JUMPDEST DUP3 DUP2 GT ISZERO PUSH2 0x437A JUMPI DUP3 MLOAD DUP3 PUSH1 0x0 PUSH2 0x100 EXP DUP2 SLOAD DUP2 PUSH20 0xFFFFFFFFFFFFFFFFFFFFFFFFFFFFFFFFFFFFFFFF MUL NOT AND SWAP1 DUP4 PUSH20 0xFFFFFFFFFFFFFFFFFFFFFFFFFFFFFFFFFFFFFFFF AND MUL OR SWAP1 SSTORE POP SWAP2 PUSH1 0x20 ADD SWAP2 SWAP1 PUSH1 0x1 ADD SWAP1 PUSH2 0x4322 JUMP JUMPDEST JUMPDEST POP SWAP1 POP PUSH2 0x4388 SWAP2 SWAP1 PUSH2 0x43D1 JUMP JUMPDEST POP SWAP1 JUMP JUMPDEST POP DUP1 SLOAD PUSH1 0x0 DUP3 SSTORE PUSH1 0x2 MUL SWAP1 PUSH1 0x0 MSTORE PUSH1 0x20 PUSH1 0x0 KECCAK256 SWAP1 DUP2 ADD SWAP1 PUSH2 0x43AD SWAP2 SWAP1 PUSH2 0x43EE JUMP JUMPDEST POP JUMP JUMPDEST POP DUP1 SLOAD PUSH1 0x0 DUP3 SSTORE SWAP1 PUSH1 0x0 MSTORE PUSH1 0x20 PUSH1 0x0 KECCAK256 SWAP1 DUP2 ADD SWAP1 PUSH2 0x43CE SWAP2 SWAP1 PUSH2 0x441D JUMP JUMPDEST POP JUMP JUMPDEST JUMPDEST DUP1 DUP3 GT ISZERO PUSH2 0x43EA JUMPI PUSH1 0x0 DUP2 PUSH1 0x0 SWAP1 SSTORE POP PUSH1 0x1 ADD PUSH2 0x43D2 JUMP JUMPDEST POP SWAP1 JUMP JUMPDEST JUMPDEST DUP1 DUP3 GT ISZERO PUSH2 0x4419 JUMPI PUSH1 0x0 DUP1 DUP3 ADD PUSH1 0x0 SWAP1 SSTORE PUSH1 0x1 DUP3 ADD PUSH1 0x0 PUSH2 0x4410 SWAP2 SWAP1 PUSH2 0x4444 JUMP JUMPDEST POP PUSH1 0x2 ADD PUSH2 0x43EF JUMP JUMPDEST POP SWAP1 JUMP JUMPDEST JUMPDEST DUP1 DUP3 GT ISZERO PUSH2 0x4440 JUMPI PUSH1 0x0 DUP1 DUP3 ADD PUSH1 0x0 PUSH2 0x4437 SWAP2 SWAP1 PUSH2 0x4444 JUMP JUMPDEST POP PUSH1 0x1 ADD PUSH2 0x441E JUMP JUMPDEST POP SWAP1 JUMP JUMPDEST POP DUP1 SLOAD PUSH2 0x4450 SWAP1 PUSH2 0x54C2 JUMP JUMPDEST PUSH1 0x0 DUP3 SSTORE DUP1 PUSH1 0x1F LT PUSH2 0x4462 JUMPI POP PUSH2 0x4481 JUMP JUMPDEST PUSH1 0x1F ADD PUSH1 0x20 SWAP1 DIV SWAP1 PUSH1 0x0 MSTORE PUSH1 0x20 PUSH1 0x0 KECCAK256 SWAP1 DUP2 ADD SWAP1 PUSH2 0x4480 SWAP2 SWAP1 PUSH2 0x43D1 JUMP JUMPDEST JUMPDEST POP JUMP JUMPDEST PUSH1 0x0 PUSH1 0x40 MLOAD SWAP1 POP SWAP1 JUMP JUMPDEST PUSH1 0x0 DUP1 REVERT JUMPDEST PUSH1 0x0 DUP1 REVERT JUMPDEST PUSH1 0x0 PUSH32 0xFFFFFFFF00000000000000000000000000000000000000000000000000000000 DUP3 AND SWAP1 POP SWAP2 SWAP1 POP JUMP JUMPDEST PUSH2 0x44CD DUP2 PUSH2 0x4498 JUMP JUMPDEST DUP2 EQ PUSH2 0x44D8 JUMPI PUSH1 0x0 DUP1 REVERT JUMPDEST POP JUMP JUMPDEST PUSH1 0x0 DUP2 CALLDATALOAD SWAP1 POP PUSH2 0x44EA DUP2 PUSH2 0x44C4 JUMP JUMPDEST SWAP3 SWAP2 POP POP JUMP JUMPDEST PUSH1 0x0 PUSH1 0x20 DUP3 DUP5 SUB SLT ISZERO PUSH2 0x4506 JUMPI PUSH2 0x4505 PUSH2 0x448E JUMP JUMPDEST JUMPDEST PUSH1 0x0 PUSH2 0x4514 DUP5 DUP3 DUP6 ADD PUSH2 0x44DB JUMP JUMPDEST SWAP2 POP POP SWAP3 SWAP2 POP POP JUMP JUMPDEST PUSH1 0x0 DUP2 ISZERO ISZERO SWAP1 POP SWAP2 SWAP1 POP JUMP JUMPDEST PUSH2 0x4532 DUP2 PUSH2 0x451D JUMP JUMPDEST DUP3 MSTORE POP POP JUMP JUMPDEST PUSH1 0x0 PUSH1 0x20 DUP3 ADD SWAP1 POP PUSH2 0x454D PUSH1 0x0 DUP4 ADD DUP5 PUSH2 0x4529 JUMP JUMPDEST SWAP3 SWAP2 POP POP JUMP JUMPDEST PUSH1 0x0 DUP2 MLOAD SWAP1 POP SWAP2 SWAP1 POP JUMP JUMPDEST PUSH1 0x0 DUP3 DUP3 MSTORE PUSH1 0x20 DUP3 ADD SWAP1 POP SWAP3 SWAP2 POP POP JUMP JUMPDEST PUSH1 0x0 JUMPDEST DUP4 DUP2 LT ISZERO PUSH2 0x458D JUMPI DUP1 DUP3 ADD MLOAD DUP2 DUP5 ADD MSTORE PUSH1 0x20 DUP2 ADD SWAP1 POP PUSH2 0x4572 JUMP JUMPDEST PUSH1 0x0 DUP5 DUP5 ADD MSTORE POP POP POP POP JUMP JUMPDEST PUSH1 0x0 PUSH1 0x1F NOT PUSH1 0x1F DUP4 ADD AND SWAP1 POP SWAP2 SWAP1 POP JUMP JUMPDEST PUSH1 0x0 PUSH2 0x45B5 DUP3 PUSH2 0x4553 JUMP JUMPDEST PUSH2 0x45BF DUP2 DUP6 PUSH2 0x455E JUMP JUMPDEST SWAP4 POP PUSH2 0x45CF DUP2 DUP6 PUSH1 0x20 DUP7 ADD PUSH2 0x456F JUMP JUMPDEST PUSH2 0x45D8 DUP2 PUSH2 0x4599 JUMP JUMPDEST DUP5 ADD SWAP2 POP POP SWAP3 SWAP2 POP POP JUMP JUMPDEST PUSH1 0x0 PUSH1 0x20 DUP3 ADD SWAP1 POP DUP2 DUP2 SUB PUSH1 0x0 DUP4 ADD MSTORE PUSH2 0x45FD DUP2 DUP5 PUSH2 0x45AA JUMP JUMPDEST SWAP1 POP SWAP3 SWAP2 POP POP JUMP JUMPDEST PUSH1 0x0 DUP2 SWAP1 POP SWAP2 SWAP1 POP JUMP JUMPDEST PUSH2 0x4618 DUP2 PUSH2 0x4605 JUMP JUMPDEST DUP2 EQ PUSH2 0x4623 JUMPI PUSH1 0x0 DUP1 REVERT JUMPDEST POP JUMP JUMPDEST PUSH1 0x0 DUP2 CALLDATALOAD SWAP1 POP PUSH2 0x4635 DUP2 PUSH2 0x460F JUMP JUMPDEST SWAP3 SWAP2 POP POP JUMP JUMPDEST PUSH1 0x0 PUSH1 0x20 DUP3 DUP5 SUB SLT ISZERO PUSH2 0x4651 JUMPI PUSH2 0x4650 PUSH2 0x448E JUMP JUMPDEST JUMPDEST PUSH1 0x0 PUSH2 0x465F DUP5 DUP3 DUP6 ADD PUSH2 0x4626 JUMP JUMPDEST SWAP2 POP POP SWAP3 SWAP2 POP POP JUMP JUMPDEST PUSH1 0x0 PUSH20 0xFFFFFFFFFFFFFFFFFFFFFFFFFFFFFFFFFFFFFFFF DUP3 AND SWAP1 POP SWAP2 SWAP1 POP JUMP JUMPDEST PUSH1 0x0 PUSH2 0x4693 DUP3 PUSH2 0x4668 JUMP JUMPDEST SWAP1 POP SWAP2 SWAP1 POP JUMP JUMPDEST PUSH2 0x46A3 DUP2 PUSH2 0x4688 JUMP JUMPDEST DUP3 MSTORE POP POP JUMP JUMPDEST PUSH1 0x0 PUSH1 0x20 DUP3 ADD SWAP1 POP PUSH2 0x46BE PUSH1 0x0 DUP4 ADD DUP5 PUSH2 0x469A JUMP JUMPDEST SWAP3 SWAP2 POP POP JUMP JUMPDEST PUSH2 0x46CD DUP2 PUSH2 0x4688 JUMP JUMPDEST DUP2 EQ PUSH2 0x46D8 JUMPI PUSH1 0x0 DUP1 REVERT JUMPDEST POP JUMP JUMPDEST PUSH1 0x0 DUP2 CALLDATALOAD SWAP1 POP PUSH2 0x46EA DUP2 PUSH2 0x46C4 JUMP JUMPDEST SWAP3 SWAP2 POP POP JUMP JUMPDEST PUSH1 0x0 DUP1 PUSH1 0x40 DUP4 DUP6 SUB SLT ISZERO PUSH2 0x4707 JUMPI PUSH2 0x4706 PUSH2 0x448E JUMP JUMPDEST JUMPDEST PUSH1 0x0 PUSH2 0x4715 DUP6 DUP3 DUP7 ADD PUSH2 0x46DB JUMP JUMPDEST SWAP3 POP POP PUSH1 0x20 PUSH2 0x4726 DUP6 DUP3 DUP7 ADD PUSH2 0x4626 JUMP JUMPDEST SWAP2 POP POP SWAP3 POP SWAP3 SWAP1 POP JUMP JUMPDEST PUSH1 0x0 DUP1 REVERT JUMPDEST PUSH32 0x4E487B7100000000000000000000000000000000000000000000000000000000 PUSH1 0x0 MSTORE PUSH1 0x41 PUSH1 0x4 MSTORE PUSH1 0x24 PUSH1 0x0 REVERT JUMPDEST PUSH2 0x476D DUP3 PUSH2 0x4599 JUMP JUMPDEST DUP2 ADD DUP2 DUP2 LT PUSH8 0xFFFFFFFFFFFFFFFF DUP3 GT OR ISZERO PUSH2 0x478C JUMPI PUSH2 0x478B PUSH2 0x4735 JUMP JUMPDEST JUMPDEST DUP1 PUSH1 0x40 MSTORE POP POP POP JUMP JUMPDEST PUSH1 0x0 PUSH2 0x479F PUSH2 0x4484 JUMP JUMPDEST SWAP1 POP PUSH2 0x47AB DUP3 DUP3 PUSH2 0x4764 JUMP JUMPDEST SWAP2 SWAP1 POP JUMP JUMPDEST PUSH1 0x0 PUSH8 0xFFFFFFFFFFFFFFFF DUP3 GT ISZERO PUSH2 0x47CB JUMPI PUSH2 0x47CA PUSH2 0x4735 JUMP JUMPDEST JUMPDEST PUSH1 0x20 DUP3 MUL SWAP1 POP PUSH1 0x20 DUP2 ADD SWAP1 POP SWAP2 SWAP1 POP JUMP JUMPDEST PUSH1 0x0 DUP1 REVERT JUMPDEST PUSH1 0x0 DUP1 REVERT JUMPDEST PUSH1 0x0 DUP1 REVERT JUMPDEST PUSH1 0x0 DUP1 REVERT JUMPDEST PUSH1 0x0 PUSH8 0xFFFFFFFFFFFFFFFF DUP3 GT ISZERO PUSH2 0x480B JUMPI PUSH2 0x480A PUSH2 0x4735 JUMP JUMPDEST JUMPDEST PUSH2 0x4814 DUP3 PUSH2 0x4599 JUMP JUMPDEST SWAP1 POP PUSH1 0x20 DUP2 ADD SWAP1 POP SWAP2 SWAP1 POP JUMP JUMPDEST DUP3 DUP2 DUP4 CALLDATACOPY PUSH1 0x0 DUP4 DUP4 ADD MSTORE POP POP POP JUMP JUMPDEST PUSH1 0x0 PUSH2 0x4843 PUSH2 0x483E DUP5 PUSH2 0x47F0 JUMP JUMPDEST PUSH2 0x4795 JUMP JUMPDEST SWAP1 POP DUP3 DUP2 MSTORE PUSH1 0x20 DUP2 ADD DUP5 DUP5 DUP5 ADD GT ISZERO PUSH2 0x485F JUMPI PUSH2 0x485E PUSH2 0x47EB JUMP JUMPDEST JUMPDEST PUSH2 0x486A DUP5 DUP3 DUP6 PUSH2 0x4821 JUMP JUMPDEST POP SWAP4 SWAP3 POP POP POP JUMP JUMPDEST PUSH1 0x0 DUP3 PUSH1 0x1F DUP4 ADD SLT PUSH2 0x4887 JUMPI PUSH2 0x4886 PUSH2 0x4730 JUMP JUMPDEST JUMPDEST DUP2 CALLDATALOAD PUSH2 0x4897 DUP5 DUP3 PUSH1 0x20 DUP7 ADD PUSH2 0x4830 JUMP JUMPDEST SWAP2 POP POP SWAP3 SWAP2 POP POP JUMP JUMPDEST PUSH1 0x0 PUSH1 0x20 DUP3 DUP5 SUB SLT ISZERO PUSH2 0x48B6 JUMPI PUSH2 0x48B5 PUSH2 0x47E1 JUMP JUMPDEST JUMPDEST PUSH2 0x48C0 PUSH1 0x20 PUSH2 0x4795 JUMP JUMPDEST SWAP1 POP PUSH1 0x0 DUP3 ADD CALLDATALOAD PUSH8 0xFFFFFFFFFFFFFFFF DUP2 GT ISZERO PUSH2 0x48E0 JUMPI PUSH2 0x48DF PUSH2 0x47E6 JUMP JUMPDEST JUMPDEST PUSH2 0x48EC DUP5 DUP3 DUP6 ADD PUSH2 0x4872 JUMP JUMPDEST PUSH1 0x0 DUP4 ADD MSTORE POP SWAP3 SWAP2 POP POP JUMP JUMPDEST PUSH1 0x0 PUSH2 0x490B PUSH2 0x4906 DUP5 PUSH2 0x47B0 JUMP JUMPDEST PUSH2 0x4795 JUMP JUMPDEST SWAP1 POP DUP1 DUP4 DUP3 MSTORE PUSH1 0x20 DUP3 ADD SWAP1 POP PUSH1 0x20 DUP5 MUL DUP4 ADD DUP6 DUP2 GT ISZERO PUSH2 0x492E JUMPI PUSH2 0x492D PUSH2 0x47DC JUMP JUMPDEST JUMPDEST DUP4 JUMPDEST DUP2 DUP2 LT ISZERO PUSH2 0x4975 JUMPI DUP1 CALLDATALOAD PUSH8 0xFFFFFFFFFFFFFFFF DUP2 GT ISZERO PUSH2 0x4953 JUMPI PUSH2 0x4952 PUSH2 0x4730 JUMP JUMPDEST JUMPDEST DUP1 DUP7 ADD PUSH2 0x4960 DUP10 DUP3 PUSH2 0x48A0 JUMP JUMPDEST DUP6 MSTORE PUSH1 0x20 DUP6 ADD SWAP5 POP POP POP PUSH1 0x20 DUP2 ADD SWAP1 POP PUSH2 0x4930 JUMP JUMPDEST POP POP POP SWAP4 SWAP3 POP POP POP JUMP JUMPDEST PUSH1 0x0 DUP3 PUSH1 0x1F DUP4 ADD SLT PUSH2 0x4994 JUMPI PUSH2 0x4993 PUSH2 0x4730 JUMP JUMPDEST JUMPDEST DUP2 CALLDATALOAD PUSH2 0x49A4 DUP5 DUP3 PUSH1 0x20 DUP7 ADD PUSH2 0x48F8 JUMP JUMPDEST SWAP2 POP POP SWAP3 SWAP2 POP POP JUMP JUMPDEST PUSH1 0x0 DUP1 PUSH1 0x40 DUP4 DUP6 SUB SLT ISZERO PUSH2 0x49C4 JUMPI PUSH2 0x49C3 PUSH2 0x448E JUMP JUMPDEST JUMPDEST PUSH1 0x0 PUSH2 0x49D2 DUP6 DUP3 DUP7 ADD PUSH2 0x4626 JUMP JUMPDEST SWAP3 POP POP PUSH1 0x20 DUP4 ADD CALLDATALOAD PUSH8 0xFFFFFFFFFFFFFFFF DUP2 GT ISZERO PUSH2 0x49F3 JUMPI PUSH2 0x49F2 PUSH2 0x4493 JUMP JUMPDEST JUMPDEST PUSH2 0x49FF DUP6 DUP3 DUP7 ADD PUSH2 0x497F JUMP JUMPDEST SWAP2 POP POP SWAP3 POP SWAP3 SWAP1 POP JUMP JUMPDEST PUSH2 0x4A12 DUP2 PUSH2 0x4605 JUMP JUMPDEST DUP3 MSTORE POP POP JUMP JUMPDEST PUSH1 0x0 PUSH1 0x20 DUP3 ADD SWAP1 POP PUSH2 0x4A2D PUSH1 0x0 DUP4 ADD DUP5 PUSH2 0x4A09 JUMP JUMPDEST SWAP3 SWAP2 POP POP JUMP JUMPDEST PUSH1 0x0 DUP1 PUSH1 0x0 PUSH1 0x60 DUP5 DUP7 SUB SLT ISZERO PUSH2 0x4A4C JUMPI PUSH2 0x4A4B PUSH2 0x448E JUMP JUMPDEST JUMPDEST PUSH1 0x0 PUSH2 0x4A5A DUP7 DUP3 DUP8 ADD PUSH2 0x46DB JUMP JUMPDEST SWAP4 POP POP PUSH1 0x20 PUSH2 0x4A6B DUP7 DUP3 DUP8 ADD PUSH2 0x46DB JUMP JUMPDEST SWAP3 POP POP PUSH1 0x40 PUSH2 0x4A7C DUP7 DUP3 DUP8 ADD PUSH2 0x4626 JUMP JUMPDEST SWAP2 POP POP SWAP3 POP SWAP3 POP SWAP3 JUMP JUMPDEST PUSH1 0x0 DUP1 PUSH1 0x40 DUP4 DUP6 SUB SLT ISZERO PUSH2 0x4A9D JUMPI PUSH2 0x4A9C PUSH2 0x448E JUMP JUMPDEST JUMPDEST PUSH1 0x0 PUSH2 0x4AAB DUP6 DUP3 DUP7 ADD PUSH2 0x4626 JUMP JUMPDEST SWAP3 POP POP PUSH1 0x20 PUSH2 0x4ABC DUP6 DUP3 DUP7 ADD PUSH2 0x4626 JUMP JUMPDEST SWAP2 POP POP SWAP3 POP SWAP3 SWAP1 POP JUMP JUMPDEST PUSH1 0x0 PUSH1 0x40 DUP3 ADD SWAP1 POP PUSH2 0x4ADB PUSH1 0x0 DUP4 ADD DUP6 PUSH2 0x469A JUMP JUMPDEST PUSH2 0x4AE8 PUSH1 0x20 DUP4 ADD DUP5 PUSH2 0x4A09 JUMP JUMPDEST SWAP4 SWAP3 POP POP POP JUMP JUMPDEST PUSH1 0x0 DUP1 REVERT JUMPDEST PUSH1 0x0 DUP1 DUP4 PUSH1 0x1F DUP5 ADD SLT PUSH2 0x4B0A JUMPI PUSH2 0x4B09 PUSH2 0x4730 JUMP JUMPDEST JUMPDEST DUP3 CALLDATALOAD SWAP1 POP PUSH8 0xFFFFFFFFFFFFFFFF DUP2 GT ISZERO PUSH2 0x4B27 JUMPI PUSH2 0x4B26 PUSH2 0x4AEF JUMP JUMPDEST JUMPDEST PUSH1 0x20 DUP4 ADD SWAP2 POP DUP4 PUSH1 0x1 DUP3 MUL DUP4 ADD GT ISZERO PUSH2 0x4B43 JUMPI PUSH2 0x4B42 PUSH2 0x47DC JUMP JUMPDEST JUMPDEST SWAP3 POP SWAP3 SWAP1 POP JUMP JUMPDEST PUSH1 0x0 PUSH8 0xFFFFFFFFFFFFFFFF DUP3 GT ISZERO PUSH2 0x4B65 JUMPI PUSH2 0x4B64 PUSH2 0x4735 JUMP JUMPDEST JUMPDEST PUSH1 0x20 DUP3 MUL SWAP1 POP PUSH1 0x20 DUP2 ADD SWAP1 POP SWAP2 SWAP1 POP JUMP JUMPDEST PUSH1 0x0 PUSH8 0xFFFFFFFFFFFFFFFF DUP3 GT ISZERO PUSH2 0x4B91 JUMPI PUSH2 0x4B90 PUSH2 0x4735 JUMP JUMPDEST JUMPDEST PUSH2 0x4B9A DUP3 PUSH2 0x4599 JUMP JUMPDEST SWAP1 POP PUSH1 0x20 DUP2 ADD SWAP1 POP SWAP2 SWAP1 POP JUMP JUMPDEST PUSH1 0x0 PUSH2 0x4BBA PUSH2 0x4BB5 DUP5 PUSH2 0x4B76 JUMP JUMPDEST PUSH2 0x4795 JUMP JUMPDEST SWAP1 POP DUP3 DUP2 MSTORE PUSH1 0x20 DUP2 ADD DUP5 DUP5 DUP5 ADD GT ISZERO PUSH2 0x4BD6 JUMPI PUSH2 0x4BD5 PUSH2 0x47EB JUMP JUMPDEST JUMPDEST PUSH2 0x4BE1 DUP5 DUP3 DUP6 PUSH2 0x4821 JUMP JUMPDEST POP SWAP4 SWAP3 POP POP POP JUMP JUMPDEST PUSH1 0x0 DUP3 PUSH1 0x1F DUP4 ADD SLT PUSH2 0x4BFE JUMPI PUSH2 0x4BFD PUSH2 0x4730 JUMP JUMPDEST JUMPDEST DUP2 CALLDATALOAD PUSH2 0x4C0E DUP5 DUP3 PUSH1 0x20 DUP7 ADD PUSH2 0x4BA7 JUMP JUMPDEST SWAP2 POP POP SWAP3 SWAP2 POP POP JUMP JUMPDEST PUSH1 0x0 PUSH2 0x4C2A PUSH2 0x4C25 DUP5 PUSH2 0x4B4A JUMP JUMPDEST PUSH2 0x4795 JUMP JUMPDEST SWAP1 POP DUP1 DUP4 DUP3 MSTORE PUSH1 0x20 DUP3 ADD SWAP1 POP PUSH1 0x20 DUP5 MUL DUP4 ADD DUP6 DUP2 GT ISZERO PUSH2 0x4C4D JUMPI PUSH2 0x4C4C PUSH2 0x47DC JUMP JUMPDEST JUMPDEST DUP4 JUMPDEST DUP2 DUP2 LT ISZERO PUSH2 0x4C94 JUMPI DUP1 CALLDATALOAD PUSH8 0xFFFFFFFFFFFFFFFF DUP2 GT ISZERO PUSH2 0x4C72 JUMPI PUSH2 0x4C71 PUSH2 0x4730 JUMP JUMPDEST JUMPDEST DUP1 DUP7 ADD PUSH2 0x4C7F DUP10 DUP3 PUSH2 0x4BE9 JUMP JUMPDEST DUP6 MSTORE PUSH1 0x20 DUP6 ADD SWAP5 POP POP POP PUSH1 0x20 DUP2 ADD SWAP1 POP PUSH2 0x4C4F JUMP JUMPDEST POP POP POP SWAP4 SWAP3 POP POP POP JUMP JUMPDEST PUSH1 0x0 DUP3 PUSH1 0x1F DUP4 ADD SLT PUSH2 0x4CB3 JUMPI PUSH2 0x4CB2 PUSH2 0x4730 JUMP JUMPDEST JUMPDEST DUP2 CALLDATALOAD PUSH2 0x4CC3 DUP5 DUP3 PUSH1 0x20 DUP7 ADD PUSH2 0x4C17 JUMP JUMPDEST SWAP2 POP POP SWAP3 SWAP2 POP POP JUMP JUMPDEST PUSH1 0x0 DUP1 PUSH1 0x0 DUP1 PUSH1 0x60 DUP6 DUP8 SUB SLT ISZERO PUSH2 0x4CE6 JUMPI PUSH2 0x4CE5 PUSH2 0x448E JUMP JUMPDEST JUMPDEST PUSH1 0x0 DUP6 ADD CALLDATALOAD PUSH8 0xFFFFFFFFFFFFFFFF DUP2 GT ISZERO PUSH2 0x4D04 JUMPI PUSH2 0x4D03 PUSH2 0x4493 JUMP JUMPDEST JUMPDEST PUSH2 0x4D10 DUP8 DUP3 DUP9 ADD PUSH2 0x4AF4 JUMP JUMPDEST SWAP5 POP SWAP5 POP POP PUSH1 0x20 PUSH2 0x4D23 DUP8 DUP3 DUP9 ADD PUSH2 0x4626 JUMP JUMPDEST SWAP3 POP POP PUSH1 0x40 DUP6 ADD CALLDATALOAD PUSH8 0xFFFFFFFFFFFFFFFF DUP2 GT ISZERO PUSH2 0x4D44 JUMPI PUSH2 0x4D43 PUSH2 0x4493 JUMP JUMPDEST JUMPDEST PUSH2 0x4D50 DUP8 DUP3 DUP9 ADD PUSH2 0x4C9E JUMP JUMPDEST SWAP2 POP POP SWAP3 SWAP6 SWAP2 SWAP5 POP SWAP3 POP JUMP JUMPDEST PUSH1 0x0 DUP2 MLOAD SWAP1 POP SWAP2 SWAP1 POP JUMP JUMPDEST PUSH1 0x0 DUP3 DUP3 MSTORE PUSH1 0x20 DUP3 ADD SWAP1 POP SWAP3 SWAP2 POP POP JUMP JUMPDEST PUSH1 0x0 PUSH2 0x4D83 DUP3 PUSH2 0x4D5C JUMP JUMPDEST PUSH2 0x4D8D DUP2 DUP6 PUSH2 0x4D67 JUMP JUMPDEST SWAP4 POP PUSH2 0x4D9D DUP2 DUP6 PUSH1 0x20 DUP7 ADD PUSH2 0x456F JUMP JUMPDEST PUSH2 0x4DA6 DUP2 PUSH2 0x4599 JUMP JUMPDEST DUP5 ADD SWAP2 POP POP SWAP3 SWAP2 POP POP JUMP JUMPDEST PUSH1 0x0 PUSH1 0x20 DUP3 ADD SWAP1 POP DUP2 DUP2 SUB PUSH1 0x0 DUP4 ADD MSTORE PUSH2 0x4DCB DUP2 DUP5 PUSH2 0x4D78 JUMP JUMPDEST SWAP1 POP SWAP3 SWAP2 POP POP JUMP JUMPDEST PUSH1 0x0 PUSH8 0xFFFFFFFFFFFFFFFF DUP3 AND SWAP1 POP SWAP2 SWAP1 POP JUMP JUMPDEST PUSH2 0x4DF0 DUP2 PUSH2 0x4DD3 JUMP JUMPDEST DUP2 EQ PUSH2 0x4DFB JUMPI PUSH1 0x0 DUP1 REVERT JUMPDEST POP JUMP JUMPDEST PUSH1 0x0 DUP2 CALLDATALOAD SWAP1 POP PUSH2 0x4E0D DUP2 PUSH2 0x4DE7 JUMP JUMPDEST SWAP3 SWAP2 POP POP JUMP JUMPDEST PUSH1 0x0 PUSH1 0x20 DUP3 DUP5 SUB SLT ISZERO PUSH2 0x4E29 JUMPI PUSH2 0x4E28 PUSH2 0x448E JUMP JUMPDEST JUMPDEST PUSH1 0x0 PUSH2 0x4E37 DUP5 DUP3 DUP6 ADD PUSH2 0x4DFE JUMP JUMPDEST SWAP2 POP POP SWAP3 SWAP2 POP POP JUMP JUMPDEST PUSH2 0x4E49 DUP2 PUSH2 0x4DD3 JUMP JUMPDEST DUP3 MSTORE POP POP JUMP JUMPDEST PUSH1 0x0 PUSH1 0x20 DUP3 ADD SWAP1 POP PUSH2 0x4E64 PUSH1 0x0 DUP4 ADD DUP5 PUSH2 0x4E40 JUMP JUMPDEST SWAP3 SWAP2 POP POP JUMP JUMPDEST PUSH1 0x0 DUP2 MLOAD SWAP1 POP SWAP2 SWAP1 POP JUMP JUMPDEST PUSH1 0x0 DUP3 DUP3 MSTORE PUSH1 0x20 DUP3 ADD SWAP1 POP SWAP3 SWAP2 POP POP JUMP JUMPDEST PUSH1 0x0 DUP2 SWAP1 POP PUSH1 0x20 DUP3 ADD SWAP1 POP SWAP2 SWAP1 POP JUMP JUMPDEST PUSH1 0x0 DUP3 DUP3 MSTORE PUSH1 0x20 DUP3 ADD SWAP1 POP SWAP3 SWAP2 POP POP JUMP JUMPDEST PUSH1 0x0 PUSH2 0x4EB2 DUP3 PUSH2 0x4553 JUMP JUMPDEST PUSH2 0x4EBC DUP2 DUP6 PUSH2 0x4E96 JUMP JUMPDEST SWAP4 POP PUSH2 0x4ECC DUP2 DUP6 PUSH1 0x20 DUP7 ADD PUSH2 0x456F JUMP JUMPDEST PUSH2 0x4ED5 DUP2 PUSH2 0x4599 JUMP JUMPDEST DUP5 ADD SWAP2 POP POP SWAP3 SWAP2 POP POP JUMP JUMPDEST PUSH1 0x0 PUSH1 0x20 DUP4 ADD PUSH1 0x0 DUP4 ADD MLOAD DUP5 DUP3 SUB PUSH1 0x0 DUP7 ADD MSTORE PUSH2 0x4EFD DUP3 DUP3 PUSH2 0x4EA7 JUMP JUMPDEST SWAP2 POP POP DUP1 SWAP2 POP POP SWAP3 SWAP2 POP POP JUMP JUMPDEST PUSH1 0x0 PUSH2 0x4F16 DUP4 DUP4 PUSH2 0x4EE0 JUMP JUMPDEST SWAP1 POP SWAP3 SWAP2 POP POP JUMP JUMPDEST PUSH1 0x0 PUSH1 0x20 DUP3 ADD SWAP1 POP SWAP2 SWAP1 POP JUMP JUMPDEST PUSH1 0x0 PUSH2 0x4F36 DUP3 PUSH2 0x4E6A JUMP JUMPDEST PUSH2 0x4F40 DUP2 DUP6 PUSH2 0x4E75 JUMP JUMPDEST SWAP4 POP DUP4 PUSH1 0x20 DUP3 MUL DUP6 ADD PUSH2 0x4F52 DUP6 PUSH2 0x4E86 JUMP JUMPDEST DUP1 PUSH1 0x0 JUMPDEST DUP6 DUP2 LT ISZERO PUSH2 0x4F8E JUMPI DUP5 DUP5 SUB DUP10 MSTORE DUP2 MLOAD PUSH2 0x4F6F DUP6 DUP3 PUSH2 0x4F0A JUMP JUMPDEST SWAP5 POP PUSH2 0x4F7A DUP4 PUSH2 0x4F1E JUMP JUMPDEST SWAP3 POP PUSH1 0x20 DUP11 ADD SWAP10 POP POP PUSH1 0x1 DUP2 ADD SWAP1 POP PUSH2 0x4F56 JUMP JUMPDEST POP DUP3 SWAP8 POP DUP8 SWAP6 POP POP POP POP POP POP SWAP3 SWAP2 POP POP JUMP JUMPDEST PUSH1 0x0 PUSH1 0x20 DUP3 ADD SWAP1 POP DUP2 DUP2 SUB PUSH1 0x0 DUP4 ADD MSTORE PUSH2 0x4FBA DUP2 DUP5 PUSH2 0x4F2B JUMP JUMPDEST SWAP1 POP SWAP3 SWAP2 POP POP JUMP JUMPDEST PUSH1 0x0 PUSH1 0x20 DUP3 DUP5 SUB SLT ISZERO PUSH2 0x4FD8 JUMPI PUSH2 0x4FD7 PUSH2 0x448E JUMP JUMPDEST JUMPDEST PUSH1 0x0 PUSH2 0x4FE6 DUP5 DUP3 DUP6 ADD PUSH2 0x46DB JUMP JUMPDEST SWAP2 POP POP SWAP3 SWAP2 POP POP JUMP JUMPDEST PUSH1 0x0 PUSH8 0xFFFFFFFFFFFFFFFF DUP3 GT ISZERO PUSH2 0x500A JUMPI PUSH2 0x5009 PUSH2 0x4735 JUMP JUMPDEST JUMPDEST PUSH1 0x20 DUP3 MUL SWAP1 POP PUSH1 0x20 DUP2 ADD SWAP1 POP SWAP2 SWAP1 POP JUMP JUMPDEST PUSH1 0x0 PUSH1 0x40 DUP3 DUP5 SUB SLT ISZERO PUSH2 0x5031 JUMPI PUSH2 0x5030 PUSH2 0x47E1 JUMP JUMPDEST JUMPDEST PUSH2 0x503B PUSH1 0x40 PUSH2 0x4795 JUMP JUMPDEST SWAP1 POP PUSH1 0x0 PUSH2 0x504B DUP5 DUP3 DUP6 ADD PUSH2 0x4626 JUMP JUMPDEST PUSH1 0x0 DUP4 ADD MSTORE POP PUSH1 0x20 DUP3 ADD CALLDATALOAD PUSH8 0xFFFFFFFFFFFFFFFF DUP2 GT ISZERO PUSH2 0x506F JUMPI PUSH2 0x506E PUSH2 0x47E6 JUMP JUMPDEST JUMPDEST PUSH2 0x507B DUP5 DUP3 DUP6 ADD PUSH2 0x4872 JUMP JUMPDEST PUSH1 0x20 DUP4 ADD MSTORE POP SWAP3 SWAP2 POP POP JUMP JUMPDEST PUSH1 0x0 PUSH2 0x509A PUSH2 0x5095 DUP5 PUSH2 0x4FEF JUMP JUMPDEST PUSH2 0x4795 JUMP JUMPDEST SWAP1 POP DUP1 DUP4 DUP3 MSTORE PUSH1 0x20 DUP3 ADD SWAP1 POP PUSH1 0x20 DUP5 MUL DUP4 ADD DUP6 DUP2 GT ISZERO PUSH2 0x50BD JUMPI PUSH2 0x50BC PUSH2 0x47DC JUMP JUMPDEST JUMPDEST DUP4 JUMPDEST DUP2 DUP2 LT ISZERO PUSH2 0x5104 JUMPI DUP1 CALLDATALOAD PUSH8 0xFFFFFFFFFFFFFFFF DUP2 GT ISZERO PUSH2 0x50E2 JUMPI PUSH2 0x50E1 PUSH2 0x4730 JUMP JUMPDEST JUMPDEST DUP1 DUP7 ADD PUSH2 0x50EF DUP10 DUP3 PUSH2 0x501B JUMP JUMPDEST DUP6 MSTORE PUSH1 0x20 DUP6 ADD SWAP5 POP POP POP PUSH1 0x20 DUP2 ADD SWAP1 POP PUSH2 0x50BF JUMP JUMPDEST POP POP POP SWAP4 SWAP3 POP POP POP JUMP JUMPDEST PUSH1 0x0 DUP3 PUSH1 0x1F DUP4 ADD SLT PUSH2 0x5123 JUMPI PUSH2 0x5122 PUSH2 0x4730 JUMP JUMPDEST JUMPDEST DUP2 CALLDATALOAD PUSH2 0x5133 DUP5 DUP3 PUSH1 0x20 DUP7 ADD PUSH2 0x5087 JUMP JUMPDEST SWAP2 POP POP SWAP3 SWAP2 POP POP JUMP JUMPDEST PUSH1 0x0 DUP1 PUSH1 0x40 DUP4 DUP6 SUB SLT ISZERO PUSH2 0x5153 JUMPI PUSH2 0x5152 PUSH2 0x448E JUMP JUMPDEST JUMPDEST PUSH1 0x0 PUSH2 0x5161 DUP6 DUP3 DUP7 ADD PUSH2 0x4626 JUMP JUMPDEST SWAP3 POP POP PUSH1 0x20 DUP4 ADD CALLDATALOAD PUSH8 0xFFFFFFFFFFFFFFFF DUP2 GT ISZERO PUSH2 0x5182 JUMPI PUSH2 0x5181 PUSH2 0x4493 JUMP JUMPDEST JUMPDEST PUSH2 0x518E DUP6 DUP3 DUP7 ADD PUSH2 0x510E JUMP JUMPDEST SWAP2 POP POP SWAP3 POP SWAP3 SWAP1 POP JUMP JUMPDEST PUSH1 0x0 DUP1 PUSH1 0x40 DUP4 DUP6 SUB SLT ISZERO PUSH2 0x51AF JUMPI PUSH2 0x51AE PUSH2 0x448E JUMP JUMPDEST JUMPDEST PUSH1 0x0 PUSH2 0x51BD DUP6 DUP3 DUP7 ADD PUSH2 0x4626 JUMP JUMPDEST SWAP3 POP POP PUSH1 0x20 DUP4 ADD CALLDATALOAD PUSH8 0xFFFFFFFFFFFFFFFF DUP2 GT ISZERO PUSH2 0x51DE JUMPI PUSH2 0x51DD PUSH2 0x4493 JUMP JUMPDEST JUMPDEST PUSH2 0x51EA DUP6 DUP3 DUP7 ADD PUSH2 0x4872 JUMP JUMPDEST SWAP2 POP POP SWAP3 POP SWAP3 SWAP1 POP JUMP JUMPDEST PUSH2 0x51FD DUP2 PUSH2 0x451D JUMP JUMPDEST DUP2 EQ PUSH2 0x5208 JUMPI PUSH1 0x0 DUP1 REVERT JUMPDEST POP JUMP JUMPDEST PUSH1 0x0 DUP2 CALLDATALOAD SWAP1 POP PUSH2 0x521A DUP2 PUSH2 0x51F4 JUMP JUMPDEST SWAP3 SWAP2 POP POP JUMP JUMPDEST PUSH1 0x0 DUP1 PUSH1 0x40 DUP4 DUP6 SUB SLT ISZERO PUSH2 0x5237 JUMPI PUSH2 0x5236 PUSH2 0x448E JUMP JUMPDEST JUMPDEST PUSH1 0x0 PUSH2 0x5245 DUP6 DUP3 DUP7 ADD PUSH2 0x46DB JUMP JUMPDEST SWAP3 POP POP PUSH1 0x20 PUSH2 0x5256 DUP6 DUP3 DUP7 ADD PUSH2 0x520B JUMP JUMPDEST SWAP2 POP POP SWAP3 POP SWAP3 SWAP1 POP JUMP JUMPDEST PUSH1 0x0 DUP1 PUSH1 0x40 DUP4 DUP6 SUB SLT ISZERO PUSH2 0x5277 JUMPI PUSH2 0x5276 PUSH2 0x448E JUMP JUMPDEST JUMPDEST PUSH1 0x0 PUSH2 0x5285 DUP6 DUP3 DUP7 ADD PUSH2 0x4DFE JUMP JUMPDEST SWAP3 POP POP PUSH1 0x20 PUSH2 0x5296 DUP6 DUP3 DUP7 ADD PUSH2 0x46DB JUMP JUMPDEST SWAP2 POP POP SWAP3 POP SWAP3 SWAP1 POP JUMP JUMPDEST PUSH1 0x0 DUP1 PUSH1 0x0 DUP1 PUSH1 0x80 DUP6 DUP8 SUB SLT ISZERO PUSH2 0x52BA JUMPI PUSH2 0x52B9 PUSH2 0x448E JUMP JUMPDEST JUMPDEST PUSH1 0x0 PUSH2 0x52C8 DUP8 DUP3 DUP9 ADD PUSH2 0x46DB JUMP JUMPDEST SWAP5 POP POP PUSH1 0x20 PUSH2 0x52D9 DUP8 DUP3 DUP9 ADD PUSH2 0x46DB JUMP JUMPDEST SWAP4 POP POP PUSH1 0x40 PUSH2 0x52EA DUP8 DUP3 DUP9 ADD PUSH2 0x4626 JUMP JUMPDEST SWAP3 POP POP PUSH1 0x60 DUP6 ADD CALLDATALOAD PUSH8 0xFFFFFFFFFFFFFFFF DUP2 GT ISZERO PUSH2 0x530B JUMPI PUSH2 0x530A PUSH2 0x4493 JUMP JUMPDEST JUMPDEST PUSH2 0x5317 DUP8 DUP3 DUP9 ADD PUSH2 0x4BE9 JUMP JUMPDEST SWAP2 POP POP SWAP3 SWAP6 SWAP2 SWAP5 POP SWAP3 POP JUMP JUMPDEST PUSH1 0x0 DUP2 MLOAD SWAP1 POP SWAP2 SWAP1 POP JUMP JUMPDEST PUSH1 0x0 DUP3 DUP3 MSTORE PUSH1 0x20 DUP3 ADD SWAP1 POP SWAP3 SWAP2 POP POP JUMP JUMPDEST PUSH1 0x0 DUP2 SWAP1 POP PUSH1 0x20 DUP3 ADD SWAP1 POP SWAP2 SWAP1 POP JUMP JUMPDEST PUSH2 0x5358 DUP2 PUSH2 0x4605 JUMP JUMPDEST DUP3 MSTORE POP POP JUMP JUMPDEST PUSH1 0x0 PUSH1 0x40 DUP4 ADD PUSH1 0x0 DUP4 ADD MLOAD PUSH2 0x5376 PUSH1 0x0 DUP7 ADD DUP3 PUSH2 0x534F JUMP JUMPDEST POP PUSH1 0x20 DUP4 ADD MLOAD DUP5 DUP3 SUB PUSH1 0x20 DUP7 ADD MSTORE PUSH2 0x538E DUP3 DUP3 PUSH2 0x4EA7 JUMP JUMPDEST SWAP2 POP POP DUP1 SWAP2 POP POP SWAP3 SWAP2 POP POP JUMP JUMPDEST PUSH1 0x0 PUSH2 0x53A7 DUP4 DUP4 PUSH2 0x535E JUMP JUMPDEST SWAP1 POP SWAP3 SWAP2 POP POP JUMP JUMPDEST PUSH1 0x0 PUSH1 0x20 DUP3 ADD SWAP1 POP SWAP2 SWAP1 POP JUMP JUMPDEST PUSH1 0x0 PUSH2 0x53C7 DUP3 PUSH2 0x5323 JUMP JUMPDEST PUSH2 0x53D1 DUP2 DUP6 PUSH2 0x532E JUMP JUMPDEST SWAP4 POP DUP4 PUSH1 0x20 DUP3 MUL DUP6 ADD PUSH2 0x53E3 DUP6 PUSH2 0x533F JUMP JUMPDEST DUP1 PUSH1 0x0 JUMPDEST DUP6 DUP2 LT ISZERO PUSH2 0x541F JUMPI DUP5 DUP5 SUB DUP10 MSTORE DUP2 MLOAD PUSH2 0x5400 DUP6 DUP3 PUSH2 0x539B JUMP JUMPDEST SWAP5 POP PUSH2 0x540B DUP4 PUSH2 0x53AF JUMP JUMPDEST SWAP3 POP PUSH1 0x20 DUP11 ADD SWAP10 POP POP PUSH1 0x1 DUP2 ADD SWAP1 POP PUSH2 0x53E7 JUMP JUMPDEST POP DUP3 SWAP8 POP DUP8 SWAP6 POP POP POP POP POP POP SWAP3 SWAP2 POP POP JUMP JUMPDEST PUSH1 0x0 PUSH1 0x20 DUP3 ADD SWAP1 POP DUP2 DUP2 SUB PUSH1 0x0 DUP4 ADD MSTORE PUSH2 0x544B DUP2 DUP5 PUSH2 0x53BC JUMP JUMPDEST SWAP1 POP SWAP3 SWAP2 POP POP JUMP JUMPDEST PUSH1 0x0 DUP1 PUSH1 0x40 DUP4 DUP6 SUB SLT ISZERO PUSH2 0x546A JUMPI PUSH2 0x5469 PUSH2 0x448E JUMP JUMPDEST JUMPDEST PUSH1 0x0 PUSH2 0x5478 DUP6 DUP3 DUP7 ADD PUSH2 0x46DB JUMP JUMPDEST SWAP3 POP POP PUSH1 0x20 PUSH2 0x5489 DUP6 DUP3 DUP7 ADD PUSH2 0x46DB JUMP JUMPDEST SWAP2 POP POP SWAP3 POP SWAP3 SWAP1 POP JUMP JUMPDEST PUSH32 0x4E487B7100000000000000000000000000000000000000000000000000000000 PUSH1 0x0 MSTORE PUSH1 0x22 PUSH1 0x4 MSTORE PUSH1 0x24 PUSH1 0x0 REVERT JUMPDEST PUSH1 0x0 PUSH1 0x2 DUP3 DIV SWAP1 POP PUSH1 0x1 DUP3 AND DUP1 PUSH2 0x54DA JUMPI PUSH1 0x7F DUP3 AND SWAP2 POP JUMPDEST PUSH1 0x20 DUP3 LT DUP2 SUB PUSH2 0x54ED JUMPI PUSH2 0x54EC PUSH2 0x5493 JUMP JUMPDEST JUMPDEST POP SWAP2 SWAP1 POP JUMP JUMPDEST PUSH32 0x4552433732313A20617070726F76616C20746F2063757272656E74206F776E65 PUSH1 0x0 DUP3 ADD MSTORE PUSH32 0x7200000000000000000000000000000000000000000000000000000000000000 PUSH1 0x20 DUP3 ADD MSTORE POP JUMP JUMPDEST PUSH1 0x0 PUSH2 0x554F PUSH1 0x21 DUP4 PUSH2 0x455E JUMP JUMPDEST SWAP2 POP PUSH2 0x555A DUP3 PUSH2 0x54F3 JUMP JUMPDEST PUSH1 0x40 DUP3 ADD SWAP1 POP SWAP2 SWAP1 POP JUMP JUMPDEST PUSH1 0x0 PUSH1 0x20 DUP3 ADD SWAP1 POP DUP2 DUP2 SUB PUSH1 0x0 DUP4 ADD MSTORE PUSH2 0x557E DUP2 PUSH2 0x5542 JUMP JUMPDEST SWAP1 POP SWAP2 SWAP1 POP JUMP JUMPDEST PUSH32 0x4552433732313A20617070726F76652063616C6C6572206973206E6F7420746F PUSH1 0x0 DUP3 ADD MSTORE PUSH32 0x6B656E206F776E6572206F7220617070726F76656420666F7220616C6C000000 PUSH1 0x20 DUP3 ADD MSTORE POP JUMP JUMPDEST PUSH1 0x0 PUSH2 0x55E1 PUSH1 0x3D DUP4 PUSH2 0x455E JUMP JUMPDEST SWAP2 POP PUSH2 0x55EC DUP3 PUSH2 0x5585 JUMP JUMPDEST PUSH1 0x40 DUP3 ADD SWAP1 POP SWAP2 SWAP1 POP JUMP JUMPDEST PUSH1 0x0 PUSH1 0x20 DUP3 ADD SWAP1 POP DUP2 DUP2 SUB PUSH1 0x0 DUP4 ADD MSTORE PUSH2 0x5610 DUP2 PUSH2 0x55D4 JUMP JUMPDEST SWAP1 POP SWAP2 SWAP1 POP JUMP JUMPDEST PUSH32 0x4D756C74697369673A2072657175697265640000000000000000000000000000 PUSH1 0x0 DUP3 ADD MSTORE POP JUMP JUMPDEST PUSH1 0x0 PUSH2 0x564D PUSH1 0x12 DUP4 PUSH2 0x455E JUMP JUMPDEST SWAP2 POP PUSH2 0x5658 DUP3 PUSH2 0x5617 JUMP JUMPDEST PUSH1 0x20 DUP3 ADD SWAP1 POP SWAP2 SWAP1 POP JUMP JUMPDEST PUSH1 0x0 PUSH1 0x20 DUP3 ADD SWAP1 POP DUP2 DUP2 SUB PUSH1 0x0 DUP4 ADD MSTORE PUSH2 0x567C DUP2 PUSH2 0x5640 JUMP JUMPDEST SWAP1 POP SWAP2 SWAP1 POP JUMP JUMPDEST PUSH32 0x4D756C74697369673A206E6F7420656E6F756768207369676E65727300000000 PUSH1 0x0 DUP3 ADD MSTORE POP JUMP JUMPDEST PUSH1 0x0 PUSH2 0x56B9 PUSH1 0x1C DUP4 PUSH2 0x455E JUMP JUMPDEST SWAP2 POP PUSH2 0x56C4 DUP3 PUSH2 0x5683 JUMP JUMPDEST PUSH1 0x20 DUP3 ADD SWAP1 POP SWAP2 SWAP1 POP JUMP JUMPDEST PUSH1 0x0 PUSH1 0x20 DUP3 ADD SWAP1 POP DUP2 DUP2 SUB PUSH1 0x0 DUP4 ADD MSTORE PUSH2 0x56E8 DUP2 PUSH2 0x56AC JUMP JUMPDEST SWAP1 POP SWAP2 SWAP1 POP JUMP JUMPDEST PUSH1 0x0 DUP2 MLOAD SWAP1 POP PUSH2 0x56FE DUP2 PUSH2 0x46C4 JUMP JUMPDEST SWAP3 SWAP2 POP POP JUMP JUMPDEST PUSH1 0x0 PUSH1 0x20 DUP3 DUP5 SUB SLT ISZERO PUSH2 0x571A JUMPI PUSH2 0x5719 PUSH2 0x448E JUMP JUMPDEST JUMPDEST PUSH1 0x0 PUSH2 0x5728 DUP5 DUP3 DUP6 ADD PUSH2 0x56EF JUMP JUMPDEST SWAP2 POP POP SWAP3 SWAP2 POP POP JUMP JUMPDEST PUSH32 0x4F726279633A207369676E6572206E6F74206F776E6572000000000000000000 PUSH1 0x0 DUP3 ADD MSTORE POP JUMP JUMPDEST PUSH1 0x0 PUSH2 0x5767 PUSH1 0x17 DUP4 PUSH2 0x455E JUMP JUMPDEST SWAP2 POP PUSH2 0x5772 DUP3 PUSH2 0x5731 JUMP JUMPDEST PUSH1 0x20 DUP3 ADD SWAP1 POP SWAP2 SWAP1 POP JUMP JUMPDEST PUSH1 0x0 PUSH1 0x20 DUP3 ADD SWAP1 POP DUP2 DUP2 SUB PUSH1 0x0 DUP4 ADD MSTORE PUSH2 0x5796 DUP2 PUSH2 0x575A JUMP JUMPDEST SWAP1 POP SWAP2 SWAP1 POP JUMP JUMPDEST PUSH32 0x4552433732313A2063616C6C6572206973206E6F7420746F6B656E206F776E65 PUSH1 0x0 DUP3 ADD MSTORE PUSH32 0x72206F7220617070726F76656400000000000000000000000000000000000000 PUSH1 0x20 DUP3 ADD MSTORE POP JUMP JUMPDEST PUSH1 0x0 PUSH2 0x57F9 PUSH1 0x2D DUP4 PUSH2 0x455E JUMP JUMPDEST SWAP2 POP PUSH2 0x5804 DUP3 PUSH2 0x579D JUMP JUMPDEST PUSH1 0x40 DUP3 ADD SWAP1 POP SWAP2 SWAP1 POP JUMP JUMPDEST PUSH1 0x0 PUSH1 0x20 DUP3 ADD SWAP1 POP DUP2 DUP2 SUB PUSH1 0x0 DUP4 ADD MSTORE PUSH2 0x5828 DUP2 PUSH2 0x57EC JUMP JUMPDEST SWAP1 POP SWAP2 SWAP1 POP JUMP JUMPDEST PUSH32 0x4E487B7100000000000000000000000000000000000000000000000000000000 PUSH1 0x0 MSTORE PUSH1 0x11 PUSH1 0x4 MSTORE PUSH1 0x24 PUSH1 0x0 REVERT JUMPDEST PUSH1 0x0 PUSH2 0x5869 DUP3 PUSH2 0x4605 JUMP JUMPDEST SWAP2 POP PUSH2 0x5874 DUP4 PUSH2 0x4605 JUMP JUMPDEST SWAP3 POP DUP3 DUP3 MUL PUSH2 0x5882 DUP2 PUSH2 0x4605 JUMP JUMPDEST SWAP2 POP DUP3 DUP3 DIV DUP5 EQ DUP4 ISZERO OR PUSH2 0x5899 JUMPI PUSH2 0x5898 PUSH2 0x582F JUMP JUMPDEST JUMPDEST POP SWAP3 SWAP2 POP POP JUMP JUMPDEST PUSH32 0x4E487B7100000000000000000000000000000000000000000000000000000000 PUSH1 0x0 MSTORE PUSH1 0x12 PUSH1 0x4 MSTORE PUSH1 0x24 PUSH1 0x0 REVERT JUMPDEST PUSH1 0x0 PUSH2 0x58DA DUP3 PUSH2 0x4605 JUMP JUMPDEST SWAP2 POP PUSH2 0x58E5 DUP4 PUSH2 0x4605 JUMP JUMPDEST SWAP3 POP DUP3 PUSH2 0x58F5 JUMPI PUSH2 0x58F4 PUSH2 0x58A0 JUMP JUMPDEST JUMPDEST DUP3 DUP3 DIV SWAP1 POP SWAP3 SWAP2 POP POP JUMP JUMPDEST PUSH32 0x455243373231456E756D657261626C653A206F776E657220696E646578206F75 PUSH1 0x0 DUP3 ADD MSTORE PUSH32 0x74206F6620626F756E6473000000000000000000000000000000000000000000 PUSH1 0x20 DUP3 ADD MSTORE POP JUMP JUMPDEST PUSH1 0x0 PUSH2 0x595C PUSH1 0x2B DUP4 PUSH2 0x455E JUMP JUMPDEST SWAP2 POP PUSH2 0x5967 DUP3 PUSH2 0x5900 JUMP JUMPDEST PUSH1 0x40 DUP3 ADD SWAP1 POP SWAP2 SWAP1 POP JUMP JUMPDEST PUSH1 0x0 PUSH1 0x20 DUP3 ADD SWAP1 POP DUP2 DUP2 SUB PUSH1 0x0 DUP4 ADD MSTORE PUSH2 0x598B DUP2 PUSH2 0x594F JUMP JUMPDEST SWAP1 POP SWAP2 SWAP1 POP JUMP JUMPDEST PUSH32 0x4D756C74697369673A20657865637574696F6E20657870697265640000000000 PUSH1 0x0 DUP3 ADD MSTORE POP JUMP JUMPDEST PUSH1 0x0 PUSH2 0x59C8 PUSH1 0x1B DUP4 PUSH2 0x455E JUMP JUMPDEST SWAP2 POP PUSH2 0x59D3 DUP3 PUSH2 0x5992 JUMP JUMPDEST PUSH1 0x20 DUP3 ADD SWAP1 POP SWAP2 SWAP1 POP JUMP JUMPDEST PUSH1 0x0 PUSH1 0x20 DUP3 ADD SWAP1 POP DUP2 DUP2 SUB PUSH1 0x0 DUP4 ADD MSTORE PUSH2 0x59F7 DUP2 PUSH2 0x59BB JUMP JUMPDEST SWAP1 POP SWAP2 SWAP1 POP JUMP JUMPDEST PUSH1 0x0 DUP2 SWAP1 POP SWAP3 SWAP2 POP POP JUMP JUMPDEST PUSH1 0x0 PUSH2 0x5A15 DUP4 DUP6 PUSH2 0x59FE JUMP JUMPDEST SWAP4 POP PUSH2 0x5A22 DUP4 DUP6 DUP5 PUSH2 0x4821 JUMP JUMPDEST DUP3 DUP5 ADD SWAP1 POP SWAP4 SWAP3 POP POP POP JUMP JUMPDEST PUSH1 0x0 PUSH2 0x5A3B DUP3 DUP5 DUP7 PUSH2 0x5A09 JUMP JUMPDEST SWAP2 POP DUP2 SWAP1 POP SWAP4 SWAP3 POP POP POP JUMP JUMPDEST PUSH1 0x0 DUP2 SWAP1 POP SWAP2 SWAP1 POP JUMP JUMPDEST PUSH2 0x5A5A DUP2 PUSH2 0x5A47 JUMP JUMPDEST DUP3 MSTORE POP POP JUMP JUMPDEST PUSH1 0x0 PUSH1 0xA0 DUP3 ADD SWAP1 POP PUSH2 0x5A75 PUSH1 0x0 DUP4 ADD DUP9 PUSH2 0x5A51 JUMP JUMPDEST PUSH2 0x5A82 PUSH1 0x20 DUP4 ADD DUP8 PUSH2 0x5A51 JUMP JUMPDEST PUSH2 0x5A8F PUSH1 0x40 DUP4 ADD DUP7 PUSH2 0x469A JUMP JUMPDEST PUSH2 0x5A9C PUSH1 0x60 DUP4 ADD DUP6 PUSH2 0x4A09 JUMP JUMPDEST PUSH2 0x5AA9 PUSH1 0x80 DUP4 ADD DUP5 PUSH2 0x4A09 JUMP JUMPDEST SWAP7 SWAP6 POP POP POP POP POP POP JUMP JUMPDEST PUSH32 0x4E487B7100000000000000000000000000000000000000000000000000000000 PUSH1 0x0 MSTORE PUSH1 0x32 PUSH1 0x4 MSTORE PUSH1 0x24 PUSH1 0x0 REVERT JUMPDEST PUSH1 0x0 PUSH2 0x5AED DUP3 PUSH2 0x4605 JUMP JUMPDEST SWAP2 POP PUSH2 0x5AF8 DUP4 PUSH2 0x4605 JUMP JUMPDEST SWAP3 POP DUP3 DUP3 SUB SWAP1 POP DUP2 DUP2 GT ISZERO PUSH2 0x5B10 JUMPI PUSH2 0x5B0F PUSH2 0x582F JUMP JUMPDEST JUMPDEST SWAP3 SWAP2 POP POP JUMP JUMPDEST PUSH32 0x4D756C74697369673A20756E736F72746564207369676E657273000000000000 PUSH1 0x0 DUP3 ADD MSTORE POP JUMP JUMPDEST PUSH1 0x0 PUSH2 0x5B4C PUSH1 0x1A DUP4 PUSH2 0x455E JUMP JUMPDEST SWAP2 POP PUSH2 0x5B57 DUP3 PUSH2 0x5B16 JUMP JUMPDEST PUSH1 0x20 DUP3 ADD SWAP1 POP SWAP2 SWAP1 POP JUMP JUMPDEST PUSH1 0x0 PUSH1 0x20 DUP3 ADD SWAP1 POP DUP2 DUP2 SUB PUSH1 0x0 DUP4 ADD MSTORE PUSH2 0x5B7B DUP2 PUSH2 0x5B3F JUMP JUMPDEST SWAP1 POP SWAP2 SWAP1 POP JUMP JUMPDEST PUSH1 0x0 PUSH2 0x5B8D DUP3 PUSH2 0x4605 JUMP JUMPDEST SWAP2 POP PUSH32 0xFFFFFFFFFFFFFFFFFFFFFFFFFFFFFFFFFFFFFFFFFFFFFFFFFFFFFFFFFFFFFFFF DUP3 SUB PUSH2 0x5BBF JUMPI PUSH2 0x5BBE PUSH2 0x582F JUMP JUMPDEST JUMPDEST PUSH1 0x1 DUP3 ADD SWAP1 POP SWAP2 SWAP1 POP JUMP JUMPDEST PUSH32 0x455243373231456E756D657261626C653A20676C6F62616C20696E646578206F PUSH1 0x0 DUP3 ADD MSTORE PUSH32 0x7574206F6620626F756E64730000000000000000000000000000000000000000 PUSH1 0x20 DUP3 ADD MSTORE POP JUMP JUMPDEST PUSH1 0x0 PUSH2 0x5C26 PUSH1 0x2C DUP4 PUSH2 0x455E JUMP JUMPDEST SWAP2 POP PUSH2 0x5C31 DUP3 PUSH2 0x5BCA JUMP JUMPDEST PUSH1 0x40 DUP3 ADD SWAP1 POP SWAP2 SWAP1 POP JUMP JUMPDEST PUSH1 0x0 PUSH1 0x20 DUP3 ADD SWAP1 POP DUP2 DUP2 SUB PUSH1 0x0 DUP4 ADD MSTORE PUSH2 0x5C55 DUP2 PUSH2 0x5C19 JUMP JUMPDEST SWAP1 POP SWAP2 SWAP1 POP JUMP JUMPDEST PUSH32 0x4552433732313A20696E76616C696420746F6B656E2049440000000000000000 PUSH1 0x0 DUP3 ADD MSTORE POP JUMP JUMPDEST PUSH1 0x0 PUSH2 0x5C92 PUSH1 0x18 DUP4 PUSH2 0x455E JUMP JUMPDEST SWAP2 POP PUSH2 0x5C9D DUP3 PUSH2 0x5C5C JUMP JUMPDEST PUSH1 0x20 DUP3 ADD SWAP1 POP SWAP2 SWAP1 POP JUMP JUMPDEST PUSH1 0x0 PUSH1 0x20 DUP3 ADD SWAP1 POP DUP2 DUP2 SUB PUSH1 0x0 DUP4 ADD MSTORE PUSH2 0x5CC1 DUP2 PUSH2 0x5C85 JUMP JUMPDEST SWAP1 POP SWAP2 SWAP1 POP JUMP JUMPDEST PUSH32 0x4552433732313A2061646472657373207A65726F206973206E6F742061207661 PUSH1 0x0 DUP3 ADD MSTORE PUSH32 0x6C6964206F776E65720000000000000000000000000000000000000000000000 PUSH1 0x20 DUP3 ADD MSTORE POP JUMP JUMPDEST PUSH1 0x0 PUSH2 0x5D24 PUSH1 0x29 DUP4 PUSH2 0x455E JUMP JUMPDEST SWAP2 POP PUSH2 0x5D2F DUP3 PUSH2 0x5CC8 JUMP JUMPDEST PUSH1 0x40 DUP3 ADD SWAP1 POP SWAP2 SWAP1 POP JUMP JUMPDEST PUSH1 0x0 PUSH1 0x20 DUP3 ADD SWAP1 POP DUP2 DUP2 SUB PUSH1 0x0 DUP4 ADD MSTORE PUSH2 0x5D53 DUP2 PUSH2 0x5D17 JUMP JUMPDEST SWAP1 POP SWAP2 SWAP1 POP JUMP JUMPDEST PUSH1 0x0 DUP2 SWAP1 POP SWAP3 SWAP2 POP POP JUMP JUMPDEST PUSH1 0x0 PUSH2 0x5D70 DUP3 PUSH2 0x4553 JUMP JUMPDEST PUSH2 0x5D7A DUP2 DUP6 PUSH2 0x5D5A JUMP JUMPDEST SWAP4 POP PUSH2 0x5D8A DUP2 DUP6 PUSH1 0x20 DUP7 ADD PUSH2 0x456F JUMP JUMPDEST DUP1 DUP5 ADD SWAP2 POP POP SWAP3 SWAP2 POP POP JUMP JUMPDEST PUSH1 0x0 PUSH2 0x5DA2 DUP3 DUP6 PUSH2 0x5D65 JUMP JUMPDEST SWAP2 POP PUSH2 0x5DAE DUP3 DUP5 PUSH2 0x5D65 JUMP JUMPDEST SWAP2 POP DUP2 SWAP1 POP SWAP4 SWAP3 POP POP POP JUMP JUMPDEST PUSH32 0x416363657373436F6E74726F6C3A2063616E206F6E6C792072656E6F756E6365 PUSH1 0x0 DUP3 ADD MSTORE PUSH32 0x20726F6C657320666F722073656C660000000000000000000000000000000000 PUSH1 0x20 DUP3 ADD MSTORE POP JUMP JUMPDEST PUSH1 0x0 PUSH2 0x5E16 PUSH1 0x2F DUP4 PUSH2 0x455E JUMP JUMPDEST SWAP2 POP PUSH2 0x5E21 DUP3 PUSH2 0x5DBA JUMP JUMPDEST PUSH1 0x40 DUP3 ADD SWAP1 POP SWAP2 SWAP1 POP JUMP JUMPDEST PUSH1 0x0 PUSH1 0x20 DUP3 ADD SWAP1 POP DUP2 DUP2 SUB PUSH1 0x0 DUP4 ADD MSTORE PUSH2 0x5E45 DUP2 PUSH2 0x5E09 JUMP JUMPDEST SWAP1 POP SWAP2 SWAP1 POP JUMP JUMPDEST PUSH1 0x0 DUP2 SWAP1 POP DUP2 PUSH1 0x0 MSTORE PUSH1 0x20 PUSH1 0x0 KECCAK256 SWAP1 POP SWAP2 SWAP1 POP JUMP JUMPDEST PUSH1 0x0 PUSH1 0x20 PUSH1 0x1F DUP4 ADD DIV SWAP1 POP SWAP2 SWAP1 POP JUMP JUMPDEST PUSH1 0x0 DUP3 DUP3 SHL SWAP1 POP SWAP3 SWAP2 POP POP JUMP JUMPDEST PUSH1 0x0 PUSH1 0x8 DUP4 MUL PUSH2 0x5EAE PUSH32 0xFFFFFFFFFFFFFFFFFFFFFFFFFFFFFFFFFFFFFFFFFFFFFFFFFFFFFFFFFFFFFFFF DUP3 PUSH2 0x5E71 JUMP JUMPDEST PUSH2 0x5EB8 DUP7 DUP4 PUSH2 0x5E71 JUMP JUMPDEST SWAP6 POP DUP1 NOT DUP5 AND SWAP4 POP DUP1 DUP7 AND DUP5 OR SWAP3 POP POP POP SWAP4 SWAP3 POP POP POP JUMP JUMPDEST PUSH1 0x0 DUP2 SWAP1 POP SWAP2 SWAP1 POP JUMP JUMPDEST PUSH1 0x0 PUSH2 0x5EF5 PUSH2 0x5EF0 PUSH2 0x5EEB DUP5 PUSH2 0x4605 JUMP JUMPDEST PUSH2 0x5ED0 JUMP JUMPDEST PUSH2 0x4605 JUMP JUMPDEST SWAP1 POP SWAP2 SWAP1 POP JUMP JUMPDEST PUSH1 0x0 DUP2 SWAP1 POP SWAP2 SWAP1 POP JUMP JUMPDEST PUSH2 0x5F0F DUP4 PUSH2 0x5EDA JUMP JUMPDEST PUSH2 0x5F23 PUSH2 0x5F1B DUP3 PUSH2 0x5EFC JUMP JUMPDEST DUP5 DUP5 SLOAD PUSH2 0x5E7E JUMP JUMPDEST DUP3 SSTORE POP POP POP POP JUMP JUMPDEST PUSH1 0x0 SWAP1 JUMP JUMPDEST PUSH2 0x5F38 PUSH2 0x5F2B JUMP JUMPDEST PUSH2 0x5F43 DUP2 DUP5 DUP5 PUSH2 0x5F06 JUMP JUMPDEST POP POP POP JUMP JUMPDEST JUMPDEST DUP2 DUP2 LT ISZERO PUSH2 0x5F67 JUMPI PUSH2 0x5F5C PUSH1 0x0 DUP3 PUSH2 0x5F30 JUMP JUMPDEST PUSH1 0x1 DUP2 ADD SWAP1 POP PUSH2 0x5F49 JUMP JUMPDEST POP POP JUMP JUMPDEST PUSH1 0x1F DUP3 GT ISZERO PUSH2 0x5FAC JUMPI PUSH2 0x5F7D DUP2 PUSH2 0x5E4C JUMP JUMPDEST PUSH2 0x5F86 DUP5 PUSH2 0x5E61 JUMP JUMPDEST DUP2 ADD PUSH1 0x20 DUP6 LT ISZERO PUSH2 0x5F95 JUMPI DUP2 SWAP1 POP JUMPDEST PUSH2 0x5FA9 PUSH2 0x5FA1 DUP6 PUSH2 0x5E61 JUMP JUMPDEST DUP4 ADD DUP3 PUSH2 0x5F48 JUMP JUMPDEST POP POP JUMPDEST POP POP POP JUMP JUMPDEST PUSH1 0x0 DUP3 DUP3 SHR SWAP1 POP SWAP3 SWAP2 POP POP JUMP JUMPDEST PUSH1 0x0 PUSH2 0x5FCF PUSH1 0x0 NOT DUP5 PUSH1 0x8 MUL PUSH2 0x5FB1 JUMP JUMPDEST NOT DUP1 DUP4 AND SWAP2 POP POP SWAP3 SWAP2 POP POP JUMP JUMPDEST PUSH1 0x0 PUSH2 0x5FE8 DUP4 DUP4 PUSH2 0x5FBE JUMP JUMPDEST SWAP2 POP DUP3 PUSH1 0x2 MUL DUP3 OR SWAP1 POP SWAP3 SWAP2 POP POP JUMP JUMPDEST PUSH2 0x6001 DUP3 PUSH2 0x4553 JUMP JUMPDEST PUSH8 0xFFFFFFFFFFFFFFFF DUP2 GT ISZERO PUSH2 0x601A JUMPI PUSH2 0x6019 PUSH2 0x4735 JUMP JUMPDEST JUMPDEST PUSH2 0x6024 DUP3 SLOAD PUSH2 0x54C2 JUMP JUMPDEST PUSH2 0x602F DUP3 DUP3 DUP6 PUSH2 0x5F6B JUMP JUMPDEST PUSH1 0x0 PUSH1 0x20 SWAP1 POP PUSH1 0x1F DUP4 GT PUSH1 0x1 DUP2 EQ PUSH2 0x6062 JUMPI PUSH1 0x0 DUP5 ISZERO PUSH2 0x6050 JUMPI DUP3 DUP8 ADD MLOAD SWAP1 POP JUMPDEST PUSH2 0x605A DUP6 DUP3 PUSH2 0x5FDC JUMP JUMPDEST DUP7 SSTORE POP PUSH2 0x60C2 JUMP JUMPDEST PUSH1 0x1F NOT DUP5 AND PUSH2 0x6070 DUP7 PUSH2 0x5E4C JUMP JUMPDEST PUSH1 0x0 JUMPDEST DUP3 DUP2 LT ISZERO PUSH2 0x6098 JUMPI DUP5 DUP10 ADD MLOAD DUP3 SSTORE PUSH1 0x1 DUP3 ADD SWAP2 POP PUSH1 0x20 DUP6 ADD SWAP5 POP PUSH1 0x20 DUP2 ADD SWAP1 POP PUSH2 0x6073 JUMP JUMPDEST DUP7 DUP4 LT ISZERO PUSH2 0x60B5 JUMPI DUP5 DUP10 ADD MLOAD PUSH2 0x60B1 PUSH1 0x1F DUP10 AND DUP3 PUSH2 0x5FBE JUMP JUMPDEST DUP4 SSTORE POP JUMPDEST PUSH1 0x1 PUSH1 0x2 DUP9 MUL ADD DUP9 SSTORE POP POP POP JUMPDEST POP POP POP POP POP POP JUMP JUMPDEST PUSH32 0x4552433732313A207472616E736665722066726F6D20696E636F727265637420 PUSH1 0x0 DUP3 ADD MSTORE PUSH32 0x6F776E6572000000000000000000000000000000000000000000000000000000 PUSH1 0x20 DUP3 ADD MSTORE POP JUMP JUMPDEST PUSH1 0x0 PUSH2 0x6126 PUSH1 0x25 DUP4 PUSH2 0x455E JUMP JUMPDEST SWAP2 POP PUSH2 0x6131 DUP3 PUSH2 0x60CA JUMP JUMPDEST PUSH1 0x40 DUP3 ADD SWAP1 POP SWAP2 SWAP1 POP JUMP JUMPDEST PUSH1 0x0 PUSH1 0x20 DUP3 ADD SWAP1 POP DUP2 DUP2 SUB PUSH1 0x0 DUP4 ADD MSTORE PUSH2 0x6155 DUP2 PUSH2 0x6119 JUMP JUMPDEST SWAP1 POP SWAP2 SWAP1 POP JUMP JUMPDEST PUSH32 0x4552433732313A207472616E7366657220746F20746865207A65726F20616464 PUSH1 0x0 DUP3 ADD MSTORE PUSH32 0x7265737300000000000000000000000000000000000000000000000000000000 PUSH1 0x20 DUP3 ADD MSTORE POP JUMP JUMPDEST PUSH1 0x0 PUSH2 0x61B8 PUSH1 0x24 DUP4 PUSH2 0x455E JUMP JUMPDEST SWAP2 POP PUSH2 0x61C3 DUP3 PUSH2 0x615C JUMP JUMPDEST PUSH1 0x40 DUP3 ADD SWAP1 POP SWAP2 SWAP1 POP JUMP JUMPDEST PUSH1 0x0 PUSH1 0x20 DUP3 ADD SWAP1 POP DUP2 DUP2 SUB PUSH1 0x0 DUP4 ADD MSTORE PUSH2 0x61E7 DUP2 PUSH2 0x61AB JUMP JUMPDEST SWAP1 POP SWAP2 SWAP1 POP JUMP JUMPDEST PUSH32 0x4D756C74697369673A207265656E7472616E742063616C6C0000000000000000 PUSH1 0x0 DUP3 ADD MSTORE POP JUMP JUMPDEST PUSH1 0x0 PUSH2 0x6224 PUSH1 0x18 DUP4 PUSH2 0x455E JUMP JUMPDEST SWAP2 POP PUSH2 0x622F DUP3 PUSH2 0x61EE JUMP JUMPDEST PUSH1 0x20 DUP3 ADD SWAP1 POP SWAP2 SWAP1 POP JUMP JUMPDEST PUSH1 0x0 PUSH1 0x20 DUP3 ADD SWAP1 POP DUP2 DUP2 SUB PUSH1 0x0 DUP4 ADD MSTORE PUSH2 0x6253 DUP2 PUSH2 0x6217 JUMP JUMPDEST SWAP1 POP SWAP2 SWAP1 POP JUMP JUMPDEST PUSH32 0x4552433732313A206D696E7420746F20746865207A65726F2061646472657373 PUSH1 0x0 DUP3 ADD MSTORE POP JUMP JUMPDEST PUSH1 0x0 PUSH2 0x6290 PUSH1 0x20 DUP4 PUSH2 0x455E JUMP JUMPDEST SWAP2 POP PUSH2 0x629B DUP3 PUSH2 0x625A JUMP JUMPDEST PUSH1 0x20 DUP3 ADD SWAP1 POP SWAP2 SWAP1 POP JUMP JUMPDEST PUSH1 0x0 PUSH1 0x20 DUP3 ADD SWAP1 POP DUP2 DUP2 SUB PUSH1 0x0 DUP4 ADD MSTORE PUSH2 0x62BF DUP2 PUSH2 0x6283 JUMP JUMPDEST SWAP1 POP SWAP2 SWAP1 POP JUMP JUMPDEST PUSH32 0x4552433732313A20746F6B656E20616C7265616479206D696E74656400000000 PUSH1 0x0 DUP3 ADD MSTORE POP JUMP JUMPDEST PUSH1 0x0 PUSH2 0x62FC PUSH1 0x1C DUP4 PUSH2 0x455E JUMP JUMPDEST SWAP2 POP PUSH2 0x6307 DUP3 PUSH2 0x62C6 JUMP JUMPDEST PUSH1 0x20 DUP3 ADD SWAP1 POP SWAP2 SWAP1 POP JUMP JUMPDEST PUSH1 0x0 PUSH1 0x20 DUP3 ADD SWAP1 POP DUP2 DUP2 SUB PUSH1 0x0 DUP4 ADD MSTORE PUSH2 0x632B DUP2 PUSH2 0x62EF JUMP JUMPDEST SWAP1 POP SWAP2 SWAP1 POP JUMP JUMPDEST PUSH32 0x455243323938313A20726F79616C7479206665652077696C6C20657863656564 PUSH1 0x0 DUP3 ADD MSTORE PUSH32 0x2073616C65507269636500000000000000000000000000000000000000000000 PUSH1 0x20 DUP3 ADD MSTORE POP JUMP JUMPDEST PUSH1 0x0 PUSH2 0x638E PUSH1 0x2A DUP4 PUSH2 0x455E JUMP JUMPDEST SWAP2 POP PUSH2 0x6399 DUP3 PUSH2 0x6332 JUMP JUMPDEST PUSH1 0x40 DUP3 ADD SWAP1 POP SWAP2 SWAP1 POP JUMP JUMPDEST PUSH1 0x0 PUSH1 0x20 DUP3 ADD SWAP1 POP DUP2 DUP2 SUB PUSH1 0x0 DUP4 ADD MSTORE PUSH2 0x63BD DUP2 PUSH2 0x6381 JUMP JUMPDEST SWAP1 POP SWAP2 SWAP1 POP JUMP JUMPDEST PUSH32 0x455243323938313A20496E76616C696420706172616D65746572730000000000 PUSH1 0x0 DUP3 ADD MSTORE POP JUMP JUMPDEST PUSH1 0x0 PUSH2 0x63FA PUSH1 0x1B DUP4 PUSH2 0x455E JUMP JUMPDEST SWAP2 POP PUSH2 0x6405 DUP3 PUSH2 0x63C4 JUMP JUMPDEST PUSH1 0x20 DUP3 ADD SWAP1 POP SWAP2 SWAP1 POP JUMP JUMPDEST PUSH1 0x0 PUSH1 0x20 DUP3 ADD SWAP1 POP DUP2 DUP2 SUB PUSH1 0x0 DUP4 ADD MSTORE PUSH2 0x6429 DUP2 PUSH2 0x63ED JUMP JUMPDEST SWAP1 POP SWAP2 SWAP1 POP JUMP JUMPDEST PUSH32 0x4552433732313A20617070726F766520746F2063616C6C657200000000000000 PUSH1 0x0 DUP3 ADD MSTORE POP JUMP JUMPDEST PUSH1 0x0 PUSH2 0x6466 PUSH1 0x19 DUP4 PUSH2 0x455E JUMP JUMPDEST SWAP2 POP PUSH2 0x6471 DUP3 PUSH2 0x6430 JUMP JUMPDEST PUSH1 0x20 DUP3 ADD SWAP1 POP SWAP2 SWAP1 POP JUMP JUMPDEST PUSH1 0x0 PUSH1 0x20 DUP3 ADD SWAP1 POP DUP2 DUP2 SUB PUSH1 0x0 DUP4 ADD MSTORE PUSH2 0x6495 DUP2 PUSH2 0x6459 JUMP JUMPDEST SWAP1 POP SWAP2 SWAP1 POP JUMP JUMPDEST PUSH32 0x4552433732313A207472616E7366657220746F206E6F6E204552433732315265 PUSH1 0x0 DUP3 ADD MSTORE PUSH32 0x63656976657220696D706C656D656E7465720000000000000000000000000000 PUSH1 0x20 DUP3 ADD MSTORE POP JUMP JUMPDEST PUSH1 0x0 PUSH2 0x64F8 PUSH1 0x32 DUP4 PUSH2 0x455E JUMP JUMPDEST SWAP2 POP PUSH2 0x6503 DUP3 PUSH2 0x649C JUMP JUMPDEST PUSH1 0x40 DUP3 ADD SWAP1 POP SWAP2 SWAP1 POP JUMP JUMPDEST PUSH1 0x0 PUSH1 0x20 DUP3 ADD SWAP1 POP DUP2 DUP2 SUB PUSH1 0x0 DUP4 ADD MSTORE PUSH2 0x6527 DUP2 PUSH2 0x64EB JUMP JUMPDEST SWAP1 POP SWAP2 SWAP1 POP JUMP JUMPDEST PUSH32 0x416363657373436F6E74726F6C3A206163636F756E74206973206D697373696E PUSH1 0x0 DUP3 ADD MSTORE PUSH32 0x6720726F6C650000000000000000000000000000000000000000000000000000 PUSH1 0x20 DUP3 ADD MSTORE POP JUMP JUMPDEST PUSH1 0x0 PUSH2 0x658A PUSH1 0x26 DUP4 PUSH2 0x455E JUMP JUMPDEST SWAP2 POP PUSH2 0x6595 DUP3 PUSH2 0x652E JUMP JUMPDEST PUSH1 0x40 DUP3 ADD SWAP1 POP SWAP2 SWAP1 POP JUMP JUMPDEST PUSH1 0x0 PUSH1 0x20 DUP3 ADD SWAP1 POP DUP2 DUP2 SUB PUSH1 0x0 DUP4 ADD MSTORE PUSH2 0x65B9 DUP2 PUSH2 0x657D JUMP JUMPDEST SWAP1 POP SWAP2 SWAP1 POP JUMP JUMPDEST PUSH32 0x455243373231456E756D657261626C653A20636F6E7365637574697665207472 PUSH1 0x0 DUP3 ADD MSTORE PUSH32 0x616E7366657273206E6F7420737570706F727465640000000000000000000000 PUSH1 0x20 DUP3 ADD MSTORE POP JUMP JUMPDEST PUSH1 0x0 PUSH2 0x661C PUSH1 0x35 DUP4 PUSH2 0x455E JUMP JUMPDEST SWAP2 POP PUSH2 0x6627 DUP3 PUSH2 0x65C0 JUMP JUMPDEST PUSH1 0x40 DUP3 ADD SWAP1 POP SWAP2 SWAP1 POP JUMP JUMPDEST PUSH1 0x0 PUSH1 0x20 DUP3 ADD SWAP1 POP DUP2 DUP2 SUB PUSH1 0x0 DUP4 ADD MSTORE PUSH2 0x664B DUP2 PUSH2 0x660F JUMP JUMPDEST SWAP1 POP SWAP2 SWAP1 POP JUMP JUMPDEST PUSH32 0x1901000000000000000000000000000000000000000000000000000000000000 PUSH1 0x0 DUP3 ADD MSTORE POP JUMP JUMPDEST PUSH1 0x0 PUSH2 0x6688 PUSH1 0x2 DUP4 PUSH2 0x5D5A JUMP JUMPDEST SWAP2 POP PUSH2 0x6693 DUP3 PUSH2 0x6652 JUMP JUMPDEST PUSH1 0x2 DUP3 ADD SWAP1 POP SWAP2 SWAP1 POP JUMP JUMPDEST PUSH1 0x0 DUP2 SWAP1 POP SWAP2 SWAP1 POP JUMP JUMPDEST PUSH2 0x66B9 PUSH2 0x66B4 DUP3 PUSH2 0x5A47 JUMP JUMPDEST PUSH2 0x669E JUMP JUMPDEST DUP3 MSTORE POP POP JUMP JUMPDEST PUSH1 0x0 PUSH2 0x66CA DUP3 PUSH2 0x667B JUMP JUMPDEST SWAP2 POP PUSH2 0x66D6 DUP3 DUP6 PUSH2 0x66A8 JUMP JUMPDEST PUSH1 0x20 DUP3 ADD SWAP2 POP PUSH2 0x66E6 DUP3 DUP5 PUSH2 0x66A8 JUMP JUMPDEST PUSH1 0x20 DUP3 ADD SWAP2 POP DUP2 SWAP1 POP SWAP4 SWAP3 POP POP POP JUMP JUMPDEST PUSH32 0x4E487B7100000000000000000000000000000000000000000000000000000000 PUSH1 0x0 MSTORE PUSH1 0x21 PUSH1 0x4 MSTORE PUSH1 0x24 PUSH1 0x0 REVERT JUMPDEST PUSH32 0x45434453413A20696E76616C6964207369676E61747572650000000000000000 PUSH1 0x0 DUP3 ADD MSTORE POP JUMP JUMPDEST PUSH1 0x0 PUSH2 0x675B PUSH1 0x18 DUP4 PUSH2 0x455E JUMP JUMPDEST SWAP2 POP PUSH2 0x6766 DUP3 PUSH2 0x6725 JUMP JUMPDEST PUSH1 0x20 DUP3 ADD SWAP1 POP SWAP2 SWAP1 POP JUMP JUMPDEST PUSH1 0x0 PUSH1 0x20 DUP3 ADD SWAP1 POP DUP2 DUP2 SUB PUSH1 0x0 DUP4 ADD MSTORE PUSH2 0x678A DUP2 PUSH2 0x674E JUMP JUMPDEST SWAP1 POP SWAP2 SWAP1 POP JUMP JUMPDEST PUSH32 0x45434453413A20696E76616C6964207369676E6174757265206C656E67746800 PUSH1 0x0 DUP3 ADD MSTORE POP JUMP JUMPDEST PUSH1 0x0 PUSH2 0x67C7 PUSH1 0x1F DUP4 PUSH2 0x455E JUMP JUMPDEST SWAP2 POP PUSH2 0x67D2 DUP3 PUSH2 0x6791 JUMP JUMPDEST PUSH1 0x20 DUP3 ADD SWAP1 POP SWAP2 SWAP1 POP JUMP JUMPDEST PUSH1 0x0 PUSH1 0x20 DUP3 ADD SWAP1 POP DUP2 DUP2 SUB PUSH1 0x0 DUP4 ADD MSTORE PUSH2 0x67F6 DUP2 PUSH2 0x67BA JUMP JUMPDEST SWAP1 POP SWAP2 SWAP1 POP JUMP JUMPDEST PUSH32 0x45434453413A20696E76616C6964207369676E6174757265202773272076616C PUSH1 0x0 DUP3 ADD MSTORE PUSH32 0x7565000000000000000000000000000000000000000000000000000000000000 PUSH1 0x20 DUP3 ADD MSTORE POP JUMP JUMPDEST PUSH1 0x0 PUSH2 0x6859 PUSH1 0x22 DUP4 PUSH2 0x455E JUMP JUMPDEST SWAP2 POP PUSH2 0x6864 DUP3 PUSH2 0x67FD JUMP JUMPDEST PUSH1 0x40 DUP3 ADD SWAP1 POP SWAP2 SWAP1 POP JUMP JUMPDEST PUSH1 0x0 PUSH1 0x20 DUP3 ADD SWAP1 POP DUP2 DUP2 SUB PUSH1 0x0 DUP4 ADD MSTORE PUSH2 0x6888 DUP2 PUSH2 0x684C JUMP JUMPDEST SWAP1 POP SWAP2 SWAP1 POP JUMP JUMPDEST PUSH1 0x0 PUSH2 0x689A DUP3 PUSH2 0x4D5C JUMP JUMPDEST PUSH2 0x68A4 DUP2 DUP6 PUSH2 0x59FE JUMP JUMPDEST SWAP4 POP PUSH2 0x68B4 DUP2 DUP6 PUSH1 0x20 DUP7 ADD PUSH2 0x456F JUMP JUMPDEST DUP1 DUP5 ADD SWAP2 POP POP SWAP3 SWAP2 POP POP JUMP JUMPDEST PUSH1 0x0 PUSH2 0x68CC DUP3 DUP5 PUSH2 0x688F JUMP JUMPDEST SWAP2 POP DUP2 SWAP1 POP SWAP3 SWAP2 POP POP JUMP JUMPDEST PUSH1 0x0 PUSH1 0x80 DUP3 ADD SWAP1 POP PUSH2 0x68EC PUSH1 0x0 DUP4 ADD DUP8 PUSH2 0x469A JUMP JUMPDEST PUSH2 0x68F9 PUSH1 0x20 DUP4 ADD DUP7 PUSH2 0x469A JUMP JUMPDEST PUSH2 0x6906 PUSH1 0x40 DUP4 ADD DUP6 PUSH2 0x4A09 JUMP JUMPDEST DUP2 DUP2 SUB PUSH1 0x60 DUP4 ADD MSTORE PUSH2 0x6918 DUP2 DUP5 PUSH2 0x4D78 JUMP JUMPDEST SWAP1 POP SWAP6 SWAP5 POP POP POP POP POP JUMP JUMPDEST PUSH1 0x0 DUP2 MLOAD SWAP1 POP PUSH2 0x6932 DUP2 PUSH2 0x44C4 JUMP JUMPDEST SWAP3 SWAP2 POP POP JUMP JUMPDEST PUSH1 0x0 PUSH1 0x20 DUP3 DUP5 SUB SLT ISZERO PUSH2 0x694E JUMPI PUSH2 0x694D PUSH2 0x448E JUMP JUMPDEST JUMPDEST PUSH1 0x0 PUSH2 0x695C DUP5 DUP3 DUP6 ADD PUSH2 0x6923 JUMP JUMPDEST SWAP2 POP POP SWAP3 SWAP2 POP POP JUMP JUMPDEST PUSH1 0x0 PUSH2 0x6970 DUP3 PUSH2 0x4605 JUMP JUMPDEST SWAP2 POP PUSH2 0x697B DUP4 PUSH2 0x4605 JUMP JUMPDEST SWAP3 POP DUP3 DUP3 ADD SWAP1 POP DUP1 DUP3 GT ISZERO PUSH2 0x6993 JUMPI PUSH2 0x6992 PUSH2 0x582F JUMP JUMPDEST JUMPDEST SWAP3 SWAP2 POP POP JUMP JUMPDEST PUSH32 0x4E487B7100000000000000000000000000000000000000000000000000000000 PUSH1 0x0 MSTORE PUSH1 0x31 PUSH1 0x4 MSTORE PUSH1 0x24 PUSH1 0x0 REVERT JUMPDEST PUSH1 0x0 PUSH1 0xA0 DUP3 ADD SWAP1 POP PUSH2 0x69DD PUSH1 0x0 DUP4 ADD DUP9 PUSH2 0x5A51 JUMP JUMPDEST PUSH2 0x69EA PUSH1 0x20 DUP4 ADD DUP8 PUSH2 0x5A51 JUMP JUMPDEST PUSH2 0x69F7 PUSH1 0x40 DUP4 ADD DUP7 PUSH2 0x5A51 JUMP JUMPDEST PUSH2 0x6A04 PUSH1 0x60 DUP4 ADD DUP6 PUSH2 0x4A09 JUMP JUMPDEST PUSH2 0x6A11 PUSH1 0x80 DUP4 ADD DUP5 PUSH2 0x469A JUMP JUMPDEST SWAP7 SWAP6 POP POP POP POP POP POP JUMP JUMPDEST PUSH1 0x0 PUSH1 0xFF DUP3 AND SWAP1 POP SWAP2 SWAP1 POP JUMP JUMPDEST PUSH2 0x6A31 DUP2 PUSH2 0x6A1B JUMP JUMPDEST DUP3 MSTORE POP POP JUMP JUMPDEST PUSH1 0x0 PUSH1 0x80 DUP3 ADD SWAP1 POP PUSH2 0x6A4C PUSH1 0x0 DUP4 ADD DUP8 PUSH2 0x5A51 JUMP JUMPDEST PUSH2 0x6A59 PUSH1 0x20 DUP4 ADD DUP7 PUSH2 0x6A28 JUMP JUMPDEST PUSH2 0x6A66 PUSH1 0x40 DUP4 ADD DUP6 PUSH2 0x5A51 JUMP JUMPDEST PUSH2 0x6A73 PUSH1 0x60 DUP4 ADD DUP5 PUSH2 0x5A51 JUMP JUMPDEST SWAP6 SWAP5 POP POP POP POP POP JUMP JUMPDEST PUSH32 0x416464726573733A2063616C6C20746F206E6F6E2D636F6E7472616374000000 PUSH1 0x0 DUP3 ADD MSTORE POP JUMP JUMPDEST PUSH1 0x0 PUSH2 0x6AB2 PUSH1 0x1D DUP4 PUSH2 0x455E JUMP JUMPDEST SWAP2 POP PUSH2 0x6ABD DUP3 PUSH2 0x6A7C JUMP JUMPDEST PUSH1 0x20 DUP3 ADD SWAP1 POP SWAP2 SWAP1 POP JUMP JUMPDEST PUSH1 0x0 PUSH1 0x20 DUP3 ADD SWAP1 POP DUP2 DUP2 SUB PUSH1 0x0 DUP4 ADD MSTORE PUSH2 0x6AE1 DUP2 PUSH2 0x6AA5 JUMP JUMPDEST SWAP1 POP SWAP2 SWAP1 POP JUMP INVALID COINBASE PUSH5 0x6472657373 GASPRICE KECCAK256 PUSH13 0x6F772D6C6576656C2064656C65 PUSH8 0x6174652063616C6C KECCAK256 PUSH7 0x61696C6564A264 PUSH10 0x706673582212206C05B0 DUP9 LOG1 0xE SWAP1 0x1F PUSH24 0x7E3A9707B8F8629CE0BE8CD67FE9B201AA360342A0B57364 PUSH20 0x6F6C634300081100330000000000000000000000 "},"methodIdentifiers":{"ASSET_ISSUER_ROLE()":"d8f9ce24","COMPOSITION_ISSUER_ROLE()":"a41144cb","DEFAULT_ADMIN_ROLE()":"a217fddf","TRACEABILITY_ISSUER_ROLE()":"d86d6952","appendComponents(uint256,(uint256,string)[])":"72dc0db9","appendTraces(uint256,(string)[])":"0b6c1368","approve(address,uint256)":"095ea7b3","balanceOf(address)":"70a08231","execute(bytes,uint256,bytes[])":"36ed6828","getApproved(uint256)":"081812fc","getComposition(uint256)":"bca841b1","getMetadata(uint256)":"a574cea4","getRoleAdmin(uint64)":"530dd456","getTraceability(uint256)":"547cb677","grantRole(uint64,address)":"b428b0b0","hasRole(uint64,address)":"d1f856ee","isApprovedForAll(address,address)":"e985e9c5","mint(uint256,string)":"77097fc8","name()":"06fdde03","nonces(address)":"7ecebe00","ownerOf(uint256)":"6352211e","renounceRole(uint64,address)":"fe0776f5","resetComposition(uint256)":"0c328f34","resetTraceability(uint256)":"9c23cbff","revokeRole(uint64,address)":"b7d2b162","royaltyInfo(uint256,uint256)":"2a55205a","safeTransferFrom(address,address,uint256)":"42842e0e","safeTransferFrom(address,address,uint256,bytes)":"b88d4fde","setApprovalForAll(address,bool)":"a22cb465","supportsInterface(bytes4)":"01ffc9a7","symbol()":"95d89b41","tokenByIndex(uint256)":"4f6ccce7","tokenOfOwnerByIndex(address,uint256)":"2f745c59","tokenURI(uint256)":"c87b56dd","totalSupply()":"18160ddd","transferFrom(address,address,uint256)":"23b872dd"}}}}}