{
  "_format": "hh-sol-artifact-1",
  "contractName": "SupplyChain",
  "sourceName": "contracts/orbyc/SupplyChain.sol",
  "abi": [
    {
      "inputs": [
        {
          "internalType": "string",
          "name": "name_",
          "type": "string"
        },
        {
          "internalType": "string",
          "name": "symbol_",
          "type": "string"
        }
      ],
      "stateMutability": "nonpayable",
      "type": "constructor"
    },
    {
      "anonymous": false,
      "inputs": [
        {
          "indexed": false,
          "internalType": "address",
          "name": "agent",
          "type": "address"
        },
        {
          "indexed": false,
          "internalType": "address",
          "name": "account",
          "type": "address"
        },
        {
          "indexed": false,
          "internalType": "address",
          "name": "issuer",
          "type": "address"
        }
      ],
      "name": "AgentDefined",
      "type": "event"
    },
    {
      "anonymous": false,
      "inputs": [
        {
          "indexed": false,
          "internalType": "address",
          "name": "agent",
          "type": "address"
        },
        {
          "indexed": false,
          "internalType": "address",
          "name": "issuer",
          "type": "address"
        }
      ],
      "name": "AgentRemoved",
      "type": "event"
    },
    {
      "anonymous": false,
      "inputs": [
        {
          "indexed": true,
          "internalType": "address",
          "name": "owner",
          "type": "address"
        },
        {
          "indexed": true,
          "internalType": "address",
          "name": "approved",
          "type": "address"
        },
        {
          "indexed": true,
          "internalType": "uint256",
          "name": "tokenId",
          "type": "uint256"
        }
      ],
      "name": "Approval",
      "type": "event"
    },
    {
      "anonymous": false,
      "inputs": [
        {
          "indexed": true,
          "internalType": "address",
          "name": "owner",
          "type": "address"
        },
        {
          "indexed": true,
          "internalType": "address",
          "name": "operator",
          "type": "address"
        },
        {
          "indexed": false,
          "internalType": "bool",
          "name": "approved",
          "type": "bool"
        }
      ],
      "name": "ApprovalForAll",
      "type": "event"
    },
    {
      "anonymous": false,
      "inputs": [
        {
          "indexed": false,
          "internalType": "uint256",
          "name": "certId",
          "type": "uint256"
        },
        {
          "indexed": false,
          "internalType": "uint256",
          "name": "assetId",
          "type": "uint256"
        },
        {
          "indexed": false,
          "internalType": "address",
          "name": "signer",
          "type": "address"
        }
      ],
      "name": "AssetCertificateAssigned",
      "type": "event"
    },
    {
      "anonymous": false,
      "inputs": [
        {
          "indexed": false,
          "internalType": "uint256",
          "name": "assetId",
          "type": "uint256"
        },
        {
          "indexed": true,
          "internalType": "address",
          "name": "signer",
          "type": "address"
        }
      ],
      "name": "AssetIssued",
      "type": "event"
    },
    {
      "anonymous": false,
      "inputs": [
        {
          "indexed": false,
          "internalType": "uint256",
          "name": "certId",
          "type": "uint256"
        },
        {
          "indexed": true,
          "internalType": "address",
          "name": "signer",
          "type": "address"
        }
      ],
      "name": "CertIssued",
      "type": "event"
    },
    {
      "anonymous": false,
      "inputs": [
        {
          "indexed": false,
          "internalType": "uint256",
          "name": "moveId",
          "type": "uint256"
        },
        {
          "indexed": false,
          "internalType": "uint256",
          "name": "assetId",
          "type": "uint256"
        },
        {
          "indexed": false,
          "internalType": "address",
          "name": "signer",
          "type": "address"
        }
      ],
      "name": "MovementAssigned",
      "type": "event"
    },
    {
      "anonymous": false,
      "inputs": [
        {
          "indexed": false,
          "internalType": "uint256",
          "name": "certId",
          "type": "uint256"
        },
        {
          "indexed": false,
          "internalType": "uint256",
          "name": "moveId",
          "type": "uint256"
        },
        {
          "indexed": false,
          "internalType": "address",
          "name": "signer",
          "type": "address"
        }
      ],
      "name": "MovementCertificateAssigned",
      "type": "event"
    },
    {
      "anonymous": false,
      "inputs": [
        {
          "indexed": false,
          "internalType": "uint256",
          "name": "moveId",
          "type": "uint256"
        },
        {
          "indexed": true,
          "internalType": "address",
          "name": "signer",
          "type": "address"
        }
      ],
      "name": "MovementIssued",
      "type": "event"
    },
    {
      "anonymous": false,
      "inputs": [
        {
          "indexed": false,
          "internalType": "uint256",
          "name": "parentId",
          "type": "uint256"
        },
        {
          "indexed": false,
          "internalType": "uint256",
          "name": "assetId",
          "type": "uint256"
        },
        {
          "indexed": false,
          "internalType": "address",
          "name": "signer",
          "type": "address"
        }
      ],
      "name": "ParentAssigned",
      "type": "event"
    },
    {
      "anonymous": false,
      "inputs": [
        {
          "indexed": false,
          "internalType": "address",
          "name": "account",
          "type": "address"
        }
      ],
      "name": "Paused",
      "type": "event"
    },
    {
      "anonymous": false,
      "inputs": [
        {
          "indexed": false,
          "internalType": "uint256",
          "name": "role",
          "type": "uint256"
        },
        {
          "indexed": false,
          "internalType": "address",
          "name": "issuer",
          "type": "address"
        }
      ],
      "name": "RoleDefined",
      "type": "event"
    },
    {
      "anonymous": false,
      "inputs": [
        {
          "indexed": false,
          "internalType": "uint256",
          "name": "role",
          "type": "uint256"
        },
        {
          "indexed": false,
          "internalType": "address",
          "name": "account",
          "type": "address"
        },
        {
          "indexed": false,
          "internalType": "address",
          "name": "issuer",
          "type": "address"
        }
      ],
      "name": "RoleGranted",
      "type": "event"
    },
    {
      "anonymous": false,
      "inputs": [
        {
          "indexed": false,
          "internalType": "uint256",
          "name": "role",
          "type": "uint256"
        },
        {
          "indexed": false,
          "internalType": "address",
          "name": "account",
          "type": "address"
        },
        {
          "indexed": false,
          "internalType": "address",
          "name": "issuer",
          "type": "address"
        }
      ],
      "name": "RoleRevoked",
      "type": "event"
    },
    {
      "anonymous": false,
      "inputs": [
        {
          "indexed": true,
          "internalType": "address",
          "name": "from",
          "type": "address"
        },
        {
          "indexed": true,
          "internalType": "address",
          "name": "to",
          "type": "address"
        },
        {
          "indexed": true,
          "internalType": "uint256",
          "name": "tokenId",
          "type": "uint256"
        }
      ],
      "name": "SignatureReceived",
      "type": "event"
    },
    {
      "anonymous": false,
      "inputs": [
        {
          "indexed": true,
          "internalType": "address",
          "name": "from",
          "type": "address"
        },
        {
          "indexed": true,
          "internalType": "address",
          "name": "to",
          "type": "address"
        },
        {
          "indexed": true,
          "internalType": "uint256",
          "name": "tokenId",
          "type": "uint256"
        }
      ],
      "name": "Transfer",
      "type": "event"
    },
    {
      "anonymous": false,
      "inputs": [
        {
          "indexed": true,
          "internalType": "address",
          "name": "from",
          "type": "address"
        },
        {
          "indexed": true,
          "internalType": "address",
          "name": "to",
          "type": "address"
        },
        {
          "indexed": true,
          "internalType": "uint256",
          "name": "assetId",
          "type": "uint256"
        }
      ],
      "name": "TransferAsset",
      "type": "event"
    },
    {
      "anonymous": false,
      "inputs": [
        {
          "indexed": false,
          "internalType": "address",
          "name": "account",
          "type": "address"
        }
      ],
      "name": "Unpaused",
      "type": "event"
    },
    {
      "inputs": [],
      "name": "ADMIN_ROLE",
      "outputs": [
        {
          "internalType": "uint64",
          "name": "",
          "type": "uint64"
        }
      ],
      "stateMutability": "view",
      "type": "function"
    },
    {
      "inputs": [],
      "name": "ASSET_ISSUER_ROLE",
      "outputs": [
        {
          "internalType": "uint64",
          "name": "",
          "type": "uint64"
        }
      ],
      "stateMutability": "view",
      "type": "function"
    },
    {
      "inputs": [],
      "name": "CERT_ISSUER_ROLE",
      "outputs": [
        {
          "internalType": "uint64",
          "name": "",
          "type": "uint64"
        }
      ],
      "stateMutability": "view",
      "type": "function"
    },
    {
      "inputs": [],
      "name": "MOVEMENT_ISSUER_ROLE",
      "outputs": [
        {
          "internalType": "uint64",
          "name": "",
          "type": "uint64"
        }
      ],
      "stateMutability": "view",
      "type": "function"
    },
    {
      "inputs": [],
      "name": "ORBYC_ACCOUNT",
      "outputs": [
        {
          "internalType": "address",
          "name": "",
          "type": "address"
        }
      ],
      "stateMutability": "view",
      "type": "function"
    },
    {
      "inputs": [],
      "name": "PROVIDER_ROLE",
      "outputs": [
        {
          "internalType": "uint64",
          "name": "",
          "type": "uint64"
        }
      ],
      "stateMutability": "view",
      "type": "function"
    },
    {
      "inputs": [],
      "name": "Pause",
      "outputs": [],
      "stateMutability": "nonpayable",
      "type": "function"
    },
    {
      "inputs": [],
      "name": "Unpause",
      "outputs": [],
      "stateMutability": "nonpayable",
      "type": "function"
    },
    {
      "inputs": [
        {
          "internalType": "address",
          "name": "account",
          "type": "address"
        }
      ],
      "name": "accountInfo",
      "outputs": [
        {
          "internalType": "string",
          "name": "",
          "type": "string"
        }
      ],
      "stateMutability": "view",
      "type": "function"
    },
    {
      "inputs": [
        {
          "internalType": "address",
          "name": "agent",
          "type": "address"
        }
      ],
      "name": "accountOf",
      "outputs": [
        {
          "internalType": "address",
          "name": "",
          "type": "address"
        }
      ],
      "stateMutability": "view",
      "type": "function"
    },
    {
      "inputs": [
        {
          "internalType": "uint256",
          "name": "assetId",
          "type": "uint256"
        },
        {
          "internalType": "uint256[]",
          "name": "certificates",
          "type": "uint256[]"
        }
      ],
      "name": "addAssetCertificates",
      "outputs": [
        {
          "internalType": "bool",
          "name": "",
          "type": "bool"
        }
      ],
      "stateMutability": "nonpayable",
      "type": "function"
    },
    {
      "inputs": [
        {
          "internalType": "uint256",
          "name": "moveId",
          "type": "uint256"
        },
        {
          "internalType": "uint256[]",
          "name": "certificates",
          "type": "uint256[]"
        }
      ],
      "name": "addMovementCertificates",
      "outputs": [
        {
          "internalType": "bool",
          "name": "",
          "type": "bool"
        }
      ],
      "stateMutability": "nonpayable",
      "type": "function"
    },
    {
      "inputs": [
        {
          "internalType": "uint256",
          "name": "assetId",
          "type": "uint256"
        },
        {
          "internalType": "uint256[]",
          "name": "movements",
          "type": "uint256[]"
        }
      ],
      "name": "addMovements",
      "outputs": [
        {
          "internalType": "bool",
          "name": "",
          "type": "bool"
        }
      ],
      "stateMutability": "nonpayable",
      "type": "function"
    },
    {
      "inputs": [
        {
          "internalType": "uint256",
          "name": "assetId",
          "type": "uint256"
        },
        {
          "internalType": "uint256[]",
          "name": "parents",
          "type": "uint256[]"
        },
        {
          "internalType": "uint16[]",
          "name": "composition",
          "type": "uint16[]"
        }
      ],
      "name": "addParents",
      "outputs": [
        {
          "internalType": "bool",
          "name": "",
          "type": "bool"
        }
      ],
      "stateMutability": "nonpayable",
      "type": "function"
    },
    {
      "inputs": [
        {
          "internalType": "address",
          "name": "to",
          "type": "address"
        },
        {
          "internalType": "uint256",
          "name": "tokenId",
          "type": "uint256"
        }
      ],
      "name": "approve",
      "outputs": [],
      "stateMutability": "nonpayable",
      "type": "function"
    },
    {
      "inputs": [
        {
          "internalType": "uint256",
          "name": "assetId",
          "type": "uint256"
        }
      ],
      "name": "assetCertificates",
      "outputs": [
        {
          "internalType": "uint256[]",
          "name": "",
          "type": "uint256[]"
        }
      ],
      "stateMutability": "view",
      "type": "function"
    },
    {
      "inputs": [
        {
          "internalType": "uint256",
          "name": "assetId",
          "type": "uint256"
        }
      ],
      "name": "assetComposition",
      "outputs": [
        {
          "internalType": "uint256[]",
          "name": "",
          "type": "uint256[]"
        },
        {
          "internalType": "uint16[]",
          "name": "",
          "type": "uint16[]"
        }
      ],
      "stateMutability": "view",
      "type": "function"
    },
    {
      "inputs": [
        {
          "internalType": "uint256",
          "name": "assetId",
          "type": "uint256"
        }
      ],
      "name": "assetInfo",
      "outputs": [
        {
          "internalType": "address",
          "name": "",
          "type": "address"
        },
        {
          "internalType": "address",
          "name": "",
          "type": "address"
        },
        {
          "internalType": "uint64",
          "name": "",
          "type": "uint64"
        },
        {
          "internalType": "uint256",
          "name": "",
          "type": "uint256"
        },
        {
          "internalType": "string",
          "name": "",
          "type": "string"
        }
      ],
      "stateMutability": "view",
      "type": "function"
    },
    {
      "inputs": [
        {
          "internalType": "uint256",
          "name": "assetId",
          "type": "uint256"
        }
      ],
      "name": "assetTraceability",
      "outputs": [
        {
          "internalType": "uint256[]",
          "name": "",
          "type": "uint256[]"
        }
      ],
      "stateMutability": "view",
      "type": "function"
    },
    {
      "inputs": [
        {
          "internalType": "address",
          "name": "owner",
          "type": "address"
        }
      ],
      "name": "balanceOf",
      "outputs": [
        {
          "internalType": "uint256",
          "name": "",
          "type": "uint256"
        }
      ],
      "stateMutability": "view",
      "type": "function"
    },
    {
      "inputs": [
        {
          "internalType": "uint256",
          "name": "certId",
          "type": "uint256"
        }
      ],
      "name": "certificateInfo",
      "outputs": [
        {
          "internalType": "address",
          "name": "",
          "type": "address"
        },
        {
          "internalType": "string",
          "name": "",
          "type": "string"
        }
      ],
      "stateMutability": "view",
      "type": "function"
    },
    {
      "inputs": [
        {
          "internalType": "address",
          "name": "agent",
          "type": "address"
        },
        {
          "internalType": "address",
          "name": "account",
          "type": "address"
        },
        {
          "internalType": "string",
          "name": "metadata_",
          "type": "string"
        }
      ],
      "name": "defineAgent",
      "outputs": [
        {
          "internalType": "bool",
          "name": "",
          "type": "bool"
        }
      ],
      "stateMutability": "nonpayable",
      "type": "function"
    },
    {
      "inputs": [
        {
          "internalType": "uint256",
          "name": "role",
          "type": "uint256"
        },
        {
          "internalType": "string",
          "name": "metadata_",
          "type": "string"
        }
      ],
      "name": "defineRole",
      "outputs": [
        {
          "internalType": "bool",
          "name": "",
          "type": "bool"
        }
      ],
      "stateMutability": "nonpayable",
      "type": "function"
    },
    {
      "inputs": [
        {
          "internalType": "uint256",
          "name": "tokenId",
          "type": "uint256"
        }
      ],
      "name": "getApproved",
      "outputs": [
        {
          "internalType": "address",
          "name": "",
          "type": "address"
        }
      ],
      "stateMutability": "view",
      "type": "function"
    },
    {
      "inputs": [
        {
          "internalType": "address",
          "name": "account",
          "type": "address"
        },
        {
          "internalType": "uint256",
          "name": "role",
          "type": "uint256"
        }
      ],
      "name": "grantRole",
      "outputs": [
        {
          "internalType": "bool",
          "name": "",
          "type": "bool"
        }
      ],
      "stateMutability": "nonpayable",
      "type": "function"
    },
    {
      "inputs": [
        {
          "internalType": "address",
          "name": "account",
          "type": "address"
        },
        {
          "internalType": "uint256",
          "name": "role",
          "type": "uint256"
        }
      ],
      "name": "hasRole",
      "outputs": [
        {
          "internalType": "bool",
          "name": "",
          "type": "bool"
        }
      ],
      "stateMutability": "view",
      "type": "function"
    },
    {
      "inputs": [
        {
          "internalType": "address",
          "name": "owner",
          "type": "address"
        },
        {
          "internalType": "address",
          "name": "operator",
          "type": "address"
        }
      ],
      "name": "isApprovedForAll",
      "outputs": [
        {
          "internalType": "bool",
          "name": "",
          "type": "bool"
        }
      ],
      "stateMutability": "view",
      "type": "function"
    },
    {
      "inputs": [
        {
          "internalType": "uint256",
          "name": "assetId",
          "type": "uint256"
        },
        {
          "internalType": "address",
          "name": "owner",
          "type": "address"
        },
        {
          "internalType": "uint64",
          "name": "co2e",
          "type": "uint64"
        },
        {
          "internalType": "uint256",
          "name": "certId",
          "type": "uint256"
        },
        {
          "internalType": "string",
          "name": "metadata_",
          "type": "string"
        }
      ],
      "name": "issueAsset",
      "outputs": [
        {
          "internalType": "bool",
          "name": "",
          "type": "bool"
        }
      ],
      "stateMutability": "nonpayable",
      "type": "function"
    },
    {
      "inputs": [
        {
          "internalType": "uint256",
          "name": "certId",
          "type": "uint256"
        },
        {
          "internalType": "string",
          "name": "metadata_",
          "type": "string"
        }
      ],
      "name": "issueCertificate",
      "outputs": [
        {
          "internalType": "bool",
          "name": "",
          "type": "bool"
        }
      ],
      "stateMutability": "nonpayable",
      "type": "function"
    },
    {
      "inputs": [
        {
          "internalType": "uint256",
          "name": "moveId",
          "type": "uint256"
        },
        {
          "internalType": "uint64",
          "name": "co2e",
          "type": "uint64"
        },
        {
          "internalType": "uint256",
          "name": "certId",
          "type": "uint256"
        },
        {
          "internalType": "string",
          "name": "metadata_",
          "type": "string"
        }
      ],
      "name": "issueMovement",
      "outputs": [
        {
          "internalType": "bool",
          "name": "",
          "type": "bool"
        }
      ],
      "stateMutability": "nonpayable",
      "type": "function"
    },
    {
      "inputs": [
        {
          "internalType": "uint256",
          "name": "moveId",
          "type": "uint256"
        }
      ],
      "name": "movementCertificates",
      "outputs": [
        {
          "internalType": "uint256[]",
          "name": "",
          "type": "uint256[]"
        }
      ],
      "stateMutability": "view",
      "type": "function"
    },
    {
      "inputs": [
        {
          "internalType": "uint256",
          "name": "moveId",
          "type": "uint256"
        }
      ],
      "name": "movementInfo",
      "outputs": [
        {
          "internalType": "address",
          "name": "",
          "type": "address"
        },
        {
          "internalType": "uint64",
          "name": "",
          "type": "uint64"
        },
        {
          "internalType": "uint256",
          "name": "",
          "type": "uint256"
        },
        {
          "internalType": "string",
          "name": "",
          "type": "string"
        }
      ],
      "stateMutability": "view",
      "type": "function"
    },
    {
      "inputs": [],
      "name": "name",
      "outputs": [
        {
          "internalType": "string",
          "name": "",
          "type": "string"
        }
      ],
      "stateMutability": "view",
      "type": "function"
    },
    {
      "inputs": [
        {
          "internalType": "uint256",
          "name": "tokenId",
          "type": "uint256"
        }
      ],
      "name": "ownerOf",
      "outputs": [
        {
          "internalType": "address",
          "name": "",
          "type": "address"
        }
      ],
      "stateMutability": "view",
      "type": "function"
    },
    {
      "inputs": [],
      "name": "paused",
      "outputs": [
        {
          "internalType": "bool",
          "name": "",
          "type": "bool"
        }
      ],
      "stateMutability": "view",
      "type": "function"
    },
    {
      "inputs": [
        {
          "internalType": "address",
          "name": "agent",
          "type": "address"
        }
      ],
      "name": "removeAgent",
      "outputs": [
        {
          "internalType": "bool",
          "name": "",
          "type": "bool"
        }
      ],
      "stateMutability": "nonpayable",
      "type": "function"
    },
    {
      "inputs": [
        {
          "internalType": "address",
          "name": "account",
          "type": "address"
        },
        {
          "internalType": "uint256",
          "name": "role",
          "type": "uint256"
        }
      ],
      "name": "revokeRole",
      "outputs": [
        {
          "internalType": "bool",
          "name": "",
          "type": "bool"
        }
      ],
      "stateMutability": "nonpayable",
      "type": "function"
    },
    {
      "inputs": [
        {
          "internalType": "uint256",
          "name": "role",
          "type": "uint256"
        }
      ],
      "name": "roleInfo",
      "outputs": [
        {
          "internalType": "string",
          "name": "",
          "type": "string"
        }
      ],
      "stateMutability": "view",
      "type": "function"
    },
    {
      "inputs": [
        {
          "internalType": "address",
          "name": "from",
          "type": "address"
        },
        {
          "internalType": "address",
          "name": "to",
          "type": "address"
        },
        {
          "internalType": "uint256",
          "name": "tokenId",
          "type": "uint256"
        }
      ],
      "name": "safeTransferFrom",
      "outputs": [],
      "stateMutability": "nonpayable",
      "type": "function"
    },
    {
      "inputs": [
        {
          "internalType": "address",
          "name": "from",
          "type": "address"
        },
        {
          "internalType": "address",
          "name": "to",
          "type": "address"
        },
        {
          "internalType": "uint256",
          "name": "tokenId",
          "type": "uint256"
        },
        {
          "internalType": "bytes",
          "name": "_data",
          "type": "bytes"
        }
      ],
      "name": "safeTransferFrom",
      "outputs": [],
      "stateMutability": "nonpayable",
      "type": "function"
    },
    {
      "inputs": [
        {
          "internalType": "address",
          "name": "operator",
          "type": "address"
        },
        {
          "internalType": "bool",
          "name": "approved",
          "type": "bool"
        }
      ],
      "name": "setApprovalForAll",
      "outputs": [],
      "stateMutability": "nonpayable",
      "type": "function"
    },
    {
      "inputs": [
        {
          "internalType": "bytes4",
          "name": "interfaceId",
          "type": "bytes4"
        }
      ],
      "name": "supportsInterface",
      "outputs": [
        {
          "internalType": "bool",
          "name": "",
          "type": "bool"
        }
      ],
      "stateMutability": "view",
      "type": "function"
    },
    {
      "inputs": [],
      "name": "symbol",
      "outputs": [
        {
          "internalType": "string",
          "name": "",
          "type": "string"
        }
      ],
      "stateMutability": "view",
      "type": "function"
    },
    {
      "inputs": [
        {
          "internalType": "uint256",
          "name": "tokenId",
          "type": "uint256"
        }
      ],
      "name": "tokenURI",
      "outputs": [
        {
          "internalType": "string",
          "name": "",
          "type": "string"
        }
      ],
      "stateMutability": "view",
      "type": "function"
    },
    {
      "inputs": [
        {
          "internalType": "address",
          "name": "from",
          "type": "address"
        },
        {
          "internalType": "address",
          "name": "to",
          "type": "address"
        },
        {
          "internalType": "uint256",
          "name": "tokenId",
          "type": "uint256"
        }
      ],
      "name": "transferFrom",
      "outputs": [],
      "stateMutability": "nonpayable",
      "type": "function"
    }
  ],
  "bytecode": "0x6080604052600f8054610100600160c81b03191671080000000000000004000000000000000200179055601080546001600160801b0319166820000000000000001017905560118054731001bdc1076d31806222a2e826fb6819ffb3b8096001600160a01b03199091161790553480156200007957600080fd5b5060405162004a0538038062004a058339810160408190526200009c916200067e565b818183848060009080519060200190620000b892919062000525565b50508051620000cf90600490602084019062000525565b50508151620000e690600990602085019062000525565b508051620000fc90600a90602084019062000525565b5050600f805460ff191690819055604080516080810190915260438082526200013f93506101009092046001600160401b031691620049c2602083013962000379565b50600f546040805160808101909152604d8082526200017f92690100000000000000000090046001600160401b03169190620048f0602083013962000379565b50600f5460408051606081018252818152620001c3927101000000000000000000000000000000000090046001600160401b03169162004982602083013962000379565b5060105460408051608081019091526045808252620001f6926001600160401b031691906200493d602083013962000379565b506010546040805160808101909152604680825262000235926801000000000000000090046001600160401b03169190620048aa602083013962000379565b50620002843360115460408051808201909152601e81527f7b226e616d65223a224f726279632044656661756c742041646d696e227d000060208201526001600160a01b0390911690620003fc565b50601154600f54620002ae916001600160a01b03169061010090046001600160401b0316620004ba565b50601154600f54620002e0916001600160a01b031690690100000000000000000090046001600160401b0316620004ba565b50601154600f546200031a916001600160a01b0316907101000000000000000000000000000000000090046001600160401b0316620004ba565b506011546010546200033f916001600160a01b0316906001600160401b0316620004ba565b5060115460105462000370916001600160a01b0316906801000000000000000090046001600160401b0316620004ba565b5050506200076a565b604080518082018252838152602080820184815260008681526008835293842083518155905180519192620003b79260018501929091019062000525565b5050604080518581523360208201527f2e82a3308270f66933807098cf62441247b1de86244636b03b0565b2c3dbc62b9250015b60405180910390a150600192915050565b6001600160a01b0382166000908152600760209081526040822083516200042c9260029092019185019062000525565b506001600160a01b03848116600090815260056020526040902080546001600160a01b0319169185169190911790557fb61ddfe33d9ed54d8bdb62fe6fe16b84a72a4bae657baea7d2ae636fd1714b898484620004863390565b604080516001600160a01b039485168152928416602084015292168183015290519081900360600190a15060019392505050565b6001600160a01b03821660009081526007602052604081206001018054831790557f1ec1667fba5e43c5c76fff54e76d7a4a20a4fecf7b49724ad8d52a3f726e9dbd828433604080519384526001600160a01b039283166020850152911690820152606001620003eb565b8280546200053390620006e5565b90600052602060002090601f016020900481019282620005575760008555620005a2565b82601f106200057257805160ff1916838001178555620005a2565b82800160010185558215620005a2579182015b82811115620005a257825182559160200191906001019062000585565b50620005b0929150620005b4565b5090565b5b80821115620005b05760008155600101620005b5565b600082601f830112620005dc578081fd5b81516001600160401b0380821115620005f957620005f96200073b565b604051601f8301601f19908116603f011681019082821181831017156200062457620006246200073b565b8160405283815260209250868385880101111562000640578485fd5b8491505b8382101562000663578582018301518183018401529082019062000644565b838211156200067457848385830101525b9695505050505050565b6000806040838503121562000691578182fd5b82516001600160401b0380821115620006a8578384fd5b620006b686838701620005cb565b93506020850151915080821115620006cc578283fd5b50620006db85828601620005cb565b9150509250929050565b600181811c90821680620006fa57607f821691505b6020821081141562000735577f4e487b7100000000000000000000000000000000000000000000000000000000600052602260045260246000fd5b50919050565b7f4e487b7100000000000000000000000000000000000000000000000000000000600052604160045260246000fd5b614130806200077a6000396000f3fe608060405234801561001057600080fd5b506004361061027f5760003560e01c80637805862f1161015c578063b88d4fde116100ce578063d8f9ce2411610087578063d8f9ce2414610619578063e4eb771c14610633578063e842eafa14610646578063e985e9c514610659578063f17011c614610695578063f6863e83146106a857600080fd5b8063b88d4fde1461058c578063ba0a9f501461059f578063bad6a0ab146105c0578063c22d9980146105d3578063c87b56dd146105f3578063d1ac4d651461060657600080fd5b806397a6278e1161012057806397a6278e14610509578063a22cb4651461051c578063a7310b581461052f578063a879fcbb14610542578063aa2d16f114610566578063b77e76c21461057957600080fd5b80637805862f146104c05780638086b8ba146104c85780638fa07302146104db57806393123e0b146104ee57806395d89b411461050157600080fd5b806342842e0e116101f55780635ee3bc2a116101b95780635ee3bc2a146104465780636352211e146104595780636985a0221461046c57806370a0823114610474578063714eb8541461049557806375b238fc146104a857600080fd5b806342842e0e146103c95780634c40065e146103dc57806353dcbaaf146103ef5780635c975abb146104095780635c97f4a21461041457600080fd5b80630c816de4116102475780630c816de4146103145780632192bc2a1461032757806323b872dd1461034857806324c20a341461035b5780633586ed2f146103935780633c09e2fd146103b657600080fd5b806301ffc9a71461028457806306fdde03146102ac578063081812fc146102c15780630912ed77146102ec578063095ea7b3146102ff575b600080fd5b610297610292366004613832565b6106bb565b60405190151581526020015b60405180910390f35b6102b461070d565b6040516102a39190613d77565b6102d46102cf36600461386a565b61071c565b6040516001600160a01b0390911681526020016102a3565b6102976102fa3660046137ed565b6107b6565b61031261030d3660046137ed565b610826565b005b610297610322366004613a07565b61093c565b61033a61033536600461386a565b6109ee565b6040516102a3929190613cdd565b610312610356366004613704565b610b60565b600f5461037b90690100000000000000000090046001600160401b031681565b6040516001600160401b0390911681526020016102a3565b6103a66103a136600461386a565b610bd0565b6040516102a39493929190613c37565b6102976103c43660046137ed565b610cb1565b6103126103d7366004613704565b610cf7565b6102976103ea3660046138f1565b610d12565b60105461037b90600160401b90046001600160401b031681565b600f5460ff16610297565b6102976104223660046137ed565b6001600160a01b039190911660009081526007602052604090206001015416151590565b6102976104543660046136a9565b610d6f565b6102d461046736600461386a565b610e21565b610312610e98565b61048761048236600461365d565b610edc565b6040519081526020016102a3565b60105461037b906001600160401b031681565b600f5461037b9061010090046001600160401b031681565b610312610efa565b6102d46104d636600461365d565b610f3b565b6011546102d4906001600160a01b031681565b6102b46104fc36600461386a565b610fca565b6102b461106f565b61029761051736600461365d565b611101565b61031261052a3660046137b7565b611146565b6102b461053d36600461365d565b611155565b61055561055036600461386a565b61117f565b6040516102a3959493929190613bd1565b6102976105743660046138f1565b61126f565b610297610587366004613a7d565b6112cb565b61031261059a36600461373f565b611311565b6105b26105ad36600461386a565b611349565b6040516102a3929190613c13565b6102976105ce366004613935565b611406565b6105e66105e136600461386a565b611492565b6040516102a39190613cca565b6102b461060136600461386a565b6114fa565b6105e661061436600461386a565b6115fd565b600f5461037b90600160881b90046001600160401b031681565b6102976106413660046138f1565b611663565b610297610654366004613ab7565b6116e3565b610297610667366004613677565b6001600160a01b039182166000908152600e6020908152604080832093909416825291909152205460ff1690565b6102976106a3366004613882565b61175e565b6105e66106b636600461386a565b6117f0565b60006001600160e01b031982166380ac58cd60e01b14806106ec57506001600160e01b03198216635b5e139f60e01b145b8061070757506301ffc9a760e01b6001600160e01b03198316145b92915050565b6060610717611856565b905090565b6000818152600b60205260408120546001600160a01b031661079a5760405162461bcd60e51b815260206004820152602c60248201527f4552433732313a20617070726f76656420717565727920666f72206e6f6e657860448201526b34b9ba32b73a103a37b5b2b760a11b60648201526084015b60405180910390fd5b506000908152600d60205260409020546001600160a01b031690565b600f5460009061010090046001600160401b03166107f86107d633610f3b565b6001600160a01b03166000908152600760205260409020600101548216151590565b6108145760405162461bcd60e51b815260040161079190613f28565b61081e8484611865565b949350505050565b600061083182610e21565b9050806001600160a01b0316836001600160a01b0316141561089f5760405162461bcd60e51b815260206004820152602160248201527f4552433732313a20617070726f76616c20746f2063757272656e74206f776e656044820152603960f91b6064820152608401610791565b336001600160a01b03821614806108bb57506108bb8133610667565b61092d5760405162461bcd60e51b815260206004820152603860248201527f4552433732313a20617070726f76652063616c6c6572206973206e6f74206f7760448201527f6e6572206e6f7220617070726f76656420666f7220616c6c00000000000000006064820152608401610791565b6109378383611871565b505050565b6010546000906001600160401b03166109576107d633610f3b565b6109735760405162461bcd60e51b815260040161079190613f28565b600f5460ff16156109965760405162461bcd60e51b815260040161079190613e1e565b60006109a133610f3b565b90506109e4868287878080601f0160208091040260200160405190810160405280939291908181526020018383808284376000920191909152506118df92505050565b9695505050505050565b600081815260036020526040812060068101546060928392916001600160401b03811115610a2c57634e487b7160e01b600052604160045260246000fd5b604051908082528060200260200182016040528015610a55578160200160208202803683370190505b50905060005b6006830154811015610afd57826007016000846006018381548110610a9057634e487b7160e01b600052603260045260246000fd5b9060005260206000200154815260200190815260200160002060009054906101000a900461ffff16828281518110610ad857634e487b7160e01b600052603260045260246000fd5b61ffff9092166020928302919091019091015280610af581614065565b915050610a5b565b50816006018181805480602002602001604051908101604052809291908181526020018280548015610b4e57602002820191906000526020600020905b815481526020019060010190808311610b3a575b50505050509150935093505050915091565b600f5460ff1615610b835760405162461bcd60e51b815260040161079190613e1e565b6000610b8e84610f3b565b90506000610b9b84610f3b565b9050610ba88282856119be565b610bb3575050505050565b610bbe828285611cce565b610bc9828285611cd9565b5050505050565b600081815260016020819052604082209081015460028201546004830180548594859460609491936001600160a01b03821693600160a01b9092046001600160401b031692918190610c2190614030565b80601f0160208091040260200160405190810160405280929190818152602001828054610c4d90614030565b8015610c9a5780601f10610c6f57610100808354040283529160200191610c9a565b820191906000526020600020905b815481529060010190602001808311610c7d57829003601f168201915b505050505090509450945094509450509193509193565b600f5460009061010090046001600160401b0316610cd16107d633610f3b565b610ced5760405162461bcd60e51b815260040161079190613f28565b61081e8484611d0a565b61093783838360405180602001604052806000815250611311565b6000826000610d208261117f565b5050509150506000610d326104d63390565b9050816001600160a01b0316816001600160a01b031614610d655760405162461bcd60e51b815260040161079190613e91565b6109e48686611d16565b600f5460009061010090046001600160401b0316610d8f6107d633610f3b565b610dab5760405162461bcd60e51b815260040161079190613f28565b6001600160a01b038516600090815260066020526040902054859060ff1615610e165760405162461bcd60e51b815260206004820152601e60248201527f4552433432333a206167656e7420686173206265656e2072656d6f76656400006044820152606401610791565b6109e4868686611d22565b6000818152600b60205260408120546001600160a01b0316806107075760405162461bcd60e51b815260206004820152602960248201527f4552433732313a206f776e657220717565727920666f72206e6f6e657869737460448201526832b73a103a37b5b2b760b91b6064820152608401610791565b600f5461010090046001600160401b0316610eb56107d633610f3b565b610ed15760405162461bcd60e51b815260040161079190613f28565b610ed9611d2f565b50565b600080610ee883610f3b565b9050610ef381611da4565b9392505050565b600f5461010090046001600160401b0316610f176107d633610f3b565b610f335760405162461bcd60e51b815260040161079190613f28565b610ed9611e2b565b6001600160a01b038116600090815260066020526040812054829060ff1615610fa65760405162461bcd60e51b815260206004820152601e60248201527f4552433432333a206167656e7420686173206265656e2072656d6f76656400006044820152606401610791565b6001600160a01b038084166000908152600560205260409020541691505b50919050565b6000818152600860205260409020600101805460609190610fea90614030565b80601f016020809104026020016040519081016040528092919081815260200182805461101690614030565b80156110635780601f1061103857610100808354040283529160200191611063565b820191906000526020600020905b81548152906001019060200180831161104657829003601f168201915b50505050509050919050565b6060600a805461107e90614030565b80601f01602080910402602001604051908101604052809291908181526020018280546110aa90614030565b80156110f75780601f106110cc576101008083540402835291602001916110f7565b820191906000526020600020905b8154815290600101906020018083116110da57829003601f168201915b5050505050905090565b600f5460009061010090046001600160401b03166111216107d633610f3b565b61113d5760405162461bcd60e51b815260040161079190613f28565b610ef383611ea5565b611151338383611eb0565b5050565b6001600160a01b0381166000908152600760205260409020600201805460609190610fea90614030565b60008181526003602081905260408220600181015460028201549282015460088301805486958695869560609591946001600160a01b039182169491841693600160a01b90046001600160401b0316929181906111db90614030565b80601f016020809104026020016040519081016040528092919081815260200182805461120790614030565b80156112545780601f1061122957610100808354040283529160200191611254565b820191906000526020600020905b81548152906001019060200180831161123757829003601f168201915b50505050509050955095509550955095505091939590929450565b600082600061127d82610bd0565b5050509050600061128e6104d63390565b9050816001600160a01b0316816001600160a01b0316146112c15760405162461bcd60e51b815260040161079190613e91565b6109e48686611f7f565b600f5460009061010090046001600160401b03166112eb6107d633610f3b565b6113075760405162461bcd60e51b815260040161079190613f28565b61081e8484611f8b565b61131b3383611f97565b6113375760405162461bcd60e51b815260040161079190613ed7565b61134384848484611faf565b50505050565b60008181526002602081905260408220600181015491810180546060936001600160a01b03169190819061137c90614030565b80601f01602080910402602001604051908101604052809291908181526020018280546113a890614030565b80156113f55780601f106113ca576101008083540402835291602001916113f5565b820191906000526020600020905b8154815290600101906020018083116113d857829003601f168201915b505050505090509250925050915091565b60008360006114148261117f565b50505091505060006114266104d63390565b9050816001600160a01b0316816001600160a01b0316146114595760405162461bcd60e51b815260040161079190613e91565b600f5460ff161561147c5760405162461bcd60e51b815260040161079190613e1e565b611487878787611fe2565b979650505050505050565b60008181526003602090815260409182902060048101805484518185028101850190955280855260609492938301828280156114ed57602002820191906000526020600020905b8154815260200190600101908083116114d9575b5050505050915050919050565b6000818152600b60205260409020546060906001600160a01b03166115795760405162461bcd60e51b815260206004820152602f60248201527f4552433732314d657461646174613a2055524920717565727920666f72206e6f60448201526e3732bc34b9ba32b73a103a37b5b2b760891b6064820152608401610791565b60006115ac60408051808201909152601481527368747470733a2f2f6f726279632e636f6d2f232f60601b602082015290565b905060008151116115cc5760405180602001604052806000815250610ef3565b806115d684611fef565b6040516020016115e7929190613b6f565b6040516020818303038152906040529392505050565b60008181526001602090815260409182902060038101805484518185028101850190955280855260609492938301828280156114ed57602002820191906000526020600020908154815260200190600101908083116114d9575050505050915050919050565b60008260006116718261117f565b50505091505060006116836104d63390565b9050816001600160a01b0316816001600160a01b0316146116b65760405162461bcd60e51b815260040161079190613e91565b600f5460ff16156116d95760405162461bcd60e51b815260040161079190613e1e565b6109e48686612108565b601054600090600160401b90046001600160401b03166117056107d633610f3b565b6117215760405162461bcd60e51b815260040161079190613f28565b600f5460ff16156117445760405162461bcd60e51b815260040161079190613e1e565b600061174f33610f3b565b90506114878782888888612114565b600f54600090600160881b90046001600160401b03166117806107d633610f3b565b61179c5760405162461bcd60e51b815260040161079190613f28565b600f5460ff16156117bf5760405162461bcd60e51b815260040161079190613e1e565b60006117ca33610f3b565b90506117d68789612234565b6117e4888883898989612376565b98975050505050505050565b60008181526003602090815260409182902060058101805484518185028101850190955280855260609492938301828280156114ed57602002820191906000526020600020908154815260200190600101908083116114d9575050505050915050919050565b60606000805461107e90614030565b6000610ef383836124b5565b6000818152600d6020526040902080546001600160a01b0319166001600160a01b03841690811790915581906118a682610e21565b6001600160a01b03167f8c5be1e5ebec7d5bd14f71427d1e84f3dd0314c0f7b2291e5b200ac8c7c3b92560405160405180910390a45050565b60008381526002602052604081208054156119465760405162461bcd60e51b815260206004820152602160248201527f4572726f723a20636572746966696361746520616c72656164792065786973746044820152607360f81b6064820152608401610791565b8481556001810180546001600160a01b0319166001600160a01b038616179055825161197b90600283019060208601906134ac565b50805460405190815233907f0ac0bb5418edafe119eaae67d0ee0bc6f39a3efafc3305a56b617c171d0d835f9060200160405180910390a2506001949350505050565b6000806119ca8361252d565b604051631ed406b360e11b815290915073__$756bb61c413278bdc0c137c12dfa6aa297$__90633da80d6690611a069084908990600401613c6d565b60206040518083038186803b158015611a1e57600080fd5b505af4158015611a32573d6000803e3d6000fd5b505050506040513d601f19601f82011682018060405250810190611a569190613816565b611ab15760405162461bcd60e51b815260206004820152602660248201527f4572726f723a207369676e6572206e6f742076616c696420666f72207468697360448201526508185cdcd95d60d21b6064820152608401610791565b60008381526012602090815260408083206001600160a01b0389168452600281019092529091205460ff1615611b3a5760405162461bcd60e51b815260206004820152602860248201527f4572726f723a207369676e657220616c7265616479207369676e2074686973206044820152673a3930b739b332b960c11b6064820152608401610791565b60018101546001600160a01b03868116911614611be2576001810180546001600160a01b0319166001600160a01b03871617905583815560005b8251811015611be057816002016000848381518110611ba357634e487b7160e01b600052603260045260246000fd5b6020908102919091018101516001600160a01b03168252810191909152604001600020805460ff1916905580611bd881614065565b915050611b74565b505b6001600160a01b03861660009081526002820160205260408120805460ff191660011790555b8251811015611cc157816002016000848381518110611c3757634e487b7160e01b600052603260045260246000fd5b6020908102919091018101516001600160a01b031682528101919091526040016000205460ff16611caf5784866001600160a01b0316886001600160a01b03167f45daca243d56fe35e7e5efbf15f8ecd64486be00404d4d2d84aa6c710312767360405160405180910390a460009350505050610ef3565b80611cb981614065565b915050611c08565b5060019695505050505050565b61093783838361261b565b611ce33382611f97565b611cff5760405162461bcd60e51b815260040161079190613ed7565b6109378383836126eb565b6000610ef3838361288b565b6000610ef383836128d5565b600061081e848484612ad6565b600f5460ff1615611d525760405162461bcd60e51b815260040161079190613e1e565b600f805460ff191660011790557f62e78cea01bee320cd4e420270b5ea74000d11b0c9f74754ebdbfc544b05a258611d873390565b6040516001600160a01b03909116815260200160405180910390a1565b60006001600160a01b038216611e0f5760405162461bcd60e51b815260206004820152602a60248201527f4552433732313a2062616c616e636520717565727920666f7220746865207a65604482015269726f206164647265737360b01b6064820152608401610791565b506001600160a01b03166000908152600c602052604090205490565b600f5460ff16611e745760405162461bcd60e51b815260206004820152601460248201527314185d5cd8589b194e881b9bdd081c185d5cd95960621b6044820152606401610791565b600f805460ff191690557f5db9ee0a495bf2e6ff9c91a7834c1ba4fdd244a5e8aa4e537bd38aeae4b073aa33611d87565b600061070782612b7d565b816001600160a01b0316836001600160a01b03161415611f125760405162461bcd60e51b815260206004820152601960248201527f4552433732313a20617070726f766520746f2063616c6c6572000000000000006044820152606401610791565b6001600160a01b038381166000818152600e6020908152604080832094871680845294825291829020805460ff191686151590811790915591519182527f17307eab39ab6107e8899845ad3d59bd9653f200f220920489ca2b5937696c31910160405180910390a3505050565b6000610ef38383612bf4565b6000610ef38383612dea565b600080611fa384610f3b565b905061081e8184612e70565b611fba8484846126eb565b611fc684848484612f63565b6113435760405162461bcd60e51b815260040161079190613d8a565b600061081e848484613065565b6060816120135750506040805180820190915260018152600360fc1b602082015290565b8160005b811561203d578061202781614065565b91506120369050600a83613fd9565b9150612017565b6000816001600160401b0381111561206557634e487b7160e01b600052604160045260246000fd5b6040519080825280601f01601f19166020018201604052801561208f576020820181803683370190505b5090505b841561081e576120a4600183613fed565b91506120b1600a86614080565b6120bc906030613fc1565b60f81b8183815181106120df57634e487b7160e01b600052603260045260246000fd5b60200101906001600160f81b031916908160001a905350612101600a86613fd9565b9450612093565b6000610ef38383613277565b60008581526001602052604081208054156121715760405162461bcd60e51b815260206004820152601e60248201527f4572726f723a206d6f76656d656e7420616c72656164792065786973747300006044820152606401610791565b60008481526002602052604090208054851461219f5760405162461bcd60e51b815260040161079190613ddc565b8782556001820180546001600160401b038816600160a01b026001600160e01b03199091166001600160a01b038a16171790558054600283015583516121ee90600484019060208701906134ac565b50815460405190815233907f741b29ae377b3381e554e394b7d2e2fefb4db0c40f73b9e0ac4cd843ef56171d9060200160405180910390a2506001979650505050505050565b6001600160a01b03821661228a5760405162461bcd60e51b815260206004820181905260248201527f4552433732313a206d696e7420746f20746865207a65726f20616464726573736044820152606401610791565b6000818152600b60205260409020546001600160a01b0316156122ef5760405162461bcd60e51b815260206004820152601c60248201527f4552433732313a20746f6b656e20616c7265616479206d696e746564000000006044820152606401610791565b6001600160a01b0382166000908152600c60205260408120805460019290612318908490613fc1565b90915550506000818152600b602052604080822080546001600160a01b0319166001600160a01b03861690811790915590518392907fddf252ad1be2c89b69c2b068fc378daa952ba7f163c4a11628f55a4df523b3ef908290a45050565b60008681526003602052604081208054156123d35760405162461bcd60e51b815260206004820152601b60248201527f4572726f723a20617373657420616c72656164792065786973747300000000006044820152606401610791565b6000848152600260205260409020805485146124015760405162461bcd60e51b815260040161079190613ddc565b8882556001820180546001600160a01b0319166001600160a01b038a8116919091179091556002830180549189166001600160e01b031990921691909117600160a01b6001600160401b0389160217905580546003830155835161246e90600884019060208701906134ac565b50815460405190815233907ff37f680ac83ec9f2a328ebff310dfe6d49043380dcb563e89ef4ca09eaa38d519060200160405180910390a250600198975050505050505050565b6001600160a01b03821660009081526007602052604081206001018054831890557fe0df21b65c73c27081b8f042a012b124085b41d78d27b7e3c4780f5650f5ebb88284335b604080519384526001600160a01b0392831660208501529116908201526060015b60405180910390a150600192915050565b606060008061253b8461117f565b50505091509150600060026001600160401b0381111561256b57634e487b7160e01b600052604160045260246000fd5b604051908082528060200260200182016040528015612594578160200160208202803683370190505b50905082816000815181106125b957634e487b7160e01b600052603260045260246000fd5b60200260200101906001600160a01b031690816001600160a01b03168152505081816001815181106125fb57634e487b7160e01b600052603260045260246000fd5b6001600160a01b0390921660209283029190910190910152949350505050565b600081815260036020526040902060018101546001600160a01b038581169116146126965760405162461bcd60e51b815260206004820152602560248201527f4552433234353a2073656e646572206973206e6f74207468652061737365742060448201526437bbb732b960d91b6064820152608401610791565b6001810180546001600160a01b0319166001600160a01b0385811691821790925560405184928716907f428ab6cd67836d0fe93626e98108a1a2593b0bc06a1a87b59e437a17cbaf430c90600090a450505050565b826001600160a01b03166126fe82610e21565b6001600160a01b0316146127665760405162461bcd60e51b815260206004820152602960248201527f4552433732313a207472616e73666572206f6620746f6b656e2074686174206960448201526839903737ba1037bbb760b91b6064820152608401610791565b6001600160a01b0382166127c85760405162461bcd60e51b8152602060048201526024808201527f4552433732313a207472616e7366657220746f20746865207a65726f206164646044820152637265737360e01b6064820152608401610791565b6127d3600082611871565b6001600160a01b0383166000908152600c602052604081208054600192906127fc908490613fed565b90915550506001600160a01b0382166000908152600c6020526040812080546001929061282a908490613fc1565b90915550506000818152600b602052604080822080546001600160a01b0319166001600160a01b0386811691821790925591518493918716917fddf252ad1be2c89b69c2b068fc378daa952ba7f163c4a11628f55a4df523b3ef91a4505050565b6001600160a01b03821660009081526007602052604081206001018054831790557f1ec1667fba5e43c5c76fff54e76d7a4a20a4fecf7b49724ad8d52a3f726e9dbd8284336124fb565b6000828152600360205260408120815b8351811015612acb5773__$756bb61c413278bdc0c137c12dfa6aa297$__63b32b8e2c8360040186848151811061292c57634e487b7160e01b600052603260045260246000fd5b60200260200101516040518363ffffffff1660e01b8152600401612951929190613d2a565b60206040518083038186803b15801561296957600080fd5b505af415801561297d573d6000803e3d6000fd5b505050506040513d601f19601f820116820180604052508101906129a19190613816565b156129ee5760405162461bcd60e51b815260206004820181905260248201527f4572726f723a20636572746966696361746520616c72656164792061646465646044820152606401610791565b600060026000868481518110612a1457634e487b7160e01b600052603260045260246000fd5b602002602001015181526020019081526020016000209050806000015460001415612a515760405162461bcd60e51b815260040161079190613e48565b805460048401805460018101825560009182526020909120015580547f4fc952580cfc5ff048a6b9111d8facdf029038c2a88b0ea0c42da67a1a5e00d19087336040805193845260208401929092526001600160a01b03169082015260600160405180910390a15080612ac381614065565b9150506128e5565b506001949350505050565b6001600160a01b038216600090815260076020908152604082208351612b04926002909201918501906134ac565b506001600160a01b0384811660008181526005602090815260409182902080549488166001600160a01b0319909516851790558151928352820192909252338183015290517fb61ddfe33d9ed54d8bdb62fe6fe16b84a72a4bae657baea7d2ae636fd1714b899181900360600190a15060019392505050565b6001600160a01b0381166000908152600660205260408120805460ff191660011790557f4ce8b3fe8e0bf47a6fefbecdfd7c799755cede6061655521b10fc2e4b1fcc6b382612bc93390565b604080516001600160a01b0393841681529290911660208301520160405180910390a1506001919050565b6000828152600160205260408120815b8351811015612acb5773__$756bb61c413278bdc0c137c12dfa6aa297$__63b32b8e2c83600301868481518110612c4b57634e487b7160e01b600052603260045260246000fd5b60200260200101516040518363ffffffff1660e01b8152600401612c70929190613d2a565b60206040518083038186803b158015612c8857600080fd5b505af4158015612c9c573d6000803e3d6000fd5b505050506040513d601f19601f82011682018060405250810190612cc09190613816565b15612d0d5760405162461bcd60e51b815260206004820181905260248201527f4572726f723a20636572746966696361746520616c72656164792061646465646044820152606401610791565b600060026000868481518110612d3357634e487b7160e01b600052603260045260246000fd5b602002602001015181526020019081526020016000209050806000015460001415612d705760405162461bcd60e51b815260040161079190613e48565b805460038401805460018101825560009182526020909120015580547fb8730f75259bf8d0baccdacc5bc1580e45d23db9e5a88f49ba8bc829c14f64f89087336040805193845260208401929092526001600160a01b03169082015260600160405180910390a15080612de281614065565b915050612c04565b604080518082018252838152602080820184815260008681526008835293842083518155905180519192612e26926001850192909101906134ac565b509050507f2e82a3308270f66933807098cf62441247b1de86244636b03b0565b2c3dbc62b83612e533390565b604080519283526001600160a01b0390911660208301520161251c565b6000818152600b60205260408120546001600160a01b0316612ee95760405162461bcd60e51b815260206004820152602c60248201527f4552433732313a206f70657261746f7220717565727920666f72206e6f6e657860448201526b34b9ba32b73a103a37b5b2b760a11b6064820152608401610791565b6000612ef483610e21565b9050806001600160a01b0316846001600160a01b03161480612f2f5750836001600160a01b0316612f248461071c565b6001600160a01b0316145b8061081e57506001600160a01b038082166000908152600e602090815260408083209388168352929052205460ff1661081e565b60006001600160a01b0384163b15612acb57604051630a85bd0160e11b81526001600160a01b0385169063150b7a0290612fa7903390899088908890600401613b9e565b602060405180830381600087803b158015612fc157600080fd5b505af1925050508015612ff1575060408051601f3d908101601f19168201909252612fee9181019061384e565b60015b61304b573d80801561301f576040519150601f19603f3d011682016040523d82523d6000602084013e613024565b606091505b5080516130435760405162461bcd60e51b815260040161079190613d8a565b805181602001fd5b6001600160e01b031916630a85bd0160e11b14905061081e565b6000838152600360205260408120815b845181101561326b578160070160008683815181106130a457634e487b7160e01b600052603260045260246000fd5b60209081029190910181015182528101919091526040016000205461ffff16156131105760405162461bcd60e51b815260206004820152601d60248201527f4572726f723a20706172656e7420616c72656164792070726573656e740000006044820152606401610791565b60006003600087848151811061313657634e487b7160e01b600052603260045260246000fd5b6020026020010151815260200190815260200160002090508060000154600014156131af5760405162461bcd60e51b815260206004820152602360248201527f4572726f723a2063616e206e6f742061646420696e6578697374656e742061736044820152621cd95d60ea1b6064820152608401610791565b8482815181106131cf57634e487b7160e01b600052603260045260246000fd5b602090810291909101810151825460009081526007860183526040808220805461ffff191661ffff9094169390931790925583546006870180546001810182559083529184902090910155825481519081529182018990523382820152517f4154f07b27a742714e27b3894179c9cb5aba0e2a7fa26cb0f7513abecf1b051b916060908290030190a1508061326381614065565b915050613075565b50600195945050505050565b6000828152600360205260408120815b8351811015612acb5773__$756bb61c413278bdc0c137c12dfa6aa297$__63b32b8e2c836005018684815181106132ce57634e487b7160e01b600052603260045260246000fd5b60200260200101516040518363ffffffff1660e01b81526004016132f3929190613d2a565b60206040518083038186803b15801561330b57600080fd5b505af415801561331f573d6000803e3d6000fd5b505050506040513d601f19601f820116820180604052508101906133439190613816565b156133905760405162461bcd60e51b815260206004820152601d60248201527f4572726f723a206d6f76656d656e7420616c72656164792061646465640000006044820152606401610791565b6000600160008684815181106133b657634e487b7160e01b600052603260045260246000fd5b6020026020010151815260200190815260200160002090508060000154600014156134325760405162461bcd60e51b815260206004820152602660248201527f4572726f723a2063616e206e6f742061646420696e6578697374656e74206d6f6044820152651d995b595b9d60d21b6064820152608401610791565b805460058401805460018101825560009182526020909120015580547f1fb5e37b2fee9c771f5a7ac82a15698c9f978e0e6cef7ac48ceb8b9792caaf169087336040805193845260208401929092526001600160a01b03169082015260600160405180910390a150806134a481614065565b915050613287565b8280546134b890614030565b90600052602060002090601f0160209004810192826134da5760008555613520565b82601f106134f357805160ff1916838001178555613520565b82800160010185558215613520579182015b82811115613520578251825591602001919060010190613505565b5061352c929150613530565b5090565b5b8082111561352c5760008155600101613531565b60006001600160401b0383111561355e5761355e6140c0565b613571601f8401601f1916602001613f6e565b905082815283838301111561358557600080fd5b828260208301376000602084830101529392505050565b80356001600160a01b03811681146135b357600080fd5b919050565b600082601f8301126135c8578081fd5b813560206135dd6135d883613f9e565b613f6e565b80838252828201915082860187848660051b89010111156135fc578586fd5b855b8581101561361a578135845292840192908401906001016135fe565b5090979650505050505050565b600082601f830112613637578081fd5b610ef383833560208501613545565b80356001600160401b03811681146135b357600080fd5b60006020828403121561366e578081fd5b610ef38261359c565b60008060408385031215613689578081fd5b6136928361359c565b91506136a06020840161359c565b90509250929050565b6000806000606084860312156136bd578081fd5b6136c68461359c565b92506136d46020850161359c565b915060408401356001600160401b038111156136ee578182fd5b6136fa86828701613627565b9150509250925092565b600080600060608486031215613718578283fd5b6137218461359c565b925061372f6020850161359c565b9150604084013590509250925092565b60008060008060808587031215613754578081fd5b61375d8561359c565b935061376b6020860161359c565b92506040850135915060608501356001600160401b0381111561378c578182fd5b8501601f8101871361379c578182fd5b6137ab87823560208401613545565b91505092959194509250565b600080604083850312156137c9578182fd5b6137d28361359c565b915060208301356137e2816140d6565b809150509250929050565b600080604083850312156137ff578081fd5b6138088361359c565b946020939093013593505050565b600060208284031215613827578081fd5b8151610ef3816140d6565b600060208284031215613843578081fd5b8135610ef3816140e4565b60006020828403121561385f578081fd5b8151610ef3816140e4565b60006020828403121561387b578081fd5b5035919050565b600080600080600060a08688031215613899578283fd5b853594506138a96020870161359c565b93506138b760408701613646565b92506060860135915060808601356001600160401b038111156138d8578182fd5b6138e488828901613627565b9150509295509295909350565b60008060408385031215613903578182fd5b8235915060208301356001600160401b0381111561391f578182fd5b61392b858286016135b8565b9150509250929050565b600080600060608486031215613949578081fd5b833592506020808501356001600160401b0380821115613967578384fd5b613973888389016135b8565b94506040870135915080821115613988578384fd5b508501601f81018713613999578283fd5b80356139a76135d882613f9e565b8082825284820191508484018a868560051b87010111156139c6578687fd5b8694505b838510156139f757803561ffff811681146139e3578788fd5b8352600194909401939185019185016139ca565b5080955050505050509250925092565b600080600060408486031215613a1b578081fd5b8335925060208401356001600160401b0380821115613a38578283fd5b818601915086601f830112613a4b578283fd5b813581811115613a59578384fd5b876020828501011115613a6a578384fd5b6020830194508093505050509250925092565b60008060408385031215613a8f578182fd5b8235915060208301356001600160401b03811115613aab578182fd5b61392b85828601613627565b60008060008060808587031215613acc578182fd5b84359350613adc60208601613646565b92506040850135915060608501356001600160401b03811115613afd578182fd5b6137ab87828801613627565b6000815180845260208085019450808401835b83811015613b3857815187529582019590820190600101613b1c565b509495945050505050565b60008151808452613b5b816020860160208601614004565b601f01601f19169290920160200192915050565b60008351613b81818460208801614004565b835190830190613b95818360208801614004565b01949350505050565b6001600160a01b03858116825284166020820152604081018390526080606082018190526000906109e490830184613b43565b6001600160a01b038681168252851660208201526001600160401b03841660408201526060810183905260a06080820181905260009061148790830184613b43565b6001600160a01b038316815260406020820181905260009061081e90830184613b43565b60018060a01b03851681526001600160401b03841660208201528260408201526080606082015260006109e46080830184613b43565b604080825283519082018190526000906020906060840190828701845b82811015613caf5781516001600160a01b031684529284019290840190600101613c8a565b5050506001600160a01b039490941692019190915250919050565b602081526000610ef36020830184613b09565b604081526000613cf06040830185613b09565b828103602084810191909152845180835285820192820190845b8181101561361a57845161ffff1683529383019391830191600101613d0a565b6000604082016040835280855480835260608501915086845260209250828420845b82811015613d6857815484529284019260019182019101613d4c565b50505092019290925292915050565b602081526000610ef36020830184613b43565b60208082526032908201527f4552433732313a207472616e7366657220746f206e6f6e20455243373231526560408201527131b2b4bb32b91034b6b83632b6b2b73a32b960711b606082015260800190565b60208082526022908201527f4572726f723a20636572746966696361746520646f6573206e6f742065786973604082015261747360f01b606082015260800190565b60208082526010908201526f14185d5cd8589b194e881c185d5cd95960821b604082015260600190565b60208082526029908201527f4572726f723a2063616e206e6f742061646420696e6578697374656e7420636560408201526872746966696361746560b81b606082015260800190565b60208082526026908201527f4572726f723a206163636f756e74206973206e6f74207468652061737365742060408201526534b9b9bab2b960d11b606082015260800190565b60208082526031908201527f4552433732313a207472616e736665722063616c6c6572206973206e6f74206f6040820152701ddb995c881b9bdc88185c1c1c9bdd9959607a1b606082015260800190565b60208082526026908201527f4572726f723a206167656e7420686173206e6f742074686520726571756972656040820152656420726f6c6560d01b606082015260800190565b604051601f8201601f191681016001600160401b0381118282101715613f9657613f966140c0565b604052919050565b60006001600160401b03821115613fb757613fb76140c0565b5060051b60200190565b60008219821115613fd457613fd4614094565b500190565b600082613fe857613fe86140aa565b500490565b600082821015613fff57613fff614094565b500390565b60005b8381101561401f578181015183820152602001614007565b838111156113435750506000910152565b600181811c9082168061404457607f821691505b60208210811415610fc457634e487b7160e01b600052602260045260246000fd5b600060001982141561407957614079614094565b5060010190565b60008261408f5761408f6140aa565b500690565b634e487b7160e01b600052601160045260246000fd5b634e487b7160e01b600052601260045260246000fd5b634e487b7160e01b600052604160045260246000fd5b8015158114610ed957600080fd5b6001600160e01b031981168114610ed957600080fdfea26469706673582212201106c632722ee1b4bb72e0944ae8a58fa377875f8c7e8bfcb0520123b9e6601c64736f6c634300080400337b226e616d65223a224d4f56454d454e545f495353554552222c20226465736372697074696f6e223a22616c6c6f77656420746f206973737565206d6f76656d656e7473227d7b226e616d65223a2250524f5649444552222c20226465736372697074696f6e223a22616c6c6f77656420746f206973737565206167656e7473207769746820636c69656e7420726f6c65227d7b226e616d65223a22434552545f495353554552222c20226465736372697074696f6e223a22616c6c6f77656420746f20697373756520636572746966696361746573227d7b226e616d65223a2241535345545f495353554552222c20226465736372697074696f6e223a22616c6c6f77656420746f20697373756520617373657473227d7b226e616d65223a2241444d494e222c20226465736372697074696f6e223a22616c6c6f77656420746f20697373756520616e642061737369676e20726f6c6573227d",
  "linkReferences": {
    "contracts/utils/Collections.sol": {
      "Array": [
        {
          "length": 20,
          "start": 8534
        },
        {
          "length": 20,
          "start": 12394
        },
        {
          "length": 20,
          "start": 13193
        },
        {
          "length": 20,
          "start": 14860
        }
      ]
    }
  },
  "deployedLinkReferences": {
    "contracts/utils/Collections.sol": {
      "Array": [
        {
          "length": 20,
          "start": 6620
        },
        {
          "length": 20,
          "start": 10480
        },
        {
          "length": 20,
          "start": 11279
        },
        {
          "length": 20,
          "start": 12946
        }
      ]
    }
  }
}