{
  "_format": "hh-sol-artifact-1",
  "contractName": "SupplyChain",
  "sourceName": "contracts/orbyc/SupplyChain.sol",
  "abi": [
    {
      "inputs": [
        {
          "internalType": "string",
          "name": "name_",
          "type": "string"
        },
        {
          "internalType": "string",
          "name": "symbol_",
          "type": "string"
        }
      ],
      "stateMutability": "nonpayable",
      "type": "constructor"
    },
    {
      "anonymous": false,
      "inputs": [
        {
          "indexed": false,
          "internalType": "address",
          "name": "agent",
          "type": "address"
        },
        {
          "indexed": false,
          "internalType": "address",
          "name": "account",
          "type": "address"
        },
        {
          "indexed": false,
          "internalType": "address",
          "name": "issuer",
          "type": "address"
        }
      ],
      "name": "AgentDefined",
      "type": "event"
    },
    {
      "anonymous": false,
      "inputs": [
        {
          "indexed": false,
          "internalType": "address",
          "name": "agent",
          "type": "address"
        },
        {
          "indexed": false,
          "internalType": "address",
          "name": "issuer",
          "type": "address"
        }
      ],
      "name": "AgentRemoved",
      "type": "event"
    },
    {
      "anonymous": false,
      "inputs": [
        {
          "indexed": true,
          "internalType": "address",
          "name": "owner",
          "type": "address"
        },
        {
          "indexed": true,
          "internalType": "address",
          "name": "approved",
          "type": "address"
        },
        {
          "indexed": true,
          "internalType": "uint256",
          "name": "tokenId",
          "type": "uint256"
        }
      ],
      "name": "Approval",
      "type": "event"
    },
    {
      "anonymous": false,
      "inputs": [
        {
          "indexed": true,
          "internalType": "address",
          "name": "owner",
          "type": "address"
        },
        {
          "indexed": true,
          "internalType": "address",
          "name": "operator",
          "type": "address"
        },
        {
          "indexed": false,
          "internalType": "bool",
          "name": "approved",
          "type": "bool"
        }
      ],
      "name": "ApprovalForAll",
      "type": "event"
    },
    {
      "anonymous": false,
      "inputs": [
        {
          "indexed": false,
          "internalType": "uint256",
          "name": "assetId",
          "type": "uint256"
        },
        {
          "indexed": false,
          "internalType": "address",
          "name": "signer",
          "type": "address"
        }
      ],
      "name": "AssetIssued",
      "type": "event"
    },
    {
      "anonymous": false,
      "inputs": [
        {
          "indexed": false,
          "internalType": "uint256",
          "name": "certId",
          "type": "uint256"
        },
        {
          "indexed": false,
          "internalType": "address",
          "name": "signer",
          "type": "address"
        }
      ],
      "name": "CertIssued",
      "type": "event"
    },
    {
      "anonymous": false,
      "inputs": [
        {
          "indexed": false,
          "internalType": "uint256",
          "name": "certId",
          "type": "uint256"
        },
        {
          "indexed": false,
          "internalType": "uint256",
          "name": "assetId",
          "type": "uint256"
        },
        {
          "indexed": false,
          "internalType": "address",
          "name": "signer",
          "type": "address"
        }
      ],
      "name": "CertificateAssigned",
      "type": "event"
    },
    {
      "anonymous": false,
      "inputs": [
        {
          "indexed": false,
          "internalType": "uint256",
          "name": "moveId",
          "type": "uint256"
        },
        {
          "indexed": false,
          "internalType": "uint256",
          "name": "assetId",
          "type": "uint256"
        },
        {
          "indexed": false,
          "internalType": "address",
          "name": "signer",
          "type": "address"
        }
      ],
      "name": "MovementAssigned",
      "type": "event"
    },
    {
      "anonymous": false,
      "inputs": [
        {
          "indexed": false,
          "internalType": "uint256",
          "name": "moveId",
          "type": "uint256"
        },
        {
          "indexed": false,
          "internalType": "address",
          "name": "signer",
          "type": "address"
        }
      ],
      "name": "MovementIssued",
      "type": "event"
    },
    {
      "anonymous": false,
      "inputs": [
        {
          "indexed": false,
          "internalType": "uint256",
          "name": "parentId",
          "type": "uint256"
        },
        {
          "indexed": false,
          "internalType": "uint256",
          "name": "assetId",
          "type": "uint256"
        },
        {
          "indexed": false,
          "internalType": "address",
          "name": "signer",
          "type": "address"
        }
      ],
      "name": "ParentAssigned",
      "type": "event"
    },
    {
      "anonymous": false,
      "inputs": [
        {
          "indexed": false,
          "internalType": "address",
          "name": "account",
          "type": "address"
        }
      ],
      "name": "Paused",
      "type": "event"
    },
    {
      "anonymous": false,
      "inputs": [
        {
          "indexed": false,
          "internalType": "uint256",
          "name": "role",
          "type": "uint256"
        },
        {
          "indexed": false,
          "internalType": "address",
          "name": "issuer",
          "type": "address"
        }
      ],
      "name": "RoleDefined",
      "type": "event"
    },
    {
      "anonymous": false,
      "inputs": [
        {
          "indexed": false,
          "internalType": "uint256",
          "name": "role",
          "type": "uint256"
        },
        {
          "indexed": false,
          "internalType": "address",
          "name": "account",
          "type": "address"
        },
        {
          "indexed": false,
          "internalType": "address",
          "name": "issuer",
          "type": "address"
        }
      ],
      "name": "RoleGranted",
      "type": "event"
    },
    {
      "anonymous": false,
      "inputs": [
        {
          "indexed": false,
          "internalType": "uint256",
          "name": "role",
          "type": "uint256"
        },
        {
          "indexed": false,
          "internalType": "address",
          "name": "account",
          "type": "address"
        },
        {
          "indexed": false,
          "internalType": "address",
          "name": "issuer",
          "type": "address"
        }
      ],
      "name": "RoleRevoked",
      "type": "event"
    },
    {
      "anonymous": false,
      "inputs": [
        {
          "indexed": true,
          "internalType": "address",
          "name": "from",
          "type": "address"
        },
        {
          "indexed": true,
          "internalType": "address",
          "name": "to",
          "type": "address"
        },
        {
          "indexed": true,
          "internalType": "uint256",
          "name": "tokenId",
          "type": "uint256"
        }
      ],
      "name": "SignatureReceived",
      "type": "event"
    },
    {
      "anonymous": false,
      "inputs": [
        {
          "indexed": true,
          "internalType": "address",
          "name": "from",
          "type": "address"
        },
        {
          "indexed": true,
          "internalType": "address",
          "name": "to",
          "type": "address"
        },
        {
          "indexed": true,
          "internalType": "uint256",
          "name": "tokenId",
          "type": "uint256"
        }
      ],
      "name": "Transfer",
      "type": "event"
    },
    {
      "anonymous": false,
      "inputs": [
        {
          "indexed": true,
          "internalType": "address",
          "name": "from",
          "type": "address"
        },
        {
          "indexed": true,
          "internalType": "address",
          "name": "to",
          "type": "address"
        },
        {
          "indexed": true,
          "internalType": "uint256",
          "name": "assetId",
          "type": "uint256"
        }
      ],
      "name": "TransferAsset",
      "type": "event"
    },
    {
      "anonymous": false,
      "inputs": [
        {
          "indexed": false,
          "internalType": "address",
          "name": "account",
          "type": "address"
        }
      ],
      "name": "Unpaused",
      "type": "event"
    },
    {
      "inputs": [],
      "name": "ADMIN_ROLE",
      "outputs": [
        {
          "internalType": "uint64",
          "name": "",
          "type": "uint64"
        }
      ],
      "stateMutability": "view",
      "type": "function"
    },
    {
      "inputs": [],
      "name": "ASSET_ISSUER_ROLE",
      "outputs": [
        {
          "internalType": "uint64",
          "name": "",
          "type": "uint64"
        }
      ],
      "stateMutability": "view",
      "type": "function"
    },
    {
      "inputs": [],
      "name": "CERT_ISSUER_ROLE",
      "outputs": [
        {
          "internalType": "uint64",
          "name": "",
          "type": "uint64"
        }
      ],
      "stateMutability": "view",
      "type": "function"
    },
    {
      "inputs": [],
      "name": "MOVEMENT_ISSUER_ROLE",
      "outputs": [
        {
          "internalType": "uint64",
          "name": "",
          "type": "uint64"
        }
      ],
      "stateMutability": "view",
      "type": "function"
    },
    {
      "inputs": [],
      "name": "ORBYC_ACCOUNT",
      "outputs": [
        {
          "internalType": "address",
          "name": "",
          "type": "address"
        }
      ],
      "stateMutability": "view",
      "type": "function"
    },
    {
      "inputs": [],
      "name": "PROVIDER_ROLE",
      "outputs": [
        {
          "internalType": "uint64",
          "name": "",
          "type": "uint64"
        }
      ],
      "stateMutability": "view",
      "type": "function"
    },
    {
      "inputs": [],
      "name": "Pause",
      "outputs": [],
      "stateMutability": "nonpayable",
      "type": "function"
    },
    {
      "inputs": [],
      "name": "Unpause",
      "outputs": [],
      "stateMutability": "nonpayable",
      "type": "function"
    },
    {
      "inputs": [
        {
          "internalType": "address",
          "name": "account",
          "type": "address"
        }
      ],
      "name": "accountInfo",
      "outputs": [
        {
          "internalType": "string",
          "name": "",
          "type": "string"
        }
      ],
      "stateMutability": "view",
      "type": "function"
    },
    {
      "inputs": [
        {
          "internalType": "address",
          "name": "agent",
          "type": "address"
        }
      ],
      "name": "accountOf",
      "outputs": [
        {
          "internalType": "address",
          "name": "",
          "type": "address"
        }
      ],
      "stateMutability": "view",
      "type": "function"
    },
    {
      "inputs": [
        {
          "internalType": "uint256",
          "name": "assetId",
          "type": "uint256"
        },
        {
          "internalType": "uint256[]",
          "name": "certificates",
          "type": "uint256[]"
        }
      ],
      "name": "addCertificates",
      "outputs": [
        {
          "internalType": "bool",
          "name": "",
          "type": "bool"
        }
      ],
      "stateMutability": "nonpayable",
      "type": "function"
    },
    {
      "inputs": [
        {
          "internalType": "uint256",
          "name": "assetId",
          "type": "uint256"
        },
        {
          "internalType": "uint256[]",
          "name": "movements",
          "type": "uint256[]"
        }
      ],
      "name": "addMovements",
      "outputs": [
        {
          "internalType": "bool",
          "name": "",
          "type": "bool"
        }
      ],
      "stateMutability": "nonpayable",
      "type": "function"
    },
    {
      "inputs": [
        {
          "internalType": "uint256",
          "name": "assetId",
          "type": "uint256"
        },
        {
          "internalType": "uint256[]",
          "name": "parents",
          "type": "uint256[]"
        },
        {
          "internalType": "uint16[]",
          "name": "composition",
          "type": "uint16[]"
        }
      ],
      "name": "addParents",
      "outputs": [
        {
          "internalType": "bool",
          "name": "",
          "type": "bool"
        }
      ],
      "stateMutability": "nonpayable",
      "type": "function"
    },
    {
      "inputs": [
        {
          "internalType": "address",
          "name": "to",
          "type": "address"
        },
        {
          "internalType": "uint256",
          "name": "tokenId",
          "type": "uint256"
        }
      ],
      "name": "approve",
      "outputs": [],
      "stateMutability": "nonpayable",
      "type": "function"
    },
    {
      "inputs": [
        {
          "internalType": "uint256",
          "name": "assetId",
          "type": "uint256"
        }
      ],
      "name": "assetCertificates",
      "outputs": [
        {
          "internalType": "uint256[]",
          "name": "",
          "type": "uint256[]"
        }
      ],
      "stateMutability": "view",
      "type": "function"
    },
    {
      "inputs": [
        {
          "internalType": "uint256",
          "name": "assetId",
          "type": "uint256"
        }
      ],
      "name": "assetComposition",
      "outputs": [
        {
          "internalType": "uint256[]",
          "name": "",
          "type": "uint256[]"
        },
        {
          "internalType": "uint16[]",
          "name": "",
          "type": "uint16[]"
        }
      ],
      "stateMutability": "view",
      "type": "function"
    },
    {
      "inputs": [
        {
          "internalType": "uint256",
          "name": "assetId",
          "type": "uint256"
        }
      ],
      "name": "assetInfo",
      "outputs": [
        {
          "internalType": "address",
          "name": "",
          "type": "address"
        },
        {
          "internalType": "address",
          "name": "",
          "type": "address"
        },
        {
          "internalType": "uint64",
          "name": "",
          "type": "uint64"
        },
        {
          "internalType": "uint256",
          "name": "",
          "type": "uint256"
        },
        {
          "internalType": "string",
          "name": "",
          "type": "string"
        }
      ],
      "stateMutability": "view",
      "type": "function"
    },
    {
      "inputs": [
        {
          "internalType": "uint256",
          "name": "assetId",
          "type": "uint256"
        }
      ],
      "name": "assetTraceability",
      "outputs": [
        {
          "internalType": "uint256[]",
          "name": "",
          "type": "uint256[]"
        },
        {
          "internalType": "string[]",
          "name": "",
          "type": "string[]"
        },
        {
          "internalType": "string[]",
          "name": "",
          "type": "string[]"
        }
      ],
      "stateMutability": "view",
      "type": "function"
    },
    {
      "inputs": [
        {
          "internalType": "address",
          "name": "owner",
          "type": "address"
        }
      ],
      "name": "balanceOf",
      "outputs": [
        {
          "internalType": "uint256",
          "name": "",
          "type": "uint256"
        }
      ],
      "stateMutability": "view",
      "type": "function"
    },
    {
      "inputs": [
        {
          "internalType": "uint256",
          "name": "certId",
          "type": "uint256"
        }
      ],
      "name": "certificateInfo",
      "outputs": [
        {
          "internalType": "address",
          "name": "",
          "type": "address"
        },
        {
          "internalType": "string",
          "name": "",
          "type": "string"
        }
      ],
      "stateMutability": "view",
      "type": "function"
    },
    {
      "inputs": [
        {
          "internalType": "address",
          "name": "agent",
          "type": "address"
        },
        {
          "internalType": "address",
          "name": "account",
          "type": "address"
        },
        {
          "internalType": "string",
          "name": "metadata_",
          "type": "string"
        }
      ],
      "name": "defineAgent",
      "outputs": [
        {
          "internalType": "bool",
          "name": "",
          "type": "bool"
        }
      ],
      "stateMutability": "nonpayable",
      "type": "function"
    },
    {
      "inputs": [
        {
          "internalType": "uint256",
          "name": "role",
          "type": "uint256"
        },
        {
          "internalType": "string",
          "name": "metadata_",
          "type": "string"
        }
      ],
      "name": "defineRole",
      "outputs": [
        {
          "internalType": "bool",
          "name": "",
          "type": "bool"
        }
      ],
      "stateMutability": "nonpayable",
      "type": "function"
    },
    {
      "inputs": [
        {
          "internalType": "uint256",
          "name": "tokenId",
          "type": "uint256"
        }
      ],
      "name": "getApproved",
      "outputs": [
        {
          "internalType": "address",
          "name": "",
          "type": "address"
        }
      ],
      "stateMutability": "view",
      "type": "function"
    },
    {
      "inputs": [
        {
          "internalType": "address",
          "name": "account",
          "type": "address"
        },
        {
          "internalType": "uint256",
          "name": "role",
          "type": "uint256"
        }
      ],
      "name": "grantRole",
      "outputs": [
        {
          "internalType": "bool",
          "name": "",
          "type": "bool"
        }
      ],
      "stateMutability": "nonpayable",
      "type": "function"
    },
    {
      "inputs": [
        {
          "internalType": "address",
          "name": "account",
          "type": "address"
        },
        {
          "internalType": "uint256",
          "name": "role",
          "type": "uint256"
        }
      ],
      "name": "hasRole",
      "outputs": [
        {
          "internalType": "bool",
          "name": "",
          "type": "bool"
        }
      ],
      "stateMutability": "view",
      "type": "function"
    },
    {
      "inputs": [
        {
          "internalType": "address",
          "name": "owner",
          "type": "address"
        },
        {
          "internalType": "address",
          "name": "operator",
          "type": "address"
        }
      ],
      "name": "isApprovedForAll",
      "outputs": [
        {
          "internalType": "bool",
          "name": "",
          "type": "bool"
        }
      ],
      "stateMutability": "view",
      "type": "function"
    },
    {
      "inputs": [
        {
          "internalType": "uint256",
          "name": "assetId",
          "type": "uint256"
        },
        {
          "internalType": "address",
          "name": "owner",
          "type": "address"
        },
        {
          "internalType": "uint64",
          "name": "co2e",
          "type": "uint64"
        },
        {
          "internalType": "uint256",
          "name": "certId",
          "type": "uint256"
        },
        {
          "internalType": "string",
          "name": "metadata_",
          "type": "string"
        }
      ],
      "name": "issueAsset",
      "outputs": [
        {
          "internalType": "bool",
          "name": "",
          "type": "bool"
        }
      ],
      "stateMutability": "nonpayable",
      "type": "function"
    },
    {
      "inputs": [
        {
          "internalType": "uint256",
          "name": "certId",
          "type": "uint256"
        },
        {
          "internalType": "string",
          "name": "metadata_",
          "type": "string"
        }
      ],
      "name": "issueCertificate",
      "outputs": [
        {
          "internalType": "bool",
          "name": "",
          "type": "bool"
        }
      ],
      "stateMutability": "nonpayable",
      "type": "function"
    },
    {
      "inputs": [
        {
          "internalType": "uint256",
          "name": "moveId",
          "type": "uint256"
        },
        {
          "internalType": "string",
          "name": "lat",
          "type": "string"
        },
        {
          "internalType": "string",
          "name": "lng",
          "type": "string"
        },
        {
          "internalType": "uint64",
          "name": "co2e",
          "type": "uint64"
        },
        {
          "internalType": "uint256",
          "name": "certId",
          "type": "uint256"
        },
        {
          "internalType": "string",
          "name": "metadata_",
          "type": "string"
        }
      ],
      "name": "issueMovement",
      "outputs": [
        {
          "internalType": "bool",
          "name": "",
          "type": "bool"
        }
      ],
      "stateMutability": "nonpayable",
      "type": "function"
    },
    {
      "inputs": [
        {
          "internalType": "uint256",
          "name": "moveId",
          "type": "uint256"
        }
      ],
      "name": "movementInfo",
      "outputs": [
        {
          "internalType": "address",
          "name": "",
          "type": "address"
        },
        {
          "internalType": "string",
          "name": "",
          "type": "string"
        },
        {
          "internalType": "string",
          "name": "",
          "type": "string"
        },
        {
          "internalType": "uint64",
          "name": "",
          "type": "uint64"
        },
        {
          "internalType": "uint256",
          "name": "",
          "type": "uint256"
        },
        {
          "internalType": "string",
          "name": "",
          "type": "string"
        }
      ],
      "stateMutability": "view",
      "type": "function"
    },
    {
      "inputs": [],
      "name": "name",
      "outputs": [
        {
          "internalType": "string",
          "name": "",
          "type": "string"
        }
      ],
      "stateMutability": "view",
      "type": "function"
    },
    {
      "inputs": [
        {
          "internalType": "uint256",
          "name": "tokenId",
          "type": "uint256"
        }
      ],
      "name": "ownerOf",
      "outputs": [
        {
          "internalType": "address",
          "name": "",
          "type": "address"
        }
      ],
      "stateMutability": "view",
      "type": "function"
    },
    {
      "inputs": [],
      "name": "paused",
      "outputs": [
        {
          "internalType": "bool",
          "name": "",
          "type": "bool"
        }
      ],
      "stateMutability": "view",
      "type": "function"
    },
    {
      "inputs": [
        {
          "internalType": "address",
          "name": "agent",
          "type": "address"
        }
      ],
      "name": "removeAgent",
      "outputs": [
        {
          "internalType": "bool",
          "name": "",
          "type": "bool"
        }
      ],
      "stateMutability": "nonpayable",
      "type": "function"
    },
    {
      "inputs": [
        {
          "internalType": "address",
          "name": "account",
          "type": "address"
        },
        {
          "internalType": "uint256",
          "name": "role",
          "type": "uint256"
        }
      ],
      "name": "revokeRole",
      "outputs": [
        {
          "internalType": "bool",
          "name": "",
          "type": "bool"
        }
      ],
      "stateMutability": "nonpayable",
      "type": "function"
    },
    {
      "inputs": [
        {
          "internalType": "uint256",
          "name": "role",
          "type": "uint256"
        }
      ],
      "name": "roleInfo",
      "outputs": [
        {
          "internalType": "string",
          "name": "",
          "type": "string"
        }
      ],
      "stateMutability": "view",
      "type": "function"
    },
    {
      "inputs": [
        {
          "internalType": "address",
          "name": "from",
          "type": "address"
        },
        {
          "internalType": "address",
          "name": "to",
          "type": "address"
        },
        {
          "internalType": "uint256",
          "name": "tokenId",
          "type": "uint256"
        }
      ],
      "name": "safeTransferFrom",
      "outputs": [],
      "stateMutability": "nonpayable",
      "type": "function"
    },
    {
      "inputs": [
        {
          "internalType": "address",
          "name": "from",
          "type": "address"
        },
        {
          "internalType": "address",
          "name": "to",
          "type": "address"
        },
        {
          "internalType": "uint256",
          "name": "tokenId",
          "type": "uint256"
        },
        {
          "internalType": "bytes",
          "name": "_data",
          "type": "bytes"
        }
      ],
      "name": "safeTransferFrom",
      "outputs": [],
      "stateMutability": "nonpayable",
      "type": "function"
    },
    {
      "inputs": [
        {
          "internalType": "address",
          "name": "operator",
          "type": "address"
        },
        {
          "internalType": "bool",
          "name": "approved",
          "type": "bool"
        }
      ],
      "name": "setApprovalForAll",
      "outputs": [],
      "stateMutability": "nonpayable",
      "type": "function"
    },
    {
      "inputs": [
        {
          "internalType": "bytes4",
          "name": "interfaceId",
          "type": "bytes4"
        }
      ],
      "name": "supportsInterface",
      "outputs": [
        {
          "internalType": "bool",
          "name": "",
          "type": "bool"
        }
      ],
      "stateMutability": "view",
      "type": "function"
    },
    {
      "inputs": [],
      "name": "symbol",
      "outputs": [
        {
          "internalType": "string",
          "name": "",
          "type": "string"
        }
      ],
      "stateMutability": "view",
      "type": "function"
    },
    {
      "inputs": [
        {
          "internalType": "uint256",
          "name": "tokenId",
          "type": "uint256"
        }
      ],
      "name": "tokenURI",
      "outputs": [
        {
          "internalType": "string",
          "name": "",
          "type": "string"
        }
      ],
      "stateMutability": "view",
      "type": "function"
    },
    {
      "inputs": [
        {
          "internalType": "address",
          "name": "from",
          "type": "address"
        },
        {
          "internalType": "address",
          "name": "to",
          "type": "address"
        },
        {
          "internalType": "uint256",
          "name": "tokenId",
          "type": "uint256"
        }
      ],
      "name": "transferFrom",
      "outputs": [],
      "stateMutability": "nonpayable",
      "type": "function"
    }
  ],
  "bytecode": "0x6080604052600f8054610100600160c81b03191671080000000000000004000000000000000200179055601080546001600160801b0319166820000000000000001017905560118054731001bdc1076d31806222a2e826fb6819ffb3b8096001600160a01b03199091161790553480156200007957600080fd5b5060405162004c7d38038062004c7d8339810160408190526200009c916200067e565b818183848060009080519060200190620000b892919062000525565b50508051620000cf90600490602084019062000525565b50508151620000e690600990602085019062000525565b508051620000fc90600a90602084019062000525565b5050600f805460ff191690819055604080516080810190915260438082526200013f93506101009092046001600160401b03169162004c3a602083013962000379565b50600f546040805160808101909152604d8082526200017f92690100000000000000000090046001600160401b0316919062004b68602083013962000379565b50600f5460408051606081018252818152620001c3927101000000000000000000000000000000000090046001600160401b03169162004bfa602083013962000379565b5060105460408051608081019091526045808252620001f6926001600160401b0316919062004bb5602083013962000379565b506010546040805160808101909152604680825262000235926801000000000000000090046001600160401b0316919062004b22602083013962000379565b50620002843360115460408051808201909152601e81527f7b226e616d65223a224f726279632044656661756c742041646d696e227d000060208201526001600160a01b0390911690620003fc565b50601154600f54620002ae916001600160a01b03169061010090046001600160401b0316620004ba565b50601154600f54620002e0916001600160a01b031690690100000000000000000090046001600160401b0316620004ba565b50601154600f546200031a916001600160a01b0316907101000000000000000000000000000000000090046001600160401b0316620004ba565b506011546010546200033f916001600160a01b0316906001600160401b0316620004ba565b5060115460105462000370916001600160a01b0316906801000000000000000090046001600160401b0316620004ba565b5050506200076a565b604080518082018252838152602080820184815260008681526008835293842083518155905180519192620003b79260018501929091019062000525565b5050604080518581523360208201527f2e82a3308270f66933807098cf62441247b1de86244636b03b0565b2c3dbc62b9250015b60405180910390a150600192915050565b6001600160a01b0382166000908152600760209081526040822083516200042c9260029092019185019062000525565b506001600160a01b03848116600090815260056020526040902080546001600160a01b0319169185169190911790557fb61ddfe33d9ed54d8bdb62fe6fe16b84a72a4bae657baea7d2ae636fd1714b898484620004863390565b604080516001600160a01b039485168152928416602084015292168183015290519081900360600190a15060019392505050565b6001600160a01b03821660009081526007602052604081206001018054831790557f1ec1667fba5e43c5c76fff54e76d7a4a20a4fecf7b49724ad8d52a3f726e9dbd828433604080519384526001600160a01b039283166020850152911690820152606001620003eb565b8280546200053390620006e5565b90600052602060002090601f016020900481019282620005575760008555620005a2565b82601f106200057257805160ff1916838001178555620005a2565b82800160010185558215620005a2579182015b82811115620005a257825182559160200191906001019062000585565b50620005b0929150620005b4565b5090565b5b80821115620005b05760008155600101620005b5565b600082601f830112620005dc578081fd5b81516001600160401b0380821115620005f957620005f96200073b565b604051601f8301601f19908116603f011681019082821181831017156200062457620006246200073b565b8160405283815260209250868385880101111562000640578485fd5b8491505b8382101562000663578582018301518183018401529082019062000644565b838211156200067457848385830101525b9695505050505050565b6000806040838503121562000691578182fd5b82516001600160401b0380821115620006a8578384fd5b620006b686838701620005cb565b93506020850151915080821115620006cc578283fd5b50620006db85828601620005cb565b9150509250929050565b600181811c90821680620006fa57607f821691505b6020821081141562000735577f4e487b7100000000000000000000000000000000000000000000000000000000600052602260045260246000fd5b50919050565b7f4e487b7100000000000000000000000000000000000000000000000000000000600052604160045260246000fd5b6143a8806200077a6000396000f3fe608060405234801561001057600080fd5b50600436106102695760003560e01c80637805862f11610151578063b77e76c2116100c3578063c87b56dd11610087578063c87b56dd146105df578063d8f9ce24146105f2578063e4eb771c1461060c578063e985e9c51461061f578063f17011c61461065b578063f6863e831461066e57600080fd5b8063b77e76c214610565578063b88d4fde14610578578063ba0a9f501461058b578063bad6a0ab146105ac578063c22d9980146105bf57600080fd5b806393123e0b1161011557806393123e0b146104ed57806395d89b411461050057806397a6278e14610508578063a22cb4651461051b578063a7310b581461052e578063a879fcbb1461054157600080fd5b80637805862f146104995780638086b8ba146104a15780638977f3d1146104b45780638c2d08b9146104c75780638fa07302146104da57600080fd5b80633c09e2fd116101ea5780635ee3bc2a116101ae5780635ee3bc2a1461041f5780636352211e146104325780636985a0221461044557806370a082311461044d578063714eb8541461046e57806375b238fc1461048157600080fd5b80633c09e2fd146103a257806342842e0e146103b557806353dcbaaf146103c85780635c975abb146103e25780635c97f4a2146103ed57600080fd5b80630c816de4116102315780630c816de4146102fe5780632192bc2a1461031157806323b872dd1461033257806324c20a34146103455780633586ed2f1461037d57600080fd5b806301ffc9a71461026e57806306fdde0314610296578063081812fc146102ab5780630912ed77146102d6578063095ea7b3146102e9575b600080fd5b61028161027c3660046139f3565b610690565b60405190151581526020015b60405180910390f35b61029e6106e2565b60405161028d9190614038565b6102be6102b9366004613a2b565b6106f1565b6040516001600160a01b03909116815260200161028d565b6102816102e43660046139ae565b61078b565b6102fc6102f73660046139ae565b6107fb565b005b61028161030c366004613bc8565b610911565b61032461031f366004613a2b565b6109c3565b60405161028d929190613f9e565b6102fc6103403660046138c5565b610b35565b600f5461036590690100000000000000000090046001600160401b031681565b6040516001600160401b03909116815260200161028d565b61039061038b366004613a2b565b610ba5565b60405161028d96959493929190613e96565b6102816103b03660046139ae565b610db1565b6102fc6103c33660046138c5565b610df7565b60105461036590600160401b90046001600160401b031681565b600f5460ff16610281565b6102816103fb3660046139ae565b6001600160a01b039190911660009081526007602052604090206001015416151590565b61028161042d36600461386a565b610e12565b6102be610440366004613a2b565b610ec4565b6102fc610f3b565b61046061045b36600461381e565b610f7f565b60405190815260200161028d565b601054610365906001600160401b031681565b600f546103659061010090046001600160401b031681565b6102fc610f9d565b6102be6104af36600461381e565b610fde565b6102816104c2366004613ab2565b61106d565b6102816104d5366004613c78565b6110ca565b6011546102be906001600160a01b031681565b61029e6104fb366004613a2b565b611154565b61029e6111f9565b61028161051636600461381e565b61128b565b6102fc610529366004613978565b6112d0565b61029e61053c36600461381e565b6112df565b61055461054f366004613a2b565b611309565b60405161028d959493929190613e30565b610281610573366004613c3e565b6113f9565b6102fc610586366004613900565b61143f565b61059e610599366004613a2b565b611477565b60405161028d929190613e72565b6102816105ba366004613af6565b611534565b6105d26105cd366004613a2b565b6115c0565b60405161028d9190613f52565b61029e6105ed366004613a2b565b611628565b600f5461036590600160881b90046001600160401b031681565b61028161061a366004613ab2565b61172b565b61028161062d366004613838565b6001600160a01b039182166000908152600e6020908152604080832093909416825291909152205460ff1690565b610281610669366004613a43565b6117ab565b61068161067c366004613a2b565b61183d565b60405161028d93929190613f65565b60006001600160e01b031982166380ac58cd60e01b14806106c157506001600160e01b03198216635b5e139f60e01b145b806106dc57506301ffc9a760e01b6001600160e01b03198316145b92915050565b60606106ec611b92565b905090565b6000818152600b60205260408120546001600160a01b031661076f5760405162461bcd60e51b815260206004820152602c60248201527f4552433732313a20617070726f76656420717565727920666f72206e6f6e657860448201526b34b9ba32b73a103a37b5b2b760a11b60648201526084015b60405180910390fd5b506000908152600d60205260409020546001600160a01b031690565b600f5460009061010090046001600160401b03166107cd6107ab33610fde565b6001600160a01b03166000908152600760205260409020600101548216151590565b6107e95760405162461bcd60e51b8152600401610766906141a0565b6107f38484611ba1565b949350505050565b600061080682610ec4565b9050806001600160a01b0316836001600160a01b031614156108745760405162461bcd60e51b815260206004820152602160248201527f4552433732313a20617070726f76616c20746f2063757272656e74206f776e656044820152603960f91b6064820152608401610766565b336001600160a01b03821614806108905750610890813361062d565b6109025760405162461bcd60e51b815260206004820152603860248201527f4552433732313a20617070726f76652063616c6c6572206973206e6f74206f7760448201527f6e6572206e6f7220617070726f76656420666f7220616c6c00000000000000006064820152608401610766565b61090c8383611bad565b505050565b6010546000906001600160401b031661092c6107ab33610fde565b6109485760405162461bcd60e51b8152600401610766906141a0565b600f5460ff161561096b5760405162461bcd60e51b8152600401610766906140df565b600061097633610fde565b90506109b9868287878080601f016020809104026020016040519081016040528093929190818152602001838380828437600092019190915250611c1b92505050565b9695505050505050565b600081815260036020526040812060068101546060928392916001600160401b03811115610a0157634e487b7160e01b600052604160045260246000fd5b604051908082528060200260200182016040528015610a2a578160200160208202803683370190505b50905060005b6006830154811015610ad257826007016000846006018381548110610a6557634e487b7160e01b600052603260045260246000fd5b9060005260206000200154815260200190815260200160002060009054906101000a900461ffff16828281518110610aad57634e487b7160e01b600052603260045260246000fd5b61ffff9092166020928302919091019091015280610aca816142dd565b915050610a30565b50816006018181805480602002602001604051908101604052809291908181526020018280548015610b2357602002820191906000526020600020905b815481526020019060010190808311610b0f575b50505050509150935093505050915091565b600f5460ff1615610b585760405162461bcd60e51b8152600401610766906140df565b6000610b6384610fde565b90506000610b7084610fde565b9050610b7d828285611cfe565b610b88575050505050565b610b9382828561200e565b610b9e828285612019565b5050505050565b600081815260016020819052604082209081015460048201546005830154600284018054606095869588958695889593946001600160a01b03909316939260038601926001600160401b0316919060068701908590610c03906142a8565b80601f0160208091040260200160405190810160405280929190818152602001828054610c2f906142a8565b8015610c7c5780601f10610c5157610100808354040283529160200191610c7c565b820191906000526020600020905b815481529060010190602001808311610c5f57829003601f168201915b50505050509450838054610c8f906142a8565b80601f0160208091040260200160405190810160405280929190818152602001828054610cbb906142a8565b8015610d085780601f10610cdd57610100808354040283529160200191610d08565b820191906000526020600020905b815481529060010190602001808311610ceb57829003601f168201915b50505050509350808054610d1b906142a8565b80601f0160208091040260200160405190810160405280929190818152602001828054610d47906142a8565b8015610d945780601f10610d6957610100808354040283529160200191610d94565b820191906000526020600020905b815481529060010190602001808311610d7757829003601f168201915b505050505090509650965096509650965096505091939550919395565b600f5460009061010090046001600160401b0316610dd16107ab33610fde565b610ded5760405162461bcd60e51b8152600401610766906141a0565b6107f3848461204a565b61090c8383836040518060200160405280600081525061143f565b600f5460009061010090046001600160401b0316610e326107ab33610fde565b610e4e5760405162461bcd60e51b8152600401610766906141a0565b6001600160a01b038516600090815260066020526040902054859060ff1615610eb95760405162461bcd60e51b815260206004820152601e60248201527f4552433432333a206167656e7420686173206265656e2072656d6f76656400006044820152606401610766565b6109b9868686612056565b6000818152600b60205260408120546001600160a01b0316806106dc5760405162461bcd60e51b815260206004820152602960248201527f4552433732313a206f776e657220717565727920666f72206e6f6e657869737460448201526832b73a103a37b5b2b760b91b6064820152608401610766565b600f5461010090046001600160401b0316610f586107ab33610fde565b610f745760405162461bcd60e51b8152600401610766906141a0565b610f7c612063565b50565b600080610f8b83610fde565b9050610f96816120d8565b9392505050565b600f5461010090046001600160401b0316610fba6107ab33610fde565b610fd65760405162461bcd60e51b8152600401610766906141a0565b610f7c61215f565b6001600160a01b038116600090815260066020526040812054829060ff16156110495760405162461bcd60e51b815260206004820152601e60248201527f4552433432333a206167656e7420686173206265656e2072656d6f76656400006044820152606401610766565b6001600160a01b038084166000908152600560205260409020541691505b50919050565b600082600061107b82611309565b505050915050600061108d6104af3390565b9050816001600160a01b0316816001600160a01b0316146110c05760405162461bcd60e51b815260040161076690614109565b6109b986866121d9565b601054600090600160401b90046001600160401b03166110ec6107ab33610fde565b6111085760405162461bcd60e51b8152600401610766906141a0565b600f5460ff161561112b5760405162461bcd60e51b8152600401610766906140df565b600061113633610fde565b905061114789828a8a8a8a8a6121e5565b9998505050505050505050565b6000818152600860205260409020600101805460609190611174906142a8565b80601f01602080910402602001604051908101604052809291908181526020018280546111a0906142a8565b80156111ed5780601f106111c2576101008083540402835291602001916111ed565b820191906000526020600020905b8154815290600101906020018083116111d057829003601f168201915b50505050509050919050565b6060600a8054611208906142a8565b80601f0160208091040260200160405190810160405280929190818152602001828054611234906142a8565b80156112815780601f1061125657610100808354040283529160200191611281565b820191906000526020600020905b81548152906001019060200180831161126457829003601f168201915b5050505050905090565b600f5460009061010090046001600160401b03166112ab6107ab33610fde565b6112c75760405162461bcd60e51b8152600401610766906141a0565b610f9683612342565b6112db33838361234d565b5050565b6001600160a01b0381166000908152600760205260409020600201805460609190611174906142a8565b60008181526003602081905260408220600181015460028201549282015460088301805486958695869560609591946001600160a01b039182169491841693600160a01b90046001600160401b031692918190611365906142a8565b80601f0160208091040260200160405190810160405280929190818152602001828054611391906142a8565b80156113de5780601f106113b3576101008083540402835291602001916113de565b820191906000526020600020905b8154815290600101906020018083116113c157829003601f168201915b50505050509050955095509550955095505091939590929450565b600f5460009061010090046001600160401b03166114196107ab33610fde565b6114355760405162461bcd60e51b8152600401610766906141a0565b6107f3848461241c565b6114493383612428565b6114655760405162461bcd60e51b81526004016107669061414f565b61147184848484612440565b50505050565b60008181526002602081905260408220600181015491810180546060936001600160a01b0316919081906114aa906142a8565b80601f01602080910402602001604051908101604052809291908181526020018280546114d6906142a8565b80156115235780601f106114f857610100808354040283529160200191611523565b820191906000526020600020905b81548152906001019060200180831161150657829003601f168201915b505050505090509250925050915091565b600083600061154282611309565b50505091505060006115546104af3390565b9050816001600160a01b0316816001600160a01b0316146115875760405162461bcd60e51b815260040161076690614109565b600f5460ff16156115aa5760405162461bcd60e51b8152600401610766906140df565b6115b5878787612473565b979650505050505050565b600081815260036020908152604091829020600481018054845181850281018501909552808552606094929383018282801561161b57602002820191906000526020600020905b815481526020019060010190808311611607575b5050505050915050919050565b6000818152600b60205260409020546060906001600160a01b03166116a75760405162461bcd60e51b815260206004820152602f60248201527f4552433732314d657461646174613a2055524920717565727920666f72206e6f60448201526e3732bc34b9ba32b73a103a37b5b2b760891b6064820152608401610766565b60006116da60408051808201909152601481527368747470733a2f2f6f726279632e636f6d2f232f60601b602082015290565b905060008151116116fa5760405180602001604052806000815250610f96565b8061170484612480565b604051602001611715929190613dce565b6040516020818303038152906040529392505050565b600082600061173982611309565b505050915050600061174b6104af3390565b9050816001600160a01b0316816001600160a01b03161461177e5760405162461bcd60e51b815260040161076690614109565b600f5460ff16156117a15760405162461bcd60e51b8152600401610766906140df565b6109b98686612599565b600f54600090600160881b90046001600160401b03166117cd6107ab33610fde565b6117e95760405162461bcd60e51b8152600401610766906141a0565b600f5460ff161561180c5760405162461bcd60e51b8152600401610766906140df565b600061181733610fde565b905061182387896125a5565b6118318888838989896126e7565b98975050505050505050565b60008181526003602052604081206005810154606092839283929091906001600160401b0381111561187f57634e487b7160e01b600052604160045260246000fd5b6040519080825280602002602001820160405280156118b257816020015b606081526020019060019003908161189d5790505b5060058301549091506000906001600160401b038111156118e357634e487b7160e01b600052604160045260246000fd5b60405190808252806020026020018201604052801561191657816020015b60608152602001906001900390816119015790505b50905060005b6005840154811015611b29576001600085600501838154811061194f57634e487b7160e01b600052603260045260246000fd5b906000526020600020015481526020019081526020016000206002018054611976906142a8565b80601f01602080910402602001604051908101604052809291908181526020018280546119a2906142a8565b80156119ef5780601f106119c4576101008083540402835291602001916119ef565b820191906000526020600020905b8154815290600101906020018083116119d257829003601f168201915b5050505050838281518110611a1457634e487b7160e01b600052603260045260246000fd5b602002602001018190525060016000856005018381548110611a4657634e487b7160e01b600052603260045260246000fd5b906000526020600020015481526020019081526020016000206003018054611a6d906142a8565b80601f0160208091040260200160405190810160405280929190818152602001828054611a99906142a8565b8015611ae65780601f10611abb57610100808354040283529160200191611ae6565b820191906000526020600020905b815481529060010190602001808311611ac957829003601f168201915b5050505050828281518110611b0b57634e487b7160e01b600052603260045260246000fd5b60200260200101819052508080611b21906142dd565b91505061191c565b5082600501828282805480602002602001604051908101604052809291908181526020018280548015611b7b57602002820191906000526020600020905b815481526020019060010190808311611b67575b505050505092509550955095505050509193909250565b606060008054611208906142a8565b6000610f96838361282a565b6000818152600d6020526040902080546001600160a01b0319166001600160a01b0384169081179091558190611be282610ec4565b6001600160a01b03167f8c5be1e5ebec7d5bd14f71427d1e84f3dd0314c0f7b2291e5b200ac8c7c3b92560405160405180910390a45050565b6000838152600260205260408120805415611c825760405162461bcd60e51b815260206004820152602160248201527f4572726f723a20636572746966696361746520616c72656164792065786973746044820152607360f81b6064820152608401610766565b8481556001810180546001600160a01b0319166001600160a01b0386161790558251611cb7906002830190602086019061366d565b5080546040805191825233602083015280517f0ac0bb5418edafe119eaae67d0ee0bc6f39a3efafc3305a56b617c171d0d835f9281900390910190a1506001949350505050565b600080611d0a836128a2565b604051631ed406b360e11b815290915073__$756bb61c413278bdc0c137c12dfa6aa297$__90633da80d6690611d469084908990600401613ef5565b60206040518083038186803b158015611d5e57600080fd5b505af4158015611d72573d6000803e3d6000fd5b505050506040513d601f19601f82011682018060405250810190611d9691906139d7565b611df15760405162461bcd60e51b815260206004820152602660248201527f4572726f723a207369676e6572206e6f742076616c696420666f72207468697360448201526508185cdcd95d60d21b6064820152608401610766565b60008381526012602090815260408083206001600160a01b0389168452600281019092529091205460ff1615611e7a5760405162461bcd60e51b815260206004820152602860248201527f4572726f723a207369676e657220616c7265616479207369676e2074686973206044820152673a3930b739b332b960c11b6064820152608401610766565b60018101546001600160a01b03868116911614611f22576001810180546001600160a01b0319166001600160a01b03871617905583815560005b8251811015611f2057816002016000848381518110611ee357634e487b7160e01b600052603260045260246000fd5b6020908102919091018101516001600160a01b03168252810191909152604001600020805460ff1916905580611f18816142dd565b915050611eb4565b505b6001600160a01b03861660009081526002820160205260408120805460ff191660011790555b825181101561200157816002016000848381518110611f7757634e487b7160e01b600052603260045260246000fd5b6020908102919091018101516001600160a01b031682528101919091526040016000205460ff16611fef5784866001600160a01b0316886001600160a01b03167f45daca243d56fe35e7e5efbf15f8ecd64486be00404d4d2d84aa6c710312767360405160405180910390a460009350505050610f96565b80611ff9816142dd565b915050611f48565b5060019695505050505050565b61090c838383612990565b6120233382612428565b61203f5760405162461bcd60e51b81526004016107669061414f565b61090c838383612a60565b6000610f968383612c00565b60006107f3848484612c4a565b600f5460ff16156120865760405162461bcd60e51b8152600401610766906140df565b600f805460ff191660011790557f62e78cea01bee320cd4e420270b5ea74000d11b0c9f74754ebdbfc544b05a2586120bb3390565b6040516001600160a01b03909116815260200160405180910390a1565b60006001600160a01b0382166121435760405162461bcd60e51b815260206004820152602a60248201527f4552433732313a2062616c616e636520717565727920666f7220746865207a65604482015269726f206164647265737360b01b6064820152608401610766565b506001600160a01b03166000908152600c602052604090205490565b600f5460ff166121a85760405162461bcd60e51b815260206004820152601460248201527314185d5cd8589b194e881b9bdd081c185d5cd95960621b6044820152606401610766565b600f805460ff191690557f5db9ee0a495bf2e6ff9c91a7834c1ba4fdd244a5e8aa4e537bd38aeae4b073aa336120bb565b6000610f968383612cf1565b60008781526001602052604081208054156122425760405162461bcd60e51b815260206004820152601e60248201527f4572726f723a206d6f76656d656e7420616c72656164792065786973747300006044820152606401610766565b6000848152600260205260409020805485146122705760405162461bcd60e51b81526004016107669061409d565b8982556001820180546001600160a01b0319166001600160a01b038b1617905587516122a590600284019060208b019061366d565b5086516122bb90600384019060208a019061366d565b5060048201805467ffffffffffffffff19166001600160401b0388161790558054600583015583516122f6906006840190602087019061366d565b5081546040805191825233602083015280517f741b29ae377b3381e554e394b7d2e2fefb4db0c40f73b9e0ac4cd843ef56171d9281900390910190a15060019998505050505050505050565b60006106dc82612f34565b816001600160a01b0316836001600160a01b031614156123af5760405162461bcd60e51b815260206004820152601960248201527f4552433732313a20617070726f766520746f2063616c6c6572000000000000006044820152606401610766565b6001600160a01b038381166000818152600e6020908152604080832094871680845294825291829020805460ff191686151590811790915591519182527f17307eab39ab6107e8899845ad3d59bd9653f200f220920489ca2b5937696c31910160405180910390a3505050565b6000610f968383612fab565b60008061243484610fde565b90506107f38184613031565b61244b848484612a60565b61245784848484613124565b6114715760405162461bcd60e51b81526004016107669061404b565b60006107f3848484613226565b6060816124a45750506040805180820190915260018152600360fc1b602082015290565b8160005b81156124ce57806124b8816142dd565b91506124c79050600a83614251565b91506124a8565b6000816001600160401b038111156124f657634e487b7160e01b600052604160045260246000fd5b6040519080825280601f01601f191660200182016040528015612520576020820181803683370190505b5090505b84156107f357612535600183614265565b9150612542600a866142f8565b61254d906030614239565b60f81b81838151811061257057634e487b7160e01b600052603260045260246000fd5b60200101906001600160f81b031916908160001a905350612592600a86614251565b9450612524565b6000610f968383613438565b6001600160a01b0382166125fb5760405162461bcd60e51b815260206004820181905260248201527f4552433732313a206d696e7420746f20746865207a65726f20616464726573736044820152606401610766565b6000818152600b60205260409020546001600160a01b0316156126605760405162461bcd60e51b815260206004820152601c60248201527f4552433732313a20746f6b656e20616c7265616479206d696e746564000000006044820152606401610766565b6001600160a01b0382166000908152600c60205260408120805460019290612689908490614239565b90915550506000818152600b602052604080822080546001600160a01b0319166001600160a01b03861690811790915590518392907fddf252ad1be2c89b69c2b068fc378daa952ba7f163c4a11628f55a4df523b3ef908290a45050565b60008681526003602052604081208054156127445760405162461bcd60e51b815260206004820152601b60248201527f4572726f723a20617373657420616c72656164792065786973747300000000006044820152606401610766565b6000848152600260205260409020805485146127725760405162461bcd60e51b81526004016107669061409d565b8882556001820180546001600160a01b0319166001600160a01b038a8116919091179091556002830180549189166001600160e01b031990921691909117600160a01b6001600160401b038916021790558054600383015583516127df906008840190602087019061366d565b5081546040805191825233602083015280517ff37f680ac83ec9f2a328ebff310dfe6d49043380dcb563e89ef4ca09eaa38d519281900390910190a150600198975050505050505050565b6001600160a01b03821660009081526007602052604081206001018054831890557fe0df21b65c73c27081b8f042a012b124085b41d78d27b7e3c4780f5650f5ebb88284335b604080519384526001600160a01b0392831660208501529116908201526060015b60405180910390a150600192915050565b60606000806128b084611309565b50505091509150600060026001600160401b038111156128e057634e487b7160e01b600052604160045260246000fd5b604051908082528060200260200182016040528015612909578160200160208202803683370190505b509050828160008151811061292e57634e487b7160e01b600052603260045260246000fd5b60200260200101906001600160a01b031690816001600160a01b031681525050818160018151811061297057634e487b7160e01b600052603260045260246000fd5b6001600160a01b0390921660209283029190910190910152949350505050565b600081815260036020526040902060018101546001600160a01b03858116911614612a0b5760405162461bcd60e51b815260206004820152602560248201527f4552433234353a2073656e646572206973206e6f74207468652061737365742060448201526437bbb732b960d91b6064820152608401610766565b6001810180546001600160a01b0319166001600160a01b0385811691821790925560405184928716907f428ab6cd67836d0fe93626e98108a1a2593b0bc06a1a87b59e437a17cbaf430c90600090a450505050565b826001600160a01b0316612a7382610ec4565b6001600160a01b031614612adb5760405162461bcd60e51b815260206004820152602960248201527f4552433732313a207472616e73666572206f6620746f6b656e2074686174206960448201526839903737ba1037bbb760b91b6064820152608401610766565b6001600160a01b038216612b3d5760405162461bcd60e51b8152602060048201526024808201527f4552433732313a207472616e7366657220746f20746865207a65726f206164646044820152637265737360e01b6064820152608401610766565b612b48600082611bad565b6001600160a01b0383166000908152600c60205260408120805460019290612b71908490614265565b90915550506001600160a01b0382166000908152600c60205260408120805460019290612b9f908490614239565b90915550506000818152600b602052604080822080546001600160a01b0319166001600160a01b0386811691821790925591518493918716917fddf252ad1be2c89b69c2b068fc378daa952ba7f163c4a11628f55a4df523b3ef91a4505050565b6001600160a01b03821660009081526007602052604081206001018054831790557f1ec1667fba5e43c5c76fff54e76d7a4a20a4fecf7b49724ad8d52a3f726e9dbd828433612870565b6001600160a01b038216600090815260076020908152604082208351612c789260029092019185019061366d565b506001600160a01b0384811660008181526005602090815260409182902080549488166001600160a01b0319909516851790558151928352820192909252338183015290517fb61ddfe33d9ed54d8bdb62fe6fe16b84a72a4bae657baea7d2ae636fd1714b899181900360600190a15060019392505050565b6000828152600360205260408120815b8351811015612f295773__$756bb61c413278bdc0c137c12dfa6aa297$__63b32b8e2c83600401868481518110612d4857634e487b7160e01b600052603260045260246000fd5b60200260200101516040518363ffffffff1660e01b8152600401612d6d929190613feb565b60206040518083038186803b158015612d8557600080fd5b505af4158015612d99573d6000803e3d6000fd5b505050506040513d601f19601f82011682018060405250810190612dbd91906139d7565b15612e0a5760405162461bcd60e51b815260206004820181905260248201527f4572726f723a20636572746966696361746520616c72656164792061646465646044820152606401610766565b600060026000868481518110612e3057634e487b7160e01b600052603260045260246000fd5b602002602001015181526020019081526020016000209050806000015460001415612eaf5760405162461bcd60e51b815260206004820152602960248201527f4572726f723a2063616e206e6f742061646420696e6578697374656e7420636560448201526872746966696361746560b81b6064820152608401610766565b805460048401805460018101825560009182526020909120015580547fe4445ff4c88d091c15ee0b18314c8056304ce5a982fcd74ec54da751777e1aa79087336040805193845260208401929092526001600160a01b03169082015260600160405180910390a15080612f21816142dd565b915050612d01565b506001949350505050565b6001600160a01b0381166000908152600660205260408120805460ff191660011790557f4ce8b3fe8e0bf47a6fefbecdfd7c799755cede6061655521b10fc2e4b1fcc6b382612f803390565b604080516001600160a01b0393841681529290911660208301520160405180910390a1506001919050565b604080518082018252838152602080820184815260008681526008835293842083518155905180519192612fe79260018501929091019061366d565b509050507f2e82a3308270f66933807098cf62441247b1de86244636b03b0565b2c3dbc62b836130143390565b604080519283526001600160a01b03909116602083015201612891565b6000818152600b60205260408120546001600160a01b03166130aa5760405162461bcd60e51b815260206004820152602c60248201527f4552433732313a206f70657261746f7220717565727920666f72206e6f6e657860448201526b34b9ba32b73a103a37b5b2b760a11b6064820152608401610766565b60006130b583610ec4565b9050806001600160a01b0316846001600160a01b031614806130f05750836001600160a01b03166130e5846106f1565b6001600160a01b0316145b806107f357506001600160a01b038082166000908152600e602090815260408083209388168352929052205460ff166107f3565b60006001600160a01b0384163b15612f2957604051630a85bd0160e11b81526001600160a01b0385169063150b7a0290613168903390899088908890600401613dfd565b602060405180830381600087803b15801561318257600080fd5b505af19250505080156131b2575060408051601f3d908101601f191682019092526131af91810190613a0f565b60015b61320c573d8080156131e0576040519150601f19603f3d011682016040523d82523d6000602084013e6131e5565b606091505b5080516132045760405162461bcd60e51b81526004016107669061404b565b805181602001fd5b6001600160e01b031916630a85bd0160e11b1490506107f3565b6000838152600360205260408120815b845181101561342c5781600701600086838151811061326557634e487b7160e01b600052603260045260246000fd5b60209081029190910181015182528101919091526040016000205461ffff16156132d15760405162461bcd60e51b815260206004820152601d60248201527f4572726f723a20706172656e7420616c72656164792070726573656e740000006044820152606401610766565b6000600360008784815181106132f757634e487b7160e01b600052603260045260246000fd5b6020026020010151815260200190815260200160002090508060000154600014156133705760405162461bcd60e51b815260206004820152602360248201527f4572726f723a2063616e206e6f742061646420696e6578697374656e742061736044820152621cd95d60ea1b6064820152608401610766565b84828151811061339057634e487b7160e01b600052603260045260246000fd5b602090810291909101810151825460009081526007860183526040808220805461ffff191661ffff9094169390931790925583546006870180546001810182559083529184902090910155825481519081529182018990523382820152517f4154f07b27a742714e27b3894179c9cb5aba0e2a7fa26cb0f7513abecf1b051b916060908290030190a15080613424816142dd565b915050613236565b50600195945050505050565b6000828152600360205260408120815b8351811015612f295773__$756bb61c413278bdc0c137c12dfa6aa297$__63b32b8e2c8360050186848151811061348f57634e487b7160e01b600052603260045260246000fd5b60200260200101516040518363ffffffff1660e01b81526004016134b4929190613feb565b60206040518083038186803b1580156134cc57600080fd5b505af41580156134e0573d6000803e3d6000fd5b505050506040513d601f19601f8201168201806040525081019061350491906139d7565b156135515760405162461bcd60e51b815260206004820152601d60248201527f4572726f723a206d6f76656d656e7420616c72656164792061646465640000006044820152606401610766565b60006001600086848151811061357757634e487b7160e01b600052603260045260246000fd5b6020026020010151815260200190815260200160002090508060000154600014156135f35760405162461bcd60e51b815260206004820152602660248201527f4572726f723a2063616e206e6f742061646420696e6578697374656e74206d6f6044820152651d995b595b9d60d21b6064820152608401610766565b805460058401805460018101825560009182526020909120015580547f1fb5e37b2fee9c771f5a7ac82a15698c9f978e0e6cef7ac48ceb8b9792caaf169087336040805193845260208401929092526001600160a01b03169082015260600160405180910390a15080613665816142dd565b915050613448565b828054613679906142a8565b90600052602060002090601f01602090048101928261369b57600085556136e1565b82601f106136b457805160ff19168380011785556136e1565b828001600101855582156136e1579182015b828111156136e15782518255916020019190600101906136c6565b506136ed9291506136f1565b5090565b5b808211156136ed57600081556001016136f2565b60006001600160401b0383111561371f5761371f614338565b613732601f8401601f19166020016141e6565b905082815283838301111561374657600080fd5b828260208301376000602084830101529392505050565b80356001600160a01b038116811461377457600080fd5b919050565b600082601f830112613789578081fd5b8135602061379e61379983614216565b6141e6565b80838252828201915082860187848660051b89010111156137bd578586fd5b855b858110156137db578135845292840192908401906001016137bf565b5090979650505050505050565b600082601f8301126137f8578081fd5b610f9683833560208501613706565b80356001600160401b038116811461377457600080fd5b60006020828403121561382f578081fd5b610f968261375d565b6000806040838503121561384a578081fd5b6138538361375d565b91506138616020840161375d565b90509250929050565b60008060006060848603121561387e578081fd5b6138878461375d565b92506138956020850161375d565b915060408401356001600160401b038111156138af578182fd5b6138bb868287016137e8565b9150509250925092565b6000806000606084860312156138d9578283fd5b6138e28461375d565b92506138f06020850161375d565b9150604084013590509250925092565b60008060008060808587031215613915578081fd5b61391e8561375d565b935061392c6020860161375d565b92506040850135915060608501356001600160401b0381111561394d578182fd5b8501601f8101871361395d578182fd5b61396c87823560208401613706565b91505092959194509250565b6000806040838503121561398a578182fd5b6139938361375d565b915060208301356139a38161434e565b809150509250929050565b600080604083850312156139c0578081fd5b6139c98361375d565b946020939093013593505050565b6000602082840312156139e8578081fd5b8151610f968161434e565b600060208284031215613a04578081fd5b8135610f968161435c565b600060208284031215613a20578081fd5b8151610f968161435c565b600060208284031215613a3c578081fd5b5035919050565b600080600080600060a08688031215613a5a578283fd5b85359450613a6a6020870161375d565b9350613a7860408701613807565b92506060860135915060808601356001600160401b03811115613a99578182fd5b613aa5888289016137e8565b9150509295509295909350565b60008060408385031215613ac4578182fd5b8235915060208301356001600160401b03811115613ae0578182fd5b613aec85828601613779565b9150509250929050565b600080600060608486031215613b0a578081fd5b833592506020808501356001600160401b0380821115613b28578384fd5b613b3488838901613779565b94506040870135915080821115613b49578384fd5b508501601f81018713613b5a578283fd5b8035613b6861379982614216565b8082825284820191508484018a868560051b8701011115613b87578687fd5b8694505b83851015613bb857803561ffff81168114613ba4578788fd5b835260019490940193918501918501613b8b565b5080955050505050509250925092565b600080600060408486031215613bdc578081fd5b8335925060208401356001600160401b0380821115613bf9578283fd5b818601915086601f830112613c0c578283fd5b813581811115613c1a578384fd5b876020828501011115613c2b578384fd5b6020830194508093505050509250925092565b60008060408385031215613c50578182fd5b8235915060208301356001600160401b03811115613c6c578182fd5b613aec858286016137e8565b60008060008060008060c08789031215613c90578384fd5b8635955060208701356001600160401b0380821115613cad578586fd5b613cb98a838b016137e8565b96506040890135915080821115613cce578586fd5b613cda8a838b016137e8565b9550613ce860608a01613807565b94506080890135935060a0890135915080821115613d04578283fd5b50613d1189828a016137e8565b9150509295509295509295565b600082825180855260208086019550808260051b840101818601855b848110156137db57601f19868403018952613d56838351613da2565b98840198925090830190600101613d3a565b6000815180845260208085019450808401835b83811015613d9757815187529582019590820190600101613d7b565b509495945050505050565b60008151808452613dba81602086016020860161427c565b601f01601f19169290920160200192915050565b60008351613de081846020880161427c565b835190830190613df481836020880161427c565b01949350505050565b6001600160a01b03858116825284166020820152604081018390526080606082018190526000906109b990830184613da2565b6001600160a01b038681168252851660208201526001600160401b03841660408201526060810183905260a0608082018190526000906115b590830184613da2565b6001600160a01b03831681526040602082018190526000906107f390830184613da2565b6001600160a01b038716815260c060208201819052600090613eba90830188613da2565b8281036040840152613ecc8188613da2565b90506001600160401b038616606084015284608084015282810360a08401526111478185613da2565b604080825283519082018190526000906020906060840190828701845b82811015613f375781516001600160a01b031684529284019290840190600101613f12565b5050506001600160a01b039490941692019190915250919050565b602081526000610f966020830184613d68565b606081526000613f786060830186613d68565b8281036020840152613f8a8186613d1e565b905082810360408401526109b98185613d1e565b604081526000613fb16040830185613d68565b828103602084810191909152845180835285820192820190845b818110156137db57845161ffff1683529383019391830191600101613fcb565b6000604082016040835280855480835260608501915086845260209250828420845b828110156140295781548452928401926001918201910161400d565b50505092019290925292915050565b602081526000610f966020830184613da2565b60208082526032908201527f4552433732313a207472616e7366657220746f206e6f6e20455243373231526560408201527131b2b4bb32b91034b6b83632b6b2b73a32b960711b606082015260800190565b60208082526022908201527f4572726f723a20636572746966696361746520646f6573206e6f742065786973604082015261747360f01b606082015260800190565b60208082526010908201526f14185d5cd8589b194e881c185d5cd95960821b604082015260600190565b60208082526026908201527f4572726f723a206163636f756e74206973206e6f74207468652061737365742060408201526534b9b9bab2b960d11b606082015260800190565b60208082526031908201527f4552433732313a207472616e736665722063616c6c6572206973206e6f74206f6040820152701ddb995c881b9bdc88185c1c1c9bdd9959607a1b606082015260800190565b60208082526026908201527f4572726f723a206167656e7420686173206e6f742074686520726571756972656040820152656420726f6c6560d01b606082015260800190565b604051601f8201601f191681016001600160401b038111828210171561420e5761420e614338565b604052919050565b60006001600160401b0382111561422f5761422f614338565b5060051b60200190565b6000821982111561424c5761424c61430c565b500190565b60008261426057614260614322565b500490565b6000828210156142775761427761430c565b500390565b60005b8381101561429757818101518382015260200161427f565b838111156114715750506000910152565b600181811c908216806142bc57607f821691505b6020821081141561106757634e487b7160e01b600052602260045260246000fd5b60006000198214156142f1576142f161430c565b5060010190565b60008261430757614307614322565b500690565b634e487b7160e01b600052601160045260246000fd5b634e487b7160e01b600052601260045260246000fd5b634e487b7160e01b600052604160045260246000fd5b8015158114610f7c57600080fd5b6001600160e01b031981168114610f7c57600080fdfea264697066735822122042ace486c07a523e38975de28b17334182dd605590b010e4c364b98703de4ced64736f6c634300080400337b226e616d65223a224d4f56454d454e545f495353554552222c20226465736372697074696f6e223a22616c6c6f77656420746f206973737565206d6f76656d656e7473227d7b226e616d65223a2250524f5649444552222c20226465736372697074696f6e223a22616c6c6f77656420746f206973737565206167656e7473207769746820636c69656e7420726f6c65227d7b226e616d65223a22434552545f495353554552222c20226465736372697074696f6e223a22616c6c6f77656420746f20697373756520636572746966696361746573227d7b226e616d65223a2241535345545f495353554552222c20226465736372697074696f6e223a22616c6c6f77656420746f20697373756520617373657473227d7b226e616d65223a2241444d494e222c20226465736372697074696f6e223a22616c6c6f77656420746f20697373756520616e642061737369676e20726f6c6573227d",
  "linkReferences": {
    "contracts/utils/Collections.sol": {
      "Array": [
        {
          "length": 20,
          "start": 9366
        },
        {
          "length": 20,
          "start": 13446
        },
        {
          "length": 20,
          "start": 15309
        }
      ]
    }
  },
  "deployedLinkReferences": {
    "contracts/utils/Collections.sol": {
      "Array": [
        {
          "length": 20,
          "start": 7452
        },
        {
          "length": 20,
          "start": 11532
        },
        {
          "length": 20,
          "start": 13395
        }
      ]
    }
  }
}