{
  "_format": "hh-sol-artifact-1",
  "contractName": "SupplyChain",
  "sourceName": "contracts/orbyc/SupplyChain.sol",
  "abi": [
    {
      "inputs": [
        {
          "internalType": "string",
          "name": "name_",
          "type": "string"
        }
      ],
      "stateMutability": "nonpayable",
      "type": "constructor"
    },
    {
      "anonymous": false,
      "inputs": [
        {
          "indexed": false,
          "internalType": "address",
          "name": "agent",
          "type": "address"
        },
        {
          "indexed": false,
          "internalType": "uint64",
          "name": "id",
          "type": "uint64"
        },
        {
          "indexed": false,
          "internalType": "address",
          "name": "issuer",
          "type": "address"
        }
      ],
      "name": "AgentDefined",
      "type": "event"
    },
    {
      "anonymous": false,
      "inputs": [
        {
          "indexed": false,
          "internalType": "uint256",
          "name": "id",
          "type": "uint256"
        },
        {
          "indexed": false,
          "internalType": "uint64",
          "name": "issuer",
          "type": "uint64"
        },
        {
          "indexed": false,
          "internalType": "address",
          "name": "signer",
          "type": "address"
        }
      ],
      "name": "AssetIssued",
      "type": "event"
    },
    {
      "anonymous": false,
      "inputs": [
        {
          "indexed": false,
          "internalType": "uint256",
          "name": "id",
          "type": "uint256"
        },
        {
          "indexed": false,
          "internalType": "uint64",
          "name": "issuer",
          "type": "uint64"
        },
        {
          "indexed": false,
          "internalType": "address",
          "name": "signer",
          "type": "address"
        }
      ],
      "name": "CertIssued",
      "type": "event"
    },
    {
      "anonymous": false,
      "inputs": [
        {
          "indexed": false,
          "internalType": "uint256",
          "name": "id",
          "type": "uint256"
        },
        {
          "indexed": false,
          "internalType": "uint64",
          "name": "issuer",
          "type": "uint64"
        },
        {
          "indexed": false,
          "internalType": "address",
          "name": "signer",
          "type": "address"
        }
      ],
      "name": "MovementIssued",
      "type": "event"
    },
    {
      "anonymous": false,
      "inputs": [
        {
          "indexed": false,
          "internalType": "address",
          "name": "account",
          "type": "address"
        }
      ],
      "name": "Paused",
      "type": "event"
    },
    {
      "anonymous": false,
      "inputs": [
        {
          "indexed": false,
          "internalType": "uint64",
          "name": "role",
          "type": "uint64"
        },
        {
          "indexed": false,
          "internalType": "address",
          "name": "issuer",
          "type": "address"
        }
      ],
      "name": "RoleDefined",
      "type": "event"
    },
    {
      "anonymous": false,
      "inputs": [
        {
          "indexed": false,
          "internalType": "uint256",
          "name": "id",
          "type": "uint256"
        },
        {
          "indexed": false,
          "internalType": "uint64",
          "name": "sender",
          "type": "uint64"
        },
        {
          "indexed": false,
          "internalType": "uint64",
          "name": "recipient",
          "type": "uint64"
        },
        {
          "indexed": false,
          "internalType": "address",
          "name": "signer",
          "type": "address"
        }
      ],
      "name": "TransferOwnership",
      "type": "event"
    },
    {
      "anonymous": false,
      "inputs": [
        {
          "indexed": false,
          "internalType": "address",
          "name": "account",
          "type": "address"
        }
      ],
      "name": "Unpaused",
      "type": "event"
    },
    {
      "inputs": [],
      "name": "ADMIN_ROLE",
      "outputs": [
        {
          "internalType": "uint64",
          "name": "",
          "type": "uint64"
        }
      ],
      "stateMutability": "view",
      "type": "function"
    },
    {
      "inputs": [],
      "name": "ASSET_ISSUER_ROLE",
      "outputs": [
        {
          "internalType": "uint64",
          "name": "",
          "type": "uint64"
        }
      ],
      "stateMutability": "view",
      "type": "function"
    },
    {
      "inputs": [],
      "name": "CERT_ISSUER_ROLE",
      "outputs": [
        {
          "internalType": "uint64",
          "name": "",
          "type": "uint64"
        }
      ],
      "stateMutability": "view",
      "type": "function"
    },
    {
      "inputs": [],
      "name": "EDITOR_ROLE",
      "outputs": [
        {
          "internalType": "uint64",
          "name": "",
          "type": "uint64"
        }
      ],
      "stateMutability": "view",
      "type": "function"
    },
    {
      "inputs": [],
      "name": "MOVEMENT_ISSUER_ROLE",
      "outputs": [
        {
          "internalType": "uint64",
          "name": "",
          "type": "uint64"
        }
      ],
      "stateMutability": "view",
      "type": "function"
    },
    {
      "inputs": [],
      "name": "NULL_AGENT",
      "outputs": [
        {
          "internalType": "uint64",
          "name": "",
          "type": "uint64"
        }
      ],
      "stateMutability": "view",
      "type": "function"
    },
    {
      "inputs": [],
      "name": "ORBYC_AGENT",
      "outputs": [
        {
          "internalType": "uint64",
          "name": "",
          "type": "uint64"
        }
      ],
      "stateMutability": "view",
      "type": "function"
    },
    {
      "inputs": [],
      "name": "PROVIDER_ROLE",
      "outputs": [
        {
          "internalType": "uint64",
          "name": "",
          "type": "uint64"
        }
      ],
      "stateMutability": "view",
      "type": "function"
    },
    {
      "inputs": [],
      "name": "Pause",
      "outputs": [],
      "stateMutability": "nonpayable",
      "type": "function"
    },
    {
      "inputs": [],
      "name": "Unpause",
      "outputs": [],
      "stateMutability": "nonpayable",
      "type": "function"
    },
    {
      "inputs": [
        {
          "internalType": "uint256",
          "name": "id",
          "type": "uint256"
        },
        {
          "internalType": "uint256[]",
          "name": "transports",
          "type": "uint256[]"
        }
      ],
      "name": "addMovements",
      "outputs": [
        {
          "internalType": "bool",
          "name": "",
          "type": "bool"
        }
      ],
      "stateMutability": "nonpayable",
      "type": "function"
    },
    {
      "inputs": [
        {
          "internalType": "uint256",
          "name": "id",
          "type": "uint256"
        },
        {
          "internalType": "uint256[]",
          "name": "parents",
          "type": "uint256[]"
        },
        {
          "internalType": "uint16[]",
          "name": "composition",
          "type": "uint16[]"
        }
      ],
      "name": "addParents",
      "outputs": [
        {
          "internalType": "bool",
          "name": "",
          "type": "bool"
        }
      ],
      "stateMutability": "nonpayable",
      "type": "function"
    },
    {
      "inputs": [
        {
          "internalType": "uint64",
          "name": "id",
          "type": "uint64"
        }
      ],
      "name": "agentInfo",
      "outputs": [
        {
          "internalType": "string",
          "name": "",
          "type": "string"
        }
      ],
      "stateMutability": "view",
      "type": "function"
    },
    {
      "inputs": [
        {
          "internalType": "uint256",
          "name": "id",
          "type": "uint256"
        }
      ],
      "name": "assetComposition",
      "outputs": [
        {
          "internalType": "uint256[]",
          "name": "",
          "type": "uint256[]"
        },
        {
          "internalType": "uint16[]",
          "name": "",
          "type": "uint16[]"
        }
      ],
      "stateMutability": "view",
      "type": "function"
    },
    {
      "inputs": [
        {
          "internalType": "uint256",
          "name": "id",
          "type": "uint256"
        }
      ],
      "name": "assetInfo",
      "outputs": [
        {
          "internalType": "uint64",
          "name": "",
          "type": "uint64"
        },
        {
          "internalType": "uint64",
          "name": "",
          "type": "uint64"
        },
        {
          "internalType": "uint256",
          "name": "",
          "type": "uint256"
        },
        {
          "internalType": "uint256",
          "name": "",
          "type": "uint256"
        },
        {
          "internalType": "string",
          "name": "",
          "type": "string"
        }
      ],
      "stateMutability": "view",
      "type": "function"
    },
    {
      "inputs": [
        {
          "internalType": "uint256",
          "name": "id",
          "type": "uint256"
        }
      ],
      "name": "assetTraceability",
      "outputs": [
        {
          "internalType": "uint256[]",
          "name": "",
          "type": "uint256[]"
        },
        {
          "internalType": "string[]",
          "name": "",
          "type": "string[]"
        },
        {
          "internalType": "string[]",
          "name": "",
          "type": "string[]"
        }
      ],
      "stateMutability": "view",
      "type": "function"
    },
    {
      "inputs": [
        {
          "internalType": "address",
          "name": "agent",
          "type": "address"
        }
      ],
      "name": "bannAddress",
      "outputs": [
        {
          "internalType": "bool",
          "name": "",
          "type": "bool"
        }
      ],
      "stateMutability": "nonpayable",
      "type": "function"
    },
    {
      "inputs": [
        {
          "internalType": "uint256",
          "name": "id",
          "type": "uint256"
        }
      ],
      "name": "certificateInfo",
      "outputs": [
        {
          "internalType": "uint64",
          "name": "",
          "type": "uint64"
        },
        {
          "internalType": "string",
          "name": "",
          "type": "string"
        }
      ],
      "stateMutability": "view",
      "type": "function"
    },
    {
      "inputs": [
        {
          "internalType": "address",
          "name": "agent",
          "type": "address"
        },
        {
          "internalType": "uint64",
          "name": "id",
          "type": "uint64"
        },
        {
          "internalType": "string",
          "name": "info",
          "type": "string"
        }
      ],
      "name": "defineAgent",
      "outputs": [
        {
          "internalType": "bool",
          "name": "",
          "type": "bool"
        }
      ],
      "stateMutability": "nonpayable",
      "type": "function"
    },
    {
      "inputs": [
        {
          "internalType": "uint64",
          "name": "role",
          "type": "uint64"
        },
        {
          "internalType": "string",
          "name": "info",
          "type": "string"
        }
      ],
      "name": "defineRole",
      "outputs": [
        {
          "internalType": "bool",
          "name": "",
          "type": "bool"
        }
      ],
      "stateMutability": "nonpayable",
      "type": "function"
    },
    {
      "inputs": [
        {
          "internalType": "uint64",
          "name": "id",
          "type": "uint64"
        },
        {
          "internalType": "uint64",
          "name": "role",
          "type": "uint64"
        }
      ],
      "name": "grantRole",
      "outputs": [
        {
          "internalType": "bool",
          "name": "",
          "type": "bool"
        }
      ],
      "stateMutability": "nonpayable",
      "type": "function"
    },
    {
      "inputs": [
        {
          "internalType": "uint64",
          "name": "id",
          "type": "uint64"
        },
        {
          "internalType": "uint64",
          "name": "role",
          "type": "uint64"
        }
      ],
      "name": "hasRole",
      "outputs": [
        {
          "internalType": "bool",
          "name": "",
          "type": "bool"
        }
      ],
      "stateMutability": "view",
      "type": "function"
    },
    {
      "inputs": [
        {
          "internalType": "address",
          "name": "signer",
          "type": "address"
        }
      ],
      "name": "idOf",
      "outputs": [
        {
          "internalType": "uint64",
          "name": "",
          "type": "uint64"
        }
      ],
      "stateMutability": "view",
      "type": "function"
    },
    {
      "inputs": [
        {
          "internalType": "uint256",
          "name": "id",
          "type": "uint256"
        },
        {
          "internalType": "uint64",
          "name": "owner",
          "type": "uint64"
        },
        {
          "internalType": "uint256",
          "name": "co2",
          "type": "uint256"
        },
        {
          "internalType": "uint256",
          "name": "cert",
          "type": "uint256"
        },
        {
          "internalType": "string",
          "name": "metadata",
          "type": "string"
        }
      ],
      "name": "issueAsset",
      "outputs": [
        {
          "internalType": "bool",
          "name": "",
          "type": "bool"
        }
      ],
      "stateMutability": "nonpayable",
      "type": "function"
    },
    {
      "inputs": [
        {
          "internalType": "uint256",
          "name": "id",
          "type": "uint256"
        },
        {
          "internalType": "string",
          "name": "metadata",
          "type": "string"
        }
      ],
      "name": "issueCertificate",
      "outputs": [
        {
          "internalType": "bool",
          "name": "",
          "type": "bool"
        }
      ],
      "stateMutability": "nonpayable",
      "type": "function"
    },
    {
      "inputs": [
        {
          "internalType": "uint256",
          "name": "id",
          "type": "uint256"
        },
        {
          "internalType": "string",
          "name": "lat",
          "type": "string"
        },
        {
          "internalType": "string",
          "name": "lng",
          "type": "string"
        },
        {
          "internalType": "uint256",
          "name": "co2",
          "type": "uint256"
        },
        {
          "internalType": "uint256",
          "name": "cert",
          "type": "uint256"
        },
        {
          "internalType": "string",
          "name": "metadata",
          "type": "string"
        }
      ],
      "name": "issueMovement",
      "outputs": [
        {
          "internalType": "bool",
          "name": "",
          "type": "bool"
        }
      ],
      "stateMutability": "nonpayable",
      "type": "function"
    },
    {
      "inputs": [
        {
          "internalType": "uint256",
          "name": "id",
          "type": "uint256"
        }
      ],
      "name": "movementInfo",
      "outputs": [
        {
          "internalType": "uint64",
          "name": "",
          "type": "uint64"
        },
        {
          "internalType": "string",
          "name": "",
          "type": "string"
        },
        {
          "internalType": "string",
          "name": "",
          "type": "string"
        },
        {
          "internalType": "uint256",
          "name": "",
          "type": "uint256"
        },
        {
          "internalType": "uint256",
          "name": "",
          "type": "uint256"
        },
        {
          "internalType": "string",
          "name": "",
          "type": "string"
        }
      ],
      "stateMutability": "view",
      "type": "function"
    },
    {
      "inputs": [],
      "name": "name",
      "outputs": [
        {
          "internalType": "string",
          "name": "",
          "type": "string"
        }
      ],
      "stateMutability": "view",
      "type": "function"
    },
    {
      "inputs": [],
      "name": "paused",
      "outputs": [
        {
          "internalType": "bool",
          "name": "",
          "type": "bool"
        }
      ],
      "stateMutability": "view",
      "type": "function"
    },
    {
      "inputs": [
        {
          "internalType": "uint64",
          "name": "id",
          "type": "uint64"
        },
        {
          "internalType": "uint64",
          "name": "role",
          "type": "uint64"
        }
      ],
      "name": "revokeRole",
      "outputs": [
        {
          "internalType": "bool",
          "name": "",
          "type": "bool"
        }
      ],
      "stateMutability": "nonpayable",
      "type": "function"
    },
    {
      "inputs": [
        {
          "internalType": "uint64",
          "name": "role",
          "type": "uint64"
        }
      ],
      "name": "roleInfo",
      "outputs": [
        {
          "internalType": "string",
          "name": "",
          "type": "string"
        }
      ],
      "stateMutability": "view",
      "type": "function"
    },
    {
      "inputs": [
        {
          "internalType": "uint256",
          "name": "asset",
          "type": "uint256"
        },
        {
          "internalType": "uint64",
          "name": "recipient",
          "type": "uint64"
        }
      ],
      "name": "transferOwnership",
      "outputs": [
        {
          "internalType": "bool",
          "name": "",
          "type": "bool"
        }
      ],
      "stateMutability": "nonpayable",
      "type": "function"
    }
  ],
  "bytecode": "0x60806040526002600860016101000a81548167ffffffffffffffff021916908367ffffffffffffffff1602179055506004600860096101000a81548167ffffffffffffffff021916908367ffffffffffffffff16021790555060088060116101000a81548167ffffffffffffffff021916908367ffffffffffffffff1602179055506010600960006101000a81548167ffffffffffffffff021916908367ffffffffffffffff1602179055506020600960086101000a81548167ffffffffffffffff021916908367ffffffffffffffff1602179055506040600960106101000a81548167ffffffffffffffff021916908367ffffffffffffffff1602179055506001600960186101000a81548167ffffffffffffffff021916908367ffffffffffffffff160217905550650fffffffffff600a60006101000a81548167ffffffffffffffff021916908367ffffffffffffffff1602179055503480156200016557600080fd5b5060405162005a7538038062005a7583398181016040528101906200018b9190620008e4565b80818060009080519060200190620001a5929190620007c2565b50508060049080519060200190620001bf929190620007c2565b50506000600860006101000a81548160ff0219169083151502179055506200021d600860019054906101000a900467ffffffffffffffff16604051806080016040528060438152602001620059f7604391396200055760201b60201c565b506200025f600860099054906101000a900467ffffffffffffffff166040518060800160405280604a815260200162005928604a91396200055760201b60201c565b50620002a1600860119054906101000a900467ffffffffffffffff166040518060600160405280603b815260200162005a3a603b91396200055760201b60201c565b50620002e3600960009054906101000a900467ffffffffffffffff1660405180608001604052806045815260200162005972604591396200055760201b60201c565b5062000325600960089054906101000a900467ffffffffffffffff16604051806060016040528060408152602001620059b7604091396200055760201b60201c565b5062000367600960109054906101000a900467ffffffffffffffff16604051806080016040528060468152602001620058e2604691396200055760201b60201c565b50620003d56200037c6200064460201b60201c565b600960189054906101000a900467ffffffffffffffff166040518060400160405280601e81526020017f7b226e616d65223a224f726279632044656661756c742041646d696e227d00008152506200064c60201b60201c565b5062000414600960189054906101000a900467ffffffffffffffff16600860019054906101000a900467ffffffffffffffff166200074c60201b60201c565b5062000453600960189054906101000a900467ffffffffffffffff16600860099054906101000a900467ffffffffffffffff166200074c60201b60201c565b5062000492600960189054906101000a900467ffffffffffffffff16600860119054906101000a900467ffffffffffffffff166200074c60201b60201c565b50620004d1600960189054906101000a900467ffffffffffffffff16600960009054906101000a900467ffffffffffffffff166200074c60201b60201c565b5062000510600960189054906101000a900467ffffffffffffffff16600960089054906101000a900467ffffffffffffffff166200074c60201b60201c565b506200054f600960189054906101000a900467ffffffffffffffff16600960109054906101000a900467ffffffffffffffff166200074c60201b60201c565b505062000b6d565b600060405180604001604052808467ffffffffffffffff16815260200183815250600760008567ffffffffffffffff1667ffffffffffffffff16815260200190815260200160002060008201518160000160006101000a81548167ffffffffffffffff021916908367ffffffffffffffff1602179055506020820151816001019080519060200190620005ec929190620007c2565b509050507f5abde54ef581b4f6aaebf296a4d0b094d493d8e8783f3dacc1ffd941e8442e1583620006226200064460201b60201c565b6040516200063292919062000988565b60405180910390a16001905092915050565b600033905090565b600081600660008567ffffffffffffffff1667ffffffffffffffff16815260200190815260200160002060010190805190602001906200068e929190620007c2565b5082600560008673ffffffffffffffffffffffffffffffffffffffff1673ffffffffffffffffffffffffffffffffffffffff16815260200190815260200160002060006101000a81548167ffffffffffffffff021916908367ffffffffffffffff1602179055507f047c5c035c01dc5c2d48c6fa33fd602e6e859313677ce824b0789a461c6ce3a48484620007286200064460201b60201c565b60405162000739939291906200094b565b60405180910390a1600190509392505050565b600081600660008567ffffffffffffffff1667ffffffffffffffff16815260200190815260200160002060000160088282829054906101000a900467ffffffffffffffff161792506101000a81548167ffffffffffffffff021916908367ffffffffffffffff1602179055506001905092915050565b828054620007d09062000a92565b90600052602060002090601f016020900481019282620007f4576000855562000840565b82601f106200080f57805160ff191683800117855562000840565b8280016001018555821562000840579182015b828111156200083f57825182559160200191906001019062000822565b5b5090506200084f919062000853565b5090565b5b808211156200086e57600081600090555060010162000854565b5090565b6000620008896200088384620009de565b620009b5565b905082815260208101848484011115620008a257600080fd5b620008af84828562000a5c565b509392505050565b600082601f830112620008c957600080fd5b8151620008db84826020860162000872565b91505092915050565b600060208284031215620008f757600080fd5b600082015167ffffffffffffffff8111156200091257600080fd5b6200092084828501620008b7565b91505092915050565b620009348162000a14565b82525050565b620009458162000a48565b82525050565b600060608201905062000962600083018662000929565b6200097160208301856200093a565b62000980604083018462000929565b949350505050565b60006040820190506200099f60008301856200093a565b620009ae602083018462000929565b9392505050565b6000620009c1620009d4565b9050620009cf828262000ac8565b919050565b6000604051905090565b600067ffffffffffffffff821115620009fc57620009fb62000b2d565b5b62000a078262000b5c565b9050602081019050919050565b600062000a218262000a28565b9050919050565b600073ffffffffffffffffffffffffffffffffffffffff82169050919050565b600067ffffffffffffffff82169050919050565b60005b8381101562000a7c57808201518184015260208101905062000a5f565b8381111562000a8c576000848401525b50505050565b6000600282049050600182168062000aab57607f821691505b6020821081141562000ac25762000ac162000afe565b5b50919050565b62000ad38262000b5c565b810181811067ffffffffffffffff8211171562000af55762000af462000b2d565b5b80604052505050565b7f4e487b7100000000000000000000000000000000000000000000000000000000600052602260045260246000fd5b7f4e487b7100000000000000000000000000000000000000000000000000000000600052604160045260246000fd5b6000601f19601f8301169050919050565b614d658062000b7d6000396000f3fe608060405234801561001057600080fd5b50600436106101f05760003560e01c806375b238fc1161010f578063ba0a9f50116100a2578063d94fe83211610071578063d94fe83214610640578063e4eb771c14610670578063f22801c6146106a0578063f6863e83146106d0576101f0565b8063ba0a9f5014610591578063bad6a0ab146105c2578063d7a1df9b146105f2578063d8f9ce2414610622576101f0565b8063967ef948116100de578063967ef948146104df578063a853211a1461050f578063a879fcbb1461052d578063b5534cc714610561576101f0565b806375b238fc146104695780637805862f146104875780638e2668bc1461049157806395c33826146104af576101f0565b806341046d3b116101875780635c975abb116101565780635c975abb146104055780636985a022146104235780636a949ce81461042d578063714eb8541461044b576101f0565b806341046d3b146103575780634b50405b146103875780634e994730146103b757806353dcbaaf146103e7576101f0565b80632192bc2a116101c35780632192bc2a146102a357806324c20a34146102d45780633586ed2f146102f2578063403dd0a514610327576101f0565b806306fdde03146101f55780630c816de4146102135780631f2ffbfb1461024357806320b169f414610273575b600080fd5b6101fd610702565b60405161020a9190614074565b60405180910390f35b61022d600480360381019061022891906136b8565b610711565b60405161023a9190614059565b60405180910390f35b61025d60048036038101906102589190613819565b6107dd565b60405161026a9190614059565b60405180910390f35b61028d6004803603810190610288919061352c565b6108af565b60405161029a9190614059565b60405180910390f35b6102bd60048036038101906102b891906135bc565b6109ac565b6040516102cb929190613fc2565b60405180910390f35b6102dc610b81565b6040516102e99190614332565b60405180910390f35b61030c600480360381019061030791906135bc565b610b9b565b60405161031e969594939291906143a6565b60405180910390f35b610341600480360381019061033c9190613925565b610da5565b60405161034e9190614059565b60405180910390f35b610371600480360381019061036c9190613925565b610e98565b60405161037e9190614059565b60405180910390f35b6103a1600480360381019061039c91906137dd565b610f8b565b6040516103ae9190614059565b60405180910390f35b6103d160048036038101906103cc91906138a8565b6113c5565b6040516103de9190614074565b60405180910390f35b6103ef6113d7565b6040516103fc9190614332565b60405180910390f35b61040d6113f1565b60405161041a9190614059565b60405180910390f35b61042b611408565b005b610435611482565b6040516104429190614332565b60405180910390f35b61045361149c565b6040516104609190614332565b60405180910390f35b6104716114b6565b60405161047e9190614332565b60405180910390f35b61048f6114d0565b005b61049961154a565b6040516104a69190614332565b60405180910390f35b6104c960048036038101906104c4919061370c565b611564565b6040516104d69190614059565b60405180910390f35b6104f960048036038101906104f491906138a8565b611638565b6040516105069190614074565b60405180910390f35b61051761164a565b6040516105249190614332565b60405180910390f35b610547600480360381019061054291906135bc565b611664565b60405161055895949392919061441c565b60405180910390f35b61057b600480360381019061057691906138d1565b611763565b6040516105889190614059565b60405180910390f35b6105ab60048036038101906105a691906135bc565b6117e7565b6040516105b9929190614376565b60405180910390f35b6105dc60048036038101906105d79190613639565b6118b5565b6040516105e99190614059565b60405180910390f35b61060c60048036038101906106079190613503565b61199b565b6040516106199190614059565b60405180910390f35b61062a611a6a565b6040516106379190614332565b60405180910390f35b61065a60048036038101906106559190613503565b611a84565b6040516106679190614332565b60405180910390f35b61068a600480360381019061068591906135e5565b611a96565b6040516106979190614059565b60405180910390f35b6106ba60048036038101906106b59190613925565b611b7a565b6040516106c79190614059565b60405180910390f35b6106ea60048036038101906106e591906135bc565b611b8e565b6040516106f993929190613f76565b60405180910390f35b606061070c611f88565b905090565b6000600960009054906101000a900467ffffffffffffffff1661074361073d61073861201a565b611a84565b82611b7a565b610782576040517f08c379a000000000000000000000000000000000000000000000000000000000815260040161077990614276565b60405180910390fd5b61078a6113f1565b156107ca576040517f08c379a00000000000000000000000000000000000000000000000000000000081526004016107c1906141f6565b60405180910390fd5b6107d48484612022565b91505092915050565b6000600960089054906101000a900467ffffffffffffffff1661080f61080961080461201a565b611a84565b82611b7a565b61084e576040517f08c379a000000000000000000000000000000000000000000000000000000000815260040161084590614276565b60405180910390fd5b6108566113f1565b15610896576040517f08c379a000000000000000000000000000000000000000000000000000000000815260040161088d906141f6565b60405180910390fd5b6108a38787878787612036565b91505095945050505050565b6000600860099054906101000a900467ffffffffffffffff166108e16108db6108d661201a565b611a84565b82611b7a565b610920576040517f08c379a000000000000000000000000000000000000000000000000000000000815260040161091790614276565b60405180910390fd5b84600a60009054906101000a900467ffffffffffffffff1667ffffffffffffffff1661094b82611a84565b67ffffffffffffffff161415610996576040517f08c379a000000000000000000000000000000000000000000000000000000000815260040161098d906141d6565b60405180910390fd5b6109a1868686612050565b925050509392505050565b60608060006003600085815260200190815260200160002090506000816004018054905067ffffffffffffffff811115610a0f577f4e487b7100000000000000000000000000000000000000000000000000000000600052604160045260246000fd5b604051908082528060200260200182016040528015610a3d5781602001602082028036833780820191505090505b50905060005b8260040180549050811015610b1e57826005016000846004018381548110610a94577f4e487b7100000000000000000000000000000000000000000000000000000000600052603260045260246000fd5b9060005260206000200154815260200190815260200160002060009054906101000a900461ffff16828281518110610af5577f4e487b7100000000000000000000000000000000000000000000000000000000600052603260045260246000fd5b602002602001019061ffff16908161ffff16815250508080610b16906147a6565b915050610a43565b50816004018181805480602002602001604051908101604052809291908181526020018280548015610b6f57602002820191906000526020600020905b815481526020019060010190808311610b5b575b50505050509150935093505050915091565b600860119054906101000a900467ffffffffffffffff1681565b6000606080600080606060006001600089815260200190815260200160002090508060010160009054906101000a900467ffffffffffffffff1681600201826003018360040154846005015485600601848054610bf790614729565b80601f0160208091040260200160405190810160405280929190818152602001828054610c2390614729565b8015610c705780601f10610c4557610100808354040283529160200191610c70565b820191906000526020600020905b815481529060010190602001808311610c5357829003601f168201915b50505050509450838054610c8390614729565b80601f0160208091040260200160405190810160405280929190818152602001828054610caf90614729565b8015610cfc5780601f10610cd157610100808354040283529160200191610cfc565b820191906000526020600020905b815481529060010190602001808311610cdf57829003601f168201915b50505050509350808054610d0f90614729565b80601f0160208091040260200160405190810160405280929190818152602001828054610d3b90614729565b8015610d885780601f10610d5d57610100808354040283529160200191610d88565b820191906000526020600020905b815481529060010190602001808311610d6b57829003601f168201915b505050505090509650965096509650965096505091939550919395565b6000600860019054906101000a900467ffffffffffffffff16610dd7610dd1610dcc61201a565b611a84565b82611b7a565b610e16576040517f08c379a0000000000000000000000000000000000000000000000000000000008152600401610e0d90614276565b60405180910390fd5b83600a60009054906101000a900467ffffffffffffffff1667ffffffffffffffff168167ffffffffffffffff161415610e84576040517f08c379a0000000000000000000000000000000000000000000000000000000008152600401610e7b90614296565b60405180910390fd5b610e8e8585612066565b9250505092915050565b6000600860019054906101000a900467ffffffffffffffff16610eca610ec4610ebf61201a565b611a84565b82611b7a565b610f09576040517f08c379a0000000000000000000000000000000000000000000000000000000008152600401610f0090614276565b60405180910390fd5b83600a60009054906101000a900467ffffffffffffffff1667ffffffffffffffff168167ffffffffffffffff161415610f77576040517f08c379a0000000000000000000000000000000000000000000000000000000008152600401610f6e90614296565b60405180910390fd5b610f81858561207a565b9250505092915050565b6000610f956113f1565b15610fd5576040517f08c379a0000000000000000000000000000000000000000000000000000000008152600401610fcc906141f6565b60405180910390fd5b6000610fe7610fe261201a565b611a84565b90506000610ff48561208e565b905073__$756bb61c413278bdc0c137c12dfa6aa297$__63ea7a1c5c6110198761208e565b846040518363ffffffff1660e01b8152600401611037929190614029565b60206040518083038186803b15801561104f57600080fd5b505af4158015611063573d6000803e3d6000fd5b505050506040513d601f19601f820116820180604052508101906110879190613593565b6110c6576040517f08c379a00000000000000000000000000000000000000000000000000000000081526004016110bd906140f6565b60405180910390fd5b6000600b600087815260200190815260200160002090508060020160008467ffffffffffffffff1667ffffffffffffffff16815260200190815260200160002060009054906101000a900460ff1615611154576040517f08c379a000000000000000000000000000000000000000000000000000000000815260040161114b90614236565b60405180910390fd5b8467ffffffffffffffff168160010160009054906101000a900467ffffffffffffffff1667ffffffffffffffff161461125557848160010160006101000a81548167ffffffffffffffff021916908367ffffffffffffffff16021790555085816000018190555060005b825181101561125357816002016000848381518110611206577f4e487b7100000000000000000000000000000000000000000000000000000000600052603260045260246000fd5b602002602001015167ffffffffffffffff1667ffffffffffffffff16815260200190815260200160002060006101000a81549060ff0219169055808061124b906147a6565b9150506111be565b505b60018160020160008567ffffffffffffffff1667ffffffffffffffff16815260200190815260200160002060006101000a81548160ff02191690831515021790555060005b8251811015611382578160020160008483815181106112e2577f4e487b7100000000000000000000000000000000000000000000000000000000600052603260045260246000fd5b602002602001015167ffffffffffffffff1667ffffffffffffffff16815260200190815260200160002060009054906101000a900460ff1661136f577fb4cb0f25744eb569b8e0f7aebe41cbeb7559af75de02452e8fc0ce5d65031cee87858861134a61201a565b60405161135a94939291906142ed565b60405180910390a160019450505050506113bf565b808061137a906147a6565b91505061129a565b5060008160010160006101000a81548167ffffffffffffffff021916908367ffffffffffffffff1602179055506113b986866121e3565b93505050505b92915050565b60606113d0826121f7565b9050919050565b600960109054906101000a900467ffffffffffffffff1681565b6000600860009054906101000a900460ff16905090565b600860019054906101000a900467ffffffffffffffff1661143861143261142d61201a565b611a84565b82611b7a565b611477576040517f08c379a000000000000000000000000000000000000000000000000000000000815260040161146e90614276565b60405180910390fd5b61147f6122b3565b50565b600a60009054906101000a900467ffffffffffffffff1681565b600960009054906101000a900467ffffffffffffffff1681565b600860019054906101000a900467ffffffffffffffff1681565b600860019054906101000a900467ffffffffffffffff166115006114fa6114f561201a565b611a84565b82611b7a565b61153f576040517f08c379a000000000000000000000000000000000000000000000000000000000815260040161153690614276565b60405180910390fd5b611547612356565b50565b600960189054906101000a900467ffffffffffffffff1681565b6000600960109054906101000a900467ffffffffffffffff1661159661159061158b61201a565b611a84565b82611b7a565b6115d5576040517f08c379a00000000000000000000000000000000000000000000000000000000081526004016115cc90614276565b60405180910390fd5b6115dd6113f1565b1561161d576040517f08c379a0000000000000000000000000000000000000000000000000000000008152600401611614906141f6565b60405180910390fd5b61162b8888888888886123f8565b9150509695505050505050565b606061164382612414565b9050919050565b600860099054906101000a900467ffffffffffffffff1681565b600080600080606060006003600088815260200190815260200160002090508060010160009054906101000a900467ffffffffffffffff168160010160089054906101000a900467ffffffffffffffff1682600201548360030154846007018080546116cf90614729565b80601f01602080910402602001604051908101604052809291908181526020018280546116fb90614729565b80156117485780601f1061171d57610100808354040283529160200191611748565b820191906000526020600020905b81548152906001019060200180831161172b57829003601f168201915b50505050509050955095509550955095505091939590929450565b6000600860019054906101000a900467ffffffffffffffff1661179561178f61178a61201a565b611a84565b82611b7a565b6117d4576040517f08c379a00000000000000000000000000000000000000000000000000000000081526004016117cb90614276565b60405180910390fd5b6117de84846124d0565b91505092915050565b6000606060006002600085815260200190815260200160002090508060010160009054906101000a900467ffffffffffffffff168160020180805461182b90614729565b80601f016020809104026020016040519081016040528092919081815260200182805461185790614729565b80156118a45780601f10611879576101008083540402835291602001916118a4565b820191906000526020600020905b81548152906001019060200180831161188757829003601f168201915b505050505090509250925050915091565b60008360006118c382611664565b90919293509091509050508091505060006118e46118df61201a565b611a84565b90508167ffffffffffffffff168167ffffffffffffffff161461193c576040517f08c379a000000000000000000000000000000000000000000000000000000000815260040161193390614256565b60405180910390fd5b6119446113f1565b15611984576040517f08c379a000000000000000000000000000000000000000000000000000000000815260040161197b906141f6565b60405180910390fd5b61198f8787876124e4565b93505050509392505050565b6000600860019054906101000a900467ffffffffffffffff166119cd6119c76119c261201a565b611a84565b82611b7a565b611a0c576040517f08c379a0000000000000000000000000000000000000000000000000000000008152600401611a0390614276565b60405180910390fd5b611a6283600a60009054906101000a900467ffffffffffffffff166040518060400160405280600381526020017f2e2e2e00000000000000000000000000000000000000000000000000000000008152506124fa565b915050919050565b600960089054906101000a900467ffffffffffffffff1681565b6000611a8f826125ee565b9050919050565b6000826000611aa482611664565b9091929350909150905050809150506000611ac5611ac061201a565b611a84565b90508167ffffffffffffffff168167ffffffffffffffff1614611b1d576040517f08c379a0000000000000000000000000000000000000000000000000000000008152600401611b1490614256565b60405180910390fd5b611b256113f1565b15611b65576040517f08c379a0000000000000000000000000000000000000000000000000000000008152600401611b5c906141f6565b60405180910390fd5b611b6f8686612600565b935050505092915050565b6000611b868383612614565b905092915050565b606080606060006003600086815260200190815260200160002090506000816006018054905067ffffffffffffffff811115611bf3577f4e487b7100000000000000000000000000000000000000000000000000000000600052604160045260246000fd5b604051908082528060200260200182016040528015611c2657816020015b6060815260200190600190039081611c115790505b5090506000826006018054905067ffffffffffffffff811115611c72577f4e487b7100000000000000000000000000000000000000000000000000000000600052604160045260246000fd5b604051908082528060200260200182016040528015611ca557816020015b6060815260200190600190039081611c905790505b50905060005b8360060180549050811015611f1f5760016000856006018381548110611cfa577f4e487b7100000000000000000000000000000000000000000000000000000000600052603260045260246000fd5b906000526020600020015481526020019081526020016000206002018054611d2190614729565b80601f0160208091040260200160405190810160405280929190818152602001828054611d4d90614729565b8015611d9a5780601f10611d6f57610100808354040283529160200191611d9a565b820191906000526020600020905b815481529060010190602001808311611d7d57829003601f168201915b5050505050838281518110611dd8577f4e487b7100000000000000000000000000000000000000000000000000000000600052603260045260246000fd5b602002602001018190525060016000856006018381548110611e23577f4e487b7100000000000000000000000000000000000000000000000000000000600052603260045260246000fd5b906000526020600020015481526020019081526020016000206003018054611e4a90614729565b80601f0160208091040260200160405190810160405280929190818152602001828054611e7690614729565b8015611ec35780601f10611e9857610100808354040283529160200191611ec3565b820191906000526020600020905b815481529060010190602001808311611ea657829003601f168201915b5050505050828281518110611f01577f4e487b7100000000000000000000000000000000000000000000000000000000600052603260045260246000fd5b60200260200101819052508080611f17906147a6565b915050611cab565b5082600601828282805480602002602001604051908101604052809291908181526020018280548015611f7157602002820191906000526020600020905b815481526020019060010190808311611f5d575b505050505092509550955095505050509193909250565b606060008054611f9790614729565b80601f0160208091040260200160405190810160405280929190818152602001828054611fc390614729565b80156120105780601f10611fe557610100808354040283529160200191612010565b820191906000526020600020905b815481529060010190602001808311611ff357829003601f168201915b5050505050905090565b600033905090565b600061202e838361266c565b905092915050565b6000612045868686868661277e565b905095945050505050565b600061205d8484846124fa565b90509392505050565b60006120728383612932565b905092915050565b600061208683836129a8565b905092915050565b606060008061209c84611664565b90915090505080925081935050506000600267ffffffffffffffff8111156120ed577f4e487b7100000000000000000000000000000000000000000000000000000000600052604160045260246000fd5b60405190808252806020026020018201604052801561211b5781602001602082028036833780820191505090505b5090508281600081518110612159577f4e487b7100000000000000000000000000000000000000000000000000000000600052603260045260246000fd5b602002602001019067ffffffffffffffff16908167ffffffffffffffff168152505081816001815181106121b6577f4e487b7100000000000000000000000000000000000000000000000000000000600052603260045260246000fd5b602002602001019067ffffffffffffffff16908167ffffffffffffffff1681525050809350505050919050565b60006121ef8383612a1e565b905092915050565b6060600660008367ffffffffffffffff1667ffffffffffffffff168152602001908152602001600020600101805461222e90614729565b80601f016020809104026020016040519081016040528092919081815260200182805461225a90614729565b80156122a75780601f1061227c576101008083540402835291602001916122a7565b820191906000526020600020905b81548152906001019060200180831161228a57829003601f168201915b50505050509050919050565b6122bb6113f1565b156122fb576040517f08c379a00000000000000000000000000000000000000000000000000000000081526004016122f2906141f6565b60405180910390fd5b6001600860006101000a81548160ff0219169083151502179055507f62e78cea01bee320cd4e420270b5ea74000d11b0c9f74754ebdbfc544b05a25861233f61201a565b60405161234c9190613f24565b60405180910390a1565b61235e6113f1565b61239d576040517f08c379a000000000000000000000000000000000000000000000000000000000815260040161239490614136565b60405180910390fd5b6000600860006101000a81548160ff0219169083151502179055507f5db9ee0a495bf2e6ff9c91a7834c1ba4fdd244a5e8aa4e537bd38aeae4b073aa6123e161201a565b6040516123ee9190613f24565b60405180910390a1565b6000612408878787878787612b1a565b90509695505050505050565b6060600760008367ffffffffffffffff1667ffffffffffffffff168152602001908152602001600020600101805461244b90614729565b80601f016020809104026020016040519081016040528092919081815260200182805461247790614729565b80156124c45780601f10612499576101008083540402835291602001916124c4565b820191906000526020600020905b8154815290600101906020018083116124a757829003601f168201915b50505050509050919050565b60006124dc8383612cd6565b905092915050565b60006124f1848484612db7565b90509392505050565b600081600660008567ffffffffffffffff1667ffffffffffffffff168152602001908152602001600020600101908051906020019061253a929190613263565b5082600560008673ffffffffffffffffffffffffffffffffffffffff1673ffffffffffffffffffffffffffffffffffffffff16815260200190815260200160002060006101000a81548167ffffffffffffffff021916908367ffffffffffffffff1602179055507f047c5c035c01dc5c2d48c6fa33fd602e6e859313677ce824b0789a461c6ce3a484846125cc61201a565b6040516125db93929190613f3f565b60405180910390a1600190509392505050565b60006125f982612fe8565b9050919050565b600061260c8383613045565b905092915050565b60008082600660008667ffffffffffffffff1667ffffffffffffffff16815260200190815260200160002060000160089054906101000a900467ffffffffffffffff161667ffffffffffffffff161415905092915050565b60008061267f61267a61201a565b611a84565b9050600060026000868152602001908152602001600020905060008160000154146126df576040517f08c379a00000000000000000000000000000000000000000000000000000000081526004016126d690614196565b60405180910390fd5b848160000181905550818160010160006101000a81548167ffffffffffffffff021916908367ffffffffffffffff1602179055508381600201908051906020019061272b929190613263565b507f076c839f130c43cce6f1d7dbefabe0268da35a5ae9d2592f6571cf0352eae56881600001548361275b61201a565b60405161276a939291906142b6565b60405180910390a160019250505092915050565b60008061279161278c61201a565b611a84565b9050600060036000898152602001908152602001600020905060008160000154146127f1576040517f08c379a00000000000000000000000000000000000000000000000000000000081526004016127e890614216565b60405180910390fd5b60006002600087815260200190815260200160002090508581600001541461284e576040517f08c379a000000000000000000000000000000000000000000000000000000000815260040161284590614156565b60405180910390fd5b888260000181905550878260010160006101000a81548167ffffffffffffffff021916908367ffffffffffffffff160217905550828260010160086101000a81548167ffffffffffffffff021916908367ffffffffffffffff16021790555086826002018190555080600001548260030181905550848260070190805190602001906128db929190613263565b507f3f7e038b13852ad31ffc964fa6c285792629e5152f2472d72b75c428941575bd82600001548461290b61201a565b60405161291a939291906142b6565b60405180910390a16001935050505095945050505050565b600081600660008567ffffffffffffffff1667ffffffffffffffff16815260200190815260200160002060000160088282829054906101000a900467ffffffffffffffff161892506101000a81548167ffffffffffffffff021916908367ffffffffffffffff1602179055506001905092915050565b600081600660008567ffffffffffffffff1667ffffffffffffffff16815260200190815260200160002060000160088282829054906101000a900467ffffffffffffffff161792506101000a81548167ffffffffffffffff021916908367ffffffffffffffff1602179055506001905092915050565b600080600360008581526020019081526020016000209050600081600001541415612a7e576040517f08c379a0000000000000000000000000000000000000000000000000000000008152600401612a7590614096565b60405180910390fd5b60008160010160009054906101000a900467ffffffffffffffff169050838260010160006101000a81548167ffffffffffffffff021916908367ffffffffffffffff1602179055507fb4cb0f25744eb569b8e0f7aebe41cbeb7559af75de02452e8fc0ce5d65031cee82600001548286612af661201a565b604051612b0694939291906142ed565b60405180910390a160019250505092915050565b600080612b2d612b2861201a565b611a84565b90506000600160008a815260200190815260200160002090506000816000015414612b8d576040517f08c379a0000000000000000000000000000000000000000000000000000000008152600401612b84906140d6565b60405180910390fd5b600060026000878152602001908152602001600020905085816000015414612bea576040517f08c379a0000000000000000000000000000000000000000000000000000000008152600401612be190614156565b60405180910390fd5b898260000181905550828260010160006101000a81548167ffffffffffffffff021916908367ffffffffffffffff16021790555088826002019080519060200190612c36929190613263565b5087826003019080519060200190612c4f929190613263565b508682600401819055508060000154826005018190555084826006019080519060200190612c7e929190613263565b507fc5e6b6f1766e2f51507af62ac7d251f9dd119ffd22357ca41ddb0af903fa7e99826000015484612cae61201a565b604051612cbd939291906142b6565b60405180910390a1600193505050509695505050505050565b600060405180604001604052808467ffffffffffffffff16815260200183815250600760008567ffffffffffffffff1667ffffffffffffffff16815260200190815260200160002060008201518160000160006101000a81548167ffffffffffffffff021916908367ffffffffffffffff1602179055506020820151816001019080519060200190612d69929190613263565b509050507f5abde54ef581b4f6aaebf296a4d0b094d493d8e8783f3dacc1ffd941e8442e1583612d9761201a565b604051612da592919061434d565b60405180910390a16001905092915050565b60008060036000868152602001908152602001600020905060005b8451811015612fdb576000826005016000878481518110612e1c577f4e487b7100000000000000000000000000000000000000000000000000000000600052603260045260246000fd5b6020026020010151815260200190815260200160002060009054906101000a900461ffff1661ffff1614612e85576040517f08c379a0000000000000000000000000000000000000000000000000000000008152600401612e7c90614116565b60405180910390fd5b600060036000878481518110612ec4577f4e487b7100000000000000000000000000000000000000000000000000000000600052603260045260246000fd5b602002602001015181526020019081526020016000209050600081600001541415612f24576040517f08c379a0000000000000000000000000000000000000000000000000000000008152600401612f1b906141b6565b60405180910390fd5b848281518110612f5d577f4e487b7100000000000000000000000000000000000000000000000000000000600052603260045260246000fd5b60200260200101518360050160008360000154815260200190815260200160002060006101000a81548161ffff021916908361ffff1602179055508260040181600001549080600181540180825580915050600190039060005260206000200160009091909190915055508080612fd3906147a6565b915050612dd2565b5060019150509392505050565b6000600560008373ffffffffffffffffffffffffffffffffffffffff1673ffffffffffffffffffffffffffffffffffffffff16815260200190815260200160002060009054906101000a900467ffffffffffffffff169050919050565b60008060036000858152602001908152602001600020905060005b83518110156132575773__$756bb61c413278bdc0c137c12dfa6aa297$__63b32b8e2c836006018684815181106130c0577f4e487b7100000000000000000000000000000000000000000000000000000000600052603260045260246000fd5b60200260200101516040518363ffffffff1660e01b81526004016130e5929190613ff9565b60206040518083038186803b1580156130fd57600080fd5b505af4158015613111573d6000803e3d6000fd5b505050506040513d601f19601f820116820180604052508101906131359190613593565b15613175576040517f08c379a000000000000000000000000000000000000000000000000000000000815260040161316c90614176565b60405180910390fd5b6000600160008684815181106131b4577f4e487b7100000000000000000000000000000000000000000000000000000000600052603260045260246000fd5b602002602001015181526020019081526020016000209050600081600001541415613214576040517f08c379a000000000000000000000000000000000000000000000000000000000815260040161320b906140b6565b60405180910390fd5b826006018160000154908060018154018082558091505060019003906000526020600020016000909190919091505550808061324f906147a6565b915050613060565b50600191505092915050565b82805461326f90614729565b90600052602060002090601f01602090048101928261329157600085556132d8565b82601f106132aa57805160ff19168380011785556132d8565b828001600101855582156132d8579182015b828111156132d75782518255916020019190600101906132bc565b5b5090506132e591906132e9565b5090565b5b808211156133025760008160009055506001016132ea565b5090565b60006133196133148461449b565b614476565b9050808382526020820190508285602086028201111561333857600080fd5b60005b85811015613368578161334e88826134c4565b84526020840193506020830192505060018101905061333b565b5050509392505050565b6000613385613380846144c7565b614476565b905080838252602082019050828560208602820111156133a457600080fd5b60005b858110156133d457816133ba88826134d9565b8452602084019350602083019250506001810190506133a7565b5050509392505050565b60006133f16133ec846144f3565b614476565b90508281526020810184848401111561340957600080fd5b6134148482856146e7565b509392505050565b60008135905061342b81614cbc565b92915050565b600082601f83011261344257600080fd5b8135613452848260208601613306565b91505092915050565b600082601f83011261346c57600080fd5b813561347c848260208601613372565b91505092915050565b60008151905061349481614cd3565b92915050565b600082601f8301126134ab57600080fd5b81356134bb8482602086016133de565b91505092915050565b6000813590506134d381614cea565b92915050565b6000813590506134e881614d01565b92915050565b6000813590506134fd81614d18565b92915050565b60006020828403121561351557600080fd5b60006135238482850161341c565b91505092915050565b60008060006060848603121561354157600080fd5b600061354f8682870161341c565b9350506020613560868287016134ee565b925050604084013567ffffffffffffffff81111561357d57600080fd5b6135898682870161349a565b9150509250925092565b6000602082840312156135a557600080fd5b60006135b384828501613485565b91505092915050565b6000602082840312156135ce57600080fd5b60006135dc848285016134d9565b91505092915050565b600080604083850312156135f857600080fd5b6000613606858286016134d9565b925050602083013567ffffffffffffffff81111561362357600080fd5b61362f8582860161345b565b9150509250929050565b60008060006060848603121561364e57600080fd5b600061365c868287016134d9565b935050602084013567ffffffffffffffff81111561367957600080fd5b6136858682870161345b565b925050604084013567ffffffffffffffff8111156136a257600080fd5b6136ae86828701613431565b9150509250925092565b600080604083850312156136cb57600080fd5b60006136d9858286016134d9565b925050602083013567ffffffffffffffff8111156136f657600080fd5b6137028582860161349a565b9150509250929050565b60008060008060008060c0878903121561372557600080fd5b600061373389828a016134d9565b965050602087013567ffffffffffffffff81111561375057600080fd5b61375c89828a0161349a565b955050604087013567ffffffffffffffff81111561377957600080fd5b61378589828a0161349a565b945050606061379689828a016134d9565b93505060806137a789828a016134d9565b92505060a087013567ffffffffffffffff8111156137c457600080fd5b6137d089828a0161349a565b9150509295509295509295565b600080604083850312156137f057600080fd5b60006137fe858286016134d9565b925050602061380f858286016134ee565b9150509250929050565b600080600080600060a0868803121561383157600080fd5b600061383f888289016134d9565b9550506020613850888289016134ee565b9450506040613861888289016134d9565b9350506060613872888289016134d9565b925050608086013567ffffffffffffffff81111561388f57600080fd5b61389b8882890161349a565b9150509295509295909350565b6000602082840312156138ba57600080fd5b60006138c8848285016134ee565b91505092915050565b600080604083850312156138e457600080fd5b60006138f2858286016134ee565b925050602083013567ffffffffffffffff81111561390f57600080fd5b61391b8582860161349a565b9150509250929050565b6000806040838503121561393857600080fd5b6000613946858286016134ee565b9250506020613957858286016134ee565b9150509250929050565b600061396d8383613be7565b905092915050565b60006139818383613eac565b60208301905092915050565b60006139998383613ebb565b60208301905092915050565b60006139b18383613ee8565b60208301905092915050565b60006139c98383613f15565b60208301905092915050565b6139de8161467d565b82525050565b60006139ef82614579565b6139f981856145fc565b935083602082028501613a0b85614524565b8060005b85811015613a475784840389528151613a288582613961565b9450613a33836145bb565b925060208a01995050600181019050613a0f565b50829750879550505050505092915050565b6000613a6482614584565b613a6e818561460d565b9350613a7983614534565b8060005b83811015613aaa578151613a918882613975565b9750613a9c836145c8565b925050600181019050613a7d565b5085935050505092915050565b6000613ac28261458f565b613acc818561461e565b9350613ad783614544565b8060005b83811015613b08578151613aef888261398d565b9750613afa836145d5565b925050600181019050613adb565b5085935050505092915050565b6000613b208261459a565b613b2a818561462f565b9350613b3583614554565b8060005b83811015613b6d57613b4a8261487c565b613b5488826139a5565b9750613b5f836145e2565b925050600181019050613b39565b5085935050505092915050565b6000613b85826145a5565b613b8f8185614640565b9350613b9a83614569565b8060005b83811015613bcb578151613bb288826139bd565b9750613bbd836145ef565b925050600181019050613b9e565b5085935050505092915050565b613be18161468f565b82525050565b6000613bf2826145b0565b613bfc8185614651565b9350613c0c8185602086016146f6565b613c158161488f565b840191505092915050565b6000613c2b826145b0565b613c358185614662565b9350613c458185602086016146f6565b613c4e8161488f565b840191505092915050565b6000613c66601c83614662565b9150613c71826148ad565b602082019050919050565b6000613c89602683614662565b9150613c94826148d6565b604082019050919050565b6000613cac601e83614662565b9150613cb782614925565b602082019050919050565b6000613ccf602683614662565b9150613cda8261494e565b604082019050919050565b6000613cf2601d83614662565b9150613cfd8261499d565b602082019050919050565b6000613d15601483614662565b9150613d20826149c6565b602082019050919050565b6000613d38602283614662565b9150613d43826149ef565b604082019050919050565b6000613d5b601d83614662565b9150613d6682614a3e565b602082019050919050565b6000613d7e602183614662565b9150613d8982614a67565b604082019050919050565b6000613da1602383614662565b9150613dac82614ab6565b604082019050919050565b6000613dc4602d83614662565b9150613dcf82614b05565b604082019050919050565b6000613de7601083614662565b9150613df282614b54565b602082019050919050565b6000613e0a601b83614662565b9150613e1582614b7d565b602082019050919050565b6000613e2d602883614662565b9150613e3882614ba6565b604082019050919050565b6000613e50601a83614662565b9150613e5b82614bf5565b602082019050919050565b6000613e73602683614662565b9150613e7e82614c1e565b604082019050919050565b6000613e96602683614662565b9150613ea182614c6d565b604082019050919050565b613eb58161469b565b82525050565b613ec4816146c9565b82525050565b613ed3816146c9565b82525050565b613ee2816146c9565b82525050565b613ef1816146c9565b82525050565b613f00816146d3565b82525050565b613f0f816146d3565b82525050565b613f1e816146d3565b82525050565b6000602082019050613f3960008301846139d5565b92915050565b6000606082019050613f5460008301866139d5565b613f616020830185613ef7565b613f6e60408301846139d5565b949350505050565b60006060820190508181036000830152613f908186613ab7565b90508181036020830152613fa481856139e4565b90508181036040830152613fb881846139e4565b9050949350505050565b60006040820190508181036000830152613fdc8185613ab7565b90508181036020830152613ff08184613a59565b90509392505050565b600060408201905081810360008301526140138185613b15565b90506140226020830184613ed9565b9392505050565b600060408201905081810360008301526140438185613b7a565b90506140526020830184613f06565b9392505050565b600060208201905061406e6000830184613bd8565b92915050565b6000602082019050818103600083015261408e8184613c20565b905092915050565b600060208201905081810360008301526140af81613c59565b9050919050565b600060208201905081810360008301526140cf81613c7c565b9050919050565b600060208201905081810360008301526140ef81613c9f565b9050919050565b6000602082019050818103600083015261410f81613cc2565b9050919050565b6000602082019050818103600083015261412f81613ce5565b9050919050565b6000602082019050818103600083015261414f81613d08565b9050919050565b6000602082019050818103600083015261416f81613d2b565b9050919050565b6000602082019050818103600083015261418f81613d4e565b9050919050565b600060208201905081810360008301526141af81613d71565b9050919050565b600060208201905081810360008301526141cf81613d94565b9050919050565b600060208201905081810360008301526141ef81613db7565b9050919050565b6000602082019050818103600083015261420f81613dda565b9050919050565b6000602082019050818103600083015261422f81613dfd565b9050919050565b6000602082019050818103600083015261424f81613e20565b9050919050565b6000602082019050818103600083015261426f81613e43565b9050919050565b6000602082019050818103600083015261428f81613e66565b9050919050565b600060208201905081810360008301526142af81613e89565b9050919050565b60006060820190506142cb6000830186613eca565b6142d86020830185613ef7565b6142e560408301846139d5565b949350505050565b60006080820190506143026000830187613eca565b61430f6020830186613ef7565b61431c6040830185613ef7565b61432960608301846139d5565b95945050505050565b60006020820190506143476000830184613ef7565b92915050565b60006040820190506143626000830185613ef7565b61436f60208301846139d5565b9392505050565b600060408201905061438b6000830185613ef7565b818103602083015261439d8184613c20565b90509392505050565b600060c0820190506143bb6000830189613ef7565b81810360208301526143cd8188613c20565b905081810360408301526143e18187613c20565b90506143f06060830186613eca565b6143fd6080830185613eca565b81810360a083015261440f8184613c20565b9050979650505050505050565b600060a0820190506144316000830188613ef7565b61443e6020830187613ef7565b61444b6040830186613eca565b6144586060830185613eca565b818103608083015261446a8184613c20565b90509695505050505050565b6000614480614491565b905061448c8282614775565b919050565b6000604051905090565b600067ffffffffffffffff8211156144b6576144b561484d565b5b602082029050602081019050919050565b600067ffffffffffffffff8211156144e2576144e161484d565b5b602082029050602081019050919050565b600067ffffffffffffffff82111561450e5761450d61484d565b5b6145178261488f565b9050602081019050919050565b6000819050602082019050919050565b6000819050602082019050919050565b6000819050602082019050919050565b60008190508160005260206000209050919050565b6000819050602082019050919050565b600081519050919050565b600081519050919050565b600081519050919050565b600081549050919050565b600081519050919050565b600081519050919050565b6000602082019050919050565b6000602082019050919050565b6000602082019050919050565b6000600182019050919050565b6000602082019050919050565b600082825260208201905092915050565b600082825260208201905092915050565b600082825260208201905092915050565b600082825260208201905092915050565b600082825260208201905092915050565b600082825260208201905092915050565b600082825260208201905092915050565b6000819050919050565b6000614688826146a9565b9050919050565b60008115159050919050565b600061ffff82169050919050565b600073ffffffffffffffffffffffffffffffffffffffff82169050919050565b6000819050919050565b600067ffffffffffffffff82169050919050565b82818337600083830152505050565b60005b838110156147145780820151818401526020810190506146f9565b83811115614723576000848401525b50505050565b6000600282049050600182168061474157607f821691505b602082108114156147555761475461481e565b5b50919050565b600061476e614769836148a0565b614673565b9050919050565b61477e8261488f565b810181811067ffffffffffffffff8211171561479d5761479c61484d565b5b80604052505050565b60006147b1826146c9565b91507fffffffffffffffffffffffffffffffffffffffffffffffffffffffffffffffff8214156147e4576147e36147ef565b5b600182019050919050565b7f4e487b7100000000000000000000000000000000000000000000000000000000600052601160045260246000fd5b7f4e487b7100000000000000000000000000000000000000000000000000000000600052602260045260246000fd5b7f4e487b7100000000000000000000000000000000000000000000000000000000600052604160045260246000fd5b6000614888825461475b565b9050919050565b6000601f19601f8301169050919050565b60008160001c9050919050565b7f4572726f723a20617373657420646f6573206e6f742065786973747300000000600082015250565b7f4572726f723a2063616e206e6f742061646420696e6578697374656e74206d6f60008201527f76656d656e740000000000000000000000000000000000000000000000000000602082015250565b7f4572726f723a206d6f76656d656e7420616c7265616479206578697374730000600082015250565b7f4572726f723a207369676e6572206e6f742076616c696420666f72207468697360008201527f2061737365740000000000000000000000000000000000000000000000000000602082015250565b7f4572726f723a20706172656e7420616c72656164792070726573656e74000000600082015250565b7f5061757361626c653a206e6f7420706175736564000000000000000000000000600082015250565b7f4572726f723a20636572746966696361746520646f6573206e6f74206578697360008201527f7473000000000000000000000000000000000000000000000000000000000000602082015250565b7f4572726f723a206d6f76656d656e7420616c7265616479206164646564000000600082015250565b7f4572726f723a20636572746966696361746520616c726561647920657869737460008201527f7300000000000000000000000000000000000000000000000000000000000000602082015250565b7f4572726f723a2063616e206e6f742061646420696e6578697374656e7420617360008201527f7365740000000000000000000000000000000000000000000000000000000000602082015250565b7f4572726f723a206167656e74206973206e756c6c20616464726573732c20636160008201527f6e206e6f74206f70657261746500000000000000000000000000000000000000602082015250565b7f5061757361626c653a2070617573656400000000000000000000000000000000600082015250565b7f4572726f723a20617373657420616c7265616479206578697374730000000000600082015250565b7f4572726f723a207369676e657220616c7265616479207369676e20746869732060008201527f7472616e73666572000000000000000000000000000000000000000000000000602082015250565b7f4572726f723a206167656e74206973206e6f7420697373756572000000000000600082015250565b7f4572726f723a206167656e7420686173206e6f7420746865207265717569726560008201527f6420726f6c650000000000000000000000000000000000000000000000000000602082015250565b7f4572726f723a2063616e206e6f74206f706572617465206f766572206e756c6c60008201527f206167656e740000000000000000000000000000000000000000000000000000602082015250565b614cc58161467d565b8114614cd057600080fd5b50565b614cdc8161468f565b8114614ce757600080fd5b50565b614cf38161469b565b8114614cfe57600080fd5b50565b614d0a816146c9565b8114614d1557600080fd5b50565b614d21816146d3565b8114614d2c57600080fd5b5056fea264697066735822122091e6d72c9c90a96f1678b8b39e22f7576e2341379c9bcd9f6fcc7d9ab7aee74464736f6c634300080400337b226e616d65223a224d4f56454d454e545f495353554552222c20226465736372697074696f6e223a22616c6c6f77656420746f206973737565206d6f76656d656e7473227d7b226e616d65223a22454449544f52222c20226465736372697074696f6e223a22616c6c6f77656420746f20726567697374657220616464726573736573206173206167656e7473227d7b226e616d65223a22434552545f495353554552222c20226465736372697074696f6e223a22616c6c6f77656420746f20697373756520636572746966696361746573227d7b226e616d65223a2241535345545f495353554552222c20226465736372697074696f6e223a22616c6c6f77656420746f20697373756520617373657473227d7b226e616d65223a2241444d494e222c20226465736372697074696f6e223a22616c6c6f77656420746f20697373756520616e642061737369676e20726f6c6573227d7b226e616d65223a2250524f5649444552222c20226465736372697074696f6e223a22616c6c6f77656420746f20686f6c6420617373657473227d",
  "linkReferences": {
    "contracts/utils/Collections.sol": {
      "Array": [
        {
          "length": 20,
          "start": 7029
        },
        {
          "length": 20,
          "start": 15336
        }
      ]
    }
  },
  "deployedLinkReferences": {
    "contracts/utils/Collections.sol": {
      "Array": [
        {
          "length": 20,
          "start": 4088
        },
        {
          "length": 20,
          "start": 12395
        }
      ]
    }
  }
}