{
  "_format": "hh-sol-artifact-1",
  "contractName": "OrbycChain",
  "sourceName": "contracts/orbyc/Chain.sol",
  "abi": [
    {
      "inputs": [
        {
          "internalType": "string",
          "name": "name_",
          "type": "string"
        },
        {
          "internalType": "string",
          "name": "symbol_",
          "type": "string"
        },
        {
          "internalType": "contract IAccountControl",
          "name": "accounts_",
          "type": "address"
        }
      ],
      "stateMutability": "nonpayable",
      "type": "constructor"
    },
    {
      "anonymous": false,
      "inputs": [
        {
          "indexed": true,
          "internalType": "address",
          "name": "owner",
          "type": "address"
        },
        {
          "indexed": true,
          "internalType": "address",
          "name": "approved",
          "type": "address"
        },
        {
          "indexed": true,
          "internalType": "uint256",
          "name": "tokenId",
          "type": "uint256"
        }
      ],
      "name": "Approval",
      "type": "event"
    },
    {
      "anonymous": false,
      "inputs": [
        {
          "indexed": true,
          "internalType": "address",
          "name": "owner",
          "type": "address"
        },
        {
          "indexed": true,
          "internalType": "address",
          "name": "operator",
          "type": "address"
        },
        {
          "indexed": false,
          "internalType": "bool",
          "name": "approved",
          "type": "bool"
        }
      ],
      "name": "ApprovalForAll",
      "type": "event"
    },
    {
      "anonymous": false,
      "inputs": [
        {
          "indexed": true,
          "internalType": "uint64",
          "name": "role",
          "type": "uint64"
        },
        {
          "indexed": true,
          "internalType": "uint64",
          "name": "previousAdminRole",
          "type": "uint64"
        },
        {
          "indexed": true,
          "internalType": "uint64",
          "name": "newAdminRole",
          "type": "uint64"
        }
      ],
      "name": "RoleAdminChanged",
      "type": "event"
    },
    {
      "anonymous": false,
      "inputs": [
        {
          "indexed": true,
          "internalType": "uint64",
          "name": "role",
          "type": "uint64"
        },
        {
          "indexed": true,
          "internalType": "address",
          "name": "account",
          "type": "address"
        },
        {
          "indexed": true,
          "internalType": "address",
          "name": "sender",
          "type": "address"
        }
      ],
      "name": "RoleGranted",
      "type": "event"
    },
    {
      "anonymous": false,
      "inputs": [
        {
          "indexed": true,
          "internalType": "uint64",
          "name": "role",
          "type": "uint64"
        },
        {
          "indexed": true,
          "internalType": "address",
          "name": "account",
          "type": "address"
        },
        {
          "indexed": true,
          "internalType": "address",
          "name": "sender",
          "type": "address"
        }
      ],
      "name": "RoleRevoked",
      "type": "event"
    },
    {
      "anonymous": false,
      "inputs": [
        {
          "indexed": true,
          "internalType": "address",
          "name": "from",
          "type": "address"
        },
        {
          "indexed": true,
          "internalType": "address",
          "name": "to",
          "type": "address"
        },
        {
          "indexed": true,
          "internalType": "uint256",
          "name": "tokenId",
          "type": "uint256"
        }
      ],
      "name": "Transfer",
      "type": "event"
    },
    {
      "inputs": [],
      "name": "ASSET_ISSUER_ROLE",
      "outputs": [
        {
          "internalType": "uint64",
          "name": "",
          "type": "uint64"
        }
      ],
      "stateMutability": "view",
      "type": "function"
    },
    {
      "inputs": [],
      "name": "CERTIFICATE_ISSUER_ROLE",
      "outputs": [
        {
          "internalType": "uint64",
          "name": "",
          "type": "uint64"
        }
      ],
      "stateMutability": "view",
      "type": "function"
    },
    {
      "inputs": [],
      "name": "COMPOSITION_ISSUER_ROLE",
      "outputs": [
        {
          "internalType": "uint64",
          "name": "",
          "type": "uint64"
        }
      ],
      "stateMutability": "view",
      "type": "function"
    },
    {
      "inputs": [],
      "name": "DEFAULT_ADMIN_ROLE",
      "outputs": [
        {
          "internalType": "uint64",
          "name": "",
          "type": "uint64"
        }
      ],
      "stateMutability": "view",
      "type": "function"
    },
    {
      "inputs": [],
      "name": "TRACEABILITY_ISSUER_ROLE",
      "outputs": [
        {
          "internalType": "uint64",
          "name": "",
          "type": "uint64"
        }
      ],
      "stateMutability": "view",
      "type": "function"
    },
    {
      "inputs": [
        {
          "internalType": "uint256",
          "name": "tokenId",
          "type": "uint256"
        },
        {
          "components": [
            {
              "internalType": "uint256",
              "name": "id",
              "type": "uint256"
            },
            {
              "internalType": "string",
              "name": "metadata",
              "type": "string"
            }
          ],
          "internalType": "struct ERC721Certificable.Certificate[]",
          "name": "certificates",
          "type": "tuple[]"
        }
      ],
      "name": "appendCertificates",
      "outputs": [],
      "stateMutability": "nonpayable",
      "type": "function"
    },
    {
      "inputs": [
        {
          "internalType": "uint256",
          "name": "tokenId",
          "type": "uint256"
        },
        {
          "components": [
            {
              "internalType": "uint256",
              "name": "tokenId",
              "type": "uint256"
            },
            {
              "internalType": "string",
              "name": "metadata",
              "type": "string"
            }
          ],
          "internalType": "struct ERC721Compound.Component[]",
          "name": "components",
          "type": "tuple[]"
        }
      ],
      "name": "appendComponents",
      "outputs": [],
      "stateMutability": "nonpayable",
      "type": "function"
    },
    {
      "inputs": [
        {
          "internalType": "uint256",
          "name": "tokenId",
          "type": "uint256"
        },
        {
          "components": [
            {
              "internalType": "string",
              "name": "metadata",
              "type": "string"
            }
          ],
          "internalType": "struct ERC721Traceable.Trace[]",
          "name": "traces",
          "type": "tuple[]"
        }
      ],
      "name": "appendTraces",
      "outputs": [],
      "stateMutability": "nonpayable",
      "type": "function"
    },
    {
      "inputs": [
        {
          "internalType": "address",
          "name": "to",
          "type": "address"
        },
        {
          "internalType": "uint256",
          "name": "tokenId",
          "type": "uint256"
        }
      ],
      "name": "approve",
      "outputs": [],
      "stateMutability": "nonpayable",
      "type": "function"
    },
    {
      "inputs": [
        {
          "internalType": "address",
          "name": "owner",
          "type": "address"
        }
      ],
      "name": "balanceOf",
      "outputs": [
        {
          "internalType": "uint256",
          "name": "",
          "type": "uint256"
        }
      ],
      "stateMutability": "view",
      "type": "function"
    },
    {
      "inputs": [
        {
          "internalType": "bytes",
          "name": "execution",
          "type": "bytes"
        },
        {
          "internalType": "uint256",
          "name": "deadline",
          "type": "uint256"
        },
        {
          "internalType": "bytes[]",
          "name": "signatures",
          "type": "bytes[]"
        }
      ],
      "name": "execute",
      "outputs": [
        {
          "internalType": "bytes",
          "name": "",
          "type": "bytes"
        }
      ],
      "stateMutability": "nonpayable",
      "type": "function"
    },
    {
      "inputs": [
        {
          "internalType": "uint256",
          "name": "tokenId",
          "type": "uint256"
        }
      ],
      "name": "getApproved",
      "outputs": [
        {
          "internalType": "address",
          "name": "",
          "type": "address"
        }
      ],
      "stateMutability": "view",
      "type": "function"
    },
    {
      "inputs": [
        {
          "internalType": "uint256",
          "name": "tokenId",
          "type": "uint256"
        }
      ],
      "name": "getCertifications",
      "outputs": [
        {
          "components": [
            {
              "internalType": "uint256",
              "name": "id",
              "type": "uint256"
            },
            {
              "internalType": "string",
              "name": "metadata",
              "type": "string"
            }
          ],
          "internalType": "struct ERC721Certificable.Certificate[]",
          "name": "",
          "type": "tuple[]"
        }
      ],
      "stateMutability": "view",
      "type": "function"
    },
    {
      "inputs": [
        {
          "internalType": "uint256",
          "name": "tokenId",
          "type": "uint256"
        }
      ],
      "name": "getComposition",
      "outputs": [
        {
          "components": [
            {
              "internalType": "uint256",
              "name": "tokenId",
              "type": "uint256"
            },
            {
              "internalType": "string",
              "name": "metadata",
              "type": "string"
            }
          ],
          "internalType": "struct ERC721Compound.Component[]",
          "name": "",
          "type": "tuple[]"
        }
      ],
      "stateMutability": "view",
      "type": "function"
    },
    {
      "inputs": [
        {
          "internalType": "uint256",
          "name": "tokenId",
          "type": "uint256"
        }
      ],
      "name": "getMetadata",
      "outputs": [
        {
          "internalType": "string",
          "name": "",
          "type": "string"
        }
      ],
      "stateMutability": "view",
      "type": "function"
    },
    {
      "inputs": [
        {
          "internalType": "uint64",
          "name": "role",
          "type": "uint64"
        }
      ],
      "name": "getRoleAdmin",
      "outputs": [
        {
          "internalType": "uint64",
          "name": "",
          "type": "uint64"
        }
      ],
      "stateMutability": "view",
      "type": "function"
    },
    {
      "inputs": [
        {
          "internalType": "uint256",
          "name": "tokenId",
          "type": "uint256"
        }
      ],
      "name": "getTraceability",
      "outputs": [
        {
          "components": [
            {
              "internalType": "string",
              "name": "metadata",
              "type": "string"
            }
          ],
          "internalType": "struct ERC721Traceable.Trace[]",
          "name": "",
          "type": "tuple[]"
        }
      ],
      "stateMutability": "view",
      "type": "function"
    },
    {
      "inputs": [
        {
          "internalType": "uint64",
          "name": "role",
          "type": "uint64"
        },
        {
          "internalType": "address",
          "name": "account",
          "type": "address"
        }
      ],
      "name": "grantRole",
      "outputs": [],
      "stateMutability": "nonpayable",
      "type": "function"
    },
    {
      "inputs": [
        {
          "internalType": "uint64",
          "name": "role",
          "type": "uint64"
        },
        {
          "internalType": "address",
          "name": "account",
          "type": "address"
        }
      ],
      "name": "hasRole",
      "outputs": [
        {
          "internalType": "bool",
          "name": "",
          "type": "bool"
        }
      ],
      "stateMutability": "view",
      "type": "function"
    },
    {
      "inputs": [
        {
          "internalType": "address",
          "name": "owner",
          "type": "address"
        },
        {
          "internalType": "address",
          "name": "operator",
          "type": "address"
        }
      ],
      "name": "isApprovedForAll",
      "outputs": [
        {
          "internalType": "bool",
          "name": "",
          "type": "bool"
        }
      ],
      "stateMutability": "view",
      "type": "function"
    },
    {
      "inputs": [
        {
          "internalType": "uint256",
          "name": "tokenId",
          "type": "uint256"
        },
        {
          "internalType": "string",
          "name": "data",
          "type": "string"
        }
      ],
      "name": "mint",
      "outputs": [],
      "stateMutability": "nonpayable",
      "type": "function"
    },
    {
      "inputs": [],
      "name": "name",
      "outputs": [
        {
          "internalType": "string",
          "name": "",
          "type": "string"
        }
      ],
      "stateMutability": "view",
      "type": "function"
    },
    {
      "inputs": [
        {
          "internalType": "address",
          "name": "sender",
          "type": "address"
        }
      ],
      "name": "nonces",
      "outputs": [
        {
          "internalType": "uint256",
          "name": "",
          "type": "uint256"
        }
      ],
      "stateMutability": "view",
      "type": "function"
    },
    {
      "inputs": [
        {
          "internalType": "uint256",
          "name": "tokenId",
          "type": "uint256"
        }
      ],
      "name": "ownerOf",
      "outputs": [
        {
          "internalType": "address",
          "name": "",
          "type": "address"
        }
      ],
      "stateMutability": "view",
      "type": "function"
    },
    {
      "inputs": [
        {
          "internalType": "uint64",
          "name": "role",
          "type": "uint64"
        },
        {
          "internalType": "address",
          "name": "account",
          "type": "address"
        }
      ],
      "name": "renounceRole",
      "outputs": [],
      "stateMutability": "nonpayable",
      "type": "function"
    },
    {
      "inputs": [
        {
          "internalType": "uint256",
          "name": "tokenId",
          "type": "uint256"
        }
      ],
      "name": "resetCertifications",
      "outputs": [],
      "stateMutability": "nonpayable",
      "type": "function"
    },
    {
      "inputs": [
        {
          "internalType": "uint256",
          "name": "tokenId",
          "type": "uint256"
        }
      ],
      "name": "resetComposition",
      "outputs": [],
      "stateMutability": "nonpayable",
      "type": "function"
    },
    {
      "inputs": [
        {
          "internalType": "uint256",
          "name": "tokenId",
          "type": "uint256"
        },
        {
          "internalType": "string",
          "name": "metadata",
          "type": "string"
        }
      ],
      "name": "resetTokenMetadata",
      "outputs": [],
      "stateMutability": "nonpayable",
      "type": "function"
    },
    {
      "inputs": [
        {
          "internalType": "uint256",
          "name": "tokenId",
          "type": "uint256"
        }
      ],
      "name": "resetTraceability",
      "outputs": [],
      "stateMutability": "nonpayable",
      "type": "function"
    },
    {
      "inputs": [
        {
          "internalType": "uint64",
          "name": "role",
          "type": "uint64"
        },
        {
          "internalType": "address",
          "name": "account",
          "type": "address"
        }
      ],
      "name": "revokeRole",
      "outputs": [],
      "stateMutability": "nonpayable",
      "type": "function"
    },
    {
      "inputs": [
        {
          "internalType": "uint256",
          "name": "_tokenId",
          "type": "uint256"
        },
        {
          "internalType": "uint256",
          "name": "_salePrice",
          "type": "uint256"
        }
      ],
      "name": "royaltyInfo",
      "outputs": [
        {
          "internalType": "address",
          "name": "",
          "type": "address"
        },
        {
          "internalType": "uint256",
          "name": "",
          "type": "uint256"
        }
      ],
      "stateMutability": "view",
      "type": "function"
    },
    {
      "inputs": [
        {
          "internalType": "address",
          "name": "from",
          "type": "address"
        },
        {
          "internalType": "address",
          "name": "to",
          "type": "address"
        },
        {
          "internalType": "uint256",
          "name": "tokenId",
          "type": "uint256"
        }
      ],
      "name": "safeTransferFrom",
      "outputs": [],
      "stateMutability": "nonpayable",
      "type": "function"
    },
    {
      "inputs": [
        {
          "internalType": "address",
          "name": "from",
          "type": "address"
        },
        {
          "internalType": "address",
          "name": "to",
          "type": "address"
        },
        {
          "internalType": "uint256",
          "name": "tokenId",
          "type": "uint256"
        },
        {
          "internalType": "bytes",
          "name": "data",
          "type": "bytes"
        }
      ],
      "name": "safeTransferFrom",
      "outputs": [],
      "stateMutability": "nonpayable",
      "type": "function"
    },
    {
      "inputs": [
        {
          "internalType": "address",
          "name": "operator",
          "type": "address"
        },
        {
          "internalType": "bool",
          "name": "approved",
          "type": "bool"
        }
      ],
      "name": "setApprovalForAll",
      "outputs": [],
      "stateMutability": "nonpayable",
      "type": "function"
    },
    {
      "inputs": [
        {
          "internalType": "bytes4",
          "name": "interfaceId",
          "type": "bytes4"
        }
      ],
      "name": "supportsInterface",
      "outputs": [
        {
          "internalType": "bool",
          "name": "",
          "type": "bool"
        }
      ],
      "stateMutability": "view",
      "type": "function"
    },
    {
      "inputs": [],
      "name": "symbol",
      "outputs": [
        {
          "internalType": "string",
          "name": "",
          "type": "string"
        }
      ],
      "stateMutability": "view",
      "type": "function"
    },
    {
      "inputs": [
        {
          "internalType": "uint256",
          "name": "index",
          "type": "uint256"
        }
      ],
      "name": "tokenByIndex",
      "outputs": [
        {
          "internalType": "uint256",
          "name": "",
          "type": "uint256"
        }
      ],
      "stateMutability": "view",
      "type": "function"
    },
    {
      "inputs": [
        {
          "internalType": "address",
          "name": "owner",
          "type": "address"
        },
        {
          "internalType": "uint256",
          "name": "index",
          "type": "uint256"
        }
      ],
      "name": "tokenOfOwnerByIndex",
      "outputs": [
        {
          "internalType": "uint256",
          "name": "",
          "type": "uint256"
        }
      ],
      "stateMutability": "view",
      "type": "function"
    },
    {
      "inputs": [
        {
          "internalType": "uint256",
          "name": "tokenId",
          "type": "uint256"
        }
      ],
      "name": "tokenURI",
      "outputs": [
        {
          "internalType": "string",
          "name": "",
          "type": "string"
        }
      ],
      "stateMutability": "pure",
      "type": "function"
    },
    {
      "inputs": [],
      "name": "totalSupply",
      "outputs": [
        {
          "internalType": "uint256",
          "name": "",
          "type": "uint256"
        }
      ],
      "stateMutability": "view",
      "type": "function"
    },
    {
      "inputs": [
        {
          "internalType": "address",
          "name": "from",
          "type": "address"
        },
        {
          "internalType": "address",
          "name": "to",
          "type": "address"
        },
        {
          "internalType": "uint256",
          "name": "tokenId",
          "type": "uint256"
        }
      ],
      "name": "transferFrom",
      "outputs": [],
      "stateMutability": "nonpayable",
      "type": "function"
    }
  ],
  "bytecode": "0x6101606040527fd4335c17694100386699225e8046bb34815f8092a80796ad9c2bc1f9cb2c99c4610140908152503480156200003a57600080fd5b50604051620083573803806200835783398181016040528101906200006091906200072a565b828383826040518060400160405280600181526020017f310000000000000000000000000000000000000000000000000000000000000081525060008280519060200120905060008280519060200120905060007f8b73c3c69bb8fe3d512ecc4cf759cc79239f7b179b0ffacaa9a75d522b39400f90508260e081815250508161010081815250504660a08181525050620001038184846200022f60201b60201c565b608081815250503073ffffffffffffffffffffffffffffffffffffffff1660c08173ffffffffffffffffffffffffffffffffffffffff1681525050806101208181525050505050505081600290816200015d919062000a0f565b5080600390816200016f919062000a0f565b5050505080601560006101000a81548173ffffffffffffffffffffffffffffffffffffffff021916908373ffffffffffffffffffffffffffffffffffffffff160217905550620001c8600260016200026b60201b60201c565b620001dc600460016200026b60201b60201c565b620001f0600860016200026b60201b60201c565b62000204601060016200026b60201b60201c565b6200022660016200021a6200031f60201b60201c565b620003db60201b60201c565b50505062000c10565b600083838346306040516020016200024c95949392919062000b33565b6040516020818303038152906040528051906020012090509392505050565b60006200027e83620004d260201b60201c565b9050816000808567ffffffffffffffff1667ffffffffffffffff16815260200190815260200160002060006101000a81548167ffffffffffffffff021916908367ffffffffffffffff1602179055508167ffffffffffffffff168167ffffffffffffffff168467ffffffffffffffff167fb3f64d01c9ffe8c7da50937e6617936aae17a6c8d8502cb470bdf50484ce491760405160405180910390a4505050565b6000601560009054906101000a900473ffffffffffffffffffffffffffffffffffffffff1673ffffffffffffffffffffffffffffffffffffffff16638086b8ba620003746200051660201b6200270d1760201c565b6040518263ffffffff1660e01b815260040162000392919062000b90565b602060405180830381865afa158015620003b0573d6000803e3d6000fd5b505050506040513d601f19601f82011682018060405250810190620003d6919062000bde565b905090565b81600160008373ffffffffffffffffffffffffffffffffffffffff1673ffffffffffffffffffffffffffffffffffffffff16815260200190815260200160002060008282829054906101000a900467ffffffffffffffff161792506101000a81548167ffffffffffffffff021916908367ffffffffffffffff1602179055506200046a6200031f60201b60201c565b73ffffffffffffffffffffffffffffffffffffffff168173ffffffffffffffffffffffffffffffffffffffff168367ffffffffffffffff167f2e633503bdbb177665559a9efb7b963d30f2042d94c73311e9c54f799584abd560405160405180910390a45050565b60008060008367ffffffffffffffff1667ffffffffffffffff16815260200190815260200160002060009054906101000a900467ffffffffffffffff169050919050565b600033905090565b6000604051905090565b600080fd5b600080fd5b600080fd5b600080fd5b6000601f19601f8301169050919050565b7f4e487b7100000000000000000000000000000000000000000000000000000000600052604160045260246000fd5b62000587826200053c565b810181811067ffffffffffffffff82111715620005a957620005a86200054d565b5b80604052505050565b6000620005be6200051e565b9050620005cc82826200057c565b919050565b600067ffffffffffffffff821115620005ef57620005ee6200054d565b5b620005fa826200053c565b9050602081019050919050565b60005b83811015620006275780820151818401526020810190506200060a565b60008484015250505050565b60006200064a6200064484620005d1565b620005b2565b90508281526020810184848401111562000669576200066862000537565b5b6200067684828562000607565b509392505050565b600082601f83011262000696576200069562000532565b5b8151620006a884826020860162000633565b91505092915050565b600073ffffffffffffffffffffffffffffffffffffffff82169050919050565b6000620006de82620006b1565b9050919050565b6000620006f282620006d1565b9050919050565b6200070481620006e5565b81146200071057600080fd5b50565b6000815190506200072481620006f9565b92915050565b60008060006060848603121562000746576200074562000528565b5b600084015167ffffffffffffffff8111156200076757620007666200052d565b5b62000775868287016200067e565b935050602084015167ffffffffffffffff8111156200079957620007986200052d565b5b620007a7868287016200067e565b9250506040620007ba8682870162000713565b9150509250925092565b600081519050919050565b7f4e487b7100000000000000000000000000000000000000000000000000000000600052602260045260246000fd5b600060028204905060018216806200081757607f821691505b6020821081036200082d576200082c620007cf565b5b50919050565b60008190508160005260206000209050919050565b60006020601f8301049050919050565b600082821b905092915050565b600060088302620008977fffffffffffffffffffffffffffffffffffffffffffffffffffffffffffffffff8262000858565b620008a3868362000858565b95508019841693508086168417925050509392505050565b6000819050919050565b6000819050919050565b6000620008f0620008ea620008e484620008bb565b620008c5565b620008bb565b9050919050565b6000819050919050565b6200090c83620008cf565b620009246200091b82620008f7565b84845462000865565b825550505050565b600090565b6200093b6200092c565b6200094881848462000901565b505050565b5b8181101562000970576200096460008262000931565b6001810190506200094e565b5050565b601f821115620009bf57620009898162000833565b620009948462000848565b81016020851015620009a4578190505b620009bc620009b38562000848565b8301826200094d565b50505b505050565b600082821c905092915050565b6000620009e460001984600802620009c4565b1980831691505092915050565b6000620009ff8383620009d1565b9150826002028217905092915050565b62000a1a82620007c4565b67ffffffffffffffff81111562000a365762000a356200054d565b5b62000a428254620007fe565b62000a4f82828562000974565b600060209050601f83116001811462000a87576000841562000a72578287015190505b62000a7e8582620009f1565b86555062000aee565b601f19841662000a978662000833565b60005b8281101562000ac15784890151825560018201915060208501945060208101905062000a9a565b8683101562000ae1578489015162000add601f891682620009d1565b8355505b6001600288020188555050505b505050505050565b6000819050919050565b62000b0b8162000af6565b82525050565b62000b1c81620008bb565b82525050565b62000b2d81620006d1565b82525050565b600060a08201905062000b4a600083018862000b00565b62000b59602083018762000b00565b62000b68604083018662000b00565b62000b77606083018562000b11565b62000b86608083018462000b22565b9695505050505050565b600060208201905062000ba7600083018462000b22565b92915050565b62000bb881620006d1565b811462000bc457600080fd5b50565b60008151905062000bd88162000bad565b92915050565b60006020828403121562000bf75762000bf662000528565b5b600062000c078482850162000bc7565b91505092915050565b60805160a05160c05160e0516101005161012051610140516176ec62000c6b600039600061115101526000613ed701526000613f1901526000613ef801526000613e2d01526000613e8301526000613eac01526176ec6000f3fe608060405234801561001057600080fd5b50600436106102535760003560e01c80637ecebe0011610146578063b88d4fde116100c3578063d86d695211610087578063d86d695214610765578063d8f9ce2414610783578063e1a5d92e146107a1578063e9098026146107bd578063e985e9c5146107ed578063fe0776f51461081d57610253565b8063b88d4fde1461069b578063bafd8d4e146106b7578063bca841b1146106d5578063c87b56dd14610705578063d1f856ee1461073557610253565b8063a22cb4651161010a578063a22cb465146105f9578063a41144cb14610615578063a574cea414610633578063b428b0b014610663578063b7d2b1621461067f57610253565b80637ecebe001461055557806395d89b41146105855780639c23cbff146105a3578063a153e072146105bf578063a217fddf146105db57610253565b806336ed6828116101d4578063547cb67711610198578063547cb6771461048d5780636352211e146104bd57806370a08231146104ed57806372dc0db91461051d57806377097fc81461053957610253565b806336ed6828146103c557806342842e0e146103f5578063455751ff146104115780634f6ccce71461042d578063530dd4561461045d57610253565b80630c328f341161021b5780630c328f341461030e57806318160ddd1461032a57806323b872dd146103485780632a55205a146103645780632f745c591461039557610253565b806301ffc9a71461025857806306fdde0314610288578063081812fc146102a6578063095ea7b3146102d65780630b6c1368146102f2575b600080fd5b610272600480360381019061026d9190614d14565b610839565b60405161027f9190614d5c565b60405180910390f35b61029061087b565b60405161029d9190614e07565b60405180910390f35b6102c060048036038101906102bb9190614e5f565b61090d565b6040516102cd9190614ecd565b60405180910390f35b6102f060048036038101906102eb9190614f14565b610953565b005b61030c600480360381019061030791906151d1565b610a6a565b005b61032860048036038101906103239190614e5f565b610c38565b005b610332610e04565b60405161033f919061523c565b60405180910390f35b610362600480360381019061035d9190615257565b610e11565b005b61037e600480360381019061037991906152aa565b610e71565b60405161038c9291906152ea565b60405180910390f35b6103af60048036038101906103aa9190614f14565b61105b565b6040516103bc919061523c565b60405180910390f35b6103df60048036038101906103da91906154f0565b611100565b6040516103ec91906155d5565b60405180910390f35b61040f600480360381019061040a9190615257565b61147f565b005b61042b60048036038101906104269190614e5f565b61149f565b005b61044760048036038101906104429190614e5f565b61166b565b604051610454919061523c565b60405180910390f35b61047760048036038101906104729190615637565b6116dc565b6040516104849190615673565b60405180910390f35b6104a760048036038101906104a29190614e5f565b611720565b6040516104b491906157c4565b60405180910390f35b6104d760048036038101906104d29190614e5f565b611820565b6040516104e49190614ecd565b60405180910390f35b610507600480360381019061050291906157e6565b6118a6565b604051610514919061523c565b60405180910390f35b61053760048036038101906105329190615960565b61195d565b005b610553600480360381019061054e91906159bc565b611b2b565b005b61056f600480360381019061056a91906157e6565b611b7b565b60405161057c919061523c565b60405180910390f35b61058d611bcb565b60405161059a9190614e07565b60405180910390f35b6105bd60048036038101906105b89190614e5f565b611c5d565b005b6105d960048036038101906105d49190615b65565b611e29565b005b6105e3611ff7565b6040516105f09190615673565b60405180910390f35b610613600480360381019061060e9190615bed565b611ffc565b005b61061d612012565b60405161062a9190615673565b60405180910390f35b61064d60048036038101906106489190614e5f565b612017565b60405161065a9190614e07565b60405180910390f35b61067d60048036038101906106789190615c2d565b6120bc565b005b61069960048036038101906106949190615c2d565b6120dd565b005b6106b560048036038101906106b09190615c6d565b6120fe565b005b6106bf612160565b6040516106cc9190615673565b60405180910390f35b6106ef60048036038101906106ea9190614e5f565b612165565b6040516106fc9190615dfe565b60405180910390f35b61071f600480360381019061071a9190614e5f565b612273565b60405161072c9190614e07565b60405180910390f35b61074f600480360381019061074a9190615c2d565b6122a4565b60405161075c9190614d5c565b60405180910390f35b61076d612310565b60405161077a9190615673565b60405180910390f35b61078b612315565b6040516107989190615673565b60405180910390f35b6107bb60048036038101906107b691906159bc565b61231a565b005b6107d760048036038101906107d29190614e5f565b6124e8565b6040516107e49190615f1f565b60405180910390f35b61080760048036038101906108029190615f41565b6125f6565b6040516108149190614d5c565b60405180910390f35b61083760048036038101906108329190615c2d565b61268a565b005b600061084482612715565b8061085457506108538261278f565b5b80610864575061086382612809565b5b80610874575061087382612883565b5b9050919050565b60606002805461088a90615fb0565b80601f01602080910402602001604051908101604052809291908181526020018280546108b690615fb0565b80156109035780601f106108d857610100808354040283529160200191610903565b820191906000526020600020905b8154815290600101906020018083116108e657829003601f168201915b5050505050905090565b6000610918826128fd565b6006600083815260200190815260200160002060009054906101000a900473ffffffffffffffffffffffffffffffffffffffff169050919050565b600061095e82611820565b90508073ffffffffffffffffffffffffffffffffffffffff168373ffffffffffffffffffffffffffffffffffffffff16036109ce576040517f08c379a00000000000000000000000000000000000000000000000000000000081526004016109c590616053565b60405180910390fd5b8073ffffffffffffffffffffffffffffffffffffffff166109ed612948565b73ffffffffffffffffffffffffffffffffffffffff161480610a1c5750610a1b81610a16612948565b6125f6565b5b610a5b576040517f08c379a0000000000000000000000000000000000000000000000000000000008152600401610a52906160e5565b60405180910390fd5b610a6583836129f2565b505050565b60018060135414610ab0576040517f08c379a0000000000000000000000000000000000000000000000000000000008152600401610aa790616151565b60405180910390fd5b806014805490501015610af8576040517f08c379a0000000000000000000000000000000000000000000000000000000008152600401610aef906161bd565b60405180910390fd5b826000610b06826000610e71565b5090508073ffffffffffffffffffffffffffffffffffffffff16601560009054906101000a900473ffffffffffffffffffffffffffffffffffffffff1673ffffffffffffffffffffffffffffffffffffffff16638086b8ba610b686000612aab565b6040518263ffffffff1660e01b8152600401610b849190614ecd565b602060405180830381865afa158015610ba1573d6000803e3d6000fd5b505050506040513d601f19601f82011682018060405250810190610bc591906161f2565b73ffffffffffffffffffffffffffffffffffffffff1614610c1b576040517f08c379a0000000000000000000000000000000000000000000000000000000008152600401610c129061626b565b60405180910390fd5b6010610c2681612af3565b610c308686612b07565b505050505050565b60018060135414610c7e576040517f08c379a0000000000000000000000000000000000000000000000000000000008152600401610c7590616151565b60405180910390fd5b806014805490501015610cc6576040517f08c379a0000000000000000000000000000000000000000000000000000000008152600401610cbd906161bd565b60405180910390fd5b816000610cd4826000610e71565b5090508073ffffffffffffffffffffffffffffffffffffffff16601560009054906101000a900473ffffffffffffffffffffffffffffffffffffffff1673ffffffffffffffffffffffffffffffffffffffff16638086b8ba610d366000612aab565b6040518263ffffffff1660e01b8152600401610d529190614ecd565b602060405180830381865afa158015610d6f573d6000803e3d6000fd5b505050506040513d601f19601f82011682018060405250810190610d9391906161f2565b73ffffffffffffffffffffffffffffffffffffffff1614610de9576040517f08c379a0000000000000000000000000000000000000000000000000000000008152600401610de09061626b565b60405180910390fd5b6001610df481612af3565b610dfd85612b96565b5050505050565b6000600a80549050905090565b610e22610e1c612948565b82612bb8565b610e61576040517f08c379a0000000000000000000000000000000000000000000000000000000008152600401610e58906162fd565b60405180910390fd5b610e6c838383612c4d565b505050565b6000806000601160008681526020019081526020016000206040518060400160405290816000820160009054906101000a900473ffffffffffffffffffffffffffffffffffffffff1673ffffffffffffffffffffffffffffffffffffffff1673ffffffffffffffffffffffffffffffffffffffff1681526020016000820160149054906101000a90046bffffffffffffffffffffffff166bffffffffffffffffffffffff166bffffffffffffffffffffffff16815250509050600073ffffffffffffffffffffffffffffffffffffffff16816000015173ffffffffffffffffffffffffffffffffffffffff16036110065760106040518060400160405290816000820160009054906101000a900473ffffffffffffffffffffffffffffffffffffffff1673ffffffffffffffffffffffffffffffffffffffff1673ffffffffffffffffffffffffffffffffffffffff1681526020016000820160149054906101000a90046bffffffffffffffffffffffff166bffffffffffffffffffffffff166bffffffffffffffffffffffff168152505090505b6000611010612f46565b6bffffffffffffffffffffffff1682602001516bffffffffffffffffffffffff168661103c919061634c565b61104691906163bd565b90508160000151819350935050509250929050565b6000611066836118a6565b82106110a7576040517f08c379a000000000000000000000000000000000000000000000000000000000815260040161109e90616460565b60405180910390fd5b600860008473ffffffffffffffffffffffffffffffffffffffff1673ffffffffffffffffffffffffffffffffffffffff168152602001908152602001600020600083815260200190815260200160002054905092915050565b606061110a612f50565b8242111561114d576040517f08c379a0000000000000000000000000000000000000000000000000000000008152600401611144906164cc565b60405180910390fd5b60007f0000000000000000000000000000000000000000000000000000000000000000868660405161118092919061651c565b6040518091039020611190612948565b6111de6012600061119f612948565b73ffffffffffffffffffffffffffffffffffffffff1673ffffffffffffffffffffffffffffffffffffffff168152602001908152602001600020612f9f565b876040516020016111f395949392919061654e565b604051602081830303815290604052805190602001209050600061121682612fad565b9050835167ffffffffffffffff81111561123357611232614f59565b5b6040519080825280602002602001820160405280156112615781602001602082028036833780820191505090505b5060149080519060200190611277929190614ad3565b5060005b60148054905081101561141c576112ac8286838151811061129f5761129e6165a1565b5b6020026020010151612fc7565b601482815481106112c0576112bf6165a1565b5b9060005260206000200160006101000a81548173ffffffffffffffffffffffffffffffffffffffff021916908373ffffffffffffffffffffffffffffffffffffffff16021790555060008114806113ca5750601460018261132191906165d0565b81548110611332576113316165a1565b5b9060005260206000200160009054906101000a900473ffffffffffffffffffffffffffffffffffffffff1673ffffffffffffffffffffffffffffffffffffffff1660148281548110611387576113866165a1565b5b9060005260206000200160009054906101000a900473ffffffffffffffffffffffffffffffffffffffff1673ffffffffffffffffffffffffffffffffffffffff16115b611409576040517f08c379a000000000000000000000000000000000000000000000000000000000815260040161140090616650565b60405180910390fd5b808061141490616670565b91505061127b565b5061146b3088888080601f016020809104026020016040519081016040528093929190818152602001838380828437600081840152601f19601f82011690508083019250505050505050612fee565b9250505061147761301b565b949350505050565b61149a838383604051806020016040528060008152506120fe565b505050565b600180601354146114e5576040517f08c379a00000000000000000000000000000000000000000000000000000000081526004016114dc90616151565b60405180910390fd5b80601480549050101561152d576040517f08c379a0000000000000000000000000000000000000000000000000000000008152600401611524906161bd565b60405180910390fd5b81600061153b826000610e71565b5090508073ffffffffffffffffffffffffffffffffffffffff16601560009054906101000a900473ffffffffffffffffffffffffffffffffffffffff1673ffffffffffffffffffffffffffffffffffffffff16638086b8ba61159d6000612aab565b6040518263ffffffff1660e01b81526004016115b99190614ecd565b602060405180830381865afa1580156115d6573d6000803e3d6000fd5b505050506040513d601f19601f820116820180604052508101906115fa91906161f2565b73ffffffffffffffffffffffffffffffffffffffff1614611650576040517f08c379a00000000000000000000000000000000000000000000000000000000081526004016116479061626b565b60405180910390fd5b600161165b81612af3565b611664856130d3565b5050505050565b6000611675610e04565b82106116b6576040517f08c379a00000000000000000000000000000000000000000000000000000000081526004016116ad9061672a565b60405180910390fd5b600a82815481106116ca576116c96165a1565b5b90600052602060002001549050919050565b60008060008367ffffffffffffffff1667ffffffffffffffff16815260200190815260200160002060009054906101000a900467ffffffffffffffff169050919050565b6060600f6000838152602001908152602001600020805480602002602001604051908101604052809291908181526020016000905b828210156118155783829060005260206000200160405180602001604052908160008201805461178490615fb0565b80601f01602080910402602001604051908101604052809291908181526020018280546117b090615fb0565b80156117fd5780601f106117d2576101008083540402835291602001916117fd565b820191906000526020600020905b8154815290600101906020018083116117e057829003601f168201915b50505050508152505081526020019060010190611755565b505050509050919050565b60008061182c836130f5565b9050600073ffffffffffffffffffffffffffffffffffffffff168173ffffffffffffffffffffffffffffffffffffffff160361189d576040517f08c379a000000000000000000000000000000000000000000000000000000000815260040161189490616796565b60405180910390fd5b80915050919050565b60008073ffffffffffffffffffffffffffffffffffffffff168273ffffffffffffffffffffffffffffffffffffffff1603611916576040517f08c379a000000000000000000000000000000000000000000000000000000000815260040161190d90616828565b60405180910390fd5b600560008373ffffffffffffffffffffffffffffffffffffffff1673ffffffffffffffffffffffffffffffffffffffff168152602001908152602001600020549050919050565b600180601354146119a3576040517f08c379a000000000000000000000000000000000000000000000000000000000815260040161199a90616151565b60405180910390fd5b8060148054905010156119eb576040517f08c379a00000000000000000000000000000000000000000000000000000000081526004016119e2906161bd565b60405180910390fd5b8260006119f9826000610e71565b5090508073ffffffffffffffffffffffffffffffffffffffff16601560009054906101000a900473ffffffffffffffffffffffffffffffffffffffff1673ffffffffffffffffffffffffffffffffffffffff16638086b8ba611a5b6000612aab565b6040518263ffffffff1660e01b8152600401611a779190614ecd565b602060405180830381865afa158015611a94573d6000803e3d6000fd5b505050506040513d601f19601f82011682018060405250810190611ab891906161f2565b73ffffffffffffffffffffffffffffffffffffffff1614611b0e576040517f08c379a0000000000000000000000000000000000000000000000000000000008152600401611b059061626b565b60405180910390fd5b6008611b1981612af3565b611b238686613132565b505050505050565b6002611b3681612af3565b611b47611b41612948565b846131cf565b611b5183836133ec565b611b7683611b5d612948565b600a611b67612f46565b611b719190616860565b613411565b505050565b6000611bc4601260008473ffffffffffffffffffffffffffffffffffffffff1673ffffffffffffffffffffffffffffffffffffffff168152602001908152602001600020612f9f565b9050919050565b606060038054611bda90615fb0565b80601f0160208091040260200160405190810160405280929190818152602001828054611c0690615fb0565b8015611c535780601f10611c2857610100808354040283529160200191611c53565b820191906000526020600020905b815481529060010190602001808311611c3657829003601f168201915b5050505050905090565b60018060135414611ca3576040517f08c379a0000000000000000000000000000000000000000000000000000000008152600401611c9a90616151565b60405180910390fd5b806014805490501015611ceb576040517f08c379a0000000000000000000000000000000000000000000000000000000008152600401611ce2906161bd565b60405180910390fd5b816000611cf9826000610e71565b5090508073ffffffffffffffffffffffffffffffffffffffff16601560009054906101000a900473ffffffffffffffffffffffffffffffffffffffff1673ffffffffffffffffffffffffffffffffffffffff16638086b8ba611d5b6000612aab565b6040518263ffffffff1660e01b8152600401611d779190614ecd565b602060405180830381865afa158015611d94573d6000803e3d6000fd5b505050506040513d601f19601f82011682018060405250810190611db891906161f2565b73ffffffffffffffffffffffffffffffffffffffff1614611e0e576040517f08c379a0000000000000000000000000000000000000000000000000000000008152600401611e059061626b565b60405180910390fd5b6001611e1981612af3565b611e22856135b8565b5050505050565b60018060135414611e6f576040517f08c379a0000000000000000000000000000000000000000000000000000000008152600401611e6690616151565b60405180910390fd5b806014805490501015611eb7576040517f08c379a0000000000000000000000000000000000000000000000000000000008152600401611eae906161bd565b60405180910390fd5b826000611ec5826000610e71565b5090508073ffffffffffffffffffffffffffffffffffffffff16601560009054906101000a900473ffffffffffffffffffffffffffffffffffffffff1673ffffffffffffffffffffffffffffffffffffffff16638086b8ba611f276000612aab565b6040518263ffffffff1660e01b8152600401611f439190614ecd565b602060405180830381865afa158015611f60573d6000803e3d6000fd5b505050506040513d601f19601f82011682018060405250810190611f8491906161f2565b73ffffffffffffffffffffffffffffffffffffffff1614611fda576040517f08c379a0000000000000000000000000000000000000000000000000000000008152600401611fd19061626b565b60405180910390fd5b6004611fe581612af3565b611fef86866135da565b505050505050565b600181565b61200e612007612948565b8383613677565b5050565b600881565b6060600e6000838152602001908152602001600020805461203790615fb0565b80601f016020809104026020016040519081016040528092919081815260200182805461206390615fb0565b80156120b05780601f10612085576101008083540402835291602001916120b0565b820191906000526020600020905b81548152906001019060200180831161209357829003601f168201915b50505050509050919050565b6120c5826116dc565b6120ce81612af3565b6120d883836137e3565b505050565b6120e6826116dc565b6120ef81612af3565b6120f983836138d2565b505050565b61210f612109612948565b83612bb8565b61214e576040517f08c379a0000000000000000000000000000000000000000000000000000000008152600401612145906162fd565b60405180910390fd5b61215a848484846139c1565b50505050565b600481565b6060600d6000838152602001908152602001600020805480602002602001604051908101604052809291908181526020016000905b828210156122685783829060005260206000209060020201604051806040016040529081600082015481526020016001820180546121d790615fb0565b80601f016020809104026020016040519081016040528092919081815260200182805461220390615fb0565b80156122505780601f1061222557610100808354040283529160200191612250565b820191906000526020600020905b81548152906001019060200180831161223357829003601f168201915b5050505050815250508152602001906001019061219a565b505050509050919050565b606061227e82613a1d565b60405160200161228e919061693f565b6040516020818303038152906040529050919050565b60008083600160008573ffffffffffffffffffffffffffffffffffffffff1673ffffffffffffffffffffffffffffffffffffffff16815260200190815260200160002060009054906101000a900467ffffffffffffffff161667ffffffffffffffff1611905092915050565b601081565b600281565b60018060135414612360576040517f08c379a000000000000000000000000000000000000000000000000000000000815260040161235790616151565b60405180910390fd5b8060148054905010156123a8576040517f08c379a000000000000000000000000000000000000000000000000000000000815260040161239f906161bd565b60405180910390fd5b8260006123b6826000610e71565b5090508073ffffffffffffffffffffffffffffffffffffffff16601560009054906101000a900473ffffffffffffffffffffffffffffffffffffffff1673ffffffffffffffffffffffffffffffffffffffff16638086b8ba6124186000612aab565b6040518263ffffffff1660e01b81526004016124349190614ecd565b602060405180830381865afa158015612451573d6000803e3d6000fd5b505050506040513d601f19601f8201168201806040525081019061247591906161f2565b73ffffffffffffffffffffffffffffffffffffffff16146124cb576040517f08c379a00000000000000000000000000000000000000000000000000000000081526004016124c29061626b565b60405180910390fd5b60016124d681612af3565b6124e086866133ec565b505050505050565b6060600c6000838152602001908152602001600020805480602002602001604051908101604052809291908181526020016000905b828210156125eb57838290600052602060002090600202016040518060400160405290816000820154815260200160018201805461255a90615fb0565b80601f016020809104026020016040519081016040528092919081815260200182805461258690615fb0565b80156125d35780601f106125a8576101008083540402835291602001916125d3565b820191906000526020600020905b8154815290600101906020018083116125b657829003601f168201915b5050505050815250508152602001906001019061251d565b505050509050919050565b6000600760008473ffffffffffffffffffffffffffffffffffffffff1673ffffffffffffffffffffffffffffffffffffffff16815260200190815260200160002060008373ffffffffffffffffffffffffffffffffffffffff1673ffffffffffffffffffffffffffffffffffffffff16815260200190815260200160002060009054906101000a900460ff16905092915050565b612692612948565b73ffffffffffffffffffffffffffffffffffffffff168173ffffffffffffffffffffffffffffffffffffffff16146126ff576040517f08c379a00000000000000000000000000000000000000000000000000000000081526004016126f6906169d3565b60405180910390fd5b61270982826138d2565b5050565b600033905090565b60007f7f08f59f000000000000000000000000000000000000000000000000000000007bffffffffffffffffffffffffffffffffffffffffffffffffffffffff1916827bffffffffffffffffffffffffffffffffffffffffffffffffffffffff19161480612788575061278782613aeb565b5b9050919050565b60007f780e9d63000000000000000000000000000000000000000000000000000000007bffffffffffffffffffffffffffffffffffffffffffffffffffffffff1916827bffffffffffffffffffffffffffffffffffffffffffffffffffffffff19161480612802575061280182613b55565b5b9050919050565b60007f2a55205a000000000000000000000000000000000000000000000000000000007bffffffffffffffffffffffffffffffffffffffffffffffffffffffff1916827bffffffffffffffffffffffffffffffffffffffffffffffffffffffff1916148061287c575061287b8261278f565b5b9050919050565b60007f49dc1f8f000000000000000000000000000000000000000000000000000000007bffffffffffffffffffffffffffffffffffffffffffffffffffffffff1916827bffffffffffffffffffffffffffffffffffffffffffffffffffffffff191614806128f657506128f582612809565b5b9050919050565b61290681613c37565b612945576040517f08c379a000000000000000000000000000000000000000000000000000000000815260040161293c90616796565b60405180910390fd5b50565b6000601560009054906101000a900473ffffffffffffffffffffffffffffffffffffffff1673ffffffffffffffffffffffffffffffffffffffff16638086b8ba61299061270d565b6040518263ffffffff1660e01b81526004016129ac9190614ecd565b602060405180830381865afa1580156129c9573d6000803e3d6000fd5b505050506040513d601f19601f820116820180604052508101906129ed91906161f2565b905090565b816006600083815260200190815260200160002060006101000a81548173ffffffffffffffffffffffffffffffffffffffff021916908373ffffffffffffffffffffffffffffffffffffffff160217905550808273ffffffffffffffffffffffffffffffffffffffff16612a6583611820565b73ffffffffffffffffffffffffffffffffffffffff167f8c5be1e5ebec7d5bd14f71427d1e84f3dd0314c0f7b2291e5b200ac8c7c3b92560405160405180910390a45050565b600060148281548110612ac157612ac06165a1565b5b9060005260206000200160009054906101000a900473ffffffffffffffffffffffffffffffffffffffff169050919050565b612b0481612aff612948565b613c78565b50565b60005b8151811015612b9157600f6000848152602001908152602001600020828281518110612b3957612b386165a1565b5b6020026020010151908060018154018082558091505060019003906000526020600020016000909190919091506000820151816000019081612b7b9190616b9f565b5050508080612b8990616670565b915050612b0a565b505050565b600d60008281526020019081526020016000206000612bb59190614b5d565b50565b600080612bc483611820565b90508073ffffffffffffffffffffffffffffffffffffffff168473ffffffffffffffffffffffffffffffffffffffff161480612c065750612c0581856125f6565b5b80612c4457508373ffffffffffffffffffffffffffffffffffffffff16612c2c8461090d565b73ffffffffffffffffffffffffffffffffffffffff16145b91505092915050565b8273ffffffffffffffffffffffffffffffffffffffff16612c6d82611820565b73ffffffffffffffffffffffffffffffffffffffff1614612cc3576040517f08c379a0000000000000000000000000000000000000000000000000000000008152600401612cba90616ce3565b60405180910390fd5b600073ffffffffffffffffffffffffffffffffffffffff168273ffffffffffffffffffffffffffffffffffffffff1603612d32576040517f08c379a0000000000000000000000000000000000000000000000000000000008152600401612d2990616d75565b60405180910390fd5b612d3f8383836001613cc5565b8273ffffffffffffffffffffffffffffffffffffffff16612d5f82611820565b73ffffffffffffffffffffffffffffffffffffffff1614612db5576040517f08c379a0000000000000000000000000000000000000000000000000000000008152600401612dac90616ce3565b60405180910390fd5b6006600082815260200190815260200160002060006101000a81549073ffffffffffffffffffffffffffffffffffffffff02191690556001600560008573ffffffffffffffffffffffffffffffffffffffff1673ffffffffffffffffffffffffffffffffffffffff168152602001908152602001600020600082825403925050819055506001600560008473ffffffffffffffffffffffffffffffffffffffff1673ffffffffffffffffffffffffffffffffffffffff16815260200190815260200160002060008282540192505081905550816004600083815260200190815260200160002060006101000a81548173ffffffffffffffffffffffffffffffffffffffff021916908373ffffffffffffffffffffffffffffffffffffffff160217905550808273ffffffffffffffffffffffffffffffffffffffff168473ffffffffffffffffffffffffffffffffffffffff167fddf252ad1be2c89b69c2b068fc378daa952ba7f163c4a11628f55a4df523b3ef60405160405180910390a4612f418383836001613e23565b505050565b6000612710905090565b600160135403612f95576040517f08c379a0000000000000000000000000000000000000000000000000000000008152600401612f8c90616de1565b60405180910390fd5b6001601381905550565b600081600001549050919050565b6000612fc0612fba613e29565b83613f43565b9050919050565b6000806000612fd68585613f76565b91509150612fe381613fc7565b819250505092915050565b606061301383836040518060600160405280602781526020016176906027913961412d565b905092915050565b6000601381905550600067ffffffffffffffff81111561303e5761303d614f59565b5b60405190808252806020026020018201604052801561306c5781602001602082028036833780820191505090505b5060149080519060200190613082929190614ad3565b506130d160126000613092612948565b73ffffffffffffffffffffffffffffffffffffffff1673ffffffffffffffffffffffffffffffffffffffff1681526020019081526020016000206141b3565b565b600c600082815260200190815260200160002060006130f29190614b81565b50565b60006004600083815260200190815260200160002060009054906101000a900473ffffffffffffffffffffffffffffffffffffffff169050919050565b60005b81518110156131ca57600d6000848152602001908152602001600020828281518110613164576131636165a1565b5b602002602001015190806001815401808255809150506001900390600052602060002090600202016000909190919091506000820151816000015560208201518160010190816131b49190616b9f565b50505080806131c290616670565b915050613135565b505050565b600073ffffffffffffffffffffffffffffffffffffffff168273ffffffffffffffffffffffffffffffffffffffff160361323e576040517f08c379a000000000000000000000000000000000000000000000000000000000815260040161323590616e4d565b60405180910390fd5b61324781613c37565b15613287576040517f08c379a000000000000000000000000000000000000000000000000000000000815260040161327e90616eb9565b60405180910390fd5b613295600083836001613cc5565b61329e81613c37565b156132de576040517f08c379a00000000000000000000000000000000000000000000000000000000081526004016132d590616eb9565b60405180910390fd5b6001600560008473ffffffffffffffffffffffffffffffffffffffff1673ffffffffffffffffffffffffffffffffffffffff16815260200190815260200160002060008282540192505081905550816004600083815260200190815260200160002060006101000a81548173ffffffffffffffffffffffffffffffffffffffff021916908373ffffffffffffffffffffffffffffffffffffffff160217905550808273ffffffffffffffffffffffffffffffffffffffff16600073ffffffffffffffffffffffffffffffffffffffff167fddf252ad1be2c89b69c2b068fc378daa952ba7f163c4a11628f55a4df523b3ef60405160405180910390a46133e8600083836001613e23565b5050565b80600e6000848152602001908152602001600020908161340c9190616b9f565b505050565b613419612f46565b6bffffffffffffffffffffffff16816bffffffffffffffffffffffff161115613477576040517f08c379a000000000000000000000000000000000000000000000000000000000815260040161346e90616f4b565b60405180910390fd5b600073ffffffffffffffffffffffffffffffffffffffff168273ffffffffffffffffffffffffffffffffffffffff16036134e6576040517f08c379a00000000000000000000000000000000000000000000000000000000081526004016134dd90616fb7565b60405180910390fd5b60405180604001604052808373ffffffffffffffffffffffffffffffffffffffff168152602001826bffffffffffffffffffffffff168152506011600085815260200190815260200160002060008201518160000160006101000a81548173ffffffffffffffffffffffffffffffffffffffff021916908373ffffffffffffffffffffffffffffffffffffffff16021790555060208201518160000160146101000a8154816bffffffffffffffffffffffff02191690836bffffffffffffffffffffffff160217905550905050505050565b600f600082815260200190815260200160002060006135d79190614ba5565b50565b60005b815181101561367257600c600084815260200190815260200160002082828151811061360c5761360b6165a1565b5b6020026020010151908060018154018082558091505060019003906000526020600020906002020160009091909190915060008201518160000155602082015181600101908161365c9190616b9f565b505050808061366a90616670565b9150506135dd565b505050565b8173ffffffffffffffffffffffffffffffffffffffff168373ffffffffffffffffffffffffffffffffffffffff16036136e5576040517f08c379a00000000000000000000000000000000000000000000000000000000081526004016136dc90617023565b60405180910390fd5b80600760008573ffffffffffffffffffffffffffffffffffffffff1673ffffffffffffffffffffffffffffffffffffffff16815260200190815260200160002060008473ffffffffffffffffffffffffffffffffffffffff1673ffffffffffffffffffffffffffffffffffffffff16815260200190815260200160002060006101000a81548160ff0219169083151502179055508173ffffffffffffffffffffffffffffffffffffffff168373ffffffffffffffffffffffffffffffffffffffff167f17307eab39ab6107e8899845ad3d59bd9653f200f220920489ca2b5937696c31836040516137d69190614d5c565b60405180910390a3505050565b81600160008373ffffffffffffffffffffffffffffffffffffffff1673ffffffffffffffffffffffffffffffffffffffff16815260200190815260200160002060008282829054906101000a900467ffffffffffffffff161792506101000a81548167ffffffffffffffff021916908367ffffffffffffffff16021790555061386a612948565b73ffffffffffffffffffffffffffffffffffffffff168173ffffffffffffffffffffffffffffffffffffffff168367ffffffffffffffff167f2e633503bdbb177665559a9efb7b963d30f2042d94c73311e9c54f799584abd560405160405180910390a45050565b81600160008373ffffffffffffffffffffffffffffffffffffffff1673ffffffffffffffffffffffffffffffffffffffff16815260200190815260200160002060008282829054906101000a900467ffffffffffffffff161892506101000a81548167ffffffffffffffff021916908367ffffffffffffffff160217905550613959612948565b73ffffffffffffffffffffffffffffffffffffffff168173ffffffffffffffffffffffffffffffffffffffff168367ffffffffffffffff167f4ee4aaa38790a48e6b8f5ce86c7caaefda507fe314fbfc735fc80b9199cf78dd60405160405180910390a45050565b6139cc848484612c4d565b6139d8848484846141c9565b613a17576040517f08c379a0000000000000000000000000000000000000000000000000000000008152600401613a0e906170b5565b60405180910390fd5b50505050565b606060006001613a2c84614350565b01905060008167ffffffffffffffff811115613a4b57613a4a614f59565b5b6040519080825280601f01601f191660200182016040528015613a7d5781602001600182028036833780820191505090505b509050600082602001820190505b600115613ae0578080600190039150507f3031323334353637383961626364656600000000000000000000000000000000600a86061a8153600a8581613ad457613ad361638e565b5b04945060008503613a8b575b819350505050919050565b60007f01ffc9a7000000000000000000000000000000000000000000000000000000007bffffffffffffffffffffffffffffffffffffffffffffffffffffffff1916827bffffffffffffffffffffffffffffffffffffffffffffffffffffffff1916149050919050565b60007f80ac58cd000000000000000000000000000000000000000000000000000000007bffffffffffffffffffffffffffffffffffffffffffffffffffffffff1916827bffffffffffffffffffffffffffffffffffffffffffffffffffffffff19161480613c2057507f5b5e139f000000000000000000000000000000000000000000000000000000007bffffffffffffffffffffffffffffffffffffffffffffffffffffffff1916827bffffffffffffffffffffffffffffffffffffffffffffffffffffffff1916145b80613c305750613c2f82612715565b5b9050919050565b60008073ffffffffffffffffffffffffffffffffffffffff16613c59836130f5565b73ffffffffffffffffffffffffffffffffffffffff1614159050919050565b613c8282826122a4565b613cc1576040517f08c379a0000000000000000000000000000000000000000000000000000000008152600401613cb890617147565b60405180910390fd5b5050565b613cd1848484846144a3565b6001811115613d15576040517f08c379a0000000000000000000000000000000000000000000000000000000008152600401613d0c906171d9565b60405180910390fd5b6000829050600073ffffffffffffffffffffffffffffffffffffffff168573ffffffffffffffffffffffffffffffffffffffff1603613d5c57613d57816145c9565b613d9b565b8373ffffffffffffffffffffffffffffffffffffffff168573ffffffffffffffffffffffffffffffffffffffff1614613d9a57613d998582614612565b5b5b600073ffffffffffffffffffffffffffffffffffffffff168473ffffffffffffffffffffffffffffffffffffffff1603613ddd57613dd88161477f565b613e1c565b8473ffffffffffffffffffffffffffffffffffffffff168473ffffffffffffffffffffffffffffffffffffffff1614613e1b57613e1a8482614850565b5b5b5050505050565b50505050565b60007f000000000000000000000000000000000000000000000000000000000000000073ffffffffffffffffffffffffffffffffffffffff163073ffffffffffffffffffffffffffffffffffffffff16148015613ea557507f000000000000000000000000000000000000000000000000000000000000000046145b15613ed2577f00000000000000000000000000000000000000000000000000000000000000009050613f40565b613f3d7f00000000000000000000000000000000000000000000000000000000000000007f00000000000000000000000000000000000000000000000000000000000000007f00000000000000000000000000000000000000000000000000000000000000006148cf565b90505b90565b60008282604051602001613f58929190617266565b60405160208183030381529060405280519060200120905092915050565b6000806041835103613fb75760008060006020860151925060408601519150606086015160001a9050613fab87828585614909565b94509450505050613fc0565b60006002915091505b9250929050565b60006004811115613fdb57613fda61729d565b5b816004811115613fee57613fed61729d565b5b031561412a57600160048111156140085761400761729d565b5b81600481111561401b5761401a61729d565b5b0361405b576040517f08c379a000000000000000000000000000000000000000000000000000000000815260040161405290617318565b60405180910390fd5b6002600481111561406f5761406e61729d565b5b8160048111156140825761408161729d565b5b036140c2576040517f08c379a00000000000000000000000000000000000000000000000000000000081526004016140b990617384565b60405180910390fd5b600360048111156140d6576140d561729d565b5b8160048111156140e9576140e861729d565b5b03614129576040517f08c379a000000000000000000000000000000000000000000000000000000000815260040161412090617416565b60405180910390fd5b5b50565b60606000808573ffffffffffffffffffffffffffffffffffffffff16856040516141579190617467565b600060405180830381855af49150503d8060008114614192576040519150601f19603f3d011682016040523d82523d6000602084013e614197565b606091505b50915091506141a8868383876149eb565b925050509392505050565b6001816000016000828254019250508190555050565b60006141ea8473ffffffffffffffffffffffffffffffffffffffff16614a60565b15614343578373ffffffffffffffffffffffffffffffffffffffff1663150b7a02614213612948565b8786866040518563ffffffff1660e01b8152600401614235949392919061747e565b6020604051808303816000875af192505050801561427157506040513d601f19601f8201168201806040525081019061426e91906174df565b60015b6142f3573d80600081146142a1576040519150601f19603f3d011682016040523d82523d6000602084013e6142a6565b606091505b5060008151036142eb576040517f08c379a00000000000000000000000000000000000000000000000000000000081526004016142e2906170b5565b60405180910390fd5b805181602001fd5b63150b7a0260e01b7bffffffffffffffffffffffffffffffffffffffffffffffffffffffff1916817bffffffffffffffffffffffffffffffffffffffffffffffffffffffff191614915050614348565b600190505b949350505050565b600080600090507a184f03e93ff9f4daa797ed6e38ed64bf6a1f01000000000000000083106143ae577a184f03e93ff9f4daa797ed6e38ed64bf6a1f01000000000000000083816143a4576143a361638e565b5b0492506040810190505b6d04ee2d6d415b85acef810000000083106143eb576d04ee2d6d415b85acef810000000083816143e1576143e061638e565b5b0492506020810190505b662386f26fc10000831061441a57662386f26fc1000083816144105761440f61638e565b5b0492506010810190505b6305f5e1008310614443576305f5e10083816144395761443861638e565b5b0492506008810190505b612710831061446857612710838161445e5761445d61638e565b5b0492506004810190505b6064831061448b57606483816144815761448061638e565b5b0492506002810190505b600a831061449a576001810190505b80915050919050565b60018111156145c357600073ffffffffffffffffffffffffffffffffffffffff168473ffffffffffffffffffffffffffffffffffffffff16146145375780600560008673ffffffffffffffffffffffffffffffffffffffff1673ffffffffffffffffffffffffffffffffffffffff168152602001908152602001600020600082825461452f91906165d0565b925050819055505b600073ffffffffffffffffffffffffffffffffffffffff168373ffffffffffffffffffffffffffffffffffffffff16146145c25780600560008573ffffffffffffffffffffffffffffffffffffffff1673ffffffffffffffffffffffffffffffffffffffff16815260200190815260200160002060008282546145ba919061750c565b925050819055505b5b50505050565b600a80549050600b600083815260200190815260200160002081905550600a81908060018154018082558091505060019003906000526020600020016000909190919091505550565b6000600161461f846118a6565b61462991906165d0565b905060006009600084815260200190815260200160002054905081811461470e576000600860008673ffffffffffffffffffffffffffffffffffffffff1673ffffffffffffffffffffffffffffffffffffffff168152602001908152602001600020600084815260200190815260200160002054905080600860008773ffffffffffffffffffffffffffffffffffffffff1673ffffffffffffffffffffffffffffffffffffffff168152602001908152602001600020600084815260200190815260200160002081905550816009600083815260200190815260200160002081905550505b6009600084815260200190815260200160002060009055600860008573ffffffffffffffffffffffffffffffffffffffff1673ffffffffffffffffffffffffffffffffffffffff16815260200190815260200160002060008381526020019081526020016000206000905550505050565b60006001600a8054905061479391906165d0565b90506000600b60008481526020019081526020016000205490506000600a83815481106147c3576147c26165a1565b5b9060005260206000200154905080600a83815481106147e5576147e46165a1565b5b906000526020600020018190555081600b600083815260200190815260200160002081905550600b600085815260200190815260200160002060009055600a80548061483457614833617540565b5b6001900381819060005260206000200160009055905550505050565b600061485b836118a6565b905081600860008573ffffffffffffffffffffffffffffffffffffffff1673ffffffffffffffffffffffffffffffffffffffff168152602001908152602001600020600083815260200190815260200160002081905550806009600084815260200190815260200160002081905550505050565b600083838346306040516020016148ea95949392919061756f565b6040516020818303038152906040528051906020012090509392505050565b6000807f7fffffffffffffffffffffffffffffff5d576e7357a4501ddfe92f46681b20a08360001c11156149445760006003915091506149e2565b60006001878787876040516000815260200160405260405161496994939291906175de565b6020604051602081039080840390855afa15801561498b573d6000803e3d6000fd5b505050602060405103519050600073ffffffffffffffffffffffffffffffffffffffff168173ffffffffffffffffffffffffffffffffffffffff16036149d9576000600192509250506149e2565b80600092509250505b94509492505050565b60608315614a4d576000835103614a4557614a0585614a60565b614a44576040517f08c379a0000000000000000000000000000000000000000000000000000000008152600401614a3b9061766f565b60405180910390fd5b5b829050614a58565b614a578383614a83565b5b949350505050565b6000808273ffffffffffffffffffffffffffffffffffffffff163b119050919050565b600082511115614a965781518083602001fd5b806040517f08c379a0000000000000000000000000000000000000000000000000000000008152600401614aca9190614e07565b60405180910390fd5b828054828255906000526020600020908101928215614b4c579160200282015b82811115614b4b5782518260006101000a81548173ffffffffffffffffffffffffffffffffffffffff021916908373ffffffffffffffffffffffffffffffffffffffff16021790555091602001919060010190614af3565b5b509050614b599190614bc6565b5090565b5080546000825560020290600052602060002090810190614b7e9190614be3565b50565b5080546000825560020290600052602060002090810190614ba29190614c12565b50565b5080546000825590600052602060002090810190614bc39190614c41565b50565b5b80821115614bdf576000816000905550600101614bc7565b5090565b5b80821115614c0e57600080820160009055600182016000614c059190614c68565b50600201614be4565b5090565b5b80821115614c3d57600080820160009055600182016000614c349190614c68565b50600201614c13565b5090565b5b80821115614c645760008082016000614c5b9190614c68565b50600101614c42565b5090565b508054614c7490615fb0565b6000825580601f10614c865750614ca5565b601f016020900490600052602060002090810190614ca49190614bc6565b5b50565b6000604051905090565b600080fd5b600080fd5b60007fffffffff0000000000000000000000000000000000000000000000000000000082169050919050565b614cf181614cbc565b8114614cfc57600080fd5b50565b600081359050614d0e81614ce8565b92915050565b600060208284031215614d2a57614d29614cb2565b5b6000614d3884828501614cff565b91505092915050565b60008115159050919050565b614d5681614d41565b82525050565b6000602082019050614d716000830184614d4d565b92915050565b600081519050919050565b600082825260208201905092915050565b60005b83811015614db1578082015181840152602081019050614d96565b60008484015250505050565b6000601f19601f8301169050919050565b6000614dd982614d77565b614de38185614d82565b9350614df3818560208601614d93565b614dfc81614dbd565b840191505092915050565b60006020820190508181036000830152614e218184614dce565b905092915050565b6000819050919050565b614e3c81614e29565b8114614e4757600080fd5b50565b600081359050614e5981614e33565b92915050565b600060208284031215614e7557614e74614cb2565b5b6000614e8384828501614e4a565b91505092915050565b600073ffffffffffffffffffffffffffffffffffffffff82169050919050565b6000614eb782614e8c565b9050919050565b614ec781614eac565b82525050565b6000602082019050614ee26000830184614ebe565b92915050565b614ef181614eac565b8114614efc57600080fd5b50565b600081359050614f0e81614ee8565b92915050565b60008060408385031215614f2b57614f2a614cb2565b5b6000614f3985828601614eff565b9250506020614f4a85828601614e4a565b9150509250929050565b600080fd5b7f4e487b7100000000000000000000000000000000000000000000000000000000600052604160045260246000fd5b614f9182614dbd565b810181811067ffffffffffffffff82111715614fb057614faf614f59565b5b80604052505050565b6000614fc3614ca8565b9050614fcf8282614f88565b919050565b600067ffffffffffffffff821115614fef57614fee614f59565b5b602082029050602081019050919050565b600080fd5b600080fd5b600080fd5b600080fd5b600067ffffffffffffffff82111561502f5761502e614f59565b5b61503882614dbd565b9050602081019050919050565b82818337600083830152505050565b600061506761506284615014565b614fb9565b9050828152602081018484840111156150835761508261500f565b5b61508e848285615045565b509392505050565b600082601f8301126150ab576150aa614f54565b5b81356150bb848260208601615054565b91505092915050565b6000602082840312156150da576150d9615005565b5b6150e46020614fb9565b9050600082013567ffffffffffffffff8111156151045761510361500a565b5b61511084828501615096565b60008301525092915050565b600061512f61512a84614fd4565b614fb9565b9050808382526020820190506020840283018581111561515257615151615000565b5b835b8181101561519957803567ffffffffffffffff81111561517757615176614f54565b5b80860161518489826150c4565b85526020850194505050602081019050615154565b5050509392505050565b600082601f8301126151b8576151b7614f54565b5b81356151c884826020860161511c565b91505092915050565b600080604083850312156151e8576151e7614cb2565b5b60006151f685828601614e4a565b925050602083013567ffffffffffffffff81111561521757615216614cb7565b5b615223858286016151a3565b9150509250929050565b61523681614e29565b82525050565b6000602082019050615251600083018461522d565b92915050565b6000806000606084860312156152705761526f614cb2565b5b600061527e86828701614eff565b935050602061528f86828701614eff565b92505060406152a086828701614e4a565b9150509250925092565b600080604083850312156152c1576152c0614cb2565b5b60006152cf85828601614e4a565b92505060206152e085828601614e4a565b9150509250929050565b60006040820190506152ff6000830185614ebe565b61530c602083018461522d565b9392505050565b600080fd5b60008083601f84011261532e5761532d614f54565b5b8235905067ffffffffffffffff81111561534b5761534a615313565b5b60208301915083600182028301111561536757615366615000565b5b9250929050565b600067ffffffffffffffff82111561538957615388614f59565b5b602082029050602081019050919050565b600067ffffffffffffffff8211156153b5576153b4614f59565b5b6153be82614dbd565b9050602081019050919050565b60006153de6153d98461539a565b614fb9565b9050828152602081018484840111156153fa576153f961500f565b5b615405848285615045565b509392505050565b600082601f83011261542257615421614f54565b5b81356154328482602086016153cb565b91505092915050565b600061544e6154498461536e565b614fb9565b9050808382526020820190506020840283018581111561547157615470615000565b5b835b818110156154b857803567ffffffffffffffff81111561549657615495614f54565b5b8086016154a3898261540d565b85526020850194505050602081019050615473565b5050509392505050565b600082601f8301126154d7576154d6614f54565b5b81356154e784826020860161543b565b91505092915050565b6000806000806060858703121561550a57615509614cb2565b5b600085013567ffffffffffffffff81111561552857615527614cb7565b5b61553487828801615318565b9450945050602061554787828801614e4a565b925050604085013567ffffffffffffffff81111561556857615567614cb7565b5b615574878288016154c2565b91505092959194509250565b600081519050919050565b600082825260208201905092915050565b60006155a782615580565b6155b1818561558b565b93506155c1818560208601614d93565b6155ca81614dbd565b840191505092915050565b600060208201905081810360008301526155ef818461559c565b905092915050565b600067ffffffffffffffff82169050919050565b615614816155f7565b811461561f57600080fd5b50565b6000813590506156318161560b565b92915050565b60006020828403121561564d5761564c614cb2565b5b600061565b84828501615622565b91505092915050565b61566d816155f7565b82525050565b60006020820190506156886000830184615664565b92915050565b600081519050919050565b600082825260208201905092915050565b6000819050602082019050919050565b600082825260208201905092915050565b60006156d682614d77565b6156e081856156ba565b93506156f0818560208601614d93565b6156f981614dbd565b840191505092915050565b6000602083016000830151848203600086015261572182826156cb565b9150508091505092915050565b600061573a8383615704565b905092915050565b6000602082019050919050565b600061575a8261568e565b6157648185615699565b935083602082028501615776856156aa565b8060005b858110156157b25784840389528151615793858261572e565b945061579e83615742565b925060208a0199505060018101905061577a565b50829750879550505050505092915050565b600060208201905081810360008301526157de818461574f565b905092915050565b6000602082840312156157fc576157fb614cb2565b5b600061580a84828501614eff565b91505092915050565b600067ffffffffffffffff82111561582e5761582d614f59565b5b602082029050602081019050919050565b60006040828403121561585557615854615005565b5b61585f6040614fb9565b9050600061586f84828501614e4a565b600083015250602082013567ffffffffffffffff8111156158935761589261500a565b5b61589f84828501615096565b60208301525092915050565b60006158be6158b984615813565b614fb9565b905080838252602082019050602084028301858111156158e1576158e0615000565b5b835b8181101561592857803567ffffffffffffffff81111561590657615905614f54565b5b808601615913898261583f565b855260208501945050506020810190506158e3565b5050509392505050565b600082601f83011261594757615946614f54565b5b81356159578482602086016158ab565b91505092915050565b6000806040838503121561597757615976614cb2565b5b600061598585828601614e4a565b925050602083013567ffffffffffffffff8111156159a6576159a5614cb7565b5b6159b285828601615932565b9150509250929050565b600080604083850312156159d3576159d2614cb2565b5b60006159e185828601614e4a565b925050602083013567ffffffffffffffff811115615a0257615a01614cb7565b5b615a0e85828601615096565b9150509250929050565b600067ffffffffffffffff821115615a3357615a32614f59565b5b602082029050602081019050919050565b600060408284031215615a5a57615a59615005565b5b615a646040614fb9565b90506000615a7484828501614e4a565b600083015250602082013567ffffffffffffffff811115615a9857615a9761500a565b5b615aa484828501615096565b60208301525092915050565b6000615ac3615abe84615a18565b614fb9565b90508083825260208201905060208402830185811115615ae657615ae5615000565b5b835b81811015615b2d57803567ffffffffffffffff811115615b0b57615b0a614f54565b5b808601615b188982615a44565b85526020850194505050602081019050615ae8565b5050509392505050565b600082601f830112615b4c57615b4b614f54565b5b8135615b5c848260208601615ab0565b91505092915050565b60008060408385031215615b7c57615b7b614cb2565b5b6000615b8a85828601614e4a565b925050602083013567ffffffffffffffff811115615bab57615baa614cb7565b5b615bb785828601615b37565b9150509250929050565b615bca81614d41565b8114615bd557600080fd5b50565b600081359050615be781615bc1565b92915050565b60008060408385031215615c0457615c03614cb2565b5b6000615c1285828601614eff565b9250506020615c2385828601615bd8565b9150509250929050565b60008060408385031215615c4457615c43614cb2565b5b6000615c5285828601615622565b9250506020615c6385828601614eff565b9150509250929050565b60008060008060808587031215615c8757615c86614cb2565b5b6000615c9587828801614eff565b9450506020615ca687828801614eff565b9350506040615cb787828801614e4a565b925050606085013567ffffffffffffffff811115615cd857615cd7614cb7565b5b615ce48782880161540d565b91505092959194509250565b600081519050919050565b600082825260208201905092915050565b6000819050602082019050919050565b615d2581614e29565b82525050565b6000604083016000830151615d436000860182615d1c565b5060208301518482036020860152615d5b82826156cb565b9150508091505092915050565b6000615d748383615d2b565b905092915050565b6000602082019050919050565b6000615d9482615cf0565b615d9e8185615cfb565b935083602082028501615db085615d0c565b8060005b85811015615dec5784840389528151615dcd8582615d68565b9450615dd883615d7c565b925060208a01995050600181019050615db4565b50829750879550505050505092915050565b60006020820190508181036000830152615e188184615d89565b905092915050565b600081519050919050565b600082825260208201905092915050565b6000819050602082019050919050565b6000604083016000830151615e646000860182615d1c565b5060208301518482036020860152615e7c82826156cb565b9150508091505092915050565b6000615e958383615e4c565b905092915050565b6000602082019050919050565b6000615eb582615e20565b615ebf8185615e2b565b935083602082028501615ed185615e3c565b8060005b85811015615f0d5784840389528151615eee8582615e89565b9450615ef983615e9d565b925060208a01995050600181019050615ed5565b50829750879550505050505092915050565b60006020820190508181036000830152615f398184615eaa565b905092915050565b60008060408385031215615f5857615f57614cb2565b5b6000615f6685828601614eff565b9250506020615f7785828601614eff565b9150509250929050565b7f4e487b7100000000000000000000000000000000000000000000000000000000600052602260045260246000fd5b60006002820490506001821680615fc857607f821691505b602082108103615fdb57615fda615f81565b5b50919050565b7f4552433732313a20617070726f76616c20746f2063757272656e74206f776e6560008201527f7200000000000000000000000000000000000000000000000000000000000000602082015250565b600061603d602183614d82565b915061604882615fe1565b604082019050919050565b6000602082019050818103600083015261606c81616030565b9050919050565b7f4552433732313a20617070726f76652063616c6c6572206973206e6f7420746f60008201527f6b656e206f776e6572206f7220617070726f76656420666f7220616c6c000000602082015250565b60006160cf603d83614d82565b91506160da82616073565b604082019050919050565b600060208201905081810360008301526160fe816160c2565b9050919050565b7f4d756c74697369673a2072657175697265640000000000000000000000000000600082015250565b600061613b601283614d82565b915061614682616105565b602082019050919050565b6000602082019050818103600083015261616a8161612e565b9050919050565b7f4d756c74697369673a206e6f7420656e6f756768207369676e65727300000000600082015250565b60006161a7601c83614d82565b91506161b282616171565b602082019050919050565b600060208201905081810360008301526161d68161619a565b9050919050565b6000815190506161ec81614ee8565b92915050565b60006020828403121561620857616207614cb2565b5b6000616216848285016161dd565b91505092915050565b7f4f726279633a207369676e6572206e6f74206f776e6572000000000000000000600082015250565b6000616255601783614d82565b91506162608261621f565b602082019050919050565b6000602082019050818103600083015261628481616248565b9050919050565b7f4552433732313a2063616c6c6572206973206e6f7420746f6b656e206f776e6560008201527f72206f7220617070726f76656400000000000000000000000000000000000000602082015250565b60006162e7602d83614d82565b91506162f28261628b565b604082019050919050565b60006020820190508181036000830152616316816162da565b9050919050565b7f4e487b7100000000000000000000000000000000000000000000000000000000600052601160045260246000fd5b600061635782614e29565b915061636283614e29565b925082820261637081614e29565b915082820484148315176163875761638661631d565b5b5092915050565b7f4e487b7100000000000000000000000000000000000000000000000000000000600052601260045260246000fd5b60006163c882614e29565b91506163d383614e29565b9250826163e3576163e261638e565b5b828204905092915050565b7f455243373231456e756d657261626c653a206f776e657220696e646578206f7560008201527f74206f6620626f756e6473000000000000000000000000000000000000000000602082015250565b600061644a602b83614d82565b9150616455826163ee565b604082019050919050565b600060208201905081810360008301526164798161643d565b9050919050565b7f4d756c74697369673a20657865637574696f6e20657870697265640000000000600082015250565b60006164b6601b83614d82565b91506164c182616480565b602082019050919050565b600060208201905081810360008301526164e5816164a9565b9050919050565b600081905092915050565b600061650383856164ec565b9350616510838584615045565b82840190509392505050565b60006165298284866164f7565b91508190509392505050565b6000819050919050565b61654881616535565b82525050565b600060a082019050616563600083018861653f565b616570602083018761653f565b61657d6040830186614ebe565b61658a606083018561522d565b616597608083018461522d565b9695505050505050565b7f4e487b7100000000000000000000000000000000000000000000000000000000600052603260045260246000fd5b60006165db82614e29565b91506165e683614e29565b92508282039050818111156165fe576165fd61631d565b5b92915050565b7f4d756c74697369673a20756e736f72746564207369676e657273000000000000600082015250565b600061663a601a83614d82565b915061664582616604565b602082019050919050565b600060208201905081810360008301526166698161662d565b9050919050565b600061667b82614e29565b91507fffffffffffffffffffffffffffffffffffffffffffffffffffffffffffffffff82036166ad576166ac61631d565b5b600182019050919050565b7f455243373231456e756d657261626c653a20676c6f62616c20696e646578206f60008201527f7574206f6620626f756e64730000000000000000000000000000000000000000602082015250565b6000616714602c83614d82565b915061671f826166b8565b604082019050919050565b6000602082019050818103600083015261674381616707565b9050919050565b7f4552433732313a20696e76616c696420746f6b656e2049440000000000000000600082015250565b6000616780601883614d82565b915061678b8261674a565b602082019050919050565b600060208201905081810360008301526167af81616773565b9050919050565b7f4552433732313a2061646472657373207a65726f206973206e6f74206120766160008201527f6c6964206f776e65720000000000000000000000000000000000000000000000602082015250565b6000616812602983614d82565b915061681d826167b6565b604082019050919050565b6000602082019050818103600083015261684181616805565b9050919050565b60006bffffffffffffffffffffffff82169050919050565b600061686b82616848565b915061687683616848565b9250826168865761688561638e565b5b828204905092915050565b600081905092915050565b7f68747470733a2f2f77616c6c65742e6f726279632e636f6d2f6d65746164617460008201527f612f000000000000000000000000000000000000000000000000000000000000602082015250565b60006168f8602283616891565b91506169038261689c565b602282019050919050565b600061691982614d77565b6169238185616891565b9350616933818560208601614d93565b80840191505092915050565b600061694a826168eb565b9150616956828461690e565b915081905092915050565b7f416363657373436f6e74726f6c3a2063616e206f6e6c792072656e6f756e636560008201527f20726f6c657320666f722073656c660000000000000000000000000000000000602082015250565b60006169bd602f83614d82565b91506169c882616961565b604082019050919050565b600060208201905081810360008301526169ec816169b0565b9050919050565b60008190508160005260206000209050919050565b60006020601f8301049050919050565b600082821b905092915050565b600060088302616a557fffffffffffffffffffffffffffffffffffffffffffffffffffffffffffffffff82616a18565b616a5f8683616a18565b95508019841693508086168417925050509392505050565b6000819050919050565b6000616a9c616a97616a9284614e29565b616a77565b614e29565b9050919050565b6000819050919050565b616ab683616a81565b616aca616ac282616aa3565b848454616a25565b825550505050565b600090565b616adf616ad2565b616aea818484616aad565b505050565b5b81811015616b0e57616b03600082616ad7565b600181019050616af0565b5050565b601f821115616b5357616b24816169f3565b616b2d84616a08565b81016020851015616b3c578190505b616b50616b4885616a08565b830182616aef565b50505b505050565b600082821c905092915050565b6000616b7660001984600802616b58565b1980831691505092915050565b6000616b8f8383616b65565b9150826002028217905092915050565b616ba882614d77565b67ffffffffffffffff811115616bc157616bc0614f59565b5b616bcb8254615fb0565b616bd6828285616b12565b600060209050601f831160018114616c095760008415616bf7578287015190505b616c018582616b83565b865550616c69565b601f198416616c17866169f3565b60005b82811015616c3f57848901518255600182019150602085019450602081019050616c1a565b86831015616c5c5784890151616c58601f891682616b65565b8355505b6001600288020188555050505b505050505050565b7f4552433732313a207472616e736665722066726f6d20696e636f72726563742060008201527f6f776e6572000000000000000000000000000000000000000000000000000000602082015250565b6000616ccd602583614d82565b9150616cd882616c71565b604082019050919050565b60006020820190508181036000830152616cfc81616cc0565b9050919050565b7f4552433732313a207472616e7366657220746f20746865207a65726f2061646460008201527f7265737300000000000000000000000000000000000000000000000000000000602082015250565b6000616d5f602483614d82565b9150616d6a82616d03565b604082019050919050565b60006020820190508181036000830152616d8e81616d52565b9050919050565b7f4d756c74697369673a207265656e7472616e742063616c6c0000000000000000600082015250565b6000616dcb601883614d82565b9150616dd682616d95565b602082019050919050565b60006020820190508181036000830152616dfa81616dbe565b9050919050565b7f4552433732313a206d696e7420746f20746865207a65726f2061646472657373600082015250565b6000616e37602083614d82565b9150616e4282616e01565b602082019050919050565b60006020820190508181036000830152616e6681616e2a565b9050919050565b7f4552433732313a20746f6b656e20616c7265616479206d696e74656400000000600082015250565b6000616ea3601c83614d82565b9150616eae82616e6d565b602082019050919050565b60006020820190508181036000830152616ed281616e96565b9050919050565b7f455243323938313a20726f79616c7479206665652077696c6c2065786365656460008201527f2073616c65507269636500000000000000000000000000000000000000000000602082015250565b6000616f35602a83614d82565b9150616f4082616ed9565b604082019050919050565b60006020820190508181036000830152616f6481616f28565b9050919050565b7f455243323938313a20496e76616c696420706172616d65746572730000000000600082015250565b6000616fa1601b83614d82565b9150616fac82616f6b565b602082019050919050565b60006020820190508181036000830152616fd081616f94565b9050919050565b7f4552433732313a20617070726f766520746f2063616c6c657200000000000000600082015250565b600061700d601983614d82565b915061701882616fd7565b602082019050919050565b6000602082019050818103600083015261703c81617000565b9050919050565b7f4552433732313a207472616e7366657220746f206e6f6e20455243373231526560008201527f63656976657220696d706c656d656e7465720000000000000000000000000000602082015250565b600061709f603283614d82565b91506170aa82617043565b604082019050919050565b600060208201905081810360008301526170ce81617092565b9050919050565b7f416363657373436f6e74726f6c3a206163636f756e74206973206d697373696e60008201527f6720726f6c650000000000000000000000000000000000000000000000000000602082015250565b6000617131602683614d82565b915061713c826170d5565b604082019050919050565b6000602082019050818103600083015261716081617124565b9050919050565b7f455243373231456e756d657261626c653a20636f6e736563757469766520747260008201527f616e7366657273206e6f7420737570706f727465640000000000000000000000602082015250565b60006171c3603583614d82565b91506171ce82617167565b604082019050919050565b600060208201905081810360008301526171f2816171b6565b9050919050565b7f1901000000000000000000000000000000000000000000000000000000000000600082015250565b600061722f600283616891565b915061723a826171f9565b600282019050919050565b6000819050919050565b61726061725b82616535565b617245565b82525050565b600061727182617222565b915061727d828561724f565b60208201915061728d828461724f565b6020820191508190509392505050565b7f4e487b7100000000000000000000000000000000000000000000000000000000600052602160045260246000fd5b7f45434453413a20696e76616c6964207369676e61747572650000000000000000600082015250565b6000617302601883614d82565b915061730d826172cc565b602082019050919050565b60006020820190508181036000830152617331816172f5565b9050919050565b7f45434453413a20696e76616c6964207369676e6174757265206c656e67746800600082015250565b600061736e601f83614d82565b915061737982617338565b602082019050919050565b6000602082019050818103600083015261739d81617361565b9050919050565b7f45434453413a20696e76616c6964207369676e6174757265202773272076616c60008201527f7565000000000000000000000000000000000000000000000000000000000000602082015250565b6000617400602283614d82565b915061740b826173a4565b604082019050919050565b6000602082019050818103600083015261742f816173f3565b9050919050565b600061744182615580565b61744b81856164ec565b935061745b818560208601614d93565b80840191505092915050565b60006174738284617436565b915081905092915050565b60006080820190506174936000830187614ebe565b6174a06020830186614ebe565b6174ad604083018561522d565b81810360608301526174bf818461559c565b905095945050505050565b6000815190506174d981614ce8565b92915050565b6000602082840312156174f5576174f4614cb2565b5b6000617503848285016174ca565b91505092915050565b600061751782614e29565b915061752283614e29565b925082820190508082111561753a5761753961631d565b5b92915050565b7f4e487b7100000000000000000000000000000000000000000000000000000000600052603160045260246000fd5b600060a082019050617584600083018861653f565b617591602083018761653f565b61759e604083018661653f565b6175ab606083018561522d565b6175b86080830184614ebe565b9695505050505050565b600060ff82169050919050565b6175d8816175c2565b82525050565b60006080820190506175f3600083018761653f565b61760060208301866175cf565b61760d604083018561653f565b61761a606083018461653f565b95945050505050565b7f416464726573733a2063616c6c20746f206e6f6e2d636f6e7472616374000000600082015250565b6000617659601d83614d82565b915061766482617623565b602082019050919050565b600060208201905081810360008301526176888161764c565b905091905056fe416464726573733a206c6f772d6c6576656c2064656c65676174652063616c6c206661696c6564a26469706673582212207a55e7b7977ef288abf890e959cf478c44f2f656bf5daf65df876c58ac1f898664736f6c63430008110033",
  "linkReferences": {},
  "deployedLinkReferences": {}
}