{
  "_format": "hh-sol-artifact-1",
  "contractName": "OrbycChain",
  "sourceName": "contracts/orbyc/Chain.sol",
  "abi": [
    {
      "inputs": [
        {
          "internalType": "string",
          "name": "name_",
          "type": "string"
        },
        {
          "internalType": "string",
          "name": "symbol_",
          "type": "string"
        },
        {
          "internalType": "contract IAccountControl",
          "name": "accounts_",
          "type": "address"
        }
      ],
      "stateMutability": "nonpayable",
      "type": "constructor"
    },
    {
      "anonymous": false,
      "inputs": [
        {
          "indexed": true,
          "internalType": "address",
          "name": "owner",
          "type": "address"
        },
        {
          "indexed": true,
          "internalType": "address",
          "name": "approved",
          "type": "address"
        },
        {
          "indexed": true,
          "internalType": "uint256",
          "name": "tokenId",
          "type": "uint256"
        }
      ],
      "name": "Approval",
      "type": "event"
    },
    {
      "anonymous": false,
      "inputs": [
        {
          "indexed": true,
          "internalType": "address",
          "name": "owner",
          "type": "address"
        },
        {
          "indexed": true,
          "internalType": "address",
          "name": "operator",
          "type": "address"
        },
        {
          "indexed": false,
          "internalType": "bool",
          "name": "approved",
          "type": "bool"
        }
      ],
      "name": "ApprovalForAll",
      "type": "event"
    },
    {
      "anonymous": false,
      "inputs": [
        {
          "indexed": true,
          "internalType": "uint64",
          "name": "role",
          "type": "uint64"
        },
        {
          "indexed": true,
          "internalType": "uint64",
          "name": "previousAdminRole",
          "type": "uint64"
        },
        {
          "indexed": true,
          "internalType": "uint64",
          "name": "newAdminRole",
          "type": "uint64"
        }
      ],
      "name": "RoleAdminChanged",
      "type": "event"
    },
    {
      "anonymous": false,
      "inputs": [
        {
          "indexed": true,
          "internalType": "uint64",
          "name": "role",
          "type": "uint64"
        },
        {
          "indexed": true,
          "internalType": "address",
          "name": "account",
          "type": "address"
        },
        {
          "indexed": true,
          "internalType": "address",
          "name": "sender",
          "type": "address"
        }
      ],
      "name": "RoleGranted",
      "type": "event"
    },
    {
      "anonymous": false,
      "inputs": [
        {
          "indexed": true,
          "internalType": "uint64",
          "name": "role",
          "type": "uint64"
        },
        {
          "indexed": true,
          "internalType": "address",
          "name": "account",
          "type": "address"
        },
        {
          "indexed": true,
          "internalType": "address",
          "name": "sender",
          "type": "address"
        }
      ],
      "name": "RoleRevoked",
      "type": "event"
    },
    {
      "anonymous": false,
      "inputs": [
        {
          "indexed": true,
          "internalType": "address",
          "name": "from",
          "type": "address"
        },
        {
          "indexed": true,
          "internalType": "address",
          "name": "to",
          "type": "address"
        },
        {
          "indexed": true,
          "internalType": "uint256",
          "name": "tokenId",
          "type": "uint256"
        }
      ],
      "name": "Transfer",
      "type": "event"
    },
    {
      "inputs": [],
      "name": "ASSET_ISSUER_ROLE",
      "outputs": [
        {
          "internalType": "uint64",
          "name": "",
          "type": "uint64"
        }
      ],
      "stateMutability": "view",
      "type": "function"
    },
    {
      "inputs": [],
      "name": "COMPOSITION_ISSUER_ROLE",
      "outputs": [
        {
          "internalType": "uint64",
          "name": "",
          "type": "uint64"
        }
      ],
      "stateMutability": "view",
      "type": "function"
    },
    {
      "inputs": [],
      "name": "DEFAULT_ADMIN_ROLE",
      "outputs": [
        {
          "internalType": "uint64",
          "name": "",
          "type": "uint64"
        }
      ],
      "stateMutability": "view",
      "type": "function"
    },
    {
      "inputs": [],
      "name": "TRACEABILITY_ISSUER_ROLE",
      "outputs": [
        {
          "internalType": "uint64",
          "name": "",
          "type": "uint64"
        }
      ],
      "stateMutability": "view",
      "type": "function"
    },
    {
      "inputs": [
        {
          "internalType": "uint256",
          "name": "tokenId",
          "type": "uint256"
        },
        {
          "components": [
            {
              "internalType": "uint256",
              "name": "tokenId",
              "type": "uint256"
            },
            {
              "internalType": "string",
              "name": "metadata",
              "type": "string"
            }
          ],
          "internalType": "struct ERC721Compound.Component[]",
          "name": "components",
          "type": "tuple[]"
        }
      ],
      "name": "appendComponents",
      "outputs": [],
      "stateMutability": "nonpayable",
      "type": "function"
    },
    {
      "inputs": [
        {
          "internalType": "uint256",
          "name": "tokenId",
          "type": "uint256"
        },
        {
          "components": [
            {
              "internalType": "string",
              "name": "metadata",
              "type": "string"
            }
          ],
          "internalType": "struct ERC721Traceable.Trace[]",
          "name": "traces",
          "type": "tuple[]"
        }
      ],
      "name": "appendTraces",
      "outputs": [],
      "stateMutability": "nonpayable",
      "type": "function"
    },
    {
      "inputs": [
        {
          "internalType": "address",
          "name": "to",
          "type": "address"
        },
        {
          "internalType": "uint256",
          "name": "tokenId",
          "type": "uint256"
        }
      ],
      "name": "approve",
      "outputs": [],
      "stateMutability": "nonpayable",
      "type": "function"
    },
    {
      "inputs": [
        {
          "internalType": "address",
          "name": "owner",
          "type": "address"
        }
      ],
      "name": "balanceOf",
      "outputs": [
        {
          "internalType": "uint256",
          "name": "",
          "type": "uint256"
        }
      ],
      "stateMutability": "view",
      "type": "function"
    },
    {
      "inputs": [
        {
          "internalType": "bytes",
          "name": "execution",
          "type": "bytes"
        },
        {
          "internalType": "uint256",
          "name": "deadline",
          "type": "uint256"
        },
        {
          "internalType": "bytes[]",
          "name": "signatures",
          "type": "bytes[]"
        }
      ],
      "name": "execute",
      "outputs": [
        {
          "internalType": "bytes",
          "name": "",
          "type": "bytes"
        }
      ],
      "stateMutability": "nonpayable",
      "type": "function"
    },
    {
      "inputs": [
        {
          "internalType": "uint256",
          "name": "tokenId",
          "type": "uint256"
        }
      ],
      "name": "getApproved",
      "outputs": [
        {
          "internalType": "address",
          "name": "",
          "type": "address"
        }
      ],
      "stateMutability": "view",
      "type": "function"
    },
    {
      "inputs": [
        {
          "internalType": "uint256",
          "name": "tokenId",
          "type": "uint256"
        }
      ],
      "name": "getComposition",
      "outputs": [
        {
          "components": [
            {
              "internalType": "uint256",
              "name": "tokenId",
              "type": "uint256"
            },
            {
              "internalType": "string",
              "name": "metadata",
              "type": "string"
            }
          ],
          "internalType": "struct ERC721Compound.Component[]",
          "name": "",
          "type": "tuple[]"
        }
      ],
      "stateMutability": "view",
      "type": "function"
    },
    {
      "inputs": [
        {
          "internalType": "uint256",
          "name": "tokenId",
          "type": "uint256"
        }
      ],
      "name": "getMetadata",
      "outputs": [
        {
          "internalType": "string",
          "name": "",
          "type": "string"
        }
      ],
      "stateMutability": "view",
      "type": "function"
    },
    {
      "inputs": [
        {
          "internalType": "uint64",
          "name": "role",
          "type": "uint64"
        }
      ],
      "name": "getRoleAdmin",
      "outputs": [
        {
          "internalType": "uint64",
          "name": "",
          "type": "uint64"
        }
      ],
      "stateMutability": "view",
      "type": "function"
    },
    {
      "inputs": [
        {
          "internalType": "uint256",
          "name": "tokenId",
          "type": "uint256"
        }
      ],
      "name": "getTraceability",
      "outputs": [
        {
          "components": [
            {
              "internalType": "string",
              "name": "metadata",
              "type": "string"
            }
          ],
          "internalType": "struct ERC721Traceable.Trace[]",
          "name": "",
          "type": "tuple[]"
        }
      ],
      "stateMutability": "view",
      "type": "function"
    },
    {
      "inputs": [
        {
          "internalType": "uint64",
          "name": "role",
          "type": "uint64"
        },
        {
          "internalType": "address",
          "name": "account",
          "type": "address"
        }
      ],
      "name": "grantRole",
      "outputs": [],
      "stateMutability": "nonpayable",
      "type": "function"
    },
    {
      "inputs": [
        {
          "internalType": "uint64",
          "name": "role",
          "type": "uint64"
        },
        {
          "internalType": "address",
          "name": "account",
          "type": "address"
        }
      ],
      "name": "hasRole",
      "outputs": [
        {
          "internalType": "bool",
          "name": "",
          "type": "bool"
        }
      ],
      "stateMutability": "view",
      "type": "function"
    },
    {
      "inputs": [
        {
          "internalType": "address",
          "name": "owner",
          "type": "address"
        },
        {
          "internalType": "address",
          "name": "operator",
          "type": "address"
        }
      ],
      "name": "isApprovedForAll",
      "outputs": [
        {
          "internalType": "bool",
          "name": "",
          "type": "bool"
        }
      ],
      "stateMutability": "view",
      "type": "function"
    },
    {
      "inputs": [
        {
          "internalType": "uint256",
          "name": "tokenId",
          "type": "uint256"
        },
        {
          "internalType": "string",
          "name": "data",
          "type": "string"
        }
      ],
      "name": "mint",
      "outputs": [],
      "stateMutability": "nonpayable",
      "type": "function"
    },
    {
      "inputs": [],
      "name": "name",
      "outputs": [
        {
          "internalType": "string",
          "name": "",
          "type": "string"
        }
      ],
      "stateMutability": "view",
      "type": "function"
    },
    {
      "inputs": [
        {
          "internalType": "address",
          "name": "sender",
          "type": "address"
        }
      ],
      "name": "nonces",
      "outputs": [
        {
          "internalType": "uint256",
          "name": "",
          "type": "uint256"
        }
      ],
      "stateMutability": "view",
      "type": "function"
    },
    {
      "inputs": [
        {
          "internalType": "uint256",
          "name": "tokenId",
          "type": "uint256"
        }
      ],
      "name": "ownerOf",
      "outputs": [
        {
          "internalType": "address",
          "name": "",
          "type": "address"
        }
      ],
      "stateMutability": "view",
      "type": "function"
    },
    {
      "inputs": [
        {
          "internalType": "uint64",
          "name": "role",
          "type": "uint64"
        },
        {
          "internalType": "address",
          "name": "account",
          "type": "address"
        }
      ],
      "name": "renounceRole",
      "outputs": [],
      "stateMutability": "nonpayable",
      "type": "function"
    },
    {
      "inputs": [
        {
          "internalType": "uint256",
          "name": "tokenId",
          "type": "uint256"
        }
      ],
      "name": "resetComposition",
      "outputs": [],
      "stateMutability": "nonpayable",
      "type": "function"
    },
    {
      "inputs": [
        {
          "internalType": "uint256",
          "name": "tokenId",
          "type": "uint256"
        }
      ],
      "name": "resetTraceability",
      "outputs": [],
      "stateMutability": "nonpayable",
      "type": "function"
    },
    {
      "inputs": [
        {
          "internalType": "uint64",
          "name": "role",
          "type": "uint64"
        },
        {
          "internalType": "address",
          "name": "account",
          "type": "address"
        }
      ],
      "name": "revokeRole",
      "outputs": [],
      "stateMutability": "nonpayable",
      "type": "function"
    },
    {
      "inputs": [
        {
          "internalType": "uint256",
          "name": "_tokenId",
          "type": "uint256"
        },
        {
          "internalType": "uint256",
          "name": "_salePrice",
          "type": "uint256"
        }
      ],
      "name": "royaltyInfo",
      "outputs": [
        {
          "internalType": "address",
          "name": "",
          "type": "address"
        },
        {
          "internalType": "uint256",
          "name": "",
          "type": "uint256"
        }
      ],
      "stateMutability": "view",
      "type": "function"
    },
    {
      "inputs": [
        {
          "internalType": "address",
          "name": "from",
          "type": "address"
        },
        {
          "internalType": "address",
          "name": "to",
          "type": "address"
        },
        {
          "internalType": "uint256",
          "name": "tokenId",
          "type": "uint256"
        }
      ],
      "name": "safeTransferFrom",
      "outputs": [],
      "stateMutability": "nonpayable",
      "type": "function"
    },
    {
      "inputs": [
        {
          "internalType": "address",
          "name": "from",
          "type": "address"
        },
        {
          "internalType": "address",
          "name": "to",
          "type": "address"
        },
        {
          "internalType": "uint256",
          "name": "tokenId",
          "type": "uint256"
        },
        {
          "internalType": "bytes",
          "name": "data",
          "type": "bytes"
        }
      ],
      "name": "safeTransferFrom",
      "outputs": [],
      "stateMutability": "nonpayable",
      "type": "function"
    },
    {
      "inputs": [
        {
          "internalType": "address",
          "name": "operator",
          "type": "address"
        },
        {
          "internalType": "bool",
          "name": "approved",
          "type": "bool"
        }
      ],
      "name": "setApprovalForAll",
      "outputs": [],
      "stateMutability": "nonpayable",
      "type": "function"
    },
    {
      "inputs": [
        {
          "internalType": "bytes4",
          "name": "interfaceId",
          "type": "bytes4"
        }
      ],
      "name": "supportsInterface",
      "outputs": [
        {
          "internalType": "bool",
          "name": "",
          "type": "bool"
        }
      ],
      "stateMutability": "view",
      "type": "function"
    },
    {
      "inputs": [],
      "name": "symbol",
      "outputs": [
        {
          "internalType": "string",
          "name": "",
          "type": "string"
        }
      ],
      "stateMutability": "view",
      "type": "function"
    },
    {
      "inputs": [
        {
          "internalType": "uint256",
          "name": "index",
          "type": "uint256"
        }
      ],
      "name": "tokenByIndex",
      "outputs": [
        {
          "internalType": "uint256",
          "name": "",
          "type": "uint256"
        }
      ],
      "stateMutability": "view",
      "type": "function"
    },
    {
      "inputs": [
        {
          "internalType": "address",
          "name": "owner",
          "type": "address"
        },
        {
          "internalType": "uint256",
          "name": "index",
          "type": "uint256"
        }
      ],
      "name": "tokenOfOwnerByIndex",
      "outputs": [
        {
          "internalType": "uint256",
          "name": "",
          "type": "uint256"
        }
      ],
      "stateMutability": "view",
      "type": "function"
    },
    {
      "inputs": [
        {
          "internalType": "uint256",
          "name": "tokenId",
          "type": "uint256"
        }
      ],
      "name": "tokenURI",
      "outputs": [
        {
          "internalType": "string",
          "name": "",
          "type": "string"
        }
      ],
      "stateMutability": "view",
      "type": "function"
    },
    {
      "inputs": [],
      "name": "totalSupply",
      "outputs": [
        {
          "internalType": "uint256",
          "name": "",
          "type": "uint256"
        }
      ],
      "stateMutability": "view",
      "type": "function"
    },
    {
      "inputs": [
        {
          "internalType": "address",
          "name": "from",
          "type": "address"
        },
        {
          "internalType": "address",
          "name": "to",
          "type": "address"
        },
        {
          "internalType": "uint256",
          "name": "tokenId",
          "type": "uint256"
        }
      ],
      "name": "transferFrom",
      "outputs": [],
      "stateMutability": "nonpayable",
      "type": "function"
    }
  ],
  "bytecode": "0x6101606040527fd4335c17694100386699225e8046bb34815f8092a80796ad9c2bc1f9cb2c99c4610140908152503480156200003a57600080fd5b506040516200779c3803806200779c833981810160405281019062000060919062000716565b828383826040518060400160405280600181526020017f310000000000000000000000000000000000000000000000000000000000000081525060008280519060200120905060008280519060200120905060007f8b73c3c69bb8fe3d512ecc4cf759cc79239f7b179b0ffacaa9a75d522b39400f90508260e081815250508161010081815250504660a08181525050620001038184846200021b60201b60201c565b608081815250503073ffffffffffffffffffffffffffffffffffffffff1660c08173ffffffffffffffffffffffffffffffffffffffff1681525050806101208181525050505050505081600290816200015d9190620009fb565b5080600390816200016f9190620009fb565b5050505080601460006101000a81548173ffffffffffffffffffffffffffffffffffffffff021916908373ffffffffffffffffffffffffffffffffffffffff160217905550620001c8600260016200025760201b60201c565b620001dc600460016200025760201b60201c565b620001f0600860016200025760201b60201c565b620002126001620002066200030b60201b60201c565b620003c760201b60201c565b50505062000bfc565b600083838346306040516020016200023895949392919062000b1f565b6040516020818303038152906040528051906020012090509392505050565b60006200026a83620004be60201b60201c565b9050816000808567ffffffffffffffff1667ffffffffffffffff16815260200190815260200160002060006101000a81548167ffffffffffffffff021916908367ffffffffffffffff1602179055508167ffffffffffffffff168167ffffffffffffffff168467ffffffffffffffff167fb3f64d01c9ffe8c7da50937e6617936aae17a6c8d8502cb470bdf50484ce491760405160405180910390a4505050565b6000601460009054906101000a900473ffffffffffffffffffffffffffffffffffffffff1673ffffffffffffffffffffffffffffffffffffffff16638086b8ba620003606200050260201b62001fe41760201c565b6040518263ffffffff1660e01b81526004016200037e919062000b7c565b602060405180830381865afa1580156200039c573d6000803e3d6000fd5b505050506040513d601f19601f82011682018060405250810190620003c2919062000bca565b905090565b81600160008373ffffffffffffffffffffffffffffffffffffffff1673ffffffffffffffffffffffffffffffffffffffff16815260200190815260200160002060008282829054906101000a900467ffffffffffffffff161792506101000a81548167ffffffffffffffff021916908367ffffffffffffffff160217905550620004566200030b60201b60201c565b73ffffffffffffffffffffffffffffffffffffffff168173ffffffffffffffffffffffffffffffffffffffff168367ffffffffffffffff167f2e633503bdbb177665559a9efb7b963d30f2042d94c73311e9c54f799584abd560405160405180910390a45050565b60008060008367ffffffffffffffff1667ffffffffffffffff16815260200190815260200160002060009054906101000a900467ffffffffffffffff169050919050565b600033905090565b6000604051905090565b600080fd5b600080fd5b600080fd5b600080fd5b6000601f19601f8301169050919050565b7f4e487b7100000000000000000000000000000000000000000000000000000000600052604160045260246000fd5b620005738262000528565b810181811067ffffffffffffffff8211171562000595576200059462000539565b5b80604052505050565b6000620005aa6200050a565b9050620005b8828262000568565b919050565b600067ffffffffffffffff821115620005db57620005da62000539565b5b620005e68262000528565b9050602081019050919050565b60005b8381101562000613578082015181840152602081019050620005f6565b60008484015250505050565b6000620006366200063084620005bd565b6200059e565b90508281526020810184848401111562000655576200065462000523565b5b62000662848285620005f3565b509392505050565b600082601f8301126200068257620006816200051e565b5b8151620006948482602086016200061f565b91505092915050565b600073ffffffffffffffffffffffffffffffffffffffff82169050919050565b6000620006ca826200069d565b9050919050565b6000620006de82620006bd565b9050919050565b620006f081620006d1565b8114620006fc57600080fd5b50565b6000815190506200071081620006e5565b92915050565b60008060006060848603121562000732576200073162000514565b5b600084015167ffffffffffffffff81111562000753576200075262000519565b5b62000761868287016200066a565b935050602084015167ffffffffffffffff81111562000785576200078462000519565b5b62000793868287016200066a565b9250506040620007a686828701620006ff565b9150509250925092565b600081519050919050565b7f4e487b7100000000000000000000000000000000000000000000000000000000600052602260045260246000fd5b600060028204905060018216806200080357607f821691505b602082108103620008195762000818620007bb565b5b50919050565b60008190508160005260206000209050919050565b60006020601f8301049050919050565b600082821b905092915050565b600060088302620008837fffffffffffffffffffffffffffffffffffffffffffffffffffffffffffffffff8262000844565b6200088f868362000844565b95508019841693508086168417925050509392505050565b6000819050919050565b6000819050919050565b6000620008dc620008d6620008d084620008a7565b620008b1565b620008a7565b9050919050565b6000819050919050565b620008f883620008bb565b620009106200090782620008e3565b84845462000851565b825550505050565b600090565b6200092762000918565b62000934818484620008ed565b505050565b5b818110156200095c57620009506000826200091d565b6001810190506200093a565b5050565b601f821115620009ab5762000975816200081f565b620009808462000834565b8101602085101562000990578190505b620009a86200099f8562000834565b83018262000939565b50505b505050565b600082821c905092915050565b6000620009d060001984600802620009b0565b1980831691505092915050565b6000620009eb8383620009bd565b9150826002028217905092915050565b62000a0682620007b0565b67ffffffffffffffff81111562000a225762000a2162000539565b5b62000a2e8254620007ea565b62000a3b82828562000960565b600060209050601f83116001811462000a73576000841562000a5e578287015190505b62000a6a8582620009dd565b86555062000ada565b601f19841662000a83866200081f565b60005b8281101562000aad5784890151825560018201915060208501945060208101905062000a86565b8683101562000acd578489015162000ac9601f891682620009bd565b8355505b6001600288020188555050505b505050505050565b6000819050919050565b62000af78162000ae2565b82525050565b62000b0881620008a7565b82525050565b62000b1981620006bd565b82525050565b600060a08201905062000b36600083018862000aec565b62000b45602083018762000aec565b62000b54604083018662000aec565b62000b63606083018562000afd565b62000b72608083018462000b0e565b9695505050505050565b600060208201905062000b93600083018462000b0e565b92915050565b62000ba481620006bd565b811462000bb057600080fd5b50565b60008151905062000bc48162000b99565b92915050565b60006020828403121562000be35762000be262000514565b5b600062000bf38482850162000bb3565b91505092915050565b60805160a05160c05160e051610100516101205161014051616b4562000c5760003960006110780152600061370601526000613748015260006137270152600061365c015260006136b2015260006136db0152616b456000f3fe608060405234801561001057600080fd5b506004361061021c5760003560e01c806377097fc811610125578063b7d2b162116100ad578063d1f856ee1161007c578063d1f856ee146106a8578063d86d6952146106d8578063d8f9ce24146106f6578063e985e9c514610714578063fe0776f5146107445761021c565b8063b7d2b16214610610578063b88d4fde1461062c578063bca841b114610648578063c87b56dd146106785761021c565b8063a217fddf116100f4578063a217fddf1461056c578063a22cb4651461058a578063a41144cb146105a6578063a574cea4146105c4578063b428b0b0146105f45761021c565b806377097fc8146104e65780637ecebe001461050257806395d89b41146105325780639c23cbff146105505761021c565b80632f745c59116101a8578063530dd45611610177578063530dd4561461040a578063547cb6771461043a5780636352211e1461046a57806370a082311461049a57806372dc0db9146104ca5761021c565b80632f745c591461035e57806336ed68281461038e57806342842e0e146103be5780634f6ccce7146103da5761021c565b80630b6c1368116101ef5780630b6c1368146102bb5780630c328f34146102d757806318160ddd146102f357806323b872dd146103115780632a55205a1461032d5761021c565b806301ffc9a71461022157806306fdde0314610251578063081812fc1461026f578063095ea7b31461029f575b600080fd5b61023b600480360381019061023691906144f0565b610760565b6040516102489190614538565b60405180910390f35b6102596107a2565b60405161026691906145e3565b60405180910390f35b6102896004803603810190610284919061463b565b610834565b60405161029691906146a9565b60405180910390f35b6102b960048036038101906102b491906146f0565b61087a565b005b6102d560048036038101906102d091906149ad565b610991565b005b6102f160048036038101906102ec919061463b565b610b5f565b005b6102fb610d2b565b6040516103089190614a18565b60405180910390f35b61032b60048036038101906103269190614a33565b610d38565b005b61034760048036038101906103429190614a86565b610d98565b604051610355929190614ac6565b60405180910390f35b610378600480360381019061037391906146f0565b610f82565b6040516103859190614a18565b60405180910390f35b6103a860048036038101906103a39190614ccc565b611027565b6040516103b59190614db1565b60405180910390f35b6103d860048036038101906103d39190614a33565b6113a6565b005b6103f460048036038101906103ef919061463b565b6113c6565b6040516104019190614a18565b60405180910390f35b610424600480360381019061041f9190614e13565b611437565b6040516104319190614e4f565b60405180910390f35b610454600480360381019061044f919061463b565b61147b565b6040516104619190614fa0565b60405180910390f35b610484600480360381019061047f919061463b565b61157b565b60405161049191906146a9565b60405180910390f35b6104b460048036038101906104af9190614fc2565b611601565b6040516104c19190614a18565b60405180910390f35b6104e460048036038101906104df919061513c565b6116b8565b005b61050060048036038101906104fb9190615198565b611886565b005b61051c60048036038101906105179190614fc2565b6118ca565b6040516105299190614a18565b60405180910390f35b61053a61191a565b60405161054791906145e3565b60405180910390f35b61056a6004803603810190610565919061463b565b6119ac565b005b610574611b78565b6040516105819190614e4f565b60405180910390f35b6105a4600480360381019061059f9190615220565b611b7d565b005b6105ae611b93565b6040516105bb9190614e4f565b60405180910390f35b6105de60048036038101906105d9919061463b565b611b98565b6040516105eb91906145e3565b60405180910390f35b61060e60048036038101906106099190615260565b611c3d565b005b61062a60048036038101906106259190615260565b611c5e565b005b610646600480360381019061064191906152a0565b611c7f565b005b610662600480360381019061065d919061463b565b611ce1565b60405161066f9190615431565b60405180910390f35b610692600480360381019061068d919061463b565b611def565b60405161069f91906145e3565b60405180910390f35b6106c260048036038101906106bd9190615260565b611e57565b6040516106cf9190614538565b60405180910390f35b6106e0611ec3565b6040516106ed9190614e4f565b60405180910390f35b6106fe611ec8565b60405161070b9190614e4f565b60405180910390f35b61072e60048036038101906107299190615453565b611ecd565b60405161073b9190614538565b60405180910390f35b61075e60048036038101906107599190615260565b611f61565b005b600061076b82611fec565b8061077b575061077a82612066565b5b8061078b575061078a826120e0565b5b8061079b575061079a8261215a565b5b9050919050565b6060600280546107b1906154c2565b80601f01602080910402602001604051908101604052809291908181526020018280546107dd906154c2565b801561082a5780601f106107ff5761010080835404028352916020019161082a565b820191906000526020600020905b81548152906001019060200180831161080d57829003601f168201915b5050505050905090565b600061083f826121d4565b6006600083815260200190815260200160002060009054906101000a900473ffffffffffffffffffffffffffffffffffffffff169050919050565b60006108858261157b565b90508073ffffffffffffffffffffffffffffffffffffffff168373ffffffffffffffffffffffffffffffffffffffff16036108f5576040517f08c379a00000000000000000000000000000000000000000000000000000000081526004016108ec90615565565b60405180910390fd5b8073ffffffffffffffffffffffffffffffffffffffff1661091461221f565b73ffffffffffffffffffffffffffffffffffffffff16148061094357506109428161093d61221f565b611ecd565b5b610982576040517f08c379a0000000000000000000000000000000000000000000000000000000008152600401610979906155f7565b60405180910390fd5b61098c83836122c9565b505050565b600180601254146109d7576040517f08c379a00000000000000000000000000000000000000000000000000000000081526004016109ce90615663565b60405180910390fd5b806013805490501015610a1f576040517f08c379a0000000000000000000000000000000000000000000000000000000008152600401610a16906156cf565b60405180910390fd5b826000610a2d826000610d98565b5090508073ffffffffffffffffffffffffffffffffffffffff16601460009054906101000a900473ffffffffffffffffffffffffffffffffffffffff1673ffffffffffffffffffffffffffffffffffffffff16638086b8ba610a8f6000612382565b6040518263ffffffff1660e01b8152600401610aab91906146a9565b602060405180830381865afa158015610ac8573d6000803e3d6000fd5b505050506040513d601f19601f82011682018060405250810190610aec9190615704565b73ffffffffffffffffffffffffffffffffffffffff1614610b42576040517f08c379a0000000000000000000000000000000000000000000000000000000008152600401610b399061577d565b60405180910390fd5b6008610b4d816123ca565b610b5786866123de565b505050505050565b60018060125414610ba5576040517f08c379a0000000000000000000000000000000000000000000000000000000008152600401610b9c90615663565b60405180910390fd5b806013805490501015610bed576040517f08c379a0000000000000000000000000000000000000000000000000000000008152600401610be4906156cf565b60405180910390fd5b816000610bfb826000610d98565b5090508073ffffffffffffffffffffffffffffffffffffffff16601460009054906101000a900473ffffffffffffffffffffffffffffffffffffffff1673ffffffffffffffffffffffffffffffffffffffff16638086b8ba610c5d6000612382565b6040518263ffffffff1660e01b8152600401610c7991906146a9565b602060405180830381865afa158015610c96573d6000803e3d6000fd5b505050506040513d601f19601f82011682018060405250810190610cba9190615704565b73ffffffffffffffffffffffffffffffffffffffff1614610d10576040517f08c379a0000000000000000000000000000000000000000000000000000000008152600401610d079061577d565b60405180910390fd5b6001610d1b816123ca565b610d248561246d565b5050505050565b6000600a80549050905090565b610d49610d4361221f565b8261248f565b610d88576040517f08c379a0000000000000000000000000000000000000000000000000000000008152600401610d7f9061580f565b60405180910390fd5b610d93838383612524565b505050565b6000806000601060008681526020019081526020016000206040518060400160405290816000820160009054906101000a900473ffffffffffffffffffffffffffffffffffffffff1673ffffffffffffffffffffffffffffffffffffffff1673ffffffffffffffffffffffffffffffffffffffff1681526020016000820160149054906101000a90046bffffffffffffffffffffffff166bffffffffffffffffffffffff166bffffffffffffffffffffffff16815250509050600073ffffffffffffffffffffffffffffffffffffffff16816000015173ffffffffffffffffffffffffffffffffffffffff1603610f2d57600f6040518060400160405290816000820160009054906101000a900473ffffffffffffffffffffffffffffffffffffffff1673ffffffffffffffffffffffffffffffffffffffff1673ffffffffffffffffffffffffffffffffffffffff1681526020016000820160149054906101000a90046bffffffffffffffffffffffff166bffffffffffffffffffffffff166bffffffffffffffffffffffff168152505090505b6000610f3761281d565b6bffffffffffffffffffffffff1682602001516bffffffffffffffffffffffff1686610f63919061585e565b610f6d91906158cf565b90508160000151819350935050509250929050565b6000610f8d83611601565b8210610fce576040517f08c379a0000000000000000000000000000000000000000000000000000000008152600401610fc590615972565b60405180910390fd5b600860008473ffffffffffffffffffffffffffffffffffffffff1673ffffffffffffffffffffffffffffffffffffffff168152602001908152602001600020600083815260200190815260200160002054905092915050565b6060611031612827565b82421115611074576040517f08c379a000000000000000000000000000000000000000000000000000000000815260040161106b906159de565b60405180910390fd5b60007f000000000000000000000000000000000000000000000000000000000000000086866040516110a7929190615a2e565b60405180910390206110b761221f565b611105601160006110c661221f565b73ffffffffffffffffffffffffffffffffffffffff1673ffffffffffffffffffffffffffffffffffffffff168152602001908152602001600020612876565b8760405160200161111a959493929190615a60565b604051602081830303815290604052805190602001209050600061113d82612884565b9050835167ffffffffffffffff81111561115a57611159614735565b5b6040519080825280602002602001820160405280156111885781602001602082028036833780820191505090505b506013908051906020019061119e929190614302565b5060005b601380549050811015611343576111d3828683815181106111c6576111c5615ab3565b5b602002602001015161289e565b601382815481106111e7576111e6615ab3565b5b9060005260206000200160006101000a81548173ffffffffffffffffffffffffffffffffffffffff021916908373ffffffffffffffffffffffffffffffffffffffff16021790555060008114806112f1575060136001826112489190615ae2565b8154811061125957611258615ab3565b5b9060005260206000200160009054906101000a900473ffffffffffffffffffffffffffffffffffffffff1673ffffffffffffffffffffffffffffffffffffffff16601382815481106112ae576112ad615ab3565b5b9060005260206000200160009054906101000a900473ffffffffffffffffffffffffffffffffffffffff1673ffffffffffffffffffffffffffffffffffffffff16115b611330576040517f08c379a000000000000000000000000000000000000000000000000000000000815260040161132790615b62565b60405180910390fd5b808061133b90615b82565b9150506111a2565b506113923088888080601f016020809104026020016040519081016040528093929190818152602001838380828437600081840152601f19601f820116905080830192505050505050506128c5565b9250505061139e6128f2565b949350505050565b6113c183838360405180602001604052806000815250611c7f565b505050565b60006113d0610d2b565b8210611411576040517f08c379a000000000000000000000000000000000000000000000000000000000815260040161140890615c3c565b60405180910390fd5b600a828154811061142557611424615ab3565b5b90600052602060002001549050919050565b60008060008367ffffffffffffffff1667ffffffffffffffff16815260200190815260200160002060009054906101000a900467ffffffffffffffff169050919050565b6060600e6000838152602001908152602001600020805480602002602001604051908101604052809291908181526020016000905b82821015611570578382906000526020600020016040518060200160405290816000820180546114df906154c2565b80601f016020809104026020016040519081016040528092919081815260200182805461150b906154c2565b80156115585780601f1061152d57610100808354040283529160200191611558565b820191906000526020600020905b81548152906001019060200180831161153b57829003601f168201915b505050505081525050815260200190600101906114b0565b505050509050919050565b600080611587836129aa565b9050600073ffffffffffffffffffffffffffffffffffffffff168173ffffffffffffffffffffffffffffffffffffffff16036115f8576040517f08c379a00000000000000000000000000000000000000000000000000000000081526004016115ef90615ca8565b60405180910390fd5b80915050919050565b60008073ffffffffffffffffffffffffffffffffffffffff168273ffffffffffffffffffffffffffffffffffffffff1603611671576040517f08c379a000000000000000000000000000000000000000000000000000000000815260040161166890615d3a565b60405180910390fd5b600560008373ffffffffffffffffffffffffffffffffffffffff1673ffffffffffffffffffffffffffffffffffffffff168152602001908152602001600020549050919050565b600180601254146116fe576040517f08c379a00000000000000000000000000000000000000000000000000000000081526004016116f590615663565b60405180910390fd5b806013805490501015611746576040517f08c379a000000000000000000000000000000000000000000000000000000000815260040161173d906156cf565b60405180910390fd5b826000611754826000610d98565b5090508073ffffffffffffffffffffffffffffffffffffffff16601460009054906101000a900473ffffffffffffffffffffffffffffffffffffffff1673ffffffffffffffffffffffffffffffffffffffff16638086b8ba6117b66000612382565b6040518263ffffffff1660e01b81526004016117d291906146a9565b602060405180830381865afa1580156117ef573d6000803e3d6000fd5b505050506040513d601f19601f820116820180604052508101906118139190615704565b73ffffffffffffffffffffffffffffffffffffffff1614611869576040517f08c379a00000000000000000000000000000000000000000000000000000000081526004016118609061577d565b60405180910390fd5b6004611874816123ca565b61187e86866129e7565b505050505050565b6002611891816123ca565b6118a261189c61221f565b84612a84565b6118ac8383612ca1565b6118c5836118b861221f565b6118c061281d565b612cc6565b505050565b6000611913601160008473ffffffffffffffffffffffffffffffffffffffff1673ffffffffffffffffffffffffffffffffffffffff168152602001908152602001600020612876565b9050919050565b606060038054611929906154c2565b80601f0160208091040260200160405190810160405280929190818152602001828054611955906154c2565b80156119a25780601f10611977576101008083540402835291602001916119a2565b820191906000526020600020905b81548152906001019060200180831161198557829003601f168201915b5050505050905090565b600180601254146119f2576040517f08c379a00000000000000000000000000000000000000000000000000000000081526004016119e990615663565b60405180910390fd5b806013805490501015611a3a576040517f08c379a0000000000000000000000000000000000000000000000000000000008152600401611a31906156cf565b60405180910390fd5b816000611a48826000610d98565b5090508073ffffffffffffffffffffffffffffffffffffffff16601460009054906101000a900473ffffffffffffffffffffffffffffffffffffffff1673ffffffffffffffffffffffffffffffffffffffff16638086b8ba611aaa6000612382565b6040518263ffffffff1660e01b8152600401611ac691906146a9565b602060405180830381865afa158015611ae3573d6000803e3d6000fd5b505050506040513d601f19601f82011682018060405250810190611b079190615704565b73ffffffffffffffffffffffffffffffffffffffff1614611b5d576040517f08c379a0000000000000000000000000000000000000000000000000000000008152600401611b549061577d565b60405180910390fd5b6001611b68816123ca565b611b7185612e6d565b5050505050565b600181565b611b8f611b8861221f565b8383612e8f565b5050565b600481565b6060600d60008381526020019081526020016000208054611bb8906154c2565b80601f0160208091040260200160405190810160405280929190818152602001828054611be4906154c2565b8015611c315780601f10611c0657610100808354040283529160200191611c31565b820191906000526020600020905b815481529060010190602001808311611c1457829003601f168201915b50505050509050919050565b611c4682611437565b611c4f816123ca565b611c598383612ffb565b505050565b611c6782611437565b611c70816123ca565b611c7a83836130ea565b505050565b611c90611c8a61221f565b8361248f565b611ccf576040517f08c379a0000000000000000000000000000000000000000000000000000000008152600401611cc69061580f565b60405180910390fd5b611cdb848484846131d9565b50505050565b6060600c6000838152602001908152602001600020805480602002602001604051908101604052809291908181526020016000905b82821015611de4578382906000526020600020906002020160405180604001604052908160008201548152602001600182018054611d53906154c2565b80601f0160208091040260200160405190810160405280929190818152602001828054611d7f906154c2565b8015611dcc5780601f10611da157610100808354040283529160200191611dcc565b820191906000526020600020905b815481529060010190602001808311611daf57829003601f168201915b50505050508152505081526020019060010190611d16565b505050509050919050565b6060611dfa826121d4565b6000611e04613235565b90506000815111611e245760405180602001604052806000815250611e4f565b80611e2e8461324c565b604051602001611e3f929190615d96565b6040516020818303038152906040525b915050919050565b60008083600160008573ffffffffffffffffffffffffffffffffffffffff1673ffffffffffffffffffffffffffffffffffffffff16815260200190815260200160002060009054906101000a900467ffffffffffffffff161667ffffffffffffffff1611905092915050565b600881565b600281565b6000600760008473ffffffffffffffffffffffffffffffffffffffff1673ffffffffffffffffffffffffffffffffffffffff16815260200190815260200160002060008373ffffffffffffffffffffffffffffffffffffffff1673ffffffffffffffffffffffffffffffffffffffff16815260200190815260200160002060009054906101000a900460ff16905092915050565b611f6961221f565b73ffffffffffffffffffffffffffffffffffffffff168173ffffffffffffffffffffffffffffffffffffffff1614611fd6576040517f08c379a0000000000000000000000000000000000000000000000000000000008152600401611fcd90615e2c565b60405180910390fd5b611fe082826130ea565b5050565b600033905090565b60007f7f08f59f000000000000000000000000000000000000000000000000000000007bffffffffffffffffffffffffffffffffffffffffffffffffffffffff1916827bffffffffffffffffffffffffffffffffffffffffffffffffffffffff1916148061205f575061205e8261331a565b5b9050919050565b60007f780e9d63000000000000000000000000000000000000000000000000000000007bffffffffffffffffffffffffffffffffffffffffffffffffffffffff1916827bffffffffffffffffffffffffffffffffffffffffffffffffffffffff191614806120d957506120d882613384565b5b9050919050565b60007f2a55205a000000000000000000000000000000000000000000000000000000007bffffffffffffffffffffffffffffffffffffffffffffffffffffffff1916827bffffffffffffffffffffffffffffffffffffffffffffffffffffffff19161480612153575061215282612066565b5b9050919050565b60007f49dc1f8f000000000000000000000000000000000000000000000000000000007bffffffffffffffffffffffffffffffffffffffffffffffffffffffff1916827bffffffffffffffffffffffffffffffffffffffffffffffffffffffff191614806121cd57506121cc826120e0565b5b9050919050565b6121dd81613466565b61221c576040517f08c379a000000000000000000000000000000000000000000000000000000000815260040161221390615ca8565b60405180910390fd5b50565b6000601460009054906101000a900473ffffffffffffffffffffffffffffffffffffffff1673ffffffffffffffffffffffffffffffffffffffff16638086b8ba612267611fe4565b6040518263ffffffff1660e01b815260040161228391906146a9565b602060405180830381865afa1580156122a0573d6000803e3d6000fd5b505050506040513d601f19601f820116820180604052508101906122c49190615704565b905090565b816006600083815260200190815260200160002060006101000a81548173ffffffffffffffffffffffffffffffffffffffff021916908373ffffffffffffffffffffffffffffffffffffffff160217905550808273ffffffffffffffffffffffffffffffffffffffff1661233c8361157b565b73ffffffffffffffffffffffffffffffffffffffff167f8c5be1e5ebec7d5bd14f71427d1e84f3dd0314c0f7b2291e5b200ac8c7c3b92560405160405180910390a45050565b60006013828154811061239857612397615ab3565b5b9060005260206000200160009054906101000a900473ffffffffffffffffffffffffffffffffffffffff169050919050565b6123db816123d661221f565b6134a7565b50565b60005b815181101561246857600e60008481526020019081526020016000208282815181106124105761240f615ab3565b5b60200260200101519080600181540180825580915050600190039060005260206000200160009091909190915060008201518160000190816124529190615ff8565b505050808061246090615b82565b9150506123e1565b505050565b600c6000828152602001908152602001600020600061248c919061438c565b50565b60008061249b8361157b565b90508073ffffffffffffffffffffffffffffffffffffffff168473ffffffffffffffffffffffffffffffffffffffff1614806124dd57506124dc8185611ecd565b5b8061251b57508373ffffffffffffffffffffffffffffffffffffffff1661250384610834565b73ffffffffffffffffffffffffffffffffffffffff16145b91505092915050565b8273ffffffffffffffffffffffffffffffffffffffff166125448261157b565b73ffffffffffffffffffffffffffffffffffffffff161461259a576040517f08c379a00000000000000000000000000000000000000000000000000000000081526004016125919061613c565b60405180910390fd5b600073ffffffffffffffffffffffffffffffffffffffff168273ffffffffffffffffffffffffffffffffffffffff1603612609576040517f08c379a0000000000000000000000000000000000000000000000000000000008152600401612600906161ce565b60405180910390fd5b61261683838360016134f4565b8273ffffffffffffffffffffffffffffffffffffffff166126368261157b565b73ffffffffffffffffffffffffffffffffffffffff161461268c576040517f08c379a00000000000000000000000000000000000000000000000000000000081526004016126839061613c565b60405180910390fd5b6006600082815260200190815260200160002060006101000a81549073ffffffffffffffffffffffffffffffffffffffff02191690556001600560008573ffffffffffffffffffffffffffffffffffffffff1673ffffffffffffffffffffffffffffffffffffffff168152602001908152602001600020600082825403925050819055506001600560008473ffffffffffffffffffffffffffffffffffffffff1673ffffffffffffffffffffffffffffffffffffffff16815260200190815260200160002060008282540192505081905550816004600083815260200190815260200160002060006101000a81548173ffffffffffffffffffffffffffffffffffffffff021916908373ffffffffffffffffffffffffffffffffffffffff160217905550808273ffffffffffffffffffffffffffffffffffffffff168473ffffffffffffffffffffffffffffffffffffffff167fddf252ad1be2c89b69c2b068fc378daa952ba7f163c4a11628f55a4df523b3ef60405160405180910390a46128188383836001613652565b505050565b6000612710905090565b60016012540361286c576040517f08c379a00000000000000000000000000000000000000000000000000000000081526004016128639061623a565b60405180910390fd5b6001601281905550565b600081600001549050919050565b6000612897612891613658565b83613772565b9050919050565b60008060006128ad85856137a5565b915091506128ba816137f6565b819250505092915050565b60606128ea8383604051806060016040528060278152602001616ae96027913961395c565b905092915050565b6000601281905550600067ffffffffffffffff81111561291557612914614735565b5b6040519080825280602002602001820160405280156129435781602001602082028036833780820191505090505b5060139080519060200190612959929190614302565b506129a86011600061296961221f565b73ffffffffffffffffffffffffffffffffffffffff1673ffffffffffffffffffffffffffffffffffffffff1681526020019081526020016000206139e2565b565b60006004600083815260200190815260200160002060009054906101000a900473ffffffffffffffffffffffffffffffffffffffff169050919050565b60005b8151811015612a7f57600c6000848152602001908152602001600020828281518110612a1957612a18615ab3565b5b60200260200101519080600181540180825580915050600190039060005260206000209060020201600090919091909150600082015181600001556020820151816001019081612a699190615ff8565b5050508080612a7790615b82565b9150506129ea565b505050565b600073ffffffffffffffffffffffffffffffffffffffff168273ffffffffffffffffffffffffffffffffffffffff1603612af3576040517f08c379a0000000000000000000000000000000000000000000000000000000008152600401612aea906162a6565b60405180910390fd5b612afc81613466565b15612b3c576040517f08c379a0000000000000000000000000000000000000000000000000000000008152600401612b3390616312565b60405180910390fd5b612b4a6000838360016134f4565b612b5381613466565b15612b93576040517f08c379a0000000000000000000000000000000000000000000000000000000008152600401612b8a90616312565b60405180910390fd5b6001600560008473ffffffffffffffffffffffffffffffffffffffff1673ffffffffffffffffffffffffffffffffffffffff16815260200190815260200160002060008282540192505081905550816004600083815260200190815260200160002060006101000a81548173ffffffffffffffffffffffffffffffffffffffff021916908373ffffffffffffffffffffffffffffffffffffffff160217905550808273ffffffffffffffffffffffffffffffffffffffff16600073ffffffffffffffffffffffffffffffffffffffff167fddf252ad1be2c89b69c2b068fc378daa952ba7f163c4a11628f55a4df523b3ef60405160405180910390a4612c9d600083836001613652565b5050565b80600d60008481526020019081526020016000209081612cc19190615ff8565b505050565b612cce61281d565b6bffffffffffffffffffffffff16816bffffffffffffffffffffffff161115612d2c576040517f08c379a0000000000000000000000000000000000000000000000000000000008152600401612d23906163a4565b60405180910390fd5b600073ffffffffffffffffffffffffffffffffffffffff168273ffffffffffffffffffffffffffffffffffffffff1603612d9b576040517f08c379a0000000000000000000000000000000000000000000000000000000008152600401612d9290616410565b60405180910390fd5b60405180604001604052808373ffffffffffffffffffffffffffffffffffffffff168152602001826bffffffffffffffffffffffff168152506010600085815260200190815260200160002060008201518160000160006101000a81548173ffffffffffffffffffffffffffffffffffffffff021916908373ffffffffffffffffffffffffffffffffffffffff16021790555060208201518160000160146101000a8154816bffffffffffffffffffffffff02191690836bffffffffffffffffffffffff160217905550905050505050565b600e60008281526020019081526020016000206000612e8c91906143b0565b50565b8173ffffffffffffffffffffffffffffffffffffffff168373ffffffffffffffffffffffffffffffffffffffff1603612efd576040517f08c379a0000000000000000000000000000000000000000000000000000000008152600401612ef49061647c565b60405180910390fd5b80600760008573ffffffffffffffffffffffffffffffffffffffff1673ffffffffffffffffffffffffffffffffffffffff16815260200190815260200160002060008473ffffffffffffffffffffffffffffffffffffffff1673ffffffffffffffffffffffffffffffffffffffff16815260200190815260200160002060006101000a81548160ff0219169083151502179055508173ffffffffffffffffffffffffffffffffffffffff168373ffffffffffffffffffffffffffffffffffffffff167f17307eab39ab6107e8899845ad3d59bd9653f200f220920489ca2b5937696c3183604051612fee9190614538565b60405180910390a3505050565b81600160008373ffffffffffffffffffffffffffffffffffffffff1673ffffffffffffffffffffffffffffffffffffffff16815260200190815260200160002060008282829054906101000a900467ffffffffffffffff161792506101000a81548167ffffffffffffffff021916908367ffffffffffffffff16021790555061308261221f565b73ffffffffffffffffffffffffffffffffffffffff168173ffffffffffffffffffffffffffffffffffffffff168367ffffffffffffffff167f2e633503bdbb177665559a9efb7b963d30f2042d94c73311e9c54f799584abd560405160405180910390a45050565b81600160008373ffffffffffffffffffffffffffffffffffffffff1673ffffffffffffffffffffffffffffffffffffffff16815260200190815260200160002060008282829054906101000a900467ffffffffffffffff161892506101000a81548167ffffffffffffffff021916908367ffffffffffffffff16021790555061317161221f565b73ffffffffffffffffffffffffffffffffffffffff168173ffffffffffffffffffffffffffffffffffffffff168367ffffffffffffffff167f4ee4aaa38790a48e6b8f5ce86c7caaefda507fe314fbfc735fc80b9199cf78dd60405160405180910390a45050565b6131e4848484612524565b6131f0848484846139f8565b61322f576040517f08c379a00000000000000000000000000000000000000000000000000000000081526004016132269061650e565b60405180910390fd5b50505050565b606060405180602001604052806000815250905090565b60606000600161325b84613b7f565b01905060008167ffffffffffffffff81111561327a57613279614735565b5b6040519080825280601f01601f1916602001820160405280156132ac5781602001600182028036833780820191505090505b509050600082602001820190505b60011561330f578080600190039150507f3031323334353637383961626364656600000000000000000000000000000000600a86061a8153600a8581613303576133026158a0565b5b049450600085036132ba575b819350505050919050565b60007f01ffc9a7000000000000000000000000000000000000000000000000000000007bffffffffffffffffffffffffffffffffffffffffffffffffffffffff1916827bffffffffffffffffffffffffffffffffffffffffffffffffffffffff1916149050919050565b60007f80ac58cd000000000000000000000000000000000000000000000000000000007bffffffffffffffffffffffffffffffffffffffffffffffffffffffff1916827bffffffffffffffffffffffffffffffffffffffffffffffffffffffff1916148061344f57507f5b5e139f000000000000000000000000000000000000000000000000000000007bffffffffffffffffffffffffffffffffffffffffffffffffffffffff1916827bffffffffffffffffffffffffffffffffffffffffffffffffffffffff1916145b8061345f575061345e82611fec565b5b9050919050565b60008073ffffffffffffffffffffffffffffffffffffffff16613488836129aa565b73ffffffffffffffffffffffffffffffffffffffff1614159050919050565b6134b18282611e57565b6134f0576040517f08c379a00000000000000000000000000000000000000000000000000000000081526004016134e7906165a0565b60405180910390fd5b5050565b61350084848484613cd2565b6001811115613544576040517f08c379a000000000000000000000000000000000000000000000000000000000815260040161353b90616632565b60405180910390fd5b6000829050600073ffffffffffffffffffffffffffffffffffffffff168573ffffffffffffffffffffffffffffffffffffffff160361358b5761358681613df8565b6135ca565b8373ffffffffffffffffffffffffffffffffffffffff168573ffffffffffffffffffffffffffffffffffffffff16146135c9576135c88582613e41565b5b5b600073ffffffffffffffffffffffffffffffffffffffff168473ffffffffffffffffffffffffffffffffffffffff160361360c5761360781613fae565b61364b565b8473ffffffffffffffffffffffffffffffffffffffff168473ffffffffffffffffffffffffffffffffffffffff161461364a57613649848261407f565b5b5b5050505050565b50505050565b60007f000000000000000000000000000000000000000000000000000000000000000073ffffffffffffffffffffffffffffffffffffffff163073ffffffffffffffffffffffffffffffffffffffff161480156136d457507f000000000000000000000000000000000000000000000000000000000000000046145b15613701577f0000000000000000000000000000000000000000000000000000000000000000905061376f565b61376c7f00000000000000000000000000000000000000000000000000000000000000007f00000000000000000000000000000000000000000000000000000000000000007f00000000000000000000000000000000000000000000000000000000000000006140fe565b90505b90565b600082826040516020016137879291906166bf565b60405160208183030381529060405280519060200120905092915050565b60008060418351036137e65760008060006020860151925060408601519150606086015160001a90506137da87828585614138565b945094505050506137ef565b60006002915091505b9250929050565b6000600481111561380a576138096166f6565b5b81600481111561381d5761381c6166f6565b5b03156139595760016004811115613837576138366166f6565b5b81600481111561384a576138496166f6565b5b0361388a576040517f08c379a000000000000000000000000000000000000000000000000000000000815260040161388190616771565b60405180910390fd5b6002600481111561389e5761389d6166f6565b5b8160048111156138b1576138b06166f6565b5b036138f1576040517f08c379a00000000000000000000000000000000000000000000000000000000081526004016138e8906167dd565b60405180910390fd5b60036004811115613905576139046166f6565b5b816004811115613918576139176166f6565b5b03613958576040517f08c379a000000000000000000000000000000000000000000000000000000000815260040161394f9061686f565b60405180910390fd5b5b50565b60606000808573ffffffffffffffffffffffffffffffffffffffff168560405161398691906168c0565b600060405180830381855af49150503d80600081146139c1576040519150601f19603f3d011682016040523d82523d6000602084013e6139c6565b606091505b50915091506139d78683838761421a565b925050509392505050565b6001816000016000828254019250508190555050565b6000613a198473ffffffffffffffffffffffffffffffffffffffff1661428f565b15613b72578373ffffffffffffffffffffffffffffffffffffffff1663150b7a02613a4261221f565b8786866040518563ffffffff1660e01b8152600401613a6494939291906168d7565b6020604051808303816000875af1925050508015613aa057506040513d601f19601f82011682018060405250810190613a9d9190616938565b60015b613b22573d8060008114613ad0576040519150601f19603f3d011682016040523d82523d6000602084013e613ad5565b606091505b506000815103613b1a576040517f08c379a0000000000000000000000000000000000000000000000000000000008152600401613b119061650e565b60405180910390fd5b805181602001fd5b63150b7a0260e01b7bffffffffffffffffffffffffffffffffffffffffffffffffffffffff1916817bffffffffffffffffffffffffffffffffffffffffffffffffffffffff191614915050613b77565b600190505b949350505050565b600080600090507a184f03e93ff9f4daa797ed6e38ed64bf6a1f0100000000000000008310613bdd577a184f03e93ff9f4daa797ed6e38ed64bf6a1f0100000000000000008381613bd357613bd26158a0565b5b0492506040810190505b6d04ee2d6d415b85acef81000000008310613c1a576d04ee2d6d415b85acef81000000008381613c1057613c0f6158a0565b5b0492506020810190505b662386f26fc100008310613c4957662386f26fc100008381613c3f57613c3e6158a0565b5b0492506010810190505b6305f5e1008310613c72576305f5e1008381613c6857613c676158a0565b5b0492506008810190505b6127108310613c97576127108381613c8d57613c8c6158a0565b5b0492506004810190505b60648310613cba5760648381613cb057613caf6158a0565b5b0492506002810190505b600a8310613cc9576001810190505b80915050919050565b6001811115613df257600073ffffffffffffffffffffffffffffffffffffffff168473ffffffffffffffffffffffffffffffffffffffff1614613d665780600560008673ffffffffffffffffffffffffffffffffffffffff1673ffffffffffffffffffffffffffffffffffffffff1681526020019081526020016000206000828254613d5e9190615ae2565b925050819055505b600073ffffffffffffffffffffffffffffffffffffffff168373ffffffffffffffffffffffffffffffffffffffff1614613df15780600560008573ffffffffffffffffffffffffffffffffffffffff1673ffffffffffffffffffffffffffffffffffffffff1681526020019081526020016000206000828254613de99190616965565b925050819055505b5b50505050565b600a80549050600b600083815260200190815260200160002081905550600a81908060018154018082558091505060019003906000526020600020016000909190919091505550565b60006001613e4e84611601565b613e589190615ae2565b9050600060096000848152602001908152602001600020549050818114613f3d576000600860008673ffffffffffffffffffffffffffffffffffffffff1673ffffffffffffffffffffffffffffffffffffffff168152602001908152602001600020600084815260200190815260200160002054905080600860008773ffffffffffffffffffffffffffffffffffffffff1673ffffffffffffffffffffffffffffffffffffffff168152602001908152602001600020600084815260200190815260200160002081905550816009600083815260200190815260200160002081905550505b6009600084815260200190815260200160002060009055600860008573ffffffffffffffffffffffffffffffffffffffff1673ffffffffffffffffffffffffffffffffffffffff16815260200190815260200160002060008381526020019081526020016000206000905550505050565b60006001600a80549050613fc29190615ae2565b90506000600b60008481526020019081526020016000205490506000600a8381548110613ff257613ff1615ab3565b5b9060005260206000200154905080600a838154811061401457614013615ab3565b5b906000526020600020018190555081600b600083815260200190815260200160002081905550600b600085815260200190815260200160002060009055600a80548061406357614062616999565b5b6001900381819060005260206000200160009055905550505050565b600061408a83611601565b905081600860008573ffffffffffffffffffffffffffffffffffffffff1673ffffffffffffffffffffffffffffffffffffffff168152602001908152602001600020600083815260200190815260200160002081905550806009600084815260200190815260200160002081905550505050565b600083838346306040516020016141199594939291906169c8565b6040516020818303038152906040528051906020012090509392505050565b6000807f7fffffffffffffffffffffffffffffff5d576e7357a4501ddfe92f46681b20a08360001c1115614173576000600391509150614211565b6000600187878787604051600081526020016040526040516141989493929190616a37565b6020604051602081039080840390855afa1580156141ba573d6000803e3d6000fd5b505050602060405103519050600073ffffffffffffffffffffffffffffffffffffffff168173ffffffffffffffffffffffffffffffffffffffff160361420857600060019250925050614211565b80600092509250505b94509492505050565b6060831561427c576000835103614274576142348561428f565b614273576040517f08c379a000000000000000000000000000000000000000000000000000000000815260040161426a90616ac8565b60405180910390fd5b5b829050614287565b61428683836142b2565b5b949350505050565b6000808273ffffffffffffffffffffffffffffffffffffffff163b119050919050565b6000825111156142c55781518083602001fd5b806040517f08c379a00000000000000000000000000000000000000000000000000000000081526004016142f991906145e3565b60405180910390fd5b82805482825590600052602060002090810192821561437b579160200282015b8281111561437a5782518260006101000a81548173ffffffffffffffffffffffffffffffffffffffff021916908373ffffffffffffffffffffffffffffffffffffffff16021790555091602001919060010190614322565b5b50905061438891906143d1565b5090565b50805460008255600202906000526020600020908101906143ad91906143ee565b50565b50805460008255906000526020600020908101906143ce919061441d565b50565b5b808211156143ea5760008160009055506001016143d2565b5090565b5b80821115614419576000808201600090556001820160006144109190614444565b506002016143ef565b5090565b5b8082111561444057600080820160006144379190614444565b5060010161441e565b5090565b508054614450906154c2565b6000825580601f106144625750614481565b601f01602090049060005260206000209081019061448091906143d1565b5b50565b6000604051905090565b600080fd5b600080fd5b60007fffffffff0000000000000000000000000000000000000000000000000000000082169050919050565b6144cd81614498565b81146144d857600080fd5b50565b6000813590506144ea816144c4565b92915050565b6000602082840312156145065761450561448e565b5b6000614514848285016144db565b91505092915050565b60008115159050919050565b6145328161451d565b82525050565b600060208201905061454d6000830184614529565b92915050565b600081519050919050565b600082825260208201905092915050565b60005b8381101561458d578082015181840152602081019050614572565b60008484015250505050565b6000601f19601f8301169050919050565b60006145b582614553565b6145bf818561455e565b93506145cf81856020860161456f565b6145d881614599565b840191505092915050565b600060208201905081810360008301526145fd81846145aa565b905092915050565b6000819050919050565b61461881614605565b811461462357600080fd5b50565b6000813590506146358161460f565b92915050565b6000602082840312156146515761465061448e565b5b600061465f84828501614626565b91505092915050565b600073ffffffffffffffffffffffffffffffffffffffff82169050919050565b600061469382614668565b9050919050565b6146a381614688565b82525050565b60006020820190506146be600083018461469a565b92915050565b6146cd81614688565b81146146d857600080fd5b50565b6000813590506146ea816146c4565b92915050565b600080604083850312156147075761470661448e565b5b6000614715858286016146db565b925050602061472685828601614626565b9150509250929050565b600080fd5b7f4e487b7100000000000000000000000000000000000000000000000000000000600052604160045260246000fd5b61476d82614599565b810181811067ffffffffffffffff8211171561478c5761478b614735565b5b80604052505050565b600061479f614484565b90506147ab8282614764565b919050565b600067ffffffffffffffff8211156147cb576147ca614735565b5b602082029050602081019050919050565b600080fd5b600080fd5b600080fd5b600080fd5b600067ffffffffffffffff82111561480b5761480a614735565b5b61481482614599565b9050602081019050919050565b82818337600083830152505050565b600061484361483e846147f0565b614795565b90508281526020810184848401111561485f5761485e6147eb565b5b61486a848285614821565b509392505050565b600082601f83011261488757614886614730565b5b8135614897848260208601614830565b91505092915050565b6000602082840312156148b6576148b56147e1565b5b6148c06020614795565b9050600082013567ffffffffffffffff8111156148e0576148df6147e6565b5b6148ec84828501614872565b60008301525092915050565b600061490b614906846147b0565b614795565b9050808382526020820190506020840283018581111561492e5761492d6147dc565b5b835b8181101561497557803567ffffffffffffffff81111561495357614952614730565b5b80860161496089826148a0565b85526020850194505050602081019050614930565b5050509392505050565b600082601f83011261499457614993614730565b5b81356149a48482602086016148f8565b91505092915050565b600080604083850312156149c4576149c361448e565b5b60006149d285828601614626565b925050602083013567ffffffffffffffff8111156149f3576149f2614493565b5b6149ff8582860161497f565b9150509250929050565b614a1281614605565b82525050565b6000602082019050614a2d6000830184614a09565b92915050565b600080600060608486031215614a4c57614a4b61448e565b5b6000614a5a868287016146db565b9350506020614a6b868287016146db565b9250506040614a7c86828701614626565b9150509250925092565b60008060408385031215614a9d57614a9c61448e565b5b6000614aab85828601614626565b9250506020614abc85828601614626565b9150509250929050565b6000604082019050614adb600083018561469a565b614ae86020830184614a09565b9392505050565b600080fd5b60008083601f840112614b0a57614b09614730565b5b8235905067ffffffffffffffff811115614b2757614b26614aef565b5b602083019150836001820283011115614b4357614b426147dc565b5b9250929050565b600067ffffffffffffffff821115614b6557614b64614735565b5b602082029050602081019050919050565b600067ffffffffffffffff821115614b9157614b90614735565b5b614b9a82614599565b9050602081019050919050565b6000614bba614bb584614b76565b614795565b905082815260208101848484011115614bd657614bd56147eb565b5b614be1848285614821565b509392505050565b600082601f830112614bfe57614bfd614730565b5b8135614c0e848260208601614ba7565b91505092915050565b6000614c2a614c2584614b4a565b614795565b90508083825260208201905060208402830185811115614c4d57614c4c6147dc565b5b835b81811015614c9457803567ffffffffffffffff811115614c7257614c71614730565b5b808601614c7f8982614be9565b85526020850194505050602081019050614c4f565b5050509392505050565b600082601f830112614cb357614cb2614730565b5b8135614cc3848260208601614c17565b91505092915050565b60008060008060608587031215614ce657614ce561448e565b5b600085013567ffffffffffffffff811115614d0457614d03614493565b5b614d1087828801614af4565b94509450506020614d2387828801614626565b925050604085013567ffffffffffffffff811115614d4457614d43614493565b5b614d5087828801614c9e565b91505092959194509250565b600081519050919050565b600082825260208201905092915050565b6000614d8382614d5c565b614d8d8185614d67565b9350614d9d81856020860161456f565b614da681614599565b840191505092915050565b60006020820190508181036000830152614dcb8184614d78565b905092915050565b600067ffffffffffffffff82169050919050565b614df081614dd3565b8114614dfb57600080fd5b50565b600081359050614e0d81614de7565b92915050565b600060208284031215614e2957614e2861448e565b5b6000614e3784828501614dfe565b91505092915050565b614e4981614dd3565b82525050565b6000602082019050614e646000830184614e40565b92915050565b600081519050919050565b600082825260208201905092915050565b6000819050602082019050919050565b600082825260208201905092915050565b6000614eb282614553565b614ebc8185614e96565b9350614ecc81856020860161456f565b614ed581614599565b840191505092915050565b60006020830160008301518482036000860152614efd8282614ea7565b9150508091505092915050565b6000614f168383614ee0565b905092915050565b6000602082019050919050565b6000614f3682614e6a565b614f408185614e75565b935083602082028501614f5285614e86565b8060005b85811015614f8e5784840389528151614f6f8582614f0a565b9450614f7a83614f1e565b925060208a01995050600181019050614f56565b50829750879550505050505092915050565b60006020820190508181036000830152614fba8184614f2b565b905092915050565b600060208284031215614fd857614fd761448e565b5b6000614fe6848285016146db565b91505092915050565b600067ffffffffffffffff82111561500a57615009614735565b5b602082029050602081019050919050565b600060408284031215615031576150306147e1565b5b61503b6040614795565b9050600061504b84828501614626565b600083015250602082013567ffffffffffffffff81111561506f5761506e6147e6565b5b61507b84828501614872565b60208301525092915050565b600061509a61509584614fef565b614795565b905080838252602082019050602084028301858111156150bd576150bc6147dc565b5b835b8181101561510457803567ffffffffffffffff8111156150e2576150e1614730565b5b8086016150ef898261501b565b855260208501945050506020810190506150bf565b5050509392505050565b600082601f83011261512357615122614730565b5b8135615133848260208601615087565b91505092915050565b600080604083850312156151535761515261448e565b5b600061516185828601614626565b925050602083013567ffffffffffffffff81111561518257615181614493565b5b61518e8582860161510e565b9150509250929050565b600080604083850312156151af576151ae61448e565b5b60006151bd85828601614626565b925050602083013567ffffffffffffffff8111156151de576151dd614493565b5b6151ea85828601614872565b9150509250929050565b6151fd8161451d565b811461520857600080fd5b50565b60008135905061521a816151f4565b92915050565b600080604083850312156152375761523661448e565b5b6000615245858286016146db565b92505060206152568582860161520b565b9150509250929050565b600080604083850312156152775761527661448e565b5b600061528585828601614dfe565b9250506020615296858286016146db565b9150509250929050565b600080600080608085870312156152ba576152b961448e565b5b60006152c8878288016146db565b94505060206152d9878288016146db565b93505060406152ea87828801614626565b925050606085013567ffffffffffffffff81111561530b5761530a614493565b5b61531787828801614be9565b91505092959194509250565b600081519050919050565b600082825260208201905092915050565b6000819050602082019050919050565b61535881614605565b82525050565b6000604083016000830151615376600086018261534f565b506020830151848203602086015261538e8282614ea7565b9150508091505092915050565b60006153a7838361535e565b905092915050565b6000602082019050919050565b60006153c782615323565b6153d1818561532e565b9350836020820285016153e38561533f565b8060005b8581101561541f5784840389528151615400858261539b565b945061540b836153af565b925060208a019950506001810190506153e7565b50829750879550505050505092915050565b6000602082019050818103600083015261544b81846153bc565b905092915050565b6000806040838503121561546a5761546961448e565b5b6000615478858286016146db565b9250506020615489858286016146db565b9150509250929050565b7f4e487b7100000000000000000000000000000000000000000000000000000000600052602260045260246000fd5b600060028204905060018216806154da57607f821691505b6020821081036154ed576154ec615493565b5b50919050565b7f4552433732313a20617070726f76616c20746f2063757272656e74206f776e6560008201527f7200000000000000000000000000000000000000000000000000000000000000602082015250565b600061554f60218361455e565b915061555a826154f3565b604082019050919050565b6000602082019050818103600083015261557e81615542565b9050919050565b7f4552433732313a20617070726f76652063616c6c6572206973206e6f7420746f60008201527f6b656e206f776e6572206f7220617070726f76656420666f7220616c6c000000602082015250565b60006155e1603d8361455e565b91506155ec82615585565b604082019050919050565b60006020820190508181036000830152615610816155d4565b9050919050565b7f4d756c74697369673a2072657175697265640000000000000000000000000000600082015250565b600061564d60128361455e565b915061565882615617565b602082019050919050565b6000602082019050818103600083015261567c81615640565b9050919050565b7f4d756c74697369673a206e6f7420656e6f756768207369676e65727300000000600082015250565b60006156b9601c8361455e565b91506156c482615683565b602082019050919050565b600060208201905081810360008301526156e8816156ac565b9050919050565b6000815190506156fe816146c4565b92915050565b60006020828403121561571a5761571961448e565b5b6000615728848285016156ef565b91505092915050565b7f4f726279633a207369676e6572206e6f74206f776e6572000000000000000000600082015250565b600061576760178361455e565b915061577282615731565b602082019050919050565b600060208201905081810360008301526157968161575a565b9050919050565b7f4552433732313a2063616c6c6572206973206e6f7420746f6b656e206f776e6560008201527f72206f7220617070726f76656400000000000000000000000000000000000000602082015250565b60006157f9602d8361455e565b91506158048261579d565b604082019050919050565b60006020820190508181036000830152615828816157ec565b9050919050565b7f4e487b7100000000000000000000000000000000000000000000000000000000600052601160045260246000fd5b600061586982614605565b915061587483614605565b925082820261588281614605565b915082820484148315176158995761589861582f565b5b5092915050565b7f4e487b7100000000000000000000000000000000000000000000000000000000600052601260045260246000fd5b60006158da82614605565b91506158e583614605565b9250826158f5576158f46158a0565b5b828204905092915050565b7f455243373231456e756d657261626c653a206f776e657220696e646578206f7560008201527f74206f6620626f756e6473000000000000000000000000000000000000000000602082015250565b600061595c602b8361455e565b915061596782615900565b604082019050919050565b6000602082019050818103600083015261598b8161594f565b9050919050565b7f4d756c74697369673a20657865637574696f6e20657870697265640000000000600082015250565b60006159c8601b8361455e565b91506159d382615992565b602082019050919050565b600060208201905081810360008301526159f7816159bb565b9050919050565b600081905092915050565b6000615a1583856159fe565b9350615a22838584614821565b82840190509392505050565b6000615a3b828486615a09565b91508190509392505050565b6000819050919050565b615a5a81615a47565b82525050565b600060a082019050615a756000830188615a51565b615a826020830187615a51565b615a8f604083018661469a565b615a9c6060830185614a09565b615aa96080830184614a09565b9695505050505050565b7f4e487b7100000000000000000000000000000000000000000000000000000000600052603260045260246000fd5b6000615aed82614605565b9150615af883614605565b9250828203905081811115615b1057615b0f61582f565b5b92915050565b7f4d756c74697369673a20756e736f72746564207369676e657273000000000000600082015250565b6000615b4c601a8361455e565b9150615b5782615b16565b602082019050919050565b60006020820190508181036000830152615b7b81615b3f565b9050919050565b6000615b8d82614605565b91507fffffffffffffffffffffffffffffffffffffffffffffffffffffffffffffffff8203615bbf57615bbe61582f565b5b600182019050919050565b7f455243373231456e756d657261626c653a20676c6f62616c20696e646578206f60008201527f7574206f6620626f756e64730000000000000000000000000000000000000000602082015250565b6000615c26602c8361455e565b9150615c3182615bca565b604082019050919050565b60006020820190508181036000830152615c5581615c19565b9050919050565b7f4552433732313a20696e76616c696420746f6b656e2049440000000000000000600082015250565b6000615c9260188361455e565b9150615c9d82615c5c565b602082019050919050565b60006020820190508181036000830152615cc181615c85565b9050919050565b7f4552433732313a2061646472657373207a65726f206973206e6f74206120766160008201527f6c6964206f776e65720000000000000000000000000000000000000000000000602082015250565b6000615d2460298361455e565b9150615d2f82615cc8565b604082019050919050565b60006020820190508181036000830152615d5381615d17565b9050919050565b600081905092915050565b6000615d7082614553565b615d7a8185615d5a565b9350615d8a81856020860161456f565b80840191505092915050565b6000615da28285615d65565b9150615dae8284615d65565b91508190509392505050565b7f416363657373436f6e74726f6c3a2063616e206f6e6c792072656e6f756e636560008201527f20726f6c657320666f722073656c660000000000000000000000000000000000602082015250565b6000615e16602f8361455e565b9150615e2182615dba565b604082019050919050565b60006020820190508181036000830152615e4581615e09565b9050919050565b60008190508160005260206000209050919050565b60006020601f8301049050919050565b600082821b905092915050565b600060088302615eae7fffffffffffffffffffffffffffffffffffffffffffffffffffffffffffffffff82615e71565b615eb88683615e71565b95508019841693508086168417925050509392505050565b6000819050919050565b6000615ef5615ef0615eeb84614605565b615ed0565b614605565b9050919050565b6000819050919050565b615f0f83615eda565b615f23615f1b82615efc565b848454615e7e565b825550505050565b600090565b615f38615f2b565b615f43818484615f06565b505050565b5b81811015615f6757615f5c600082615f30565b600181019050615f49565b5050565b601f821115615fac57615f7d81615e4c565b615f8684615e61565b81016020851015615f95578190505b615fa9615fa185615e61565b830182615f48565b50505b505050565b600082821c905092915050565b6000615fcf60001984600802615fb1565b1980831691505092915050565b6000615fe88383615fbe565b9150826002028217905092915050565b61600182614553565b67ffffffffffffffff81111561601a57616019614735565b5b61602482546154c2565b61602f828285615f6b565b600060209050601f8311600181146160625760008415616050578287015190505b61605a8582615fdc565b8655506160c2565b601f19841661607086615e4c565b60005b8281101561609857848901518255600182019150602085019450602081019050616073565b868310156160b557848901516160b1601f891682615fbe565b8355505b6001600288020188555050505b505050505050565b7f4552433732313a207472616e736665722066726f6d20696e636f72726563742060008201527f6f776e6572000000000000000000000000000000000000000000000000000000602082015250565b600061612660258361455e565b9150616131826160ca565b604082019050919050565b6000602082019050818103600083015261615581616119565b9050919050565b7f4552433732313a207472616e7366657220746f20746865207a65726f2061646460008201527f7265737300000000000000000000000000000000000000000000000000000000602082015250565b60006161b860248361455e565b91506161c38261615c565b604082019050919050565b600060208201905081810360008301526161e7816161ab565b9050919050565b7f4d756c74697369673a207265656e7472616e742063616c6c0000000000000000600082015250565b600061622460188361455e565b915061622f826161ee565b602082019050919050565b6000602082019050818103600083015261625381616217565b9050919050565b7f4552433732313a206d696e7420746f20746865207a65726f2061646472657373600082015250565b600061629060208361455e565b915061629b8261625a565b602082019050919050565b600060208201905081810360008301526162bf81616283565b9050919050565b7f4552433732313a20746f6b656e20616c7265616479206d696e74656400000000600082015250565b60006162fc601c8361455e565b9150616307826162c6565b602082019050919050565b6000602082019050818103600083015261632b816162ef565b9050919050565b7f455243323938313a20726f79616c7479206665652077696c6c2065786365656460008201527f2073616c65507269636500000000000000000000000000000000000000000000602082015250565b600061638e602a8361455e565b915061639982616332565b604082019050919050565b600060208201905081810360008301526163bd81616381565b9050919050565b7f455243323938313a20496e76616c696420706172616d65746572730000000000600082015250565b60006163fa601b8361455e565b9150616405826163c4565b602082019050919050565b60006020820190508181036000830152616429816163ed565b9050919050565b7f4552433732313a20617070726f766520746f2063616c6c657200000000000000600082015250565b600061646660198361455e565b915061647182616430565b602082019050919050565b6000602082019050818103600083015261649581616459565b9050919050565b7f4552433732313a207472616e7366657220746f206e6f6e20455243373231526560008201527f63656976657220696d706c656d656e7465720000000000000000000000000000602082015250565b60006164f860328361455e565b91506165038261649c565b604082019050919050565b60006020820190508181036000830152616527816164eb565b9050919050565b7f416363657373436f6e74726f6c3a206163636f756e74206973206d697373696e60008201527f6720726f6c650000000000000000000000000000000000000000000000000000602082015250565b600061658a60268361455e565b91506165958261652e565b604082019050919050565b600060208201905081810360008301526165b98161657d565b9050919050565b7f455243373231456e756d657261626c653a20636f6e736563757469766520747260008201527f616e7366657273206e6f7420737570706f727465640000000000000000000000602082015250565b600061661c60358361455e565b9150616627826165c0565b604082019050919050565b6000602082019050818103600083015261664b8161660f565b9050919050565b7f1901000000000000000000000000000000000000000000000000000000000000600082015250565b6000616688600283615d5a565b915061669382616652565b600282019050919050565b6000819050919050565b6166b96166b482615a47565b61669e565b82525050565b60006166ca8261667b565b91506166d682856166a8565b6020820191506166e682846166a8565b6020820191508190509392505050565b7f4e487b7100000000000000000000000000000000000000000000000000000000600052602160045260246000fd5b7f45434453413a20696e76616c6964207369676e61747572650000000000000000600082015250565b600061675b60188361455e565b915061676682616725565b602082019050919050565b6000602082019050818103600083015261678a8161674e565b9050919050565b7f45434453413a20696e76616c6964207369676e6174757265206c656e67746800600082015250565b60006167c7601f8361455e565b91506167d282616791565b602082019050919050565b600060208201905081810360008301526167f6816167ba565b9050919050565b7f45434453413a20696e76616c6964207369676e6174757265202773272076616c60008201527f7565000000000000000000000000000000000000000000000000000000000000602082015250565b600061685960228361455e565b9150616864826167fd565b604082019050919050565b600060208201905081810360008301526168888161684c565b9050919050565b600061689a82614d5c565b6168a481856159fe565b93506168b481856020860161456f565b80840191505092915050565b60006168cc828461688f565b915081905092915050565b60006080820190506168ec600083018761469a565b6168f9602083018661469a565b6169066040830185614a09565b81810360608301526169188184614d78565b905095945050505050565b600081519050616932816144c4565b92915050565b60006020828403121561694e5761694d61448e565b5b600061695c84828501616923565b91505092915050565b600061697082614605565b915061697b83614605565b92508282019050808211156169935761699261582f565b5b92915050565b7f4e487b7100000000000000000000000000000000000000000000000000000000600052603160045260246000fd5b600060a0820190506169dd6000830188615a51565b6169ea6020830187615a51565b6169f76040830186615a51565b616a046060830185614a09565b616a11608083018461469a565b9695505050505050565b600060ff82169050919050565b616a3181616a1b565b82525050565b6000608082019050616a4c6000830187615a51565b616a596020830186616a28565b616a666040830185615a51565b616a736060830184615a51565b95945050505050565b7f416464726573733a2063616c6c20746f206e6f6e2d636f6e7472616374000000600082015250565b6000616ab2601d8361455e565b9150616abd82616a7c565b602082019050919050565b60006020820190508181036000830152616ae181616aa5565b905091905056fe416464726573733a206c6f772d6c6576656c2064656c65676174652063616c6c206661696c6564a26469706673582212206c05b088a10e901f777e3a9707b8f8629ce0be8cd67fe9b201aa360342a0b57364736f6c63430008110033",
  "linkReferences": {},
  "deployedLinkReferences": {}
}