{
  "_format": "hh-sol-artifact-1",
  "contractName": "Array",
  "sourceName": "contracts/utils/Collections.sol",
  "abi": [
    {
      "inputs": [
        {
          "internalType": "uint256[]",
          "name": "collection",
          "type": "uint256[]"
        },
        {
          "internalType": "uint256",
          "name": "element",
          "type": "uint256"
        }
      ],
      "name": "contains",
      "outputs": [
        {
          "internalType": "bool",
          "name": "",
          "type": "bool"
        }
      ],
      "stateMutability": "pure",
      "type": "function"
    },
    {
      "inputs": [
        {
          "internalType": "uint64[]",
          "name": "collection",
          "type": "uint64[]"
        },
        {
          "internalType": "uint64",
          "name": "element",
          "type": "uint64"
        }
      ],
      "name": "contains",
      "outputs": [
        {
          "internalType": "bool",
          "name": "",
          "type": "bool"
        }
      ],
      "stateMutability": "pure",
      "type": "function"
    }
  ],
  "bytecode": "0x6105d9610053600b82828239805160001a607314610046577f4e487b7100000000000000000000000000000000000000000000000000000000600052600060045260246000fd5b30600052607381538281f3fe73000000000000000000000000000000000000000030146080604052600436106100405760003560e01c8063b32b8e2c14610045578063ea7a1c5c14610075575b600080fd5b61005f600480360381019061005a9190610313565b6100a5565b60405161006c91906103ca565b60405180910390f35b61008f600480360381019061008a9190610367565b610127565b60405161009c91906103ca565b60405180910390f35b600080600090505b835181101561011b57828482815181106100f0577f4e487b7100000000000000000000000000000000000000000000000000000000600052603260045260246000fd5b60200260200101511415610108576001915050610121565b8080610113906104bd565b9150506100ad565b50600090505b92915050565b600080600090505b83518110156101b1578267ffffffffffffffff1684828151811061017c577f4e487b7100000000000000000000000000000000000000000000000000000000600052603260045260246000fd5b602002602001015167ffffffffffffffff16141561019e5760019150506101b7565b80806101a9906104bd565b91505061012f565b50600090505b92915050565b60006101d06101cb8461040a565b6103e5565b905080838252602082019050828560208602820111156101ef57600080fd5b60005b8581101561021f578161020588826102e9565b8452602084019350602083019250506001810190506101f2565b5050509392505050565b600061023c61023784610436565b6103e5565b9050808382526020820190508285602086028201111561025b57600080fd5b60005b8581101561028b578161027188826102fe565b84526020840193506020830192505060018101905061025e565b5050509392505050565b600082601f8301126102a657600080fd5b81356102b68482602086016101bd565b91505092915050565b600082601f8301126102d057600080fd5b81356102e0848260208601610229565b91505092915050565b6000813590506102f881610575565b92915050565b60008135905061030d8161058c565b92915050565b6000806040838503121561032657600080fd5b600083013567ffffffffffffffff81111561034057600080fd5b61034c85828601610295565b925050602061035d858286016102e9565b9150509250929050565b6000806040838503121561037a57600080fd5b600083013567ffffffffffffffff81111561039457600080fd5b6103a0858286016102bf565b92505060206103b1858286016102fe565b9150509250929050565b6103c481610462565b82525050565b60006020820190506103df60008301846103bb565b92915050565b60006103ef610400565b90506103fb828261048c565b919050565b6000604051905090565b600067ffffffffffffffff82111561042557610424610535565b5b602082029050602081019050919050565b600067ffffffffffffffff82111561045157610450610535565b5b602082029050602081019050919050565b60008115159050919050565b6000819050919050565b600067ffffffffffffffff82169050919050565b61049582610564565b810181811067ffffffffffffffff821117156104b4576104b3610535565b5b80604052505050565b60006104c88261046e565b91507fffffffffffffffffffffffffffffffffffffffffffffffffffffffffffffffff8214156104fb576104fa610506565b5b600182019050919050565b7f4e487b7100000000000000000000000000000000000000000000000000000000600052601160045260246000fd5b7f4e487b7100000000000000000000000000000000000000000000000000000000600052604160045260246000fd5b6000601f19601f8301169050919050565b61057e8161046e565b811461058957600080fd5b50565b61059581610478565b81146105a057600080fd5b5056fea26469706673582212201b525ae9b440b9b6148a12995f62ed04a89f22223fc9c3327d3d6a08fe63bf0e64736f6c63430008040033",
  "linkReferences": {},
  "deployedLinkReferences": {}
}