{
  "_format": "hh-sol-artifact-1",
  "contractName": "Array",
  "sourceName": "contracts/utils/Collections.sol",
  "abi": [
    {
      "inputs": [
        {
          "internalType": "address[]",
          "name": "collection",
          "type": "address[]"
        },
        {
          "internalType": "address",
          "name": "element",
          "type": "address"
        }
      ],
      "name": "contains",
      "outputs": [
        {
          "internalType": "bool",
          "name": "",
          "type": "bool"
        }
      ],
      "stateMutability": "pure",
      "type": "function"
    },
    {
      "inputs": [
        {
          "internalType": "uint256[]",
          "name": "collection",
          "type": "uint256[]"
        },
        {
          "internalType": "uint256",
          "name": "element",
          "type": "uint256"
        }
      ],
      "name": "contains",
      "outputs": [
        {
          "internalType": "bool",
          "name": "",
          "type": "bool"
        }
      ],
      "stateMutability": "pure",
      "type": "function"
    }
  ],
  "bytecode": "0x61037b610053600b82828239805160001a607314610046577f4e487b7100000000000000000000000000000000000000000000000000000000600052600060045260246000fd5b30600052607381538281f3fe73000000000000000000000000000000000000000030146080604052600436106100405760003560e01c80633da80d6614610045578063b32b8e2c1461006c575b600080fd5b610058610053366004610169565b61007f565b604051901515815260200160405180910390f35b61005861007a36600461021a565b6100f5565b6000805b83518110156100e957826001600160a01b03168482815181106100b657634e487b7160e01b600052603260045260246000fd5b60200260200101516001600160a01b031614156100d75760019150506100ef565b806100e181610308565b915050610083565b50600090505b92915050565b6000805b83518110156100e9578284828151811061012357634e487b7160e01b600052603260045260246000fd5b6020026020010151141561013b5760019150506100ef565b8061014581610308565b9150506100f9565b80356001600160a01b038116811461016457600080fd5b919050565b6000806040838503121561017b578182fd5b823567ffffffffffffffff811115610191578283fd5b8301601f810185136101a1578283fd5b803560206101b66101b1836102e4565b6102b3565b80838252828201915082850189848660051b88010111156101d5578788fd5b8795505b848610156101fe576101ea8161014d565b8352600195909501949183019183016101d9565b50955061020e905086820161014d565b93505050509250929050565b6000806040838503121561022c578182fd5b823567ffffffffffffffff811115610242578283fd5b8301601f81018513610252578283fd5b803560206102626101b1836102e4565b80838252828201915082850189848660051b8801011115610281578788fd5b8795505b848610156102a3578035835260019590950194918301918301610285565b5098969091013596505050505050565b604051601f8201601f1916810167ffffffffffffffff811182821017156102dc576102dc61032f565b604052919050565b600067ffffffffffffffff8211156102fe576102fe61032f565b5060051b60200190565b600060001982141561032857634e487b7160e01b81526011600452602481fd5b5060010190565b634e487b7160e01b600052604160045260246000fdfea2646970667358221220594ffb44520eeb2c5ca110342c93ddf17a0513657daa9248e34c2fc31617e87a64736f6c63430008040033",
  "linkReferences": {},
  "deployedLinkReferences": {}
}