{
  "_format": "hh-sol-artifact-1",
  "contractName": "ERC245",
  "sourceName": "contracts/tokens/ERC245/ERC245.sol",
  "abi": [
    {
      "inputs": [
        {
          "internalType": "string",
          "name": "name_",
          "type": "string"
        }
      ],
      "stateMutability": "nonpayable",
      "type": "constructor"
    },
    {
      "anonymous": false,
      "inputs": [
        {
          "indexed": false,
          "internalType": "uint256",
          "name": "certId",
          "type": "uint256"
        },
        {
          "indexed": false,
          "internalType": "uint256",
          "name": "assetId",
          "type": "uint256"
        },
        {
          "indexed": false,
          "internalType": "address",
          "name": "signer",
          "type": "address"
        }
      ],
      "name": "AssetCertificateAssigned",
      "type": "event"
    },
    {
      "anonymous": false,
      "inputs": [
        {
          "indexed": false,
          "internalType": "uint256",
          "name": "assetId",
          "type": "uint256"
        },
        {
          "indexed": true,
          "internalType": "address",
          "name": "signer",
          "type": "address"
        }
      ],
      "name": "AssetIssued",
      "type": "event"
    },
    {
      "anonymous": false,
      "inputs": [
        {
          "indexed": false,
          "internalType": "uint256",
          "name": "certId",
          "type": "uint256"
        },
        {
          "indexed": true,
          "internalType": "address",
          "name": "signer",
          "type": "address"
        }
      ],
      "name": "CertIssued",
      "type": "event"
    },
    {
      "anonymous": false,
      "inputs": [
        {
          "indexed": false,
          "internalType": "uint256",
          "name": "moveId",
          "type": "uint256"
        },
        {
          "indexed": false,
          "internalType": "uint256",
          "name": "assetId",
          "type": "uint256"
        },
        {
          "indexed": false,
          "internalType": "address",
          "name": "signer",
          "type": "address"
        }
      ],
      "name": "MovementAssigned",
      "type": "event"
    },
    {
      "anonymous": false,
      "inputs": [
        {
          "indexed": false,
          "internalType": "uint256",
          "name": "certId",
          "type": "uint256"
        },
        {
          "indexed": false,
          "internalType": "uint256",
          "name": "moveId",
          "type": "uint256"
        },
        {
          "indexed": false,
          "internalType": "address",
          "name": "signer",
          "type": "address"
        }
      ],
      "name": "MovementCertificateAssigned",
      "type": "event"
    },
    {
      "anonymous": false,
      "inputs": [
        {
          "indexed": false,
          "internalType": "uint256",
          "name": "moveId",
          "type": "uint256"
        },
        {
          "indexed": true,
          "internalType": "address",
          "name": "signer",
          "type": "address"
        }
      ],
      "name": "MovementIssued",
      "type": "event"
    },
    {
      "anonymous": false,
      "inputs": [
        {
          "indexed": false,
          "internalType": "uint256",
          "name": "parentId",
          "type": "uint256"
        },
        {
          "indexed": false,
          "internalType": "uint256",
          "name": "assetId",
          "type": "uint256"
        },
        {
          "indexed": false,
          "internalType": "address",
          "name": "signer",
          "type": "address"
        }
      ],
      "name": "ParentAssigned",
      "type": "event"
    },
    {
      "anonymous": false,
      "inputs": [
        {
          "indexed": true,
          "internalType": "address",
          "name": "from",
          "type": "address"
        },
        {
          "indexed": true,
          "internalType": "address",
          "name": "to",
          "type": "address"
        },
        {
          "indexed": true,
          "internalType": "uint256",
          "name": "assetId",
          "type": "uint256"
        }
      ],
      "name": "TransferAsset",
      "type": "event"
    },
    {
      "inputs": [
        {
          "internalType": "uint256",
          "name": "assetId",
          "type": "uint256"
        },
        {
          "internalType": "uint256[]",
          "name": "certificates",
          "type": "uint256[]"
        }
      ],
      "name": "addAssetCertificates",
      "outputs": [
        {
          "internalType": "bool",
          "name": "",
          "type": "bool"
        }
      ],
      "stateMutability": "nonpayable",
      "type": "function"
    },
    {
      "inputs": [
        {
          "internalType": "uint256",
          "name": "moveId",
          "type": "uint256"
        },
        {
          "internalType": "uint256[]",
          "name": "certificates",
          "type": "uint256[]"
        }
      ],
      "name": "addMovementCertificates",
      "outputs": [
        {
          "internalType": "bool",
          "name": "",
          "type": "bool"
        }
      ],
      "stateMutability": "nonpayable",
      "type": "function"
    },
    {
      "inputs": [
        {
          "internalType": "uint256",
          "name": "assetId",
          "type": "uint256"
        },
        {
          "internalType": "uint256[]",
          "name": "movements",
          "type": "uint256[]"
        }
      ],
      "name": "addMovements",
      "outputs": [
        {
          "internalType": "bool",
          "name": "",
          "type": "bool"
        }
      ],
      "stateMutability": "nonpayable",
      "type": "function"
    },
    {
      "inputs": [
        {
          "internalType": "uint256",
          "name": "assetId",
          "type": "uint256"
        },
        {
          "internalType": "uint256[]",
          "name": "parents",
          "type": "uint256[]"
        },
        {
          "internalType": "uint16[]",
          "name": "composition",
          "type": "uint16[]"
        }
      ],
      "name": "addParents",
      "outputs": [
        {
          "internalType": "bool",
          "name": "",
          "type": "bool"
        }
      ],
      "stateMutability": "nonpayable",
      "type": "function"
    },
    {
      "inputs": [
        {
          "internalType": "uint256",
          "name": "assetId",
          "type": "uint256"
        }
      ],
      "name": "assetCertificates",
      "outputs": [
        {
          "internalType": "uint256[]",
          "name": "",
          "type": "uint256[]"
        }
      ],
      "stateMutability": "view",
      "type": "function"
    },
    {
      "inputs": [
        {
          "internalType": "uint256",
          "name": "assetId",
          "type": "uint256"
        }
      ],
      "name": "assetComposition",
      "outputs": [
        {
          "internalType": "uint256[]",
          "name": "",
          "type": "uint256[]"
        },
        {
          "internalType": "uint16[]",
          "name": "",
          "type": "uint16[]"
        }
      ],
      "stateMutability": "view",
      "type": "function"
    },
    {
      "inputs": [
        {
          "internalType": "uint256",
          "name": "assetId",
          "type": "uint256"
        }
      ],
      "name": "assetInfo",
      "outputs": [
        {
          "internalType": "address",
          "name": "",
          "type": "address"
        },
        {
          "internalType": "address",
          "name": "",
          "type": "address"
        },
        {
          "internalType": "uint64",
          "name": "",
          "type": "uint64"
        },
        {
          "internalType": "uint256",
          "name": "",
          "type": "uint256"
        },
        {
          "internalType": "string",
          "name": "",
          "type": "string"
        }
      ],
      "stateMutability": "view",
      "type": "function"
    },
    {
      "inputs": [
        {
          "internalType": "uint256",
          "name": "assetId",
          "type": "uint256"
        }
      ],
      "name": "assetTraceability",
      "outputs": [
        {
          "internalType": "uint256[]",
          "name": "",
          "type": "uint256[]"
        }
      ],
      "stateMutability": "view",
      "type": "function"
    },
    {
      "inputs": [
        {
          "internalType": "uint256",
          "name": "certId",
          "type": "uint256"
        }
      ],
      "name": "certificateInfo",
      "outputs": [
        {
          "internalType": "address",
          "name": "",
          "type": "address"
        },
        {
          "internalType": "string",
          "name": "",
          "type": "string"
        }
      ],
      "stateMutability": "view",
      "type": "function"
    },
    {
      "inputs": [
        {
          "internalType": "uint256",
          "name": "assetId",
          "type": "uint256"
        },
        {
          "internalType": "address",
          "name": "owner",
          "type": "address"
        },
        {
          "internalType": "uint64",
          "name": "co2e",
          "type": "uint64"
        },
        {
          "internalType": "uint256",
          "name": "certId",
          "type": "uint256"
        },
        {
          "internalType": "string",
          "name": "metadata_",
          "type": "string"
        }
      ],
      "name": "issueAsset",
      "outputs": [
        {
          "internalType": "bool",
          "name": "",
          "type": "bool"
        }
      ],
      "stateMutability": "nonpayable",
      "type": "function"
    },
    {
      "inputs": [
        {
          "internalType": "uint256",
          "name": "certId",
          "type": "uint256"
        },
        {
          "internalType": "string",
          "name": "metadata_",
          "type": "string"
        }
      ],
      "name": "issueCertificate",
      "outputs": [
        {
          "internalType": "bool",
          "name": "",
          "type": "bool"
        }
      ],
      "stateMutability": "nonpayable",
      "type": "function"
    },
    {
      "inputs": [
        {
          "internalType": "uint256",
          "name": "moveId",
          "type": "uint256"
        },
        {
          "internalType": "uint64",
          "name": "co2e",
          "type": "uint64"
        },
        {
          "internalType": "uint256",
          "name": "certId",
          "type": "uint256"
        },
        {
          "internalType": "string",
          "name": "metadata_",
          "type": "string"
        }
      ],
      "name": "issueMovement",
      "outputs": [
        {
          "internalType": "bool",
          "name": "",
          "type": "bool"
        }
      ],
      "stateMutability": "nonpayable",
      "type": "function"
    },
    {
      "inputs": [
        {
          "internalType": "uint256",
          "name": "moveId",
          "type": "uint256"
        }
      ],
      "name": "movementCertificates",
      "outputs": [
        {
          "internalType": "uint256[]",
          "name": "",
          "type": "uint256[]"
        }
      ],
      "stateMutability": "view",
      "type": "function"
    },
    {
      "inputs": [
        {
          "internalType": "uint256",
          "name": "moveId",
          "type": "uint256"
        }
      ],
      "name": "movementInfo",
      "outputs": [
        {
          "internalType": "address",
          "name": "",
          "type": "address"
        },
        {
          "internalType": "uint64",
          "name": "",
          "type": "uint64"
        },
        {
          "internalType": "uint256",
          "name": "",
          "type": "uint256"
        },
        {
          "internalType": "string",
          "name": "",
          "type": "string"
        }
      ],
      "stateMutability": "view",
      "type": "function"
    },
    {
      "inputs": [],
      "name": "name",
      "outputs": [
        {
          "internalType": "string",
          "name": "",
          "type": "string"
        }
      ],
      "stateMutability": "view",
      "type": "function"
    },
    {
      "inputs": [
        {
          "internalType": "address",
          "name": "from",
          "type": "address"
        },
        {
          "internalType": "address",
          "name": "to",
          "type": "address"
        },
        {
          "internalType": "uint256",
          "name": "assetId",
          "type": "uint256"
        }
      ],
      "name": "transferFrom",
      "outputs": [],
      "stateMutability": "nonpayable",
      "type": "function"
    }
  ],
  "bytecode": "0x60806040523480156200001157600080fd5b5060405162001fc338038062001fc38339810160408190526200003491620000f7565b80516200004990600090602084019062000051565b505062000252565b8280546200005f90620001cd565b90600052602060002090601f016020900481019282620000835760008555620000ce565b82601f106200009e57805160ff1916838001178555620000ce565b82800160010185558215620000ce579182015b82811115620000ce578251825591602001919060010190620000b1565b50620000dc929150620000e0565b5090565b5b80821115620000dc5760008155600101620000e1565b600060208083850312156200010a578182fd5b82516001600160401b038082111562000121578384fd5b818501915085601f83011262000135578384fd5b8151818111156200014a576200014a62000223565b604051601f8201601f19908116603f0116810190838211818310171562000175576200017562000223565b8160405282815288868487010111156200018d578687fd5b8693505b82841015620001b0578484018601518185018701529285019262000191565b82841115620001c157868684830101525b98975050505050505050565b600181811c90821680620001e257607f821691505b602082108114156200021d577f4e487b7100000000000000000000000000000000000000000000000000000000600052602260045260246000fd5b50919050565b7f4e487b7100000000000000000000000000000000000000000000000000000000600052604160045260246000fd5b611d6180620002626000396000f3fe608060405234801561001057600080fd5b50600436106101005760003560e01c8063ba0a9f5011610097578063e4eb771c11610066578063e4eb771c14610250578063e842eafa14610263578063f17011c614610276578063f6863e831461028957600080fd5b8063ba0a9f50146101e9578063bad6a0ab1461020a578063c22d99801461021d578063d1ac4d651461023d57600080fd5b80633586ed2f116100d35780633586ed2f1461017c5780634c40065e1461019f578063a879fcbb146101b2578063aa2d16f1146101d657600080fd5b806306fdde03146101055780630c816de4146101235780632192bc2a1461014657806323b872dd14610167575b600080fd5b61010d61029c565b60405161011a9190611bc2565b60405180910390f35b610136610131366004611915565b61032e565b604051901515815260200161011a565b610159610154366004611778565b610379565b60405161011a929190611b28565b61017a61017536600461171d565b6104eb565b005b61018f61018a366004611778565b6104fb565b60405161011a9493929190611adf565b6101366101ad3660046117ff565b6105dc565b6101c56101c0366004611778565b6105ef565b60405161011a959493929190611a6e565b6101366101e43660046117ff565b6106df565b6101fc6101f7366004611778565b6106eb565b60405161011a929190611abb565b610136610218366004611843565b6107a8565b61023061022b366004611778565b6107b5565b60405161011a9190611b15565b61023061024b366004611778565b61081d565b61013661025e3660046117ff565b610883565b61013661027136600461198b565b61088f565b610136610284366004611790565b6108a7565b610230610297366004611778565b6108c1565b6060600080546102ab90611cb3565b80601f01602080910402602001604051908101604052809291908181526020018280546102d790611cb3565b80156103245780601f106102f957610100808354040283529160200191610324565b820191906000526020600020905b81548152906001019060200180831161030757829003601f168201915b5050505050905090565b6000610371843385858080601f01602080910402602001604051908101604052809392919081815260200183838082843760009201919091525061092792505050565b949350505050565b600081815260036020526040812060068101546060928392916001600160401b038111156103b757634e487b7160e01b600052604160045260246000fd5b6040519080825280602002602001820160405280156103e0578160200160208202803683370190505b50905060005b60068301548110156104885782600701600084600601838154811061041b57634e487b7160e01b600052603260045260246000fd5b9060005260206000200154815260200190815260200160002060009054906101000a900461ffff1682828151811061046357634e487b7160e01b600052603260045260246000fd5b61ffff909216602092830291909101909101528061048081611cee565b9150506103e6565b508160060181818054806020026020016040519081016040528092919081815260200182805480156104d957602002820191906000526020600020905b8154815260200190600101908083116104c5575b50505050509150935093505050915091565b6104f6838383610a0b565b505050565b600081815260016020819052604082209081015460028201546004830180548594859460609491936001600160a01b03821693600160a01b9092046001600160401b03169291819061054c90611cb3565b80601f016020809104026020016040519081016040528092919081815260200182805461057890611cb3565b80156105c55780601f1061059a576101008083540402835291602001916105c5565b820191906000526020600020905b8154815290600101906020018083116105a857829003601f168201915b505050505090509450945094509450509193509193565b60006105e88383610adb565b9392505050565b60008181526003602081905260408220600181015460028201549282015460088301805486958695869560609591946001600160a01b039182169491841693600160a01b90046001600160401b03169291819061064b90611cb3565b80601f016020809104026020016040519081016040528092919081815260200182805461067790611cb3565b80156106c45780601f10610699576101008083540402835291602001916106c4565b820191906000526020600020905b8154815290600101906020018083116106a757829003601f168201915b50505050509050955095509550955095505091939590929450565b60006105e88383610cdc565b60008181526002602081905260408220600181015491810180546060936001600160a01b03169190819061071e90611cb3565b80601f016020809104026020016040519081016040528092919081815260200182805461074a90611cb3565b80156107975780601f1061076c57610100808354040283529160200191610797565b820191906000526020600020905b81548152906001019060200180831161077a57829003601f168201915b505050505090509250925050915091565b6000610371848484610ed2565b600081815260036020908152604091829020600481018054845181850281018501909552808552606094929383018282801561081057602002820191906000526020600020905b8154815260200190600101908083116107fc575b5050505050915050919050565b600081815260016020908152604091829020600381018054845181850281018501909552808552606094929383018282801561081057602002820191906000526020600020908154815260200190600101908083116107fc575050505050915050919050565b60006105e883836110e4565b600061089e8533868686611319565b95945050505050565b60006108b7868633878787611439565b9695505050505050565b600081815260036020908152604091829020600581018054845181850281018501909552808552606094929383018282801561081057602002820191906000526020600020908154815260200190600101908083116107fc575050505050915050919050565b60008381526002602052604081208054156109935760405162461bcd60e51b815260206004820152602160248201527f4572726f723a20636572746966696361746520616c72656164792065786973746044820152607360f81b60648201526084015b60405180910390fd5b8481556001810180546001600160a01b0319166001600160a01b03861617905582516109c89060028301906020860190611578565b50805460405190815233907f0ac0bb5418edafe119eaae67d0ee0bc6f39a3efafc3305a56b617c171d0d835f9060200160405180910390a2506001949350505050565b600081815260036020526040902060018101546001600160a01b03858116911614610a865760405162461bcd60e51b815260206004820152602560248201527f4552433234353a2073656e646572206973206e6f74207468652061737365742060448201526437bbb732b960d91b606482015260840161098a565b6001810180546001600160a01b0319166001600160a01b0385811691821790925560405184928716907f428ab6cd67836d0fe93626e98108a1a2593b0bc06a1a87b59e437a17cbaf430c90600090a450505050565b6000828152600360205260408120815b8351811015610cd15773__$756bb61c413278bdc0c137c12dfa6aa297$__63b32b8e2c83600401868481518110610b3257634e487b7160e01b600052603260045260246000fd5b60200260200101516040518363ffffffff1660e01b8152600401610b57929190611b75565b60206040518083038186803b158015610b6f57600080fd5b505af4158015610b83573d6000803e3d6000fd5b505050506040513d601f19601f82011682018060405250810190610ba79190611758565b15610bf45760405162461bcd60e51b815260206004820181905260248201527f4572726f723a20636572746966696361746520616c7265616479206164646564604482015260640161098a565b600060026000868481518110610c1a57634e487b7160e01b600052603260045260246000fd5b602002602001015181526020019081526020016000209050806000015460001415610c575760405162461bcd60e51b815260040161098a90611c17565b805460048401805460018101825560009182526020909120015580547f4fc952580cfc5ff048a6b9111d8facdf029038c2a88b0ea0c42da67a1a5e00d19087336040805193845260208401929092526001600160a01b03169082015260600160405180910390a15080610cc981611cee565b915050610aeb565b506001949350505050565b6000828152600160205260408120815b8351811015610cd15773__$756bb61c413278bdc0c137c12dfa6aa297$__63b32b8e2c83600301868481518110610d3357634e487b7160e01b600052603260045260246000fd5b60200260200101516040518363ffffffff1660e01b8152600401610d58929190611b75565b60206040518083038186803b158015610d7057600080fd5b505af4158015610d84573d6000803e3d6000fd5b505050506040513d601f19601f82011682018060405250810190610da89190611758565b15610df55760405162461bcd60e51b815260206004820181905260248201527f4572726f723a20636572746966696361746520616c7265616479206164646564604482015260640161098a565b600060026000868481518110610e1b57634e487b7160e01b600052603260045260246000fd5b602002602001015181526020019081526020016000209050806000015460001415610e585760405162461bcd60e51b815260040161098a90611c17565b805460038401805460018101825560009182526020909120015580547fb8730f75259bf8d0baccdacc5bc1580e45d23db9e5a88f49ba8bc829c14f64f89087336040805193845260208401929092526001600160a01b03169082015260600160405180910390a15080610eca81611cee565b915050610cec565b6000838152600360205260408120815b84518110156110d857816007016000868381518110610f1157634e487b7160e01b600052603260045260246000fd5b60209081029190910181015182528101919091526040016000205461ffff1615610f7d5760405162461bcd60e51b815260206004820152601d60248201527f4572726f723a20706172656e7420616c72656164792070726573656e74000000604482015260640161098a565b600060036000878481518110610fa357634e487b7160e01b600052603260045260246000fd5b60200260200101518152602001908152602001600020905080600001546000141561101c5760405162461bcd60e51b815260206004820152602360248201527f4572726f723a2063616e206e6f742061646420696e6578697374656e742061736044820152621cd95d60ea1b606482015260840161098a565b84828151811061103c57634e487b7160e01b600052603260045260246000fd5b602090810291909101810151825460009081526007860183526040808220805461ffff191661ffff9094169390931790925583546006870180546001810182559083529184902090910155825481519081529182018990523382820152517f4154f07b27a742714e27b3894179c9cb5aba0e2a7fa26cb0f7513abecf1b051b916060908290030190a150806110d081611cee565b915050610ee2565b50600195945050505050565b6000828152600360205260408120815b8351811015610cd15773__$756bb61c413278bdc0c137c12dfa6aa297$__63b32b8e2c8360050186848151811061113b57634e487b7160e01b600052603260045260246000fd5b60200260200101516040518363ffffffff1660e01b8152600401611160929190611b75565b60206040518083038186803b15801561117857600080fd5b505af415801561118c573d6000803e3d6000fd5b505050506040513d601f19601f820116820180604052508101906111b09190611758565b156111fd5760405162461bcd60e51b815260206004820152601d60248201527f4572726f723a206d6f76656d656e7420616c7265616479206164646564000000604482015260640161098a565b60006001600086848151811061122357634e487b7160e01b600052603260045260246000fd5b60200260200101518152602001908152602001600020905080600001546000141561129f5760405162461bcd60e51b815260206004820152602660248201527f4572726f723a2063616e206e6f742061646420696e6578697374656e74206d6f6044820152651d995b595b9d60d21b606482015260840161098a565b805460058401805460018101825560009182526020909120015580547f1fb5e37b2fee9c771f5a7ac82a15698c9f978e0e6cef7ac48ceb8b9792caaf169087336040805193845260208401929092526001600160a01b03169082015260600160405180910390a1508061131181611cee565b9150506110f4565b60008581526001602052604081208054156113765760405162461bcd60e51b815260206004820152601e60248201527f4572726f723a206d6f76656d656e7420616c7265616479206578697374730000604482015260640161098a565b6000848152600260205260409020805485146113a45760405162461bcd60e51b815260040161098a90611bd5565b8782556001820180546001600160401b038816600160a01b026001600160e01b03199091166001600160a01b038a16171790558054600283015583516113f39060048401906020870190611578565b50815460405190815233907f741b29ae377b3381e554e394b7d2e2fefb4db0c40f73b9e0ac4cd843ef56171d9060200160405180910390a2506001979650505050505050565b60008681526003602052604081208054156114965760405162461bcd60e51b815260206004820152601b60248201527f4572726f723a20617373657420616c7265616479206578697374730000000000604482015260640161098a565b6000848152600260205260409020805485146114c45760405162461bcd60e51b815260040161098a90611bd5565b8882556001820180546001600160a01b0319166001600160a01b038a8116919091179091556002830180549189166001600160e01b031990921691909117600160a01b6001600160401b038916021790558054600383015583516115319060088401906020870190611578565b50815460405190815233907ff37f680ac83ec9f2a328ebff310dfe6d49043380dcb563e89ef4ca09eaa38d519060200160405180910390a250600198975050505050505050565b82805461158490611cb3565b90600052602060002090601f0160209004810192826115a657600085556115ec565b82601f106115bf57805160ff19168380011785556115ec565b828001600101855582156115ec579182015b828111156115ec5782518255916020019190600101906115d1565b506115f89291506115fc565b5090565b5b808211156115f857600081556001016115fd565b80356001600160a01b038116811461162857600080fd5b919050565b600082601f83011261163d578081fd5b8135602061165261164d83611c90565b611c60565b80838252828201915082860187848660051b8901011115611671578586fd5b855b8581101561168f57813584529284019290840190600101611673565b5090979650505050505050565b600082601f8301126116ac578081fd5b81356001600160401b038111156116c5576116c5611d15565b6116d8601f8201601f1916602001611c60565b8181528460208386010111156116ec578283fd5b816020850160208301379081016020019190915292915050565b80356001600160401b038116811461162857600080fd5b600080600060608486031215611731578283fd5b61173a84611611565b925061174860208501611611565b9150604084013590509250925092565b600060208284031215611769578081fd5b815180151581146105e8578182fd5b600060208284031215611789578081fd5b5035919050565b600080600080600060a086880312156117a7578081fd5b853594506117b760208701611611565b93506117c560408701611706565b92506060860135915060808601356001600160401b038111156117e6578182fd5b6117f28882890161169c565b9150509295509295909350565b60008060408385031215611811578182fd5b8235915060208301356001600160401b0381111561182d578182fd5b6118398582860161162d565b9150509250929050565b600080600060608486031215611857578283fd5b833592506020808501356001600160401b0380821115611875578485fd5b6118818883890161162d565b94506040870135915080821115611896578384fd5b508501601f810187136118a7578283fd5b80356118b561164d82611c90565b8082825284820191508484018a868560051b87010111156118d4578687fd5b8694505b8385101561190557803561ffff811681146118f1578788fd5b8352600194909401939185019185016118d8565b5080955050505050509250925092565b600080600060408486031215611929578283fd5b8335925060208401356001600160401b0380821115611946578384fd5b818601915086601f830112611959578384fd5b813581811115611967578485fd5b876020828501011115611978578485fd5b6020830194508093505050509250925092565b600080600080608085870312156119a0578384fd5b843593506119b060208601611706565b92506040850135915060608501356001600160401b038111156119d1578182fd5b6119dd8782880161169c565b91505092959194509250565b6000815180845260208085019450808401835b83811015611a18578151875295820195908201906001016119fc565b509495945050505050565b60008151808452815b81811015611a4857602081850181015186830182015201611a2c565b81811115611a595782602083870101525b50601f01601f19169290920160200192915050565b6001600160a01b038681168252851660208201526001600160401b03841660408201526060810183905260a060808201819052600090611ab090830184611a23565b979650505050505050565b6001600160a01b038316815260406020820181905260009061037190830184611a23565b60018060a01b03851681526001600160401b03841660208201528260408201526080606082015260006108b76080830184611a23565b6020815260006105e860208301846119e9565b604081526000611b3b60408301856119e9565b828103602084810191909152845180835285820192820190845b8181101561168f57845161ffff1683529383019391830191600101611b55565b6000604082016040835280855480835260608501915086845260209250828420845b82811015611bb357815484529284019260019182019101611b97565b50505092019290925292915050565b6020815260006105e86020830184611a23565b60208082526022908201527f4572726f723a20636572746966696361746520646f6573206e6f742065786973604082015261747360f01b606082015260800190565b60208082526029908201527f4572726f723a2063616e206e6f742061646420696e6578697374656e7420636560408201526872746966696361746560b81b606082015260800190565b604051601f8201601f191681016001600160401b0381118282101715611c8857611c88611d15565b604052919050565b60006001600160401b03821115611ca957611ca9611d15565b5060051b60200190565b600181811c90821680611cc757607f821691505b60208210811415611ce857634e487b7160e01b600052602260045260246000fd5b50919050565b6000600019821415611d0e57634e487b7160e01b81526011600452602481fd5b5060010190565b634e487b7160e01b600052604160045260246000fdfea2646970667358221220cefdddaa2ded856140d6447df9446dcadd4b048cfde27d2d5436eedb0ed06fe864736f6c63430008040033",
  "linkReferences": {
    "contracts/utils/Collections.sol": {
      "Array": [
        {
          "length": 20,
          "start": 3416
        },
        {
          "length": 20,
          "start": 3929
        },
        {
          "length": 20,
          "start": 4961
        }
      ]
    }
  },
  "deployedLinkReferences": {
    "contracts/utils/Collections.sol": {
      "Array": [
        {
          "length": 20,
          "start": 2806
        },
        {
          "length": 20,
          "start": 3319
        },
        {
          "length": 20,
          "start": 4351
        }
      ]
    }
  }
}