{
  "_format": "hh-sol-artifact-1",
  "contractName": "ERC245",
  "sourceName": "contracts/tokens/ERC245/ERC245.sol",
  "abi": [
    {
      "inputs": [
        {
          "internalType": "string",
          "name": "name_",
          "type": "string"
        }
      ],
      "stateMutability": "nonpayable",
      "type": "constructor"
    },
    {
      "anonymous": false,
      "inputs": [
        {
          "indexed": false,
          "internalType": "uint256",
          "name": "assetId",
          "type": "uint256"
        },
        {
          "indexed": false,
          "internalType": "address",
          "name": "signer",
          "type": "address"
        }
      ],
      "name": "AssetIssued",
      "type": "event"
    },
    {
      "anonymous": false,
      "inputs": [
        {
          "indexed": false,
          "internalType": "uint256",
          "name": "certId",
          "type": "uint256"
        },
        {
          "indexed": false,
          "internalType": "address",
          "name": "signer",
          "type": "address"
        }
      ],
      "name": "CertIssued",
      "type": "event"
    },
    {
      "anonymous": false,
      "inputs": [
        {
          "indexed": false,
          "internalType": "uint256",
          "name": "certId",
          "type": "uint256"
        },
        {
          "indexed": false,
          "internalType": "uint256",
          "name": "assetId",
          "type": "uint256"
        },
        {
          "indexed": false,
          "internalType": "address",
          "name": "signer",
          "type": "address"
        }
      ],
      "name": "CertificateAssigned",
      "type": "event"
    },
    {
      "anonymous": false,
      "inputs": [
        {
          "indexed": false,
          "internalType": "uint256",
          "name": "moveId",
          "type": "uint256"
        },
        {
          "indexed": false,
          "internalType": "uint256",
          "name": "assetId",
          "type": "uint256"
        },
        {
          "indexed": false,
          "internalType": "address",
          "name": "signer",
          "type": "address"
        }
      ],
      "name": "MovementAssigned",
      "type": "event"
    },
    {
      "anonymous": false,
      "inputs": [
        {
          "indexed": false,
          "internalType": "uint256",
          "name": "moveId",
          "type": "uint256"
        },
        {
          "indexed": false,
          "internalType": "address",
          "name": "signer",
          "type": "address"
        }
      ],
      "name": "MovementIssued",
      "type": "event"
    },
    {
      "anonymous": false,
      "inputs": [
        {
          "indexed": false,
          "internalType": "uint256",
          "name": "parentId",
          "type": "uint256"
        },
        {
          "indexed": false,
          "internalType": "uint256",
          "name": "assetId",
          "type": "uint256"
        },
        {
          "indexed": false,
          "internalType": "address",
          "name": "signer",
          "type": "address"
        }
      ],
      "name": "ParentAssigned",
      "type": "event"
    },
    {
      "anonymous": false,
      "inputs": [
        {
          "indexed": true,
          "internalType": "address",
          "name": "from",
          "type": "address"
        },
        {
          "indexed": true,
          "internalType": "address",
          "name": "to",
          "type": "address"
        },
        {
          "indexed": true,
          "internalType": "uint256",
          "name": "assetId",
          "type": "uint256"
        }
      ],
      "name": "TransferAsset",
      "type": "event"
    },
    {
      "inputs": [
        {
          "internalType": "uint256",
          "name": "assetId",
          "type": "uint256"
        },
        {
          "internalType": "uint256[]",
          "name": "certificates",
          "type": "uint256[]"
        }
      ],
      "name": "addCertificates",
      "outputs": [
        {
          "internalType": "bool",
          "name": "",
          "type": "bool"
        }
      ],
      "stateMutability": "nonpayable",
      "type": "function"
    },
    {
      "inputs": [
        {
          "internalType": "uint256",
          "name": "assetId",
          "type": "uint256"
        },
        {
          "internalType": "uint256[]",
          "name": "movements",
          "type": "uint256[]"
        }
      ],
      "name": "addMovements",
      "outputs": [
        {
          "internalType": "bool",
          "name": "",
          "type": "bool"
        }
      ],
      "stateMutability": "nonpayable",
      "type": "function"
    },
    {
      "inputs": [
        {
          "internalType": "uint256",
          "name": "assetId",
          "type": "uint256"
        },
        {
          "internalType": "uint256[]",
          "name": "parents",
          "type": "uint256[]"
        },
        {
          "internalType": "uint16[]",
          "name": "composition",
          "type": "uint16[]"
        }
      ],
      "name": "addParents",
      "outputs": [
        {
          "internalType": "bool",
          "name": "",
          "type": "bool"
        }
      ],
      "stateMutability": "nonpayable",
      "type": "function"
    },
    {
      "inputs": [
        {
          "internalType": "uint256",
          "name": "assetId",
          "type": "uint256"
        }
      ],
      "name": "assetCertificates",
      "outputs": [
        {
          "internalType": "uint256[]",
          "name": "",
          "type": "uint256[]"
        }
      ],
      "stateMutability": "view",
      "type": "function"
    },
    {
      "inputs": [
        {
          "internalType": "uint256",
          "name": "assetId",
          "type": "uint256"
        }
      ],
      "name": "assetComposition",
      "outputs": [
        {
          "internalType": "uint256[]",
          "name": "",
          "type": "uint256[]"
        },
        {
          "internalType": "uint16[]",
          "name": "",
          "type": "uint16[]"
        }
      ],
      "stateMutability": "view",
      "type": "function"
    },
    {
      "inputs": [
        {
          "internalType": "uint256",
          "name": "assetId",
          "type": "uint256"
        }
      ],
      "name": "assetInfo",
      "outputs": [
        {
          "internalType": "address",
          "name": "",
          "type": "address"
        },
        {
          "internalType": "address",
          "name": "",
          "type": "address"
        },
        {
          "internalType": "uint64",
          "name": "",
          "type": "uint64"
        },
        {
          "internalType": "uint256",
          "name": "",
          "type": "uint256"
        },
        {
          "internalType": "string",
          "name": "",
          "type": "string"
        }
      ],
      "stateMutability": "view",
      "type": "function"
    },
    {
      "inputs": [
        {
          "internalType": "uint256",
          "name": "assetId",
          "type": "uint256"
        }
      ],
      "name": "assetTraceability",
      "outputs": [
        {
          "internalType": "uint256[]",
          "name": "",
          "type": "uint256[]"
        },
        {
          "internalType": "string[]",
          "name": "",
          "type": "string[]"
        },
        {
          "internalType": "string[]",
          "name": "",
          "type": "string[]"
        }
      ],
      "stateMutability": "view",
      "type": "function"
    },
    {
      "inputs": [
        {
          "internalType": "uint256",
          "name": "certId",
          "type": "uint256"
        }
      ],
      "name": "certificateInfo",
      "outputs": [
        {
          "internalType": "address",
          "name": "",
          "type": "address"
        },
        {
          "internalType": "string",
          "name": "",
          "type": "string"
        }
      ],
      "stateMutability": "view",
      "type": "function"
    },
    {
      "inputs": [
        {
          "internalType": "uint256",
          "name": "assetId",
          "type": "uint256"
        },
        {
          "internalType": "address",
          "name": "owner",
          "type": "address"
        },
        {
          "internalType": "uint64",
          "name": "co2e",
          "type": "uint64"
        },
        {
          "internalType": "uint256",
          "name": "certId",
          "type": "uint256"
        },
        {
          "internalType": "string",
          "name": "metadata_",
          "type": "string"
        }
      ],
      "name": "issueAsset",
      "outputs": [
        {
          "internalType": "bool",
          "name": "",
          "type": "bool"
        }
      ],
      "stateMutability": "nonpayable",
      "type": "function"
    },
    {
      "inputs": [
        {
          "internalType": "uint256",
          "name": "certId",
          "type": "uint256"
        },
        {
          "internalType": "string",
          "name": "metadata_",
          "type": "string"
        }
      ],
      "name": "issueCertificate",
      "outputs": [
        {
          "internalType": "bool",
          "name": "",
          "type": "bool"
        }
      ],
      "stateMutability": "nonpayable",
      "type": "function"
    },
    {
      "inputs": [
        {
          "internalType": "uint256",
          "name": "moveId",
          "type": "uint256"
        },
        {
          "internalType": "string",
          "name": "lat",
          "type": "string"
        },
        {
          "internalType": "string",
          "name": "lng",
          "type": "string"
        },
        {
          "internalType": "uint64",
          "name": "co2e",
          "type": "uint64"
        },
        {
          "internalType": "uint256",
          "name": "certId",
          "type": "uint256"
        },
        {
          "internalType": "string",
          "name": "metadata_",
          "type": "string"
        }
      ],
      "name": "issueMovement",
      "outputs": [
        {
          "internalType": "bool",
          "name": "",
          "type": "bool"
        }
      ],
      "stateMutability": "nonpayable",
      "type": "function"
    },
    {
      "inputs": [
        {
          "internalType": "uint256",
          "name": "moveId",
          "type": "uint256"
        }
      ],
      "name": "movementInfo",
      "outputs": [
        {
          "internalType": "address",
          "name": "",
          "type": "address"
        },
        {
          "internalType": "string",
          "name": "",
          "type": "string"
        },
        {
          "internalType": "string",
          "name": "",
          "type": "string"
        },
        {
          "internalType": "uint64",
          "name": "",
          "type": "uint64"
        },
        {
          "internalType": "uint256",
          "name": "",
          "type": "uint256"
        },
        {
          "internalType": "string",
          "name": "",
          "type": "string"
        }
      ],
      "stateMutability": "view",
      "type": "function"
    },
    {
      "inputs": [],
      "name": "name",
      "outputs": [
        {
          "internalType": "string",
          "name": "",
          "type": "string"
        }
      ],
      "stateMutability": "view",
      "type": "function"
    },
    {
      "inputs": [
        {
          "internalType": "address",
          "name": "from",
          "type": "address"
        },
        {
          "internalType": "address",
          "name": "to",
          "type": "address"
        },
        {
          "internalType": "uint256",
          "name": "assetId",
          "type": "uint256"
        }
      ],
      "name": "transferFrom",
      "outputs": [],
      "stateMutability": "nonpayable",
      "type": "function"
    }
  ],
  "bytecode": "0x60806040523480156200001157600080fd5b506040516200228c3803806200228c8339810160408190526200003491620000f7565b80516200004990600090602084019062000051565b505062000252565b8280546200005f90620001cd565b90600052602060002090601f016020900481019282620000835760008555620000ce565b82601f106200009e57805160ff1916838001178555620000ce565b82800160010185558215620000ce579182015b82811115620000ce578251825591602001919060010190620000b1565b50620000dc929150620000e0565b5090565b5b80821115620000dc5760008155600101620000e1565b600060208083850312156200010a578182fd5b82516001600160401b038082111562000121578384fd5b818501915085601f83011262000135578384fd5b8151818111156200014a576200014a62000223565b604051601f8201601f19908116603f0116810190838211818310171562000175576200017562000223565b8160405282815288868487010111156200018d578687fd5b8693505b82841015620001b0578484018601518185018701529285019262000191565b82841115620001c157868684830101525b98975050505050505050565b600181811c90821680620001e257607f821691505b602082108114156200021d577f4e487b7100000000000000000000000000000000000000000000000000000000600052602260045260246000fd5b50919050565b7f4e487b7100000000000000000000000000000000000000000000000000000000600052604160045260246000fd5b61202a80620002626000396000f3fe608060405234801561001057600080fd5b50600436106100ea5760003560e01c8063a879fcbb1161008c578063c22d998011610066578063c22d998014610209578063e4eb771c14610229578063f17011c61461023c578063f6863e831461024f57600080fd5b8063a879fcbb146101b1578063ba0a9f50146101d5578063bad6a0ab146101f657600080fd5b806323b872dd116100c857806323b872dd146101515780633586ed2f146101665780638977f3d11461018b5780638c2d08b91461019e57600080fd5b806306fdde03146100ef5780630c816de41461010d5780632192bc2a14610130575b600080fd5b6100f7610271565b6040516101049190611ed4565b60405180910390f35b61012061011b366004611b27565b610303565b6040519015158152602001610104565b61014361013e36600461198a565b61034e565b604051610104929190611e3a565b61016461015f36600461192f565b6104c0565b005b61017961017436600461198a565b6104d0565b60405161010496959493929190611d82565b610120610199366004611a11565b6106dc565b6101206101ac366004611b9d565b6106ef565b6101c46101bf36600461198a565b61070b565b604051610104959493929190611d1c565b6101e86101e336600461198a565b6107fb565b604051610104929190611d5e565b610120610204366004611a55565b6108b8565b61021c61021736600461198a565b6108c5565b6040516101049190611dee565b610120610237366004611a11565b61092d565b61012061024a3660046119a2565b610939565b61026261025d36600461198a565b610953565b60405161010493929190611e01565b60606000805461028090611f7c565b80601f01602080910402602001604051908101604052809291908181526020018280546102ac90611f7c565b80156102f95780601f106102ce576101008083540402835291602001916102f9565b820191906000526020600020905b8154815290600101906020018083116102dc57829003601f168201915b5050505050905090565b6000610346843385858080601f016020809104026020016040519081016040528093929190818152602001838380828437600092019190915250610ca892505050565b949350505050565b600081815260036020526040812060068101546060928392916001600160401b0381111561038c57634e487b7160e01b600052604160045260246000fd5b6040519080825280602002602001820160405280156103b5578160200160208202803683370190505b50905060005b600683015481101561045d578260070160008460060183815481106103f057634e487b7160e01b600052603260045260246000fd5b9060005260206000200154815260200190815260200160002060009054906101000a900461ffff1682828151811061043857634e487b7160e01b600052603260045260246000fd5b61ffff909216602092830291909101909101528061045581611fb7565b9150506103bb565b508160060181818054806020026020016040519081016040528092919081815260200182805480156104ae57602002820191906000526020600020905b81548152602001906001019080831161049a575b50505050509150935093505050915091565b6104cb838383610d90565b505050565b600081815260016020819052604082209081015460048201546005830154600284018054606095869588958695889593946001600160a01b03909316939260038601926001600160401b031691906006870190859061052e90611f7c565b80601f016020809104026020016040519081016040528092919081815260200182805461055a90611f7c565b80156105a75780601f1061057c576101008083540402835291602001916105a7565b820191906000526020600020905b81548152906001019060200180831161058a57829003601f168201915b505050505094508380546105ba90611f7c565b80601f01602080910402602001604051908101604052809291908181526020018280546105e690611f7c565b80156106335780601f1061060857610100808354040283529160200191610633565b820191906000526020600020905b81548152906001019060200180831161061657829003601f168201915b5050505050935080805461064690611f7c565b80601f016020809104026020016040519081016040528092919081815260200182805461067290611f7c565b80156106bf5780601f10610694576101008083540402835291602001916106bf565b820191906000526020600020905b8154815290600101906020018083116106a257829003601f168201915b505050505090509650965096509650965096505091939550919395565b60006106e88383610e60565b9392505050565b6000610700873388888888886110a3565b979650505050505050565b60008181526003602081905260408220600181015460028201549282015460088301805486958695869560609591946001600160a01b039182169491841693600160a01b90046001600160401b03169291819061076790611f7c565b80601f016020809104026020016040519081016040528092919081815260200182805461079390611f7c565b80156107e05780601f106107b5576101008083540402835291602001916107e0565b820191906000526020600020905b8154815290600101906020018083116107c357829003601f168201915b50505050509050955095509550955095505091939590929450565b60008181526002602081905260408220600181015491810180546060936001600160a01b03169190819061082e90611f7c565b80601f016020809104026020016040519081016040528092919081815260200182805461085a90611f7c565b80156108a75780601f1061087c576101008083540402835291602001916108a7565b820191906000526020600020905b81548152906001019060200180831161088a57829003601f168201915b505050505090509250925050915091565b6000610346848484611200565b600081815260036020908152604091829020600481018054845181850281018501909552808552606094929383018282801561092057602002820191906000526020600020905b81548152602001906001019080831161090c575b5050505050915050919050565b60006106e88383611412565b6000610949868633878787611647565b9695505050505050565b60008181526003602052604081206005810154606092839283929091906001600160401b0381111561099557634e487b7160e01b600052604160045260246000fd5b6040519080825280602002602001820160405280156109c857816020015b60608152602001906001900390816109b35790505b5060058301549091506000906001600160401b038111156109f957634e487b7160e01b600052604160045260246000fd5b604051908082528060200260200182016040528015610a2c57816020015b6060815260200190600190039081610a175790505b50905060005b6005840154811015610c3f5760016000856005018381548110610a6557634e487b7160e01b600052603260045260246000fd5b906000526020600020015481526020019081526020016000206002018054610a8c90611f7c565b80601f0160208091040260200160405190810160405280929190818152602001828054610ab890611f7c565b8015610b055780601f10610ada57610100808354040283529160200191610b05565b820191906000526020600020905b815481529060010190602001808311610ae857829003601f168201915b5050505050838281518110610b2a57634e487b7160e01b600052603260045260246000fd5b602002602001018190525060016000856005018381548110610b5c57634e487b7160e01b600052603260045260246000fd5b906000526020600020015481526020019081526020016000206003018054610b8390611f7c565b80601f0160208091040260200160405190810160405280929190818152602001828054610baf90611f7c565b8015610bfc5780601f10610bd157610100808354040283529160200191610bfc565b820191906000526020600020905b815481529060010190602001808311610bdf57829003601f168201915b5050505050828281518110610c2157634e487b7160e01b600052603260045260246000fd5b60200260200101819052508080610c3790611fb7565b915050610a32565b5082600501828282805480602002602001604051908101604052809291908181526020018280548015610c9157602002820191906000526020600020905b815481526020019060010190808311610c7d575b505050505092509550955095505050509193909250565b6000838152600260205260408120805415610d145760405162461bcd60e51b815260206004820152602160248201527f4572726f723a20636572746966696361746520616c72656164792065786973746044820152607360f81b60648201526084015b60405180910390fd5b8481556001810180546001600160a01b0319166001600160a01b0386161790558251610d49906002830190602086019061178a565b5080546040805191825233602083015280517f0ac0bb5418edafe119eaae67d0ee0bc6f39a3efafc3305a56b617c171d0d835f9281900390910190a1506001949350505050565b600081815260036020526040902060018101546001600160a01b03858116911614610e0b5760405162461bcd60e51b815260206004820152602560248201527f4552433234353a2073656e646572206973206e6f74207468652061737365742060448201526437bbb732b960d91b6064820152608401610d0b565b6001810180546001600160a01b0319166001600160a01b0385811691821790925560405184928716907f428ab6cd67836d0fe93626e98108a1a2593b0bc06a1a87b59e437a17cbaf430c90600090a450505050565b6000828152600360205260408120815b83518110156110985773__$756bb61c413278bdc0c137c12dfa6aa297$__63b32b8e2c83600401868481518110610eb757634e487b7160e01b600052603260045260246000fd5b60200260200101516040518363ffffffff1660e01b8152600401610edc929190611e87565b60206040518083038186803b158015610ef457600080fd5b505af4158015610f08573d6000803e3d6000fd5b505050506040513d601f19601f82011682018060405250810190610f2c919061196a565b15610f795760405162461bcd60e51b815260206004820181905260248201527f4572726f723a20636572746966696361746520616c72656164792061646465646044820152606401610d0b565b600060026000868481518110610f9f57634e487b7160e01b600052603260045260246000fd5b60200260200101518152602001908152602001600020905080600001546000141561101e5760405162461bcd60e51b815260206004820152602960248201527f4572726f723a2063616e206e6f742061646420696e6578697374656e7420636560448201526872746966696361746560b81b6064820152608401610d0b565b805460048401805460018101825560009182526020909120015580547fe4445ff4c88d091c15ee0b18314c8056304ce5a982fcd74ec54da751777e1aa79087336040805193845260208401929092526001600160a01b03169082015260600160405180910390a1508061109081611fb7565b915050610e70565b506001949350505050565b60008781526001602052604081208054156111005760405162461bcd60e51b815260206004820152601e60248201527f4572726f723a206d6f76656d656e7420616c72656164792065786973747300006044820152606401610d0b565b60008481526002602052604090208054851461112e5760405162461bcd60e51b8152600401610d0b90611ee7565b8982556001820180546001600160a01b0319166001600160a01b038b16179055875161116390600284019060208b019061178a565b50865161117990600384019060208a019061178a565b5060048201805467ffffffffffffffff19166001600160401b0388161790558054600583015583516111b4906006840190602087019061178a565b5081546040805191825233602083015280517f741b29ae377b3381e554e394b7d2e2fefb4db0c40f73b9e0ac4cd843ef56171d9281900390910190a15060019998505050505050505050565b6000838152600360205260408120815b84518110156114065781600701600086838151811061123f57634e487b7160e01b600052603260045260246000fd5b60209081029190910181015182528101919091526040016000205461ffff16156112ab5760405162461bcd60e51b815260206004820152601d60248201527f4572726f723a20706172656e7420616c72656164792070726573656e740000006044820152606401610d0b565b6000600360008784815181106112d157634e487b7160e01b600052603260045260246000fd5b60200260200101518152602001908152602001600020905080600001546000141561134a5760405162461bcd60e51b815260206004820152602360248201527f4572726f723a2063616e206e6f742061646420696e6578697374656e742061736044820152621cd95d60ea1b6064820152608401610d0b565b84828151811061136a57634e487b7160e01b600052603260045260246000fd5b602090810291909101810151825460009081526007860183526040808220805461ffff191661ffff9094169390931790925583546006870180546001810182559083529184902090910155825481519081529182018990523382820152517f4154f07b27a742714e27b3894179c9cb5aba0e2a7fa26cb0f7513abecf1b051b916060908290030190a150806113fe81611fb7565b915050611210565b50600195945050505050565b6000828152600360205260408120815b83518110156110985773__$756bb61c413278bdc0c137c12dfa6aa297$__63b32b8e2c8360050186848151811061146957634e487b7160e01b600052603260045260246000fd5b60200260200101516040518363ffffffff1660e01b815260040161148e929190611e87565b60206040518083038186803b1580156114a657600080fd5b505af41580156114ba573d6000803e3d6000fd5b505050506040513d601f19601f820116820180604052508101906114de919061196a565b1561152b5760405162461bcd60e51b815260206004820152601d60248201527f4572726f723a206d6f76656d656e7420616c72656164792061646465640000006044820152606401610d0b565b60006001600086848151811061155157634e487b7160e01b600052603260045260246000fd5b6020026020010151815260200190815260200160002090508060000154600014156115cd5760405162461bcd60e51b815260206004820152602660248201527f4572726f723a2063616e206e6f742061646420696e6578697374656e74206d6f6044820152651d995b595b9d60d21b6064820152608401610d0b565b805460058401805460018101825560009182526020909120015580547f1fb5e37b2fee9c771f5a7ac82a15698c9f978e0e6cef7ac48ceb8b9792caaf169087336040805193845260208401929092526001600160a01b03169082015260600160405180910390a1508061163f81611fb7565b915050611422565b60008681526003602052604081208054156116a45760405162461bcd60e51b815260206004820152601b60248201527f4572726f723a20617373657420616c72656164792065786973747300000000006044820152606401610d0b565b6000848152600260205260409020805485146116d25760405162461bcd60e51b8152600401610d0b90611ee7565b8882556001820180546001600160a01b0319166001600160a01b038a8116919091179091556002830180549189166001600160e01b031990921691909117600160a01b6001600160401b0389160217905580546003830155835161173f906008840190602087019061178a565b5081546040805191825233602083015280517ff37f680ac83ec9f2a328ebff310dfe6d49043380dcb563e89ef4ca09eaa38d519281900390910190a150600198975050505050505050565b82805461179690611f7c565b90600052602060002090601f0160209004810192826117b857600085556117fe565b82601f106117d157805160ff19168380011785556117fe565b828001600101855582156117fe579182015b828111156117fe5782518255916020019190600101906117e3565b5061180a92915061180e565b5090565b5b8082111561180a576000815560010161180f565b80356001600160a01b038116811461183a57600080fd5b919050565b600082601f83011261184f578081fd5b8135602061186461185f83611f59565b611f29565b80838252828201915082860187848660051b8901011115611883578586fd5b855b858110156118a157813584529284019290840190600101611885565b5090979650505050505050565b600082601f8301126118be578081fd5b81356001600160401b038111156118d7576118d7611fde565b6118ea601f8201601f1916602001611f29565b8181528460208386010111156118fe578283fd5b816020850160208301379081016020019190915292915050565b80356001600160401b038116811461183a57600080fd5b600080600060608486031215611943578283fd5b61194c84611823565b925061195a60208501611823565b9150604084013590509250925092565b60006020828403121561197b578081fd5b815180151581146106e8578182fd5b60006020828403121561199b578081fd5b5035919050565b600080600080600060a086880312156119b9578081fd5b853594506119c960208701611823565b93506119d760408701611918565b92506060860135915060808601356001600160401b038111156119f8578182fd5b611a04888289016118ae565b9150509295509295909350565b60008060408385031215611a23578182fd5b8235915060208301356001600160401b03811115611a3f578182fd5b611a4b8582860161183f565b9150509250929050565b600080600060608486031215611a69578283fd5b833592506020808501356001600160401b0380821115611a87578485fd5b611a938883890161183f565b94506040870135915080821115611aa8578384fd5b508501601f81018713611ab9578283fd5b8035611ac761185f82611f59565b8082825284820191508484018a868560051b8701011115611ae6578687fd5b8694505b83851015611b1757803561ffff81168114611b03578788fd5b835260019490940193918501918501611aea565b5080955050505050509250925092565b600080600060408486031215611b3b578283fd5b8335925060208401356001600160401b0380821115611b58578384fd5b818601915086601f830112611b6b578384fd5b813581811115611b79578485fd5b876020828501011115611b8a578485fd5b6020830194508093505050509250925092565b60008060008060008060c08789031215611bb5578081fd5b8635955060208701356001600160401b0380821115611bd2578283fd5b611bde8a838b016118ae565b96506040890135915080821115611bf3578283fd5b611bff8a838b016118ae565b9550611c0d60608a01611918565b94506080890135935060a0890135915080821115611c29578283fd5b50611c3689828a016118ae565b9150509295509295509295565b600081518084526020808501808196508360051b81019150828601855b85811015611c8a578284038952611c78848351611cd1565b98850198935090840190600101611c60565b5091979650505050505050565b6000815180845260208085019450808401835b83811015611cc657815187529582019590820190600101611caa565b509495945050505050565b60008151808452815b81811015611cf657602081850181015186830182015201611cda565b81811115611d075782602083870101525b50601f01601f19169290920160200192915050565b6001600160a01b038681168252851660208201526001600160401b03841660408201526060810183905260a06080820181905260009061070090830184611cd1565b6001600160a01b038316815260406020820181905260009061034690830184611cd1565b6001600160a01b038716815260c060208201819052600090611da690830188611cd1565b8281036040840152611db88188611cd1565b90506001600160401b038616606084015284608084015282810360a0840152611de18185611cd1565b9998505050505050505050565b6020815260006106e86020830184611c97565b606081526000611e146060830186611c97565b8281036020840152611e268186611c43565b905082810360408401526109498185611c43565b604081526000611e4d6040830185611c97565b828103602084810191909152845180835285820192820190845b818110156118a157845161ffff1683529383019391830191600101611e67565b6000604082016040835280855480835260608501915086845260209250828420845b82811015611ec557815484529284019260019182019101611ea9565b50505092019290925292915050565b6020815260006106e86020830184611cd1565b60208082526022908201527f4572726f723a20636572746966696361746520646f6573206e6f742065786973604082015261747360f01b606082015260800190565b604051601f8201601f191681016001600160401b0381118282101715611f5157611f51611fde565b604052919050565b60006001600160401b03821115611f7257611f72611fde565b5060051b60200190565b600181811c90821680611f9057607f821691505b60208210811415611fb157634e487b7160e01b600052602260045260246000fd5b50919050565b6000600019821415611fd757634e487b7160e01b81526011600452602481fd5b5060010190565b634e487b7160e01b600052604160045260246000fdfea2646970667358221220e4075eb65bfe11571f6f211ae9557dd4c5c35deca1fc8e5df42b46433b2ab6e264736f6c63430008040033",
  "linkReferences": {
    "contracts/utils/Collections.sol": {
      "Array": [
        {
          "length": 20,
          "start": 4317
        },
        {
          "length": 20,
          "start": 5775
        }
      ]
    }
  },
  "deployedLinkReferences": {
    "contracts/utils/Collections.sol": {
      "Array": [
        {
          "length": 20,
          "start": 3707
        },
        {
          "length": 20,
          "start": 5165
        }
      ]
    }
  }
}