{
  "_format": "hh-sol-artifact-1",
  "contractName": "ERC245Private",
  "sourceName": "contracts/tokens/ERC245/ERC245.sol",
  "abi": [
    {
      "inputs": [
        {
          "internalType": "string",
          "name": "name_",
          "type": "string"
        }
      ],
      "stateMutability": "nonpayable",
      "type": "constructor"
    },
    {
      "anonymous": false,
      "inputs": [
        {
          "indexed": false,
          "internalType": "uint256",
          "name": "id",
          "type": "uint256"
        },
        {
          "indexed": false,
          "internalType": "uint64",
          "name": "issuer",
          "type": "uint64"
        },
        {
          "indexed": false,
          "internalType": "address",
          "name": "signer",
          "type": "address"
        }
      ],
      "name": "AssetIssued",
      "type": "event"
    },
    {
      "anonymous": false,
      "inputs": [
        {
          "indexed": false,
          "internalType": "uint256",
          "name": "id",
          "type": "uint256"
        },
        {
          "indexed": false,
          "internalType": "uint64",
          "name": "issuer",
          "type": "uint64"
        },
        {
          "indexed": false,
          "internalType": "address",
          "name": "signer",
          "type": "address"
        }
      ],
      "name": "CertIssued",
      "type": "event"
    },
    {
      "anonymous": false,
      "inputs": [
        {
          "indexed": false,
          "internalType": "uint256",
          "name": "id",
          "type": "uint256"
        },
        {
          "indexed": false,
          "internalType": "uint64",
          "name": "issuer",
          "type": "uint64"
        },
        {
          "indexed": false,
          "internalType": "address",
          "name": "signer",
          "type": "address"
        }
      ],
      "name": "MovementIssued",
      "type": "event"
    },
    {
      "anonymous": false,
      "inputs": [
        {
          "indexed": false,
          "internalType": "uint256",
          "name": "id",
          "type": "uint256"
        },
        {
          "indexed": false,
          "internalType": "uint64",
          "name": "sender",
          "type": "uint64"
        },
        {
          "indexed": false,
          "internalType": "uint64",
          "name": "recipient",
          "type": "uint64"
        },
        {
          "indexed": false,
          "internalType": "address",
          "name": "signer",
          "type": "address"
        }
      ],
      "name": "TransferOwnership",
      "type": "event"
    },
    {
      "inputs": [
        {
          "internalType": "uint256",
          "name": "id",
          "type": "uint256"
        },
        {
          "internalType": "uint256[]",
          "name": "movements",
          "type": "uint256[]"
        }
      ],
      "name": "addMovements",
      "outputs": [
        {
          "internalType": "bool",
          "name": "",
          "type": "bool"
        }
      ],
      "stateMutability": "nonpayable",
      "type": "function"
    },
    {
      "inputs": [
        {
          "internalType": "uint256",
          "name": "id",
          "type": "uint256"
        },
        {
          "internalType": "uint256[]",
          "name": "parents",
          "type": "uint256[]"
        },
        {
          "internalType": "uint16[]",
          "name": "composition",
          "type": "uint16[]"
        }
      ],
      "name": "addParents",
      "outputs": [
        {
          "internalType": "bool",
          "name": "",
          "type": "bool"
        }
      ],
      "stateMutability": "nonpayable",
      "type": "function"
    },
    {
      "inputs": [
        {
          "internalType": "uint256",
          "name": "id",
          "type": "uint256"
        }
      ],
      "name": "assetComposition",
      "outputs": [
        {
          "internalType": "uint256[]",
          "name": "",
          "type": "uint256[]"
        },
        {
          "internalType": "uint16[]",
          "name": "",
          "type": "uint16[]"
        }
      ],
      "stateMutability": "view",
      "type": "function"
    },
    {
      "inputs": [
        {
          "internalType": "uint256",
          "name": "id",
          "type": "uint256"
        }
      ],
      "name": "assetInfo",
      "outputs": [
        {
          "internalType": "uint64",
          "name": "",
          "type": "uint64"
        },
        {
          "internalType": "uint64",
          "name": "",
          "type": "uint64"
        },
        {
          "internalType": "uint256",
          "name": "",
          "type": "uint256"
        },
        {
          "internalType": "uint256",
          "name": "",
          "type": "uint256"
        },
        {
          "internalType": "string",
          "name": "",
          "type": "string"
        }
      ],
      "stateMutability": "view",
      "type": "function"
    },
    {
      "inputs": [
        {
          "internalType": "uint256",
          "name": "id",
          "type": "uint256"
        }
      ],
      "name": "assetTraceability",
      "outputs": [
        {
          "internalType": "uint256[]",
          "name": "",
          "type": "uint256[]"
        },
        {
          "internalType": "string[]",
          "name": "",
          "type": "string[]"
        },
        {
          "internalType": "string[]",
          "name": "",
          "type": "string[]"
        }
      ],
      "stateMutability": "view",
      "type": "function"
    },
    {
      "inputs": [
        {
          "internalType": "uint256",
          "name": "id",
          "type": "uint256"
        }
      ],
      "name": "certificateInfo",
      "outputs": [
        {
          "internalType": "uint64",
          "name": "",
          "type": "uint64"
        },
        {
          "internalType": "string",
          "name": "",
          "type": "string"
        }
      ],
      "stateMutability": "view",
      "type": "function"
    },
    {
      "inputs": [
        {
          "internalType": "address",
          "name": "",
          "type": "address"
        }
      ],
      "name": "idOf",
      "outputs": [
        {
          "internalType": "uint64",
          "name": "",
          "type": "uint64"
        }
      ],
      "stateMutability": "pure",
      "type": "function"
    },
    {
      "inputs": [
        {
          "internalType": "uint256",
          "name": "id",
          "type": "uint256"
        },
        {
          "internalType": "uint64",
          "name": "owner",
          "type": "uint64"
        },
        {
          "internalType": "uint256",
          "name": "co2",
          "type": "uint256"
        },
        {
          "internalType": "uint256",
          "name": "cert",
          "type": "uint256"
        },
        {
          "internalType": "string",
          "name": "metadata",
          "type": "string"
        }
      ],
      "name": "issueAsset",
      "outputs": [
        {
          "internalType": "bool",
          "name": "",
          "type": "bool"
        }
      ],
      "stateMutability": "nonpayable",
      "type": "function"
    },
    {
      "inputs": [
        {
          "internalType": "uint256",
          "name": "id",
          "type": "uint256"
        },
        {
          "internalType": "string",
          "name": "metadata",
          "type": "string"
        }
      ],
      "name": "issueCertificate",
      "outputs": [
        {
          "internalType": "bool",
          "name": "",
          "type": "bool"
        }
      ],
      "stateMutability": "nonpayable",
      "type": "function"
    },
    {
      "inputs": [
        {
          "internalType": "uint256",
          "name": "id",
          "type": "uint256"
        },
        {
          "internalType": "string",
          "name": "lat",
          "type": "string"
        },
        {
          "internalType": "string",
          "name": "lng",
          "type": "string"
        },
        {
          "internalType": "uint256",
          "name": "co2",
          "type": "uint256"
        },
        {
          "internalType": "uint256",
          "name": "cert",
          "type": "uint256"
        },
        {
          "internalType": "string",
          "name": "metadata",
          "type": "string"
        }
      ],
      "name": "issueMovement",
      "outputs": [
        {
          "internalType": "bool",
          "name": "",
          "type": "bool"
        }
      ],
      "stateMutability": "nonpayable",
      "type": "function"
    },
    {
      "inputs": [
        {
          "internalType": "uint256",
          "name": "id",
          "type": "uint256"
        }
      ],
      "name": "movementInfo",
      "outputs": [
        {
          "internalType": "uint64",
          "name": "",
          "type": "uint64"
        },
        {
          "internalType": "string",
          "name": "",
          "type": "string"
        },
        {
          "internalType": "string",
          "name": "",
          "type": "string"
        },
        {
          "internalType": "uint256",
          "name": "",
          "type": "uint256"
        },
        {
          "internalType": "uint256",
          "name": "",
          "type": "uint256"
        },
        {
          "internalType": "string",
          "name": "",
          "type": "string"
        }
      ],
      "stateMutability": "view",
      "type": "function"
    },
    {
      "inputs": [],
      "name": "name",
      "outputs": [
        {
          "internalType": "string",
          "name": "",
          "type": "string"
        }
      ],
      "stateMutability": "view",
      "type": "function"
    },
    {
      "inputs": [
        {
          "internalType": "uint256",
          "name": "asset",
          "type": "uint256"
        },
        {
          "internalType": "uint64",
          "name": "recipient",
          "type": "uint64"
        }
      ],
      "name": "transferOwnership",
      "outputs": [
        {
          "internalType": "bool",
          "name": "",
          "type": "bool"
        }
      ],
      "stateMutability": "nonpayable",
      "type": "function"
    }
  ],
  "bytecode": "0x60806040523480156200001157600080fd5b5060405162002f6b38038062002f6b83398181016040528101906200003791906200017b565b8080600090805190602001906200005092919062000059565b50505062000330565b828054620000679062000255565b90600052602060002090601f0160209004810192826200008b5760008555620000d7565b82601f10620000a657805160ff1916838001178555620000d7565b82800160010185558215620000d7579182015b82811115620000d6578251825591602001919060010190620000b9565b5b509050620000e69190620000ea565b5090565b5b8082111562000105576000816000905550600101620000eb565b5090565b6000620001206200011a84620001e9565b620001c0565b9050828152602081018484840111156200013957600080fd5b620001468482856200021f565b509392505050565b600082601f8301126200016057600080fd5b81516200017284826020860162000109565b91505092915050565b6000602082840312156200018e57600080fd5b600082015167ffffffffffffffff811115620001a957600080fd5b620001b7848285016200014e565b91505092915050565b6000620001cc620001df565b9050620001da82826200028b565b919050565b6000604051905090565b600067ffffffffffffffff821115620002075762000206620002f0565b5b62000212826200031f565b9050602081019050919050565b60005b838110156200023f57808201518184015260208101905062000222565b838111156200024f576000848401525b50505050565b600060028204905060018216806200026e57607f821691505b60208210811415620002855762000284620002c1565b5b50919050565b62000296826200031f565b810181811067ffffffffffffffff82111715620002b857620002b7620002f0565b5b80604052505050565b7f4e487b7100000000000000000000000000000000000000000000000000000000600052602260045260246000fd5b7f4e487b7100000000000000000000000000000000000000000000000000000000600052604160045260246000fd5b6000601f19601f8301169050919050565b612c2b80620003406000396000f3fe608060405234801561001057600080fd5b50600436106100cf5760003560e01c806395c338261161008c578063bad6a0ab11610066578063bad6a0ab1461027d578063d94fe832146102ad578063e4eb771c146102dd578063f6863e831461030d576100cf565b806395c33826146101e8578063a879fcbb14610218578063ba0a9f501461024c576100cf565b806306fdde03146100d45780630c816de4146100f25780631f2ffbfb146101225780632192bc2a146101525780633586ed2f146101835780634b50405b146101b8575b600080fd5b6100dc61033f565b6040516100e991906122a2565b60405180910390f35b61010c60048036038101906101079190611bcd565b6103d1565b6040516101199190612287565b60405180910390f35b61013c60048036038101906101379190611d2e565b6103e5565b6040516101499190612287565b60405180910390f35b61016c60048036038101906101679190611ad1565b6103ff565b60405161017a929190612220565b60405180910390f35b61019d60048036038101906101989190611ad1565b6105d4565b6040516101af969594939291906124ab565b60405180910390f35b6101d260048036038101906101cd9190611cf2565b6107de565b6040516101df9190612287565b60405180910390f35b61020260048036038101906101fd9190611c21565b6107f2565b60405161020f9190612287565b60405180910390f35b610232600480360381019061022d9190611ad1565b61080e565b604051610243959493929190612521565b60405180910390f35b61026660048036038101906102619190611ad1565b61090d565b60405161027492919061247b565b60405180910390f35b61029760048036038101906102929190611b4e565b6109db565b6040516102a49190612287565b60405180910390f35b6102c760048036038101906102c29190611a7f565b6109f1565b6040516102d49190612460565b60405180910390f35b6102f760048036038101906102f29190611afa565b6109fc565b6040516103049190612287565b60405180910390f35b61032760048036038101906103229190611ad1565b610a10565b604051610336939291906121d4565b60405180910390f35b60606000805461034e906127f5565b80601f016020809104026020016040519081016040528092919081815260200182805461037a906127f5565b80156103c75780601f1061039c576101008083540402835291602001916103c7565b820191906000526020600020905b8154815290600101906020018083116103aa57829003601f168201915b5050505050905090565b60006103dd8383610e0a565b905092915050565b60006103f48686868686610f1c565b905095945050505050565b60608060006003600085815260200190815260200160002090506000816004018054905067ffffffffffffffff811115610462577f4e487b7100000000000000000000000000000000000000000000000000000000600052604160045260246000fd5b6040519080825280602002602001820160405280156104905781602001602082028036833780820191505090505b50905060005b8260040180549050811015610571578260050160008460040183815481106104e7577f4e487b7100000000000000000000000000000000000000000000000000000000600052603260045260246000fd5b9060005260206000200154815260200190815260200160002060009054906101000a900461ffff16828281518110610548577f4e487b7100000000000000000000000000000000000000000000000000000000600052603260045260246000fd5b602002602001019061ffff16908161ffff1681525050808061056990612872565b915050610496565b508160040181818054806020026020016040519081016040528092919081815260200182805480156105c257602002820191906000526020600020905b8154815260200190600101908083116105ae575b50505050509150935093505050915091565b6000606080600080606060006001600089815260200190815260200160002090508060010160009054906101000a900467ffffffffffffffff1681600201826003018360040154846005015485600601848054610630906127f5565b80601f016020809104026020016040519081016040528092919081815260200182805461065c906127f5565b80156106a95780601f1061067e576101008083540402835291602001916106a9565b820191906000526020600020905b81548152906001019060200180831161068c57829003601f168201915b505050505094508380546106bc906127f5565b80601f01602080910402602001604051908101604052809291908181526020018280546106e8906127f5565b80156107355780601f1061070a57610100808354040283529160200191610735565b820191906000526020600020905b81548152906001019060200180831161071857829003601f168201915b50505050509350808054610748906127f5565b80601f0160208091040260200160405190810160405280929190818152602001828054610774906127f5565b80156107c15780601f10610796576101008083540402835291602001916107c1565b820191906000526020600020905b8154815290600101906020018083116107a457829003601f168201915b505050505090509650965096509650965096505091939550919395565b60006107ea83836110d0565b905092915050565b60006108028787878787876111cc565b90509695505050505050565b600080600080606060006003600088815260200190815260200160002090508060010160009054906101000a900467ffffffffffffffff168160010160089054906101000a900467ffffffffffffffff168260020154836003015484600701808054610879906127f5565b80601f01602080910402602001604051908101604052809291908181526020018280546108a5906127f5565b80156108f25780601f106108c7576101008083540402835291602001916108f2565b820191906000526020600020905b8154815290600101906020018083116108d557829003601f168201915b50505050509050955095509550955095505091939590929450565b6000606060006002600085815260200190815260200160002090508060010160009054906101000a900467ffffffffffffffff1681600201808054610951906127f5565b80601f016020809104026020016040519081016040528092919081815260200182805461097d906127f5565b80156109ca5780601f1061099f576101008083540402835291602001916109ca565b820191906000526020600020905b8154815290600101906020018083116109ad57829003601f168201915b505050505090509250925050915091565b60006109e8848484611388565b90509392505050565b600060019050919050565b6000610a0883836115b9565b905092915050565b606080606060006003600086815260200190815260200160002090506000816006018054905067ffffffffffffffff811115610a75577f4e487b7100000000000000000000000000000000000000000000000000000000600052604160045260246000fd5b604051908082528060200260200182016040528015610aa857816020015b6060815260200190600190039081610a935790505b5090506000826006018054905067ffffffffffffffff811115610af4577f4e487b7100000000000000000000000000000000000000000000000000000000600052604160045260246000fd5b604051908082528060200260200182016040528015610b2757816020015b6060815260200190600190039081610b125790505b50905060005b8360060180549050811015610da15760016000856006018381548110610b7c577f4e487b7100000000000000000000000000000000000000000000000000000000600052603260045260246000fd5b906000526020600020015481526020019081526020016000206002018054610ba3906127f5565b80601f0160208091040260200160405190810160405280929190818152602001828054610bcf906127f5565b8015610c1c5780601f10610bf157610100808354040283529160200191610c1c565b820191906000526020600020905b815481529060010190602001808311610bff57829003601f168201915b5050505050838281518110610c5a577f4e487b7100000000000000000000000000000000000000000000000000000000600052603260045260246000fd5b602002602001018190525060016000856006018381548110610ca5577f4e487b7100000000000000000000000000000000000000000000000000000000600052603260045260246000fd5b906000526020600020015481526020019081526020016000206003018054610ccc906127f5565b80601f0160208091040260200160405190810160405280929190818152602001828054610cf8906127f5565b8015610d455780601f10610d1a57610100808354040283529160200191610d45565b820191906000526020600020905b815481529060010190602001808311610d2857829003601f168201915b5050505050828281518110610d83577f4e487b7100000000000000000000000000000000000000000000000000000000600052603260045260246000fd5b60200260200101819052508080610d9990612872565b915050610b2d565b5082600601828282805480602002602001604051908101604052809291908181526020018280548015610df357602002820191906000526020600020905b815481526020019060010190808311610ddf575b505050505092509550955095505050509193909250565b600080610e1d610e186117d7565b6109f1565b905060006002600086815260200190815260200160002090506000816000015414610e7d576040517f08c379a0000000000000000000000000000000000000000000000000000000008152600401610e7490612384565b60405180910390fd5b848160000181905550818160010160006101000a81548167ffffffffffffffff021916908367ffffffffffffffff16021790555083816002019080519060200190610ec99291906117df565b507f076c839f130c43cce6f1d7dbefabe0268da35a5ae9d2592f6571cf0352eae568816000015483610ef96117d7565b604051610f08939291906123e4565b60405180910390a160019250505092915050565b600080610f2f610f2a6117d7565b6109f1565b905060006003600089815260200190815260200160002090506000816000015414610f8f576040517f08c379a0000000000000000000000000000000000000000000000000000000008152600401610f86906123c4565b60405180910390fd5b600060026000878152602001908152602001600020905085816000015414610fec576040517f08c379a0000000000000000000000000000000000000000000000000000000008152600401610fe390612344565b60405180910390fd5b888260000181905550878260010160006101000a81548167ffffffffffffffff021916908367ffffffffffffffff160217905550828260010160086101000a81548167ffffffffffffffff021916908367ffffffffffffffff16021790555086826002018190555080600001548260030181905550848260070190805190602001906110799291906117df565b507f3f7e038b13852ad31ffc964fa6c285792629e5152f2472d72b75c428941575bd8260000154846110a96117d7565b6040516110b8939291906123e4565b60405180910390a16001935050505095945050505050565b600080600360008581526020019081526020016000209050600081600001541415611130576040517f08c379a0000000000000000000000000000000000000000000000000000000008152600401611127906122c4565b60405180910390fd5b60008160010160009054906101000a900467ffffffffffffffff169050838260010160006101000a81548167ffffffffffffffff021916908367ffffffffffffffff1602179055507fb4cb0f25744eb569b8e0f7aebe41cbeb7559af75de02452e8fc0ce5d65031cee826000015482866111a86117d7565b6040516111b8949392919061241b565b60405180910390a160019250505092915050565b6000806111df6111da6117d7565b6109f1565b90506000600160008a81526020019081526020016000209050600081600001541461123f576040517f08c379a000000000000000000000000000000000000000000000000000000000815260040161123690612304565b60405180910390fd5b60006002600087815260200190815260200160002090508581600001541461129c576040517f08c379a000000000000000000000000000000000000000000000000000000000815260040161129390612344565b60405180910390fd5b898260000181905550828260010160006101000a81548167ffffffffffffffff021916908367ffffffffffffffff160217905550888260020190805190602001906112e89291906117df565b50878260030190805190602001906113019291906117df565b5086826004018190555080600001548260050181905550848260060190805190602001906113309291906117df565b507fc5e6b6f1766e2f51507af62ac7d251f9dd119ffd22357ca41ddb0af903fa7e998260000154846113606117d7565b60405161136f939291906123e4565b60405180910390a1600193505050509695505050505050565b60008060036000868152602001908152602001600020905060005b84518110156115ac5760008260050160008784815181106113ed577f4e487b7100000000000000000000000000000000000000000000000000000000600052603260045260246000fd5b6020026020010151815260200190815260200160002060009054906101000a900461ffff1661ffff1614611456576040517f08c379a000000000000000000000000000000000000000000000000000000000815260040161144d90612324565b60405180910390fd5b600060036000878481518110611495577f4e487b7100000000000000000000000000000000000000000000000000000000600052603260045260246000fd5b6020026020010151815260200190815260200160002090506000816000015414156114f5576040517f08c379a00000000000000000000000000000000000000000000000000000000081526004016114ec906123a4565b60405180910390fd5b84828151811061152e577f4e487b7100000000000000000000000000000000000000000000000000000000600052603260045260246000fd5b60200260200101518360050160008360000154815260200190815260200160002060006101000a81548161ffff021916908361ffff16021790555082600401816000015490806001815401808255809150506001900390600052602060002001600090919091909150555080806115a490612872565b9150506113a3565b5060019150509392505050565b60008060036000858152602001908152602001600020905060005b83518110156117cb5773__$756bb61c413278bdc0c137c12dfa6aa297$__63b32b8e2c83600601868481518110611634577f4e487b7100000000000000000000000000000000000000000000000000000000600052603260045260246000fd5b60200260200101516040518363ffffffff1660e01b8152600401611659929190612257565b60206040518083038186803b15801561167157600080fd5b505af4158015611685573d6000803e3d6000fd5b505050506040513d601f19601f820116820180604052508101906116a99190611aa8565b156116e9576040517f08c379a00000000000000000000000000000000000000000000000000000000081526004016116e090612364565b60405180910390fd5b600060016000868481518110611728577f4e487b7100000000000000000000000000000000000000000000000000000000600052603260045260246000fd5b602002602001015181526020019081526020016000209050600081600001541415611788576040517f08c379a000000000000000000000000000000000000000000000000000000000815260040161177f906122e4565b60405180910390fd5b82600601816000015490806001815401808255809150506001900390600052602060002001600090919091909150555080806117c390612872565b9150506115d4565b50600191505092915050565b600033905090565b8280546117eb906127f5565b90600052602060002090601f01602090048101928261180d5760008555611854565b82601f1061182657805160ff1916838001178555611854565b82800160010185558215611854579182015b82811115611853578251825591602001919060010190611838565b5b5090506118619190611865565b5090565b5b8082111561187e576000816000905550600101611866565b5090565b6000611895611890846125a0565b61257b565b905080838252602082019050828560208602820111156118b457600080fd5b60005b858110156118e457816118ca8882611a40565b8452602084019350602083019250506001810190506118b7565b5050509392505050565b60006119016118fc846125cc565b61257b565b9050808382526020820190508285602086028201111561192057600080fd5b60005b8581101561195057816119368882611a55565b845260208401935060208301925050600181019050611923565b5050509392505050565b600061196d611968846125f8565b61257b565b90508281526020810184848401111561198557600080fd5b6119908482856127b3565b509392505050565b6000813590506119a781612b82565b92915050565b600082601f8301126119be57600080fd5b81356119ce848260208601611882565b91505092915050565b600082601f8301126119e857600080fd5b81356119f88482602086016118ee565b91505092915050565b600081519050611a1081612b99565b92915050565b600082601f830112611a2757600080fd5b8135611a3784826020860161195a565b91505092915050565b600081359050611a4f81612bb0565b92915050565b600081359050611a6481612bc7565b92915050565b600081359050611a7981612bde565b92915050565b600060208284031215611a9157600080fd5b6000611a9f84828501611998565b91505092915050565b600060208284031215611aba57600080fd5b6000611ac884828501611a01565b91505092915050565b600060208284031215611ae357600080fd5b6000611af184828501611a55565b91505092915050565b60008060408385031215611b0d57600080fd5b6000611b1b85828601611a55565b925050602083013567ffffffffffffffff811115611b3857600080fd5b611b44858286016119d7565b9150509250929050565b600080600060608486031215611b6357600080fd5b6000611b7186828701611a55565b935050602084013567ffffffffffffffff811115611b8e57600080fd5b611b9a868287016119d7565b925050604084013567ffffffffffffffff811115611bb757600080fd5b611bc3868287016119ad565b9150509250925092565b60008060408385031215611be057600080fd5b6000611bee85828601611a55565b925050602083013567ffffffffffffffff811115611c0b57600080fd5b611c1785828601611a16565b9150509250929050565b60008060008060008060c08789031215611c3a57600080fd5b6000611c4889828a01611a55565b965050602087013567ffffffffffffffff811115611c6557600080fd5b611c7189828a01611a16565b955050604087013567ffffffffffffffff811115611c8e57600080fd5b611c9a89828a01611a16565b9450506060611cab89828a01611a55565b9350506080611cbc89828a01611a55565b92505060a087013567ffffffffffffffff811115611cd957600080fd5b611ce589828a01611a16565b9150509295509295509295565b60008060408385031215611d0557600080fd5b6000611d1385828601611a55565b9250506020611d2485828601611a6a565b9150509250929050565b600080600080600060a08688031215611d4657600080fd5b6000611d5488828901611a55565b9550506020611d6588828901611a6a565b9450506040611d7688828901611a55565b9350506060611d8788828901611a55565b925050608086013567ffffffffffffffff811115611da457600080fd5b611db088828901611a16565b9150509295509295909350565b6000611dc98383611fcd565b905092915050565b6000611ddd838361217a565b60208301905092915050565b6000611df58383612189565b60208301905092915050565b6000611e0d83836121b6565b60208301905092915050565b611e2281612749565b82525050565b6000611e338261266e565b611e3d81856126d9565b935083602082028501611e4f85612629565b8060005b85811015611e8b5784840389528151611e6c8582611dbd565b9450611e77836126a5565b925060208a01995050600181019050611e53565b50829750879550505050505092915050565b6000611ea882612679565b611eb281856126ea565b9350611ebd83612639565b8060005b83811015611eee578151611ed58882611dd1565b9750611ee0836126b2565b925050600181019050611ec1565b5085935050505092915050565b6000611f0682612684565b611f1081856126fb565b9350611f1b83612649565b8060005b83811015611f4c578151611f338882611de9565b9750611f3e836126bf565b925050600181019050611f1f565b5085935050505092915050565b6000611f648261268f565b611f6e818561270c565b9350611f7983612659565b8060005b83811015611fb157611f8e82612948565b611f988882611e01565b9750611fa3836126cc565b925050600181019050611f7d565b5085935050505092915050565b611fc78161275b565b82525050565b6000611fd88261269a565b611fe2818561271d565b9350611ff28185602086016127c2565b611ffb8161295b565b840191505092915050565b60006120118261269a565b61201b818561272e565b935061202b8185602086016127c2565b6120348161295b565b840191505092915050565b600061204c601c8361272e565b915061205782612979565b602082019050919050565b600061206f60268361272e565b915061207a826129a2565b604082019050919050565b6000612092601e8361272e565b915061209d826129f1565b602082019050919050565b60006120b5601d8361272e565b91506120c082612a1a565b602082019050919050565b60006120d860228361272e565b91506120e382612a43565b604082019050919050565b60006120fb601d8361272e565b915061210682612a92565b602082019050919050565b600061211e60218361272e565b915061212982612abb565b604082019050919050565b600061214160238361272e565b915061214c82612b0a565b604082019050919050565b6000612164601b8361272e565b915061216f82612b59565b602082019050919050565b61218381612767565b82525050565b61219281612795565b82525050565b6121a181612795565b82525050565b6121b081612795565b82525050565b6121bf81612795565b82525050565b6121ce8161279f565b82525050565b600060608201905081810360008301526121ee8186611efb565b905081810360208301526122028185611e28565b905081810360408301526122168184611e28565b9050949350505050565b6000604082019050818103600083015261223a8185611efb565b9050818103602083015261224e8184611e9d565b90509392505050565b600060408201905081810360008301526122718185611f59565b905061228060208301846121a7565b9392505050565b600060208201905061229c6000830184611fbe565b92915050565b600060208201905081810360008301526122bc8184612006565b905092915050565b600060208201905081810360008301526122dd8161203f565b9050919050565b600060208201905081810360008301526122fd81612062565b9050919050565b6000602082019050818103600083015261231d81612085565b9050919050565b6000602082019050818103600083015261233d816120a8565b9050919050565b6000602082019050818103600083015261235d816120cb565b9050919050565b6000602082019050818103600083015261237d816120ee565b9050919050565b6000602082019050818103600083015261239d81612111565b9050919050565b600060208201905081810360008301526123bd81612134565b9050919050565b600060208201905081810360008301526123dd81612157565b9050919050565b60006060820190506123f96000830186612198565b61240660208301856121c5565b6124136040830184611e19565b949350505050565b60006080820190506124306000830187612198565b61243d60208301866121c5565b61244a60408301856121c5565b6124576060830184611e19565b95945050505050565b600060208201905061247560008301846121c5565b92915050565b600060408201905061249060008301856121c5565b81810360208301526124a28184612006565b90509392505050565b600060c0820190506124c060008301896121c5565b81810360208301526124d28188612006565b905081810360408301526124e68187612006565b90506124f56060830186612198565b6125026080830185612198565b81810360a08301526125148184612006565b9050979650505050505050565b600060a08201905061253660008301886121c5565b61254360208301876121c5565b6125506040830186612198565b61255d6060830185612198565b818103608083015261256f8184612006565b90509695505050505050565b6000612585612596565b90506125918282612841565b919050565b6000604051905090565b600067ffffffffffffffff8211156125bb576125ba612919565b5b602082029050602081019050919050565b600067ffffffffffffffff8211156125e7576125e6612919565b5b602082029050602081019050919050565b600067ffffffffffffffff82111561261357612612612919565b5b61261c8261295b565b9050602081019050919050565b6000819050602082019050919050565b6000819050602082019050919050565b6000819050602082019050919050565b60008190508160005260206000209050919050565b600081519050919050565b600081519050919050565b600081519050919050565b600081549050919050565b600081519050919050565b6000602082019050919050565b6000602082019050919050565b6000602082019050919050565b6000600182019050919050565b600082825260208201905092915050565b600082825260208201905092915050565b600082825260208201905092915050565b600082825260208201905092915050565b600082825260208201905092915050565b600082825260208201905092915050565b6000819050919050565b600061275482612775565b9050919050565b60008115159050919050565b600061ffff82169050919050565b600073ffffffffffffffffffffffffffffffffffffffff82169050919050565b6000819050919050565b600067ffffffffffffffff82169050919050565b82818337600083830152505050565b60005b838110156127e05780820151818401526020810190506127c5565b838111156127ef576000848401525b50505050565b6000600282049050600182168061280d57607f821691505b60208210811415612821576128206128ea565b5b50919050565b600061283a6128358361296c565b61273f565b9050919050565b61284a8261295b565b810181811067ffffffffffffffff8211171561286957612868612919565b5b80604052505050565b600061287d82612795565b91507fffffffffffffffffffffffffffffffffffffffffffffffffffffffffffffffff8214156128b0576128af6128bb565b5b600182019050919050565b7f4e487b7100000000000000000000000000000000000000000000000000000000600052601160045260246000fd5b7f4e487b7100000000000000000000000000000000000000000000000000000000600052602260045260246000fd5b7f4e487b7100000000000000000000000000000000000000000000000000000000600052604160045260246000fd5b60006129548254612827565b9050919050565b6000601f19601f8301169050919050565b60008160001c9050919050565b7f4572726f723a20617373657420646f6573206e6f742065786973747300000000600082015250565b7f4572726f723a2063616e206e6f742061646420696e6578697374656e74206d6f60008201527f76656d656e740000000000000000000000000000000000000000000000000000602082015250565b7f4572726f723a206d6f76656d656e7420616c7265616479206578697374730000600082015250565b7f4572726f723a20706172656e7420616c72656164792070726573656e74000000600082015250565b7f4572726f723a20636572746966696361746520646f6573206e6f74206578697360008201527f7473000000000000000000000000000000000000000000000000000000000000602082015250565b7f4572726f723a206d6f76656d656e7420616c7265616479206164646564000000600082015250565b7f4572726f723a20636572746966696361746520616c726561647920657869737460008201527f7300000000000000000000000000000000000000000000000000000000000000602082015250565b7f4572726f723a2063616e206e6f742061646420696e6578697374656e7420617360008201527f7365740000000000000000000000000000000000000000000000000000000000602082015250565b7f4572726f723a20617373657420616c7265616479206578697374730000000000600082015250565b612b8b81612749565b8114612b9657600080fd5b50565b612ba28161275b565b8114612bad57600080fd5b50565b612bb981612767565b8114612bc457600080fd5b50565b612bd081612795565b8114612bdb57600080fd5b50565b612be78161279f565b8114612bf257600080fd5b5056fea2646970667358221220d4434601c8990e9a3c836a1c5cc776922fab17f7f9b0fe36f6e7c7f9057fef0c64736f6c63430008040033",
  "linkReferences": {
    "contracts/utils/Collections.sol": {
      "Array": [
        {
          "length": 20,
          "start": 6431
        }
      ]
    }
  },
  "deployedLinkReferences": {
    "contracts/utils/Collections.sol": {
      "Array": [
        {
          "length": 20,
          "start": 5599
        }
      ]
    }
  }
}