{
  "_format": "hh-sol-artifact-1",
  "contractName": "ERC423",
  "sourceName": "contracts/security/ERC423/ERC423.sol",
  "abi": [
    {
      "inputs": [
        {
          "internalType": "string",
          "name": "name_",
          "type": "string"
        }
      ],
      "stateMutability": "nonpayable",
      "type": "constructor"
    },
    {
      "anonymous": false,
      "inputs": [
        {
          "indexed": false,
          "internalType": "address",
          "name": "agent",
          "type": "address"
        },
        {
          "indexed": false,
          "internalType": "address",
          "name": "account",
          "type": "address"
        },
        {
          "indexed": false,
          "internalType": "address",
          "name": "issuer",
          "type": "address"
        }
      ],
      "name": "AgentDefined",
      "type": "event"
    },
    {
      "anonymous": false,
      "inputs": [
        {
          "indexed": false,
          "internalType": "address",
          "name": "agent",
          "type": "address"
        },
        {
          "indexed": false,
          "internalType": "address",
          "name": "issuer",
          "type": "address"
        }
      ],
      "name": "AgentRemoved",
      "type": "event"
    },
    {
      "anonymous": false,
      "inputs": [
        {
          "indexed": false,
          "internalType": "uint256",
          "name": "role",
          "type": "uint256"
        },
        {
          "indexed": false,
          "internalType": "address",
          "name": "issuer",
          "type": "address"
        }
      ],
      "name": "RoleDefined",
      "type": "event"
    },
    {
      "anonymous": false,
      "inputs": [
        {
          "indexed": false,
          "internalType": "uint256",
          "name": "role",
          "type": "uint256"
        },
        {
          "indexed": false,
          "internalType": "address",
          "name": "account",
          "type": "address"
        },
        {
          "indexed": false,
          "internalType": "address",
          "name": "issuer",
          "type": "address"
        }
      ],
      "name": "RoleGranted",
      "type": "event"
    },
    {
      "anonymous": false,
      "inputs": [
        {
          "indexed": false,
          "internalType": "uint256",
          "name": "role",
          "type": "uint256"
        },
        {
          "indexed": false,
          "internalType": "address",
          "name": "account",
          "type": "address"
        },
        {
          "indexed": false,
          "internalType": "address",
          "name": "issuer",
          "type": "address"
        }
      ],
      "name": "RoleRevoked",
      "type": "event"
    },
    {
      "inputs": [
        {
          "internalType": "address",
          "name": "account",
          "type": "address"
        }
      ],
      "name": "accountInfo",
      "outputs": [
        {
          "internalType": "string",
          "name": "",
          "type": "string"
        }
      ],
      "stateMutability": "view",
      "type": "function"
    },
    {
      "inputs": [
        {
          "internalType": "address",
          "name": "agent",
          "type": "address"
        }
      ],
      "name": "accountOf",
      "outputs": [
        {
          "internalType": "address",
          "name": "",
          "type": "address"
        }
      ],
      "stateMutability": "view",
      "type": "function"
    },
    {
      "inputs": [
        {
          "internalType": "address",
          "name": "agent",
          "type": "address"
        },
        {
          "internalType": "address",
          "name": "account",
          "type": "address"
        },
        {
          "internalType": "string",
          "name": "metadata_",
          "type": "string"
        }
      ],
      "name": "defineAgent",
      "outputs": [
        {
          "internalType": "bool",
          "name": "",
          "type": "bool"
        }
      ],
      "stateMutability": "nonpayable",
      "type": "function"
    },
    {
      "inputs": [
        {
          "internalType": "uint256",
          "name": "role",
          "type": "uint256"
        },
        {
          "internalType": "string",
          "name": "metadata_",
          "type": "string"
        }
      ],
      "name": "defineRole",
      "outputs": [
        {
          "internalType": "bool",
          "name": "",
          "type": "bool"
        }
      ],
      "stateMutability": "nonpayable",
      "type": "function"
    },
    {
      "inputs": [
        {
          "internalType": "address",
          "name": "account",
          "type": "address"
        },
        {
          "internalType": "uint256",
          "name": "role",
          "type": "uint256"
        }
      ],
      "name": "grantRole",
      "outputs": [
        {
          "internalType": "bool",
          "name": "",
          "type": "bool"
        }
      ],
      "stateMutability": "nonpayable",
      "type": "function"
    },
    {
      "inputs": [
        {
          "internalType": "address",
          "name": "account",
          "type": "address"
        },
        {
          "internalType": "uint256",
          "name": "role",
          "type": "uint256"
        }
      ],
      "name": "hasRole",
      "outputs": [
        {
          "internalType": "bool",
          "name": "",
          "type": "bool"
        }
      ],
      "stateMutability": "view",
      "type": "function"
    },
    {
      "inputs": [],
      "name": "name",
      "outputs": [
        {
          "internalType": "string",
          "name": "",
          "type": "string"
        }
      ],
      "stateMutability": "view",
      "type": "function"
    },
    {
      "inputs": [
        {
          "internalType": "address",
          "name": "agent",
          "type": "address"
        }
      ],
      "name": "removeAgent",
      "outputs": [
        {
          "internalType": "bool",
          "name": "",
          "type": "bool"
        }
      ],
      "stateMutability": "nonpayable",
      "type": "function"
    },
    {
      "inputs": [
        {
          "internalType": "address",
          "name": "account",
          "type": "address"
        },
        {
          "internalType": "uint256",
          "name": "role",
          "type": "uint256"
        }
      ],
      "name": "revokeRole",
      "outputs": [
        {
          "internalType": "bool",
          "name": "",
          "type": "bool"
        }
      ],
      "stateMutability": "nonpayable",
      "type": "function"
    },
    {
      "inputs": [
        {
          "internalType": "uint256",
          "name": "role",
          "type": "uint256"
        }
      ],
      "name": "roleInfo",
      "outputs": [
        {
          "internalType": "string",
          "name": "",
          "type": "string"
        }
      ],
      "stateMutability": "view",
      "type": "function"
    }
  ],
  "bytecode": "0x60806040523480156200001157600080fd5b5060405162000bcc38038062000bcc8339810160408190526200003491620000f7565b80516200004990600090602084019062000051565b505062000252565b8280546200005f90620001cd565b90600052602060002090601f016020900481019282620000835760008555620000ce565b82601f106200009e57805160ff1916838001178555620000ce565b82800160010185558215620000ce579182015b82811115620000ce578251825591602001919060010190620000b1565b50620000dc929150620000e0565b5090565b5b80821115620000dc5760008155600101620000e1565b600060208083850312156200010a578182fd5b82516001600160401b038082111562000121578384fd5b818501915085601f83011262000135578384fd5b8151818111156200014a576200014a62000223565b604051601f8201601f19908116603f0116810190838211818310171562000175576200017562000223565b8160405282815288868487010111156200018d578687fd5b8693505b82841015620001b0578484018601518185018701529285019262000191565b82841115620001c157868684830101525b98975050505050505050565b600181811c90821680620001e257607f821691505b602082108114156200021d577f4e487b7100000000000000000000000000000000000000000000000000000000600052602260045260246000fd5b50919050565b7f4e487b7100000000000000000000000000000000000000000000000000000000600052604160045260246000fd5b61096a80620002626000396000f3fe608060405234801561001057600080fd5b506004361061009e5760003560e01c80638086b8ba116100665780638086b8ba1461013c57806393123e0b1461016757806397a6278e1461017a578063a7310b581461018d578063b77e76c2146101a057600080fd5b806306fdde03146100a35780630912ed77146100c15780633c09e2fd146100e45780635c97f4a2146100f75780635ee3bc2a14610129575b600080fd5b6100ab6101b3565b6040516100b89190610896565b60405180910390f35b6100d46100cf366004610810565b610245565b60405190151581526020016100b8565b6100d46100f2366004610810565b610258565b6100d4610105366004610810565b6001600160a01b039190911660009081526003602052604090206001015416151590565b6100d46101373660046107b4565b610264565b61014f61014a36600461079a565b610279565b6040516001600160a01b0390911681526020016100b8565b6100ab610175366004610839565b61030c565b6100d461018836600461079a565b6103b1565b6100ab61019b36600461079a565b6103c2565b6100d46101ae366004610851565b6103ec565b6060600080546101c2906108e9565b80601f01602080910402602001604051908101604052809291908181526020018280546101ee906108e9565b801561023b5780601f106102105761010080835404028352916020019161023b565b820191906000526020600020905b81548152906001019060200180831161021e57829003601f168201915b5050505050905090565b600061025183836103f8565b9392505050565b60006102518383610470565b60006102718484846104ba565b949350505050565b6001600160a01b038116600090815260026020526040812054829060ff16156102e85760405162461bcd60e51b815260206004820152601e60248201527f4552433432333a206167656e7420686173206265656e2072656d6f7665640000604482015260640160405180910390fd5b6001600160a01b038084166000908152600160205260409020541691505b50919050565b600081815260046020526040902060010180546060919061032c906108e9565b80601f0160208091040260200160405190810160405280929190818152602001828054610358906108e9565b80156103a55780601f1061037a576101008083540402835291602001916103a5565b820191906000526020600020905b81548152906001019060200180831161038857829003601f168201915b50505050509050919050565b60006103bc82610561565b92915050565b6001600160a01b038116600090815260036020526040902060020180546060919061032c906108e9565b600061025183836105d8565b6001600160a01b03821660009081526003602052604081206001018054831890557fe0df21b65c73c27081b8f042a012b124085b41d78d27b7e3c4780f5650f5ebb88284335b604080519384526001600160a01b0392831660208501529116908201526060015b60405180910390a150600192915050565b6001600160a01b03821660009081526003602052604081206001018054831790557f1ec1667fba5e43c5c76fff54e76d7a4a20a4fecf7b49724ad8d52a3f726e9dbd82843361043e565b6001600160a01b0382166000908152600360209081526040822083516104e89260029092019185019061065e565b506001600160a01b0384811660008181526001602090815260409182902080549488166001600160a01b0319909516851790558151928352820192909252338183015290517fb61ddfe33d9ed54d8bdb62fe6fe16b84a72a4bae657baea7d2ae636fd1714b899181900360600190a15060019392505050565b6001600160a01b0381166000908152600260205260408120805460ff191660011790557f4ce8b3fe8e0bf47a6fefbecdfd7c799755cede6061655521b10fc2e4b1fcc6b3826105ad3390565b604080516001600160a01b0393841681529290911660208301520160405180910390a1506001919050565b6040805180820182528381526020808201848152600086815260048352938420835181559051805191926106149260018501929091019061065e565b509050507f2e82a3308270f66933807098cf62441247b1de86244636b03b0565b2c3dbc62b836106413390565b604080519283526001600160a01b0390911660208301520161045f565b82805461066a906108e9565b90600052602060002090601f01602090048101928261068c57600085556106d2565b82601f106106a557805160ff19168380011785556106d2565b828001600101855582156106d2579182015b828111156106d25782518255916020019190600101906106b7565b506106de9291506106e2565b5090565b5b808211156106de57600081556001016106e3565b80356001600160a01b038116811461070e57600080fd5b919050565b600082601f830112610723578081fd5b813567ffffffffffffffff8082111561073e5761073e61091e565b604051601f8301601f19908116603f011681019082821181831017156107665761076661091e565b8160405283815286602085880101111561077e578485fd5b8360208701602083013792830160200193909352509392505050565b6000602082840312156107ab578081fd5b610251826106f7565b6000806000606084860312156107c8578182fd5b6107d1846106f7565b92506107df602085016106f7565b9150604084013567ffffffffffffffff8111156107fa578182fd5b61080686828701610713565b9150509250925092565b60008060408385031215610822578182fd5b61082b836106f7565b946020939093013593505050565b60006020828403121561084a578081fd5b5035919050565b60008060408385031215610863578182fd5b82359150602083013567ffffffffffffffff811115610880578182fd5b61088c85828601610713565b9150509250929050565b6000602080835283518082850152825b818110156108c2578581018301518582016040015282016108a6565b818111156108d35783604083870101525b50601f01601f1916929092016040019392505050565b600181811c908216806108fd57607f821691505b6020821081141561030657634e487b7160e01b600052602260045260246000fd5b634e487b7160e01b600052604160045260246000fdfea2646970667358221220f059b024cf56ed0650ddde732494029627280276e746409d88b7945ae167876764736f6c63430008040033",
  "linkReferences": {},
  "deployedLinkReferences": {}
}