{
  "_format": "hh-sol-artifact-1",
  "contractName": "ERC423",
  "sourceName": "contracts/security/ERC423/ERC423.sol",
  "abi": [
    {
      "inputs": [
        {
          "internalType": "string",
          "name": "name_",
          "type": "string"
        }
      ],
      "stateMutability": "nonpayable",
      "type": "constructor"
    },
    {
      "anonymous": false,
      "inputs": [
        {
          "indexed": false,
          "internalType": "address",
          "name": "agent",
          "type": "address"
        },
        {
          "indexed": false,
          "internalType": "uint64",
          "name": "id",
          "type": "uint64"
        },
        {
          "indexed": false,
          "internalType": "address",
          "name": "issuer",
          "type": "address"
        }
      ],
      "name": "AgentDefined",
      "type": "event"
    },
    {
      "anonymous": false,
      "inputs": [
        {
          "indexed": false,
          "internalType": "uint64",
          "name": "role",
          "type": "uint64"
        },
        {
          "indexed": false,
          "internalType": "address",
          "name": "issuer",
          "type": "address"
        }
      ],
      "name": "RoleDefined",
      "type": "event"
    },
    {
      "inputs": [
        {
          "internalType": "uint64",
          "name": "id",
          "type": "uint64"
        }
      ],
      "name": "agentInfo",
      "outputs": [
        {
          "internalType": "string",
          "name": "",
          "type": "string"
        }
      ],
      "stateMutability": "view",
      "type": "function"
    },
    {
      "inputs": [
        {
          "internalType": "address",
          "name": "agent",
          "type": "address"
        },
        {
          "internalType": "uint64",
          "name": "id",
          "type": "uint64"
        },
        {
          "internalType": "string",
          "name": "info",
          "type": "string"
        }
      ],
      "name": "defineAgent",
      "outputs": [
        {
          "internalType": "bool",
          "name": "",
          "type": "bool"
        }
      ],
      "stateMutability": "nonpayable",
      "type": "function"
    },
    {
      "inputs": [
        {
          "internalType": "uint64",
          "name": "role",
          "type": "uint64"
        },
        {
          "internalType": "string",
          "name": "info",
          "type": "string"
        }
      ],
      "name": "defineRole",
      "outputs": [
        {
          "internalType": "bool",
          "name": "",
          "type": "bool"
        }
      ],
      "stateMutability": "nonpayable",
      "type": "function"
    },
    {
      "inputs": [
        {
          "internalType": "uint64",
          "name": "id",
          "type": "uint64"
        },
        {
          "internalType": "uint64",
          "name": "role",
          "type": "uint64"
        }
      ],
      "name": "grantRole",
      "outputs": [
        {
          "internalType": "bool",
          "name": "",
          "type": "bool"
        }
      ],
      "stateMutability": "nonpayable",
      "type": "function"
    },
    {
      "inputs": [
        {
          "internalType": "uint64",
          "name": "id",
          "type": "uint64"
        },
        {
          "internalType": "uint64",
          "name": "role",
          "type": "uint64"
        }
      ],
      "name": "hasRole",
      "outputs": [
        {
          "internalType": "bool",
          "name": "",
          "type": "bool"
        }
      ],
      "stateMutability": "view",
      "type": "function"
    },
    {
      "inputs": [
        {
          "internalType": "address",
          "name": "agent",
          "type": "address"
        }
      ],
      "name": "idOf",
      "outputs": [
        {
          "internalType": "uint64",
          "name": "",
          "type": "uint64"
        }
      ],
      "stateMutability": "view",
      "type": "function"
    },
    {
      "inputs": [],
      "name": "name",
      "outputs": [
        {
          "internalType": "string",
          "name": "",
          "type": "string"
        }
      ],
      "stateMutability": "view",
      "type": "function"
    },
    {
      "inputs": [
        {
          "internalType": "uint64",
          "name": "id",
          "type": "uint64"
        },
        {
          "internalType": "uint64",
          "name": "role",
          "type": "uint64"
        }
      ],
      "name": "revokeRole",
      "outputs": [
        {
          "internalType": "bool",
          "name": "",
          "type": "bool"
        }
      ],
      "stateMutability": "nonpayable",
      "type": "function"
    },
    {
      "inputs": [
        {
          "internalType": "uint64",
          "name": "role",
          "type": "uint64"
        }
      ],
      "name": "roleInfo",
      "outputs": [
        {
          "internalType": "string",
          "name": "",
          "type": "string"
        }
      ],
      "stateMutability": "view",
      "type": "function"
    }
  ],
  "bytecode": "0x60806040523480156200001157600080fd5b506040516200117038038062001170833981810160405281019062000037919062000179565b80600090805190602001906200004f92919062000057565b50506200032e565b828054620000659062000253565b90600052602060002090601f016020900481019282620000895760008555620000d5565b82601f10620000a457805160ff1916838001178555620000d5565b82800160010185558215620000d5579182015b82811115620000d4578251825591602001919060010190620000b7565b5b509050620000e49190620000e8565b5090565b5b8082111562000103576000816000905550600101620000e9565b5090565b60006200011e6200011884620001e7565b620001be565b9050828152602081018484840111156200013757600080fd5b620001448482856200021d565b509392505050565b600082601f8301126200015e57600080fd5b81516200017084826020860162000107565b91505092915050565b6000602082840312156200018c57600080fd5b600082015167ffffffffffffffff811115620001a757600080fd5b620001b5848285016200014c565b91505092915050565b6000620001ca620001dd565b9050620001d8828262000289565b919050565b6000604051905090565b600067ffffffffffffffff821115620002055762000204620002ee565b5b62000210826200031d565b9050602081019050919050565b60005b838110156200023d57808201518184015260208101905062000220565b838111156200024d576000848401525b50505050565b600060028204905060018216806200026c57607f821691505b60208210811415620002835762000282620002bf565b5b50919050565b62000294826200031d565b810181811067ffffffffffffffff82111715620002b657620002b5620002ee565b5b80604052505050565b7f4e487b7100000000000000000000000000000000000000000000000000000000600052602260045260246000fd5b7f4e487b7100000000000000000000000000000000000000000000000000000000600052604160045260246000fd5b6000601f19601f8301169050919050565b610e32806200033e6000396000f3fe608060405234801561001057600080fd5b50600436106100935760003560e01c80634e994730116100665780634e99473014610146578063967ef94814610176578063b5534cc7146101a6578063d94fe832146101d6578063f22801c61461020657610093565b806306fdde031461009857806320b169f4146100b6578063403dd0a5146100e657806341046d3b14610116575b600080fd5b6100a0610236565b6040516100ad9190610b90565b60405180910390f35b6100d060048036038101906100cb91906109b8565b6102c8565b6040516100dd9190610b75565b60405180910390f35b61010060048036038101906100fb9190610a9c565b6102de565b60405161010d9190610b75565b60405180910390f35b610130600480360381019061012b9190610a9c565b6102f2565b60405161013d9190610b75565b60405180910390f35b610160600480360381019061015b9190610a1f565b610306565b60405161016d9190610b90565b60405180910390f35b610190600480360381019061018b9190610a1f565b610318565b60405161019d9190610b90565b60405180910390f35b6101c060048036038101906101bb9190610a48565b61032a565b6040516101cd9190610b75565b60405180910390f35b6101f060048036038101906101eb919061098f565b61033e565b6040516101fd9190610bb2565b60405180910390f35b610220600480360381019061021b9190610a9c565b610350565b60405161022d9190610b75565b60405180910390f35b60606000805461024590610cfc565b80601f016020809104026020016040519081016040528092919081815260200182805461027190610cfc565b80156102be5780601f10610293576101008083540402835291602001916102be565b820191906000526020600020905b8154815290600101906020018083116102a157829003601f168201915b5050505050905090565b60006102d5848484610364565b90509392505050565b60006102ea8383610458565b905092915050565b60006102fe83836104ce565b905092915050565b606061031182610544565b9050919050565b606061032382610600565b9050919050565b600061033683836106bc565b905092915050565b60006103498261079d565b9050919050565b600061035c83836107fa565b905092915050565b600081600260008567ffffffffffffffff1667ffffffffffffffff16815260200190815260200160002060010190805190602001906103a492919061085a565b5082600160008673ffffffffffffffffffffffffffffffffffffffff1673ffffffffffffffffffffffffffffffffffffffff16815260200190815260200160002060006101000a81548167ffffffffffffffff021916908367ffffffffffffffff1602179055507f047c5c035c01dc5c2d48c6fa33fd602e6e859313677ce824b0789a461c6ce3a48484610436610852565b60405161044593929190610b3e565b60405180910390a1600190509392505050565b600081600260008567ffffffffffffffff1667ffffffffffffffff16815260200190815260200160002060000160088282829054906101000a900467ffffffffffffffff161892506101000a81548167ffffffffffffffff021916908367ffffffffffffffff1602179055506001905092915050565b600081600260008567ffffffffffffffff1667ffffffffffffffff16815260200190815260200160002060000160088282829054906101000a900467ffffffffffffffff161792506101000a81548167ffffffffffffffff021916908367ffffffffffffffff1602179055506001905092915050565b6060600260008367ffffffffffffffff1667ffffffffffffffff168152602001908152602001600020600101805461057b90610cfc565b80601f01602080910402602001604051908101604052809291908181526020018280546105a790610cfc565b80156105f45780601f106105c9576101008083540402835291602001916105f4565b820191906000526020600020905b8154815290600101906020018083116105d757829003601f168201915b50505050509050919050565b6060600360008367ffffffffffffffff1667ffffffffffffffff168152602001908152602001600020600101805461063790610cfc565b80601f016020809104026020016040519081016040528092919081815260200182805461066390610cfc565b80156106b05780601f10610685576101008083540402835291602001916106b0565b820191906000526020600020905b81548152906001019060200180831161069357829003601f168201915b50505050509050919050565b600060405180604001604052808467ffffffffffffffff16815260200183815250600360008567ffffffffffffffff1667ffffffffffffffff16815260200190815260200160002060008201518160000160006101000a81548167ffffffffffffffff021916908367ffffffffffffffff160217905550602082015181600101908051906020019061074f92919061085a565b509050507f5abde54ef581b4f6aaebf296a4d0b094d493d8e8783f3dacc1ffd941e8442e158361077d610852565b60405161078b929190610bcd565b60405180910390a16001905092915050565b6000600160008373ffffffffffffffffffffffffffffffffffffffff1673ffffffffffffffffffffffffffffffffffffffff16815260200190815260200160002060009054906101000a900467ffffffffffffffff169050919050565b60008082600260008667ffffffffffffffff1667ffffffffffffffff16815260200190815260200160002060000160089054906101000a900467ffffffffffffffff161667ffffffffffffffff161415905092915050565b600033905090565b82805461086690610cfc565b90600052602060002090601f01602090048101928261088857600085556108cf565b82601f106108a157805160ff19168380011785556108cf565b828001600101855582156108cf579182015b828111156108ce5782518255916020019190600101906108b3565b5b5090506108dc91906108e0565b5090565b5b808211156108f95760008160009055506001016108e1565b5090565b600061091061090b84610c1b565b610bf6565b90508281526020810184848401111561092857600080fd5b610933848285610cba565b509392505050565b60008135905061094a81610dce565b92915050565b600082601f83011261096157600080fd5b81356109718482602086016108fd565b91505092915050565b60008135905061098981610de5565b92915050565b6000602082840312156109a157600080fd5b60006109af8482850161093b565b91505092915050565b6000806000606084860312156109cd57600080fd5b60006109db8682870161093b565b93505060206109ec8682870161097a565b925050604084013567ffffffffffffffff811115610a0957600080fd5b610a1586828701610950565b9150509250925092565b600060208284031215610a3157600080fd5b6000610a3f8482850161097a565b91505092915050565b60008060408385031215610a5b57600080fd5b6000610a698582860161097a565b925050602083013567ffffffffffffffff811115610a8657600080fd5b610a9285828601610950565b9150509250929050565b60008060408385031215610aaf57600080fd5b6000610abd8582860161097a565b9250506020610ace8582860161097a565b9150509250929050565b610ae181610c68565b82525050565b610af081610c7a565b82525050565b6000610b0182610c4c565b610b0b8185610c57565b9350610b1b818560208601610cc9565b610b2481610dbd565b840191505092915050565b610b3881610ca6565b82525050565b6000606082019050610b536000830186610ad8565b610b606020830185610b2f565b610b6d6040830184610ad8565b949350505050565b6000602082019050610b8a6000830184610ae7565b92915050565b60006020820190508181036000830152610baa8184610af6565b905092915050565b6000602082019050610bc76000830184610b2f565b92915050565b6000604082019050610be26000830185610b2f565b610bef6020830184610ad8565b9392505050565b6000610c00610c11565b9050610c0c8282610d2e565b919050565b6000604051905090565b600067ffffffffffffffff821115610c3657610c35610d8e565b5b610c3f82610dbd565b9050602081019050919050565b600081519050919050565b600082825260208201905092915050565b6000610c7382610c86565b9050919050565b60008115159050919050565b600073ffffffffffffffffffffffffffffffffffffffff82169050919050565b600067ffffffffffffffff82169050919050565b82818337600083830152505050565b60005b83811015610ce7578082015181840152602081019050610ccc565b83811115610cf6576000848401525b50505050565b60006002820490506001821680610d1457607f821691505b60208210811415610d2857610d27610d5f565b5b50919050565b610d3782610dbd565b810181811067ffffffffffffffff82111715610d5657610d55610d8e565b5b80604052505050565b7f4e487b7100000000000000000000000000000000000000000000000000000000600052602260045260246000fd5b7f4e487b7100000000000000000000000000000000000000000000000000000000600052604160045260246000fd5b6000601f19601f8301169050919050565b610dd781610c68565b8114610de257600080fd5b50565b610dee81610ca6565b8114610df957600080fd5b5056fea2646970667358221220d89647447a0c207a3b9d3f85ba2893887eab5eb731b1a095fde66f119a87d65d64736f6c63430008040033",
  "linkReferences": {},
  "deployedLinkReferences": {}
}